{
  "contractName": "AttriChain",
  "abi": [
    {
      "constant": true,
      "inputs": [],
      "name": "saveIng",
      "outputs": [
        {
          "name": "",
          "type": "string"
        }
      ],
      "payable": false,
      "stateMutability": "view",
      "type": "function"
    },
    {
      "constant": true,
      "inputs": [],
      "name": "saveStr",
      "outputs": [
        {
          "name": "",
          "type": "string"
        }
      ],
      "payable": false,
      "stateMutability": "view",
      "type": "function"
    },
    {
      "constant": true,
      "inputs": [],
      "name": "getStr",
      "outputs": [
        {
          "name": "",
          "type": "string"
        }
      ],
      "payable": false,
      "stateMutability": "view",
      "type": "function"
    },
    {
      "constant": false,
      "inputs": [
        {
          "name": "inputstr",
          "type": "string"
        }
      ],
      "name": "setStr",
      "outputs": [],
      "payable": false,
      "stateMutability": "nonpayable",
      "type": "function"
    },
    {
      "constant": false,
      "inputs": [
        {
          "name": "inputIng",
          "type": "string"
        }
      ],
      "name": "setString",
      "outputs": [],
      "payable": false,
      "stateMutability": "nonpayable",
      "type": "function"
    }
  ],
  "bytecode": "0x608060405234801561001057600080fd5b506105d7806100206000396000f30060806040526004361061006d576000357c0100000000000000000000000000000000000000000000000000000000900463ffffffff168063191347df146100725780637b39e1d9146100db5780637fcaf6661461016b578063b8c9e4ed146101d4578063ddd6b10914610264575b600080fd5b34801561007e57600080fd5b506100d9600480360381019080803590602001908201803590602001908080601f01602080910402602001604051908101604052809392919081815260200183838082843782019150505050505091929192905050506102f4565b005b3480156100e757600080fd5b506100f061030e565b6040518080602001828103825283818151815260200191508051906020019080838360005b83811015610130578082015181840152602081019050610115565b50505050905090810190601f16801561015d5780820380516001836020036101000a031916815260200191505b509250505060405180910390f35b34801561017757600080fd5b506101d2600480360381019080803590602001908201803590602001908080601f01602080910402602001604051908101604052809392919081815260200183838082843782019150505050505091929192905050506103ac565b005b3480156101e057600080fd5b506101e96103c6565b6040518080602001828103825283818151815260200191508051906020019080838360005b8381101561022957808201518184015260208101905061020e565b50505050905090810190601f1680156102565780820380516001836020036101000a031916815260200191505b509250505060405180910390f35b34801561027057600080fd5b50610279610468565b6040518080602001828103825283818151815260200191508051906020019080838360005b838110156102b957808201518184015260208101905061029e565b50505050905090810190601f1680156102e65780820380516001836020036101000a031916815260200191505b509250505060405180910390f35b806000908051906020019061030a929190610506565b5050565b60018054600181600116156101000203166002900480601f0160208091040260200160405190810160405280929190818152602001828054600181600116156101000203166002900480156103a45780601f10610379576101008083540402835291602001916103a4565b820191906000526020600020905b81548152906001019060200180831161038757829003601f168201915b505050505081565b80600190805190602001906103c2929190610506565b5050565b606060008054600181600116156101000203166002900480601f01602080910402602001604051908101604052809291908181526020018280546001816001161561010002031660029004801561045e5780601f106104335761010080835404028352916020019161045e565b820191906000526020600020905b81548152906001019060200180831161044157829003601f168201915b5050505050905090565b60008054600181600116156101000203166002900480601f0160208091040260200160405190810160405280929190818152602001828054600181600116156101000203166002900480156104fe5780601f106104d3576101008083540402835291602001916104fe565b820191906000526020600020905b8154815290600101906020018083116104e157829003601f168201915b505050505081565b828054600181600116156101000203166002900490600052602060002090601f016020900481019282601f1061054757805160ff1916838001178555610575565b82800160010185558215610575579182015b82811115610574578251825591602001919060010190610559565b5b5090506105829190610586565b5090565b6105a891905b808211156105a457600081600090555060010161058c565b5090565b905600a165627a7a72305820ad67bbfefb9a1c5647fe8915c170a9bcdf61c8c86b7c09a5fb347b38e1becba80029",
  "source": "pragma solidity >=0.4.2;\r\n\r\ncontract AttriChain{\r\n\r\n    string public saveStr;\r\n    string public saveIng;\r\n\r\n    function getStr() public view returns (string memory){\r\n        return saveStr;\r\n    }\r\n\r\n    function setStr(string memory inputstr) public {\r\n        saveStr = inputstr;\r\n    }\r\n\r\n    function setString(string memory inputIng) public {\r\n        saveIng = inputIng;\r\n    }\r\n}",
  "sourcePath": "D:\\Myproject\\AttriChain\\contracts\\AttriChain.sol",
  "compiler": {
    "name": "solc",
    "version": "0.4.23+commit.124ca40d.Emscripten.clang"
  },
  "schemaVersion": "2.0.0",
  "updatedAt": "2020-07-09T15:51:49.414Z"
}