{
  "contractName": "AttriChain_",
  "abi": [
    {
      "constant": true,
      "inputs": [
        {
          "name": "",
          "type": "uint256"
        }
      ],
      "name": "user_addr",
      "outputs": [
        {
          "name": "",
          "type": "address"
        }
      ],
      "payable": false,
      "stateMutability": "view",
      "type": "function"
    },
    {
      "constant": true,
      "inputs": [
        {
          "name": "",
          "type": "address"
        }
      ],
      "name": "pk",
      "outputs": [
        {
          "name": "",
          "type": "string"
        }
      ],
      "payable": false,
      "stateMutability": "view",
      "type": "function"
    },
    {
      "constant": true,
      "inputs": [
        {
          "name": "",
          "type": "uint256"
        }
      ],
      "name": "track_addr",
      "outputs": [
        {
          "name": "",
          "type": "address"
        }
      ],
      "payable": false,
      "stateMutability": "view",
      "type": "function"
    },
    {
      "constant": true,
      "inputs": [
        {
          "name": "",
          "type": "uint256"
        }
      ],
      "name": "attri_addr",
      "outputs": [
        {
          "name": "",
          "type": "address"
        }
      ],
      "payable": false,
      "stateMutability": "view",
      "type": "function"
    },
    {
      "inputs": [],
      "payable": false,
      "stateMutability": "nonpayable",
      "type": "constructor"
    },
    {
      "constant": false,
      "inputs": [
        {
          "name": "uid",
          "type": "uint256"
        },
        {
          "name": "alpha",
          "type": "string"
        }
      ],
      "name": "request",
      "outputs": [],
      "payable": false,
      "stateMutability": "nonpayable",
      "type": "function"
    }
  ],
  "bytecode": "0x608060405234801561001057600080fd5b507390f8bf6a479f320ead074411a4b0e7944ea8c9c16002600060018110151561003657fe5b0160006101000a81548173ffffffffffffffffffffffffffffffffffffffff021916908373ffffffffffffffffffffffffffffffffffffffff16021790555073ffcf8fdee72ac11b5c542428b35eef5769c409f06003600060028110151561009a57fe5b0160006101000a81548173ffffffffffffffffffffffffffffffffffffffff021916908373ffffffffffffffffffffffffffffffffffffffff1602179055507322d491bde2303f2f43325b2108d26f1eaba1e32b600360016002811015156100fe57fe5b0160006101000a81548173ffffffffffffffffffffffffffffffffffffffff021916908373ffffffffffffffffffffffffffffffffffffffff16021790555073e11ba2b4d45eaed5996cd0823791e0c93114882d6005600060038110151561016257fe5b0160006101000a81548173ffffffffffffffffffffffffffffffffffffffff021916908373ffffffffffffffffffffffffffffffffffffffff16021790555073d03ea8624c8c5987235048901fb614fdca89b117600560016003811015156101c657fe5b0160006101000a81548173ffffffffffffffffffffffffffffffffffffffff021916908373ffffffffffffffffffffffffffffffffffffffff1602179055507395ced938f7991cd0dfcb48f0a06a40fa1af46ebc6005600260038110151561022a57fe5b0160006101000a81548173ffffffffffffffffffffffffffffffffffffffff021916908373ffffffffffffffffffffffffffffffffffffffff160217905550610467806102786000396000f30060806040526004361061006d576000357c0100000000000000000000000000000000000000000000000000000000900463ffffffff1680631cd9fdf414610072578063797ba431146100df5780638163ba111461019b578063bd9eaf261461020e578063e01202f21461027b575b600080fd5b34801561007e57600080fd5b5061009d600480360381019080803590602001909291905050506102e8565b604051808273ffffffffffffffffffffffffffffffffffffffff1673ffffffffffffffffffffffffffffffffffffffff16815260200191505060405180910390f35b3480156100eb57600080fd5b50610120600480360381019080803573ffffffffffffffffffffffffffffffffffffffff16906020019092919050505061031d565b6040518080602001828103825283818151815260200191508051906020019080838360005b83811015610160578082015181840152602081019050610145565b50505050905090810190601f16801561018d5780820380516001836020036101000a031916815260200191505b509250505060405180910390f35b3480156101a757600080fd5b5061020c60048036038101908080359060200190929190803590602001908201803590602001908080601f01602080910402602001604051908101604052809392919081815260200183838082843782019150505050505091929192905050506103cd565b005b34801561021a57600080fd5b50610239600480360381019080803590602001909291905050506103d1565b604051808273ffffffffffffffffffffffffffffffffffffffff1673ffffffffffffffffffffffffffffffffffffffff16815260200191505060405180910390f35b34801561028757600080fd5b506102a660048036038101908080359060200190929190505050610406565b604051808273ffffffffffffffffffffffffffffffffffffffff1673ffffffffffffffffffffffffffffffffffffffff16815260200191505060405180910390f35b6002816001811015156102f757fe5b016000915054906101000a900473ffffffffffffffffffffffffffffffffffffffff1681565b60006020528060005260406000206000915090508054600181600116156101000203166002900480601f0160208091040260200160405190810160405280929190818152602001828054600181600116156101000203166002900480156103c55780601f1061039a576101008083540402835291602001916103c5565b820191906000526020600020905b8154815290600101906020018083116103a857829003601f168201915b505050505081565b5050565b6005816003811015156103e057fe5b016000915054906101000a900473ffffffffffffffffffffffffffffffffffffffff1681565b60038160028110151561041557fe5b016000915054906101000a900473ffffffffffffffffffffffffffffffffffffffff16815600a165627a7a72305820ca9d6a040fb97b3a4642b3a3563fa0f4e1d23fdaf30c022fe2fc6d4369bfbb110029",
  "source": "// This file is MIT Licensed.\n//\n// Copyright 2020 xu yunkai\n\npragma solidity >=0.4.2;\n\nimport \"./nizk/LibNizk.sol\";\nimport \"./dtbe/LibDTBE.sol\";\nimport \"./utillib/Pairing.sol\";\n\ncontract AttriChain_{\n\n    using Schnorr for *;\n    using LibDTBE for *;\n    using Pairing for *;\n\n    mapping(address => string) public pk;\n    mapping(address => string) sk;\n\n    address[1] public user_addr;\n    address[2] public attri_addr;\n    address[3] public track_addr;\n\n    constructor() public{\n        user_addr[0] = 0x90F8bf6A479f320ead074411a4B0e7944Ea8c9C1;\n        attri_addr[0] = 0xFFcf8FDEE72ac11b5c542428B35EEF5769C409f0;\n        attri_addr[1] = 0x22d491Bde2303f2f43325b2108D26f1eAbA1e32b;\n        track_addr[0] = 0xE11BA2b4D45Eaed5996Cd0823791E0C93114882d;\n        track_addr[1] = 0xd03ea8624C8C5987235048901fB614fDcA89b117;\n        track_addr[2] = 0x95cED938F7991cd0dFcb48F0a06a40FA1aF46EBC;\n\n\n    }\n\n    function request(uint uid, string memory alpha) public {\n\n    }\n\n    function authentication(uint uid, string memory alpha) internal returns(string memory) {\n        \n    }\n}\n",
  "sourcePath": "/home/ubuntu/ethereum/AttriChain/contracts/AttriChain_.sol",
  "compiler": {
    "name": "solc",
    "version": "0.4.23+commit.124ca40d.Emscripten.clang"
  },
  "schemaVersion": "2.0.0",
  "updatedAt": "2020-07-14T09:01:21.222Z"
}