{
  "contractName": "AttriChain",
  "abi": [
    {
      "constant": true,
      "inputs": [],
      "name": "Ce",
      "outputs": [
        {
          "name": "",
          "type": "string"
        }
      ],
      "payable": false,
      "stateMutability": "view",
      "type": "function"
    },
    {
      "constant": true,
      "inputs": [
        {
          "name": "",
          "type": "uint256"
        }
      ],
      "name": "V",
      "outputs": [
        {
          "name": "",
          "type": "string"
        }
      ],
      "payable": false,
      "stateMutability": "view",
      "type": "function"
    },
    {
      "inputs": [],
      "payable": false,
      "stateMutability": "nonpayable",
      "type": "constructor"
    },
    {
      "constant": true,
      "inputs": [],
      "name": "getCe",
      "outputs": [
        {
          "name": "",
          "type": "string"
        }
      ],
      "payable": false,
      "stateMutability": "view",
      "type": "function"
    },
    {
      "constant": false,
      "inputs": [
        {
          "name": "str",
          "type": "string"
        }
      ],
      "name": "setCe",
      "outputs": [],
      "payable": false,
      "stateMutability": "nonpayable",
      "type": "function"
    },
    {
      "constant": true,
      "inputs": [
        {
          "name": "i",
          "type": "uint256"
        }
      ],
      "name": "getVi",
      "outputs": [
        {
          "name": "",
          "type": "string"
        }
      ],
      "payable": false,
      "stateMutability": "view",
      "type": "function"
    },
    {
      "constant": false,
      "inputs": [
        {
          "name": "vi",
          "type": "string"
        },
        {
          "name": "i",
          "type": "uint256"
        }
      ],
      "name": "setVi",
      "outputs": [],
      "payable": false,
      "stateMutability": "nonpayable",
      "type": "function"
    }
  ],
  "bytecode": "0x608060405234801561001057600080fd5b50600360405190808252806020026020018201604052801561004657816020015b60608152602001906001900390816100315790505b506001908051906020019061005c929190610062565b506101db565b8280548282559060005260206000209081019282156100b1579160200282015b828111156100b05782518290805190602001906100a09291906100c2565b5091602001919060010190610082565b5b5090506100be9190610142565b5090565b828054600181600116156101000203166002900490600052602060002090601f016020900481019282601f1061010357805160ff1916838001178555610131565b82800160010185558215610131579182015b82811115610130578251825591602001919060010190610115565b5b50905061013e919061016e565b5090565b61016b91905b80821115610167576000818161015e9190610193565b50600101610148565b5090565b90565b61019091905b8082111561018c576000816000905550600101610174565b5090565b90565b50805460018160011615610100020316600290046000825580601f106101b957506101d8565b601f0160209004906000526020600020908101906101d7919061016e565b5b50565b610798806101ea6000396000f300608060405260043610610078576000357c0100000000000000000000000000000000000000000000000000000000900463ffffffff1680634b9540f11461007d5780634cab462e1461010d57806376cf132b146101b357806386b36fa114610259578063f02c66ea146102e9578063f44c6ded14610352575b600080fd5b34801561008957600080fd5b506100926103c5565b6040518080602001828103825283818151815260200191508051906020019080838360005b838110156100d25780820151818401526020810190506100b7565b50505050905090810190601f1680156100ff5780820380516001836020036101000a031916815260200191505b509250505060405180910390f35b34801561011957600080fd5b5061013860048036038101908080359060200190929190505050610463565b6040518080602001828103825283818151815260200191508051906020019080838360005b8381101561017857808201518184015260208101905061015d565b50505050905090810190601f1680156101a55780820380516001836020036101000a031916815260200191505b509250505060405180910390f35b3480156101bf57600080fd5b506101de6004803603810190808035906020019092919050505061051e565b6040518080602001828103825283818151815260200191508051906020019080838360005b8381101561021e578082015181840152602081019050610203565b50505050905090810190601f16801561024b5780820380516001836020036101000a031916815260200191505b509250505060405180910390f35b34801561026557600080fd5b5061026e6105d9565b6040518080602001828103825283818151815260200191508051906020019080838360005b838110156102ae578082015181840152602081019050610293565b50505050905090810190601f1680156102db5780820380516001836020036101000a031916815260200191505b509250505060405180910390f35b3480156102f557600080fd5b50610350600480360381019080803590602001908201803590602001908080601f016020809104026020016040519081016040528093929190818152602001838380828437820191505050505050919291929050505061067b565b005b34801561035e57600080fd5b506103c3600480360381019080803590602001908201803590602001908080601f016020809104026020016040519081016040528093929190818152602001838380828437820191505050505050919291929080359060200190929190505050610695565b005b60008054600181600116156101000203166002900480601f01602080910402602001604051908101604052809291908181526020018280546001816001161561010002031660029004801561045b5780601f106104305761010080835404028352916020019161045b565b820191906000526020600020905b81548152906001019060200180831161043e57829003601f168201915b505050505081565b606060018281548110151561047457fe5b906000526020600020018054600181600116156101000203166002900480601f0160208091040260200160405190810160405280929190818152602001828054600181600116156101000203166002900480156105125780601f106104e757610100808354040283529160200191610512565b820191906000526020600020905b8154815290600101906020018083116104f557829003601f168201915b50505050509050919050565b60018181548110151561052d57fe5b906000526020600020016000915090508054600181600116156101000203166002900480601f0160208091040260200160405190810160405280929190818152602001828054600181600116156101000203166002900480156105d15780601f106105a6576101008083540402835291602001916105d1565b820191906000526020600020905b8154815290600101906020018083116105b457829003601f168201915b505050505081565b606060008054600181600116156101000203166002900480601f0160208091040260200160405190810160405280929190818152602001828054600181600116156101000203166002900480156106715780601f1061064657610100808354040283529160200191610671565b820191906000526020600020905b81548152906001019060200180831161065457829003601f168201915b5050505050905090565b80600090805190602001906106919291906106c7565b5050565b816001828154811015156106a557fe5b9060005260206000200190805190602001906106c29291906106c7565b505050565b828054600181600116156101000203166002900490600052602060002090601f016020900481019282601f1061070857805160ff1916838001178555610736565b82800160010185558215610736579182015b8281111561073557825182559160200191906001019061071a565b5b5090506107439190610747565b5090565b61076991905b8082111561076557600081600090555060010161074d565b5090565b905600a165627a7a7230582055f4537593bb8b188ce3dc6d9dc51ef3fcd8928bfcb0559038645f6763d4c81d0029",
  "source": "pragma solidity >=0.4.2;\n\ncontract AttriChain{\n\n    string public Ce;\n    string[] public V;\n\n    constructor() public {\n        V = new string[](3);\n    }\n\n    function getCe() public view returns (string memory){\n        return Ce;\n    }\n\n    function setCe(string memory str) public {\n        Ce = str;\n    }\n\n    function getVi(uint i) public view returns(string memory){\n        return V[i];\n    }\n\n    function setVi(string memory vi, uint i) public {\n        V[i] = vi;\n    }\n}",
  "sourcePath": "/home/ubuntu/ethereum/AttriChain/contracts/AttriChain.sol",
  "compiler": {
    "name": "solc",
    "version": "0.4.23+commit.124ca40d.Emscripten.clang"
  },
  "schemaVersion": "2.0.0",
  "updatedAt": "2020-07-11T17:44:53.342Z"
}