{
  "contractName": "ChainInit",
  "abi": [
    {
      "constant": true,
      "inputs": [
        {
          "name": "",
          "type": "uint256"
        }
      ],
      "name": "user_addr",
      "outputs": [
        {
          "name": "",
          "type": "address"
        }
      ],
      "payable": false,
      "stateMutability": "view",
      "type": "function"
    },
    {
      "constant": true,
      "inputs": [
        {
          "name": "",
          "type": "address"
        }
      ],
      "name": "pubKey",
      "outputs": [
        {
          "name": "",
          "type": "string"
        }
      ],
      "payable": false,
      "stateMutability": "view",
      "type": "function"
    },
    {
      "constant": true,
      "inputs": [],
      "name": "crs",
      "outputs": [
        {
          "name": "",
          "type": "string"
        }
      ],
      "payable": false,
      "stateMutability": "view",
      "type": "function"
    },
    {
      "constant": true,
      "inputs": [],
      "name": "attriNum",
      "outputs": [
        {
          "name": "",
          "type": "uint256"
        }
      ],
      "payable": false,
      "stateMutability": "view",
      "type": "function"
    },
    {
      "constant": true,
      "inputs": [
        {
          "name": "",
          "type": "address"
        }
      ],
      "name": "accountType",
      "outputs": [
        {
          "name": "",
          "type": "string"
        }
      ],
      "payable": false,
      "stateMutability": "view",
      "type": "function"
    },
    {
      "constant": true,
      "inputs": [],
      "name": "userNum",
      "outputs": [
        {
          "name": "",
          "type": "uint256"
        }
      ],
      "payable": false,
      "stateMutability": "view",
      "type": "function"
    },
    {
      "constant": true,
      "inputs": [
        {
          "name": "",
          "type": "uint256"
        }
      ],
      "name": "track_addr",
      "outputs": [
        {
          "name": "",
          "type": "address"
        }
      ],
      "payable": false,
      "stateMutability": "view",
      "type": "function"
    },
    {
      "constant": true,
      "inputs": [],
      "name": "trackNum",
      "outputs": [
        {
          "name": "",
          "type": "uint256"
        }
      ],
      "payable": false,
      "stateMutability": "view",
      "type": "function"
    },
    {
      "constant": true,
      "inputs": [
        {
          "name": "",
          "type": "uint256"
        }
      ],
      "name": "attri_addr",
      "outputs": [
        {
          "name": "",
          "type": "address"
        }
      ],
      "payable": false,
      "stateMutability": "view",
      "type": "function"
    },
    {
      "inputs": [],
      "payable": false,
      "stateMutability": "nonpayable",
      "type": "constructor"
    },
    {
      "anonymous": false,
      "inputs": [
        {
          "indexed": true,
          "name": "_from",
          "type": "address"
        },
        {
          "indexed": false,
          "name": "_info",
          "type": "string"
        }
      ],
      "name": "log",
      "type": "event"
    },
    {
      "constant": false,
      "inputs": [
        {
          "name": "uid",
          "type": "uint256"
        },
        {
          "name": "usk",
          "type": "string"
        },
        {
          "name": "psk",
          "type": "string"
        }
      ],
      "name": "userInit",
      "outputs": [],
      "payable": false,
      "stateMutability": "nonpayable",
      "type": "function"
    },
    {
      "constant": false,
      "inputs": [
        {
          "name": "aid",
          "type": "uint256"
        },
        {
          "name": "usk",
          "type": "string"
        },
        {
          "name": "psk",
          "type": "string"
        }
      ],
      "name": "attriInit",
      "outputs": [],
      "payable": false,
      "stateMutability": "nonpayable",
      "type": "function"
    },
    {
      "constant": false,
      "inputs": [],
      "name": "helloWorld",
      "outputs": [
        {
          "name": "",
          "type": "string"
        }
      ],
      "payable": false,
      "stateMutability": "nonpayable",
      "type": "function"
    }
  ],
  "bytecode": "0x608060405260016009556002600a556003600b553480156200002057600080fd5b5060007390f8bf6a479f320ead074411a4b0e7944ea8c9c1600360006001811015156200004957fe5b0160006101000a81548173ffffffffffffffffffffffffffffffffffffffff021916908373ffffffffffffffffffffffffffffffffffffffff16021790555073ffcf8fdee72ac11b5c542428b35eef5769c409f060046000600281101515620000ae57fe5b0160006101000a81548173ffffffffffffffffffffffffffffffffffffffff021916908373ffffffffffffffffffffffffffffffffffffffff1602179055507322d491bde2303f2f43325b2108d26f1eaba1e32b600460016002811015156200011357fe5b0160006101000a81548173ffffffffffffffffffffffffffffffffffffffff021916908373ffffffffffffffffffffffffffffffffffffffff16021790555073e11ba2b4d45eaed5996cd0823791e0c93114882d600660006003811015156200017857fe5b0160006101000a81548173ffffffffffffffffffffffffffffffffffffffff021916908373ffffffffffffffffffffffffffffffffffffffff16021790555073d03ea8624c8c5987235048901fb614fdca89b11760066001600381101515620001dd57fe5b0160006101000a81548173ffffffffffffffffffffffffffffffffffffffff021916908373ffffffffffffffffffffffffffffffffffffffff1602179055507395ced938f7991cd0dfcb48f0a06a40fa1af46ebc600660026003811015156200024257fe5b0160006101000a81548173ffffffffffffffffffffffffffffffffffffffff021916908373ffffffffffffffffffffffffffffffffffffffff160217905550600090505b6009548110156200035a576040805190810160405280600481526020017f7573657200000000000000000000000000000000000000000000000000000000815250600080600384600181101515620002da57fe5b0160009054906101000a900473ffffffffffffffffffffffffffffffffffffffff1673ffffffffffffffffffffffffffffffffffffffff1673ffffffffffffffffffffffffffffffffffffffff16815260200190815260200160002090805190602001906200034b92919062000951565b50808060010191505062000286565b600090505b600a5481101562000433576040805190810160405280600581526020017f6174747269000000000000000000000000000000000000000000000000000000815250600080600484600281101515620003b357fe5b0160009054906101000a900473ffffffffffffffffffffffffffffffffffffffff1673ffffffffffffffffffffffffffffffffffffffff1673ffffffffffffffffffffffffffffffffffffffff16815260200190815260200160002090805190602001906200042492919062000951565b5080806001019150506200035f565b600090505b600b548110156200050c576040805190810160405280600581526020017f747261636b0000000000000000000000000000000000000000000000000000008152506000806006846003811015156200048c57fe5b0160009054906101000a900473ffffffffffffffffffffffffffffffffffffffff1673ffffffffffffffffffffffffffffffffffffffff1673ffffffffffffffffffffffffffffffffffffffff1681526020019081526020016000209080519060200190620004fd92919062000951565b50808060010191505062000438565b6200052a620005496401000000000262000cbb176401000000009004565b600c90805190602001906200054192919062000951565b505062000a00565b60608060006060600080600060606000606060405190810160405280603081526020017f5b3639643938643661303463343162343630356161636237626432663734626581526020017f655d5b31306e697a6b5f73657475705d000000000000000000000000000000008152509750620e01009650866040519080825280601f01601f191660200182016040528015620005f25781602001602082028038833980820191505090505b509550602086019450620006736040805190810160405280600181526020017f7c000000000000000000000000000000000000000000000000000000000000008152506200065487620006c16401000000000262000e0a176401000000009004565b8a620008256401000000000262000f6317909291906401000000009004565b97508751925060208801945082852093506020604051908101604052806000815250915083600190049050600081141515620006b257819850620006b6565b8598505b505050505050505090565b60606000806000808514156200070f576040805190810160405280600181526020017f300000000000000000000000000000000000000000000000000000000000000081525093506200081d565b600092508491505b60008211156200073f57600a828115156200072e57fe5b049150828060010193505062000717565b8260ff166040519080825280601f01601f191660200182016040528015620007765781602001602082028038833980820191505090505b5093506001830390505b60008511156200081c576030600a868115156200079957fe5b06017f01000000000000000000000000000000000000000000000000000000000000000284828060019003935060ff16815181101515620007d657fe5b9060200101907effffffffffffffffffffffffffffffffffffffffffffffffffffffffffffff1916908160001a905350600a858115156200081357fe5b04945062000780565b5b505050919050565b60606000806000806000865188518a5101016040519080825280601f01601f1916602001820160405280156200086a5781602001602082028038833980820191505090505b50955060208901945060208801935060208701925060208601915060009050620008a8818301868b5162000904640100000000026401000000009004565b885181019050620008cd818301858a5162000904640100000000026401000000009004565b875181019050620008f281830184895162000904640100000000026401000000009004565b86518101905050505050509392505050565b60005b6020821015156200092e578251845260208401935060208301925060208203915062000907565b6001826020036101000a0390508019835116818551168181178652505050505050565b828054600181600116156101000203166002900490600052602060002090601f016020900481019282601f106200099457805160ff1916838001178555620009c5565b82800160010185558215620009c5579182015b82811115620009c4578251825591602001919060010190620009a7565b5b509050620009d49190620009d8565b5090565b620009fd91905b80821115620009f9576000816000905550600101620009df565b5090565b90565b6110858062000a106000396000f3006080604052600436106100ba576000357c0100000000000000000000000000000000000000000000000000000000900463ffffffff1680631cd9fdf4146100bf5780631f8e8f5e1461012c5780638a591369146101e857806396364d6d14610278578063b6871ab314610331578063ba99af701461035c578063bbfc5d6e14610418578063bd9eaf2614610443578063c605f76c146104b0578063c73ad3fe14610540578063cff4f0901461056b578063e01202f214610624575b600080fd5b3480156100cb57600080fd5b506100ea60048036038101908080359060200190929190505050610691565b604051808273ffffffffffffffffffffffffffffffffffffffff1673ffffffffffffffffffffffffffffffffffffffff16815260200191505060405180910390f35b34801561013857600080fd5b5061016d600480360381019080803573ffffffffffffffffffffffffffffffffffffffff1690602001909291905050506106c6565b6040518080602001828103825283818151815260200191508051906020019080838360005b838110156101ad578082015181840152602081019050610192565b50505050905090810190601f1680156101da5780820380516001836020036101000a031916815260200191505b509250505060405180910390f35b3480156101f457600080fd5b506101fd610776565b6040518080602001828103825283818151815260200191508051906020019080838360005b8381101561023d578082015181840152602081019050610222565b50505050905090810190601f16801561026a5780820380516001836020036101000a031916815260200191505b509250505060405180910390f35b34801561028457600080fd5b5061032f60048036038101908080359060200190929190803590602001908201803590602001908080601f0160208091040260200160405190810160405280939291908181526020018383808284378201915050505050509192919290803590602001908201803590602001908080601f0160208091040260200160405190810160405280939291908181526020018383808284378201915050505050509192919290505050610814565b005b34801561033d57600080fd5b50610346610921565b6040518082815260200191505060405180910390f35b34801561036857600080fd5b5061039d600480360381019080803573ffffffffffffffffffffffffffffffffffffffff169060200190929190505050610927565b6040518080602001828103825283818151815260200191508051906020019080838360005b838110156103dd5780820151818401526020810190506103c2565b50505050905090810190601f16801561040a5780820380516001836020036101000a031916815260200191505b509250505060405180910390f35b34801561042457600080fd5b5061042d6109d7565b6040518082815260200191505060405180910390f35b34801561044f57600080fd5b5061046e600480360381019080803590602001909291905050506109dd565b604051808273ffffffffffffffffffffffffffffffffffffffff1673ffffffffffffffffffffffffffffffffffffffff16815260200191505060405180910390f35b3480156104bc57600080fd5b506104c5610a12565b6040518080602001828103825283818151815260200191508051906020019080838360005b838110156105055780820151818401526020810190506104ea565b50505050905090810190601f1680156105325780820380516001836020036101000a031916815260200191505b509250505060405180910390f35b34801561054c57600080fd5b50610555610ace565b6040518082815260200191505060405180910390f35b34801561057757600080fd5b5061062260048036038101908080359060200190929190803590602001908201803590602001908080601f0160208091040260200160405190810160405280939291908181526020018383808284378201915050505050509192919290803590602001908201803590602001908080601f0160208091040260200160405190810160405280939291908181526020018383808284378201915050505050509192919290505050610ad4565b005b34801561063057600080fd5b5061064f60048036038101908080359060200190929190505050610be1565b604051808273ffffffffffffffffffffffffffffffffffffffff1673ffffffffffffffffffffffffffffffffffffffff16815260200191505060405180910390f35b6003816001811015156106a057fe5b016000915054906101000a900473ffffffffffffffffffffffffffffffffffffffff1681565b60016020528060005260406000206000915090508054600181600116156101000203166002900480601f01602080910402602001604051908101604052809291908181526020018280546001816001161561010002031660029004801561076e5780601f106107435761010080835404028352916020019161076e565b820191906000526020600020905b81548152906001019060200180831161075157829003601f168201915b505050505081565b600c8054600181600116156101000203166002900480601f01602080910402602001604051908101604052809291908181526020018280546001816001161561010002031660029004801561080c5780601f106107e15761010080835404028352916020019161080c565b820191906000526020600020905b8154815290600101906020018083116107ef57829003601f168201915b505050505081565b806001600060048660028110151561082857fe5b0160009054906101000a900473ffffffffffffffffffffffffffffffffffffffff1673ffffffffffffffffffffffffffffffffffffffff1673ffffffffffffffffffffffffffffffffffffffff1681526020019081526020016000209080519060200190610897929190610c16565b5081600260006004866002811015156108ac57fe5b0160009054906101000a900473ffffffffffffffffffffffffffffffffffffffff1673ffffffffffffffffffffffffffffffffffffffff1673ffffffffffffffffffffffffffffffffffffffff168152602001908152602001600020908051906020019061091b929190610c16565b50505050565b600a5481565b60006020528060005260406000206000915090508054600181600116156101000203166002900480601f0160208091040260200160405190810160405280929190818152602001828054600181600116156101000203166002900480156109cf5780601f106109a4576101008083540402835291602001916109cf565b820191906000526020600020905b8154815290600101906020018083116109b257829003601f168201915b505050505081565b60095481565b6006816003811015156109ec57fe5b016000915054906101000a900473ffffffffffffffffffffffffffffffffffffffff1681565b60603373ffffffffffffffffffffffffffffffffffffffff167f759f86bbdd0758679ecefbd32ea620068b2339dddd9e45ee0fa567ee6c81f0ab60405180806020018281038252600b8152602001807f68656c6c6f576f726c642100000000000000000000000000000000000000000081525060200191505060405180910390a26040805190810160405280600b81526020017f68656c6c6f776f726c6421000000000000000000000000000000000000000000815250905090565b600b5481565b8060016000600386600181101515610ae857fe5b0160009054906101000a900473ffffffffffffffffffffffffffffffffffffffff1673ffffffffffffffffffffffffffffffffffffffff1673ffffffffffffffffffffffffffffffffffffffff1681526020019081526020016000209080519060200190610b57929190610c16565b508160026000600386600181101515610b6c57fe5b0160009054906101000a900473ffffffffffffffffffffffffffffffffffffffff1673ffffffffffffffffffffffffffffffffffffffff1673ffffffffffffffffffffffffffffffffffffffff1681526020019081526020016000209080519060200190610bdb929190610c16565b50505050565b600481600281101515610bf057fe5b016000915054906101000a900473ffffffffffffffffffffffffffffffffffffffff1681565b828054600181600116156101000203166002900490600052602060002090601f016020900481019282601f10610c5757805160ff1916838001178555610c85565b82800160010185558215610c85579182015b82811115610c84578251825591602001919060010190610c69565b5b509050610c929190610c96565b5090565b610cb891905b80821115610cb4576000816000905550600101610c9c565b5090565b90565b60608060006060600080600060606000606060405190810160405280603081526020017f5b3639643938643661303463343162343630356161636237626432663734626581526020017f655d5b31306e697a6b5f73657475705d000000000000000000000000000000008152509750620e01009650866040519080825280601f01601f191660200182016040528015610d635781602001602082028038833980820191505090505b509550602086019450610dbe6040805190810160405280600181526020017f7c00000000000000000000000000000000000000000000000000000000000000815250610dae87610e0a565b8a610f639092919063ffffffff16565b97508751925060208801945082852093506020604051908101604052806000815250915083600190049050600081141515610dfb57819850610dff565b8598505b505050505050505090565b6060600080600080851415610e56576040805190810160405280600181526020017f30000000000000000000000000000000000000000000000000000000000000008152509350610f5b565b600092508491505b6000821115610e8357600a82811515610e7357fe5b0491508280600101935050610e5e565b8260ff166040519080825280601f01601f191660200182016040528015610eb95781602001602082028038833980820191505090505b5093506001830390505b6000851115610f5a576030600a86811515610eda57fe5b06017f01000000000000000000000000000000000000000000000000000000000000000284828060019003935060ff16815181101515610f1657fe5b9060200101907effffffffffffffffffffffffffffffffffffffffffffffffffffffffffffff1916908160001a905350600a85811515610f5257fe5b049450610ec3565b5b505050919050565b60606000806000806000865188518a5101016040519080825280601f01601f191660200182016040528015610fa75781602001602082028038833980820191505090505b50955060208901945060208801935060208701925060208601915060009050610fd4818301868b5161100e565b885181019050610fe8818301858a5161100e565b875181019050610ffc81830184895161100e565b86518101905050505050509392505050565b60005b6020821015156110365782518452602084019350602083019250602082039150611011565b6001826020036101000a03905080198351168185511681811786525050505050505600a165627a7a723058207bf42d7a4885dc3e7ce4785f09ab122a458a84fa971f9d10dc9076116b3415080029",
  "source": "pragma solidity >=0.4.2;\n\nimport \"./nizk/LibNIZK.sol\";\nimport \"./dtbe/LibDTBE.sol\";\n\ncontract ChainInit {\n    using LibNIZK for *;\n    using LibDTBE for *;\n\n    mapping(address => string) public accountType;\n    mapping(address => string) public pubKey;\n    mapping(address => string) priKey;\n\n    address[1] public user_addr;\n    address[2] public attri_addr;\n    address[3] public track_addr;\n\n    uint public userNum = 1;\n    uint public attriNum = 2;\n    uint public trackNum = 3;\n\n    string public crs;\n    LibDTBE.PK epk;\n    LibDTBE.SK[] esk;\n    LibDTBE.SVK[] esvk;\n\n    event log(address indexed _from, string _info);\n\n    constructor() public {\n        user_addr[0] = 0x90F8bf6A479f320ead074411a4B0e7944Ea8c9C1;\n        attri_addr[0] = 0xFFcf8FDEE72ac11b5c542428B35EEF5769C409f0;\n        attri_addr[1] = 0x22d491Bde2303f2f43325b2108D26f1eAbA1e32b;\n        track_addr[0] = 0xE11BA2b4D45Eaed5996Cd0823791E0C93114882d;\n        track_addr[1] = 0xd03ea8624C8C5987235048901fB614fDcA89b117;\n        track_addr[2] = 0x95cED938F7991cd0dFcb48F0a06a40FA1aF46EBC;\n\n        for (uint i = 0; i < userNum; i++){\n            accountType[user_addr[i]] = 'user';\n        }\n        for (i = 0; i < attriNum; i++){\n            accountType[attri_addr[i]] = 'attri';\n        }\n        for (i = 0; i < trackNum; i++){\n            accountType[track_addr[i]] = 'track';\n        }\n\n        // 全局初始化\n        crs = LibNIZK.nizk_setup();\n        // (epk, esk, esvk) = LibDTBE.KeyGen(trackNum);\n\n        // 用户初始化，python web3完成\n\n        // 属性机构初始化，python web3完成\n\n        // 追踪机构初始化\n        // for (i = 0; i<3; i++){\n        //     priKey[track_addr[i]] = esk[i];\n        // }\n    }\n\n    // 用户初始化函数\n    function userInit(uint uid, string memory usk, string memory psk) public {\n        pubKey[user_addr[uid]] = psk;\n        priKey[user_addr[uid]] = usk;\n    }\n\n    // 属性机构初始化函数\n    function attriInit(uint aid, string memory usk, string memory psk) public {\n        pubKey[attri_addr[aid]] = psk;\n        priKey[attri_addr[aid]] = usk;\n    }\n\n    function helloWorld() public returns (string){\n        emit log(msg.sender, \"helloWorld!\");\n        return 'helloworld!';\n    }\n}\n",
  "sourcePath": "/home/ubuntu/ethereum/AttriChain/contracts/ChainInit.sol",
  "compiler": {
    "name": "solc",
    "version": "0.4.23+commit.124ca40d.Emscripten.clang"
  },
  "schemaVersion": "2.0.0",
  "updatedAt": "2020-07-11T18:10:23.577Z"
}