{
  "contractName": "ECopsG2",
  "abi": [
    {
      "constant": true,
      "inputs": [
        {
          "name": "pt1xx",
          "type": "uint256"
        },
        {
          "name": "pt1xy",
          "type": "uint256"
        },
        {
          "name": "pt1yx",
          "type": "uint256"
        },
        {
          "name": "pt1yy",
          "type": "uint256"
        },
        {
          "name": "pt2xx",
          "type": "uint256"
        },
        {
          "name": "pt2xy",
          "type": "uint256"
        },
        {
          "name": "pt2yx",
          "type": "uint256"
        },
        {
          "name": "pt2yy",
          "type": "uint256"
        }
      ],
      "name": "ECTwistAdd",
      "outputs": [
        {
          "name": "",
          "type": "uint256"
        },
        {
          "name": "",
          "type": "uint256"
        },
        {
          "name": "",
          "type": "uint256"
        },
        {
          "name": "",
          "type": "uint256"
        }
      ],
      "payable": false,
      "stateMutability": "view",
      "type": "function"
    },
    {
      "constant": true,
      "inputs": [
        {
          "name": "pt1xx",
          "type": "uint256"
        },
        {
          "name": "pt1xy",
          "type": "uint256"
        },
        {
          "name": "pt1yx",
          "type": "uint256"
        },
        {
          "name": "pt1yy",
          "type": "uint256"
        },
        {
          "name": "s",
          "type": "uint256"
        }
      ],
      "name": "ECTwistMul",
      "outputs": [
        {
          "name": "",
          "type": "uint256"
        },
        {
          "name": "",
          "type": "uint256"
        },
        {
          "name": "",
          "type": "uint256"
        },
        {
          "name": "",
          "type": "uint256"
        }
      ],
      "payable": false,
      "stateMutability": "view",
      "type": "function"
    },
    {
      "constant": true,
      "inputs": [],
      "name": "GetFieldModulus",
      "outputs": [
        {
          "name": "",
          "type": "uint256"
        }
      ],
      "payable": false,
      "stateMutability": "pure",
      "type": "function"
    }
  ],
  "bytecode": "0x611266610030600b82828239805160001a6073146000811461002057610022565bfe5b5030600052607381538281f300730000000000000000000000000000000000000000301460806040526004361061006e576000357c0100000000000000000000000000000000000000000000000000000000900463ffffffff16806355a3e90f1461007357806361a931ec14610091578063b73ab75d14610120575b600080fd5b61007b610191565b6040518082815260200191505060405180910390f35b6100f560048036038101908080359060200190929190803590602001909291908035906020019092919080359060200190929190803590602001909291908035906020019092919080359060200190929190803590602001909291905050506101b9565b6040518085815260200184815260200183815260200182815260200194505050505060405180910390f35b6101666004803603810190808035906020019092919080359060200190929190803590602001909291908035906020019092919080359060200190929190505050610375565b6040518085815260200184815260200183815260200182815260200194505050505060405180910390f35b60007f30644e72e131a029b85045b68181585d97816a916871ca8d3c208c16d87cfd47905090565b6000806000806101c7611217565b60008d1480156101d7575060008c145b80156101e3575060008b145b80156101ef575060008a145b15610248576000891480156102045750600088145b80156102105750600087145b801561021c5750600086145b15156102375761022e89898989610484565b151561023657fe5b5b888888889450945094509450610365565b6000891480156102585750600088145b80156102645750600087145b80156102705750600086145b1561029a576102818d8d8d8d610484565b151561028957fe5b8c8c8c8c9450945094509450610365565b6102a68d8d8d8d610484565b15156102ae57fe5b6102ba89898989610484565b15156102c257fe5b6102da8d8d8d8d600160008f8f8f8f6001600061054d565b905061035c8160006006811015156102ee57fe5b602002015182600160068110151561030257fe5b602002015183600260068110151561031657fe5b602002015184600360068110151561032a57fe5b602002015185600460068110151561033e57fe5b602002015186600560068110151561035257fe5b6020020151610b9d565b94509450945094505b5098509850985098945050505050565b6000806000806000610385611217565b6001915060008b148015610399575060008a145b80156103a55750600089145b80156103b15750600088145b156103c75760019a5060019850600091506103dc565b6103d38b8b8b8b610484565b15156103db57fe5b5b6103ec878c8c8c8c876000610bef565b905061046e81600060068110151561040057fe5b602002015182600160068110151561041457fe5b602002015183600260068110151561042857fe5b602002015184600360068110151561043c57fe5b602002015185600460068110151561045057fe5b602002015186600560068110151561046457fe5b6020020151610b9d565b9550955095509550505095509550955095915050565b600080600080600061049887878989610cdd565b80945081955050506104ac89898b8b610cdd565b80925081935050506104c082828b8b610cdd565b80925081935050506104d484848484610df5565b809450819550505061052784847f2b149d40ceb8aaae81be18991be06ac3b5b4c5e559dbefa33267e6dc24a138e57e9713b03af0fed4cd2cafadeed8fdf4a74fa084e52d1852e4a2bd0685c315d2610df5565b809450819550505060008414801561053f5750600083145b945050505050949350505050565b610555611217565b6000891480156105655750600088145b156106085786868686868686600060068110151561057f57fe5b6020020187600160068110151561059257fe5b602002018860026006811015156105a557fe5b602002018960036006811015156105b857fe5b602002018a60046006811015156105cb57fe5b602002018b60056006811015156105de57fe5b60200201868152508681525086815250868152508681525086815250505050505050809050610b8d565b6000831480156106185750600082145b156106bb578c8c8c8c8c8c86600060068110151561063257fe5b6020020187600160068110151561064557fe5b6020020188600260068110151561065857fe5b6020020189600360068110151561066b57fe5b602002018a600460068110151561067e57fe5b602002018b600560068110151561069157fe5b60200201868152508681525086815250868152508681525086815250505050505050809050610b8d565b6106c785858b8b610cdd565b80955081965050506106db8b8b8585610cdd565b8260026006811015156106ea57fe5b602002018360036006811015156106fd57fe5b602002018281525082815250505061071787878b8b610cdd565b809750819850505061072b8d8d8585610cdd565b82600460068110151561073a57fe5b6020020183600560068110151561074d57fe5b602002018281525082815250505080600460068110151561076a57fe5b60200201518714801561078f575080600560068110151561078757fe5b602002015186145b15610928578060026006811015156107a357fe5b6020020151851480156107c857508060036006811015156107c057fe5b602002015184145b15610873576107db8d8d8d8d8d8d610e5b565b8660006006811015156107ea57fe5b602002018760016006811015156107fd57fe5b6020020188600260068110151561081057fe5b6020020189600360068110151561082357fe5b602002018a600460068110151561083657fe5b602002018b600560068110151561084957fe5b60200201868152508681525086815250868152508681525086815250505050505050809050610b8d565b600160006001600080600085955084945083935082925081915080905086600060068110151561089f57fe5b602002018760016006811015156108b257fe5b602002018860026006811015156108c557fe5b602002018960036006811015156108d857fe5b602002018a60046006811015156108eb57fe5b602002018b60056006811015156108fe57fe5b60200201868152508681525086815250868152508681525086815250505050505050809050610b8d565b61093489898585610cdd565b809350819450505061096e858583600260068110151561095057fe5b602002015184600360068110151561096457fe5b6020020151610df5565b809d50819e5050506109a8878783600460068110151561098a57fe5b602002015184600560068110151561099e57fe5b6020020151610df5565b809b50819c5050506109bc8b8b8d8d610cdd565b809950819a5050506109f689898360046006811015156109d857fe5b60200201518460056006811015156109ec57fe5b6020020151610cdd565b8095508196505050610a0a89898d8d610cdd565b809950819a505050610a1e89898585610cdd565b826004600681101515610a2d57fe5b60200201836005600681101515610a4057fe5b6020020182815250828152505050610a5a8d8d8f8f610cdd565b8097508198505050610a6e87878585610cdd565b8097508198505050610a8287878b8b610df5565b8097508198505050610a9685856002611003565b8093508194505050610aaa87878585610df5565b8097508198505050610abe8b8b8989610cdd565b826000600681101515610acd57fe5b60200201836001600681101515610ae057fe5b6020020182815250828152505050610afa85858989610df5565b809b50819c505050610b0e8d8d8d8d610cdd565b809b50819c505050610b488989836002600681101515610b2a57fe5b6020020151846003600681101515610b3e57fe5b6020020151610cdd565b809d50819e505050610b5c8b8b8f8f610df5565b826002600681101515610b6b57fe5b60200201836003600681101515610b7e57fe5b60200201828152508281525050505b9c9b505050505050505050505050565b600080600080600080610bb0888861106c565b8092508193505050610bc48c8c8484610cdd565b8096508197505050610bd88a8a8484610cdd565b809450819550505050509650965096509692505050565b610bf7611217565b5b600088141515610cd257600060018916141515610c9857610c95816000600681101515610c2157fe5b6020020151826001600681101515610c3557fe5b6020020151836002600681101515610c4957fe5b6020020151846003600681101515610c5d57fe5b6020020151856004600681101515610c7157fe5b6020020151866005600681101515610c8557fe5b60200201518d8d8d8d8d8d61054d565b90505b610ca6878787878787610e5b565b809750819850829950839a50849b50859c50505050505050600288811515610cca57fe5b049750610bf8565b979650505050505050565b600080610d637f30644e72e131a029b85045b68181585d97816a916871ca8d3c208c16d87cfd47801515610d0d57fe5b8588097f30644e72e131a029b85045b68181585d97816a916871ca8d3c208c16d87cfd47801515610d3a57fe5b8588097f30644e72e131a029b85045b68181585d97816a916871ca8d3c208c16d87cfd476111a9565b7f30644e72e131a029b85045b68181585d97816a916871ca8d3c208c16d87cfd47801515610d8d57fe5b7f30644e72e131a029b85045b68181585d97816a916871ca8d3c208c16d87cfd47801515610db757fe5b8688097f30644e72e131a029b85045b68181585d97816a916871ca8d3c208c16d87cfd47801515610de457fe5b868a09089150915094509492505050565b600080610e2386857f30644e72e131a029b85045b68181585d97816a916871ca8d3c208c16d87cfd476111a9565b610e4e86857f30644e72e131a029b85045b68181585d97816a916871ca8d3c208c16d87cfd476111a9565b9150915094509492505050565b600080600080600080610e708c8c6003611003565b8096508197505050610e8486868e8e610cdd565b8096508197505050610e988a8a8a8a610cdd565b8098508199505050610eac8c8c8c8c610cdd565b8094508195505050610ec084848a8a610cdd565b8094508195505050610ed486868888610cdd565b809c50819d505050610ee884846008611003565b8092508193505050610efc8c8c8484610df5565b809c50819d505050610f1088888a8a610cdd565b8092508193505050610f2484846004611003565b8094508195505050610f3884848e8e610df5565b8094508195505050610f4c84848888610cdd565b8094508195505050610f608a8a6008611003565b8096508197505050610f7486868c8c610cdd565b8096508197505050610f8886868484610cdd565b8096508197505050610f9c84848888610df5565b8094508195505050610fb08c8c6002611003565b8096508197505050610fc486868a8a610cdd565b8096508197505050610fd888888484610cdd565b8092508193505050610fec82826008611003565b809250819350505096509650965096509650969050565b6000807f30644e72e131a029b85045b68181585d97816a916871ca8d3c208c16d87cfd4780151561103057fe5b8386097f30644e72e131a029b85045b68181585d97816a916871ca8d3c208c16d87cfd4780151561105d57fe5b84860991509150935093915050565b600080600061111f7f30644e72e131a029b85045b68181585d97816a916871ca8d3c208c16d87cfd4780151561109e57fe5b7f30644e72e131a029b85045b68181585d97816a916871ca8d3c208c16d87cfd478015156110c857fe5b8788097f30644e72e131a029b85045b68181585d97816a916871ca8d3c208c16d87cfd478015156110f557fe5b878809087f30644e72e131a029b85045b68181585d97816a916871ca8d3c208c16d87cfd476111c3565b90507f30644e72e131a029b85045b68181585d97816a916871ca8d3c208c16d87cfd4780151561114b57fe5b8186097f30644e72e131a029b85045b68181585d97816a916871ca8d3c208c16d87cfd4780151561117857fe5b8286097f30644e72e131a029b85045b68181585d97816a916871ca8d3c208c16d87cfd470392509250509250929050565b6000818015156111b557fe5b838303850890509392505050565b60008060405160208152602080820152602060408201528460608201526002840360808201528360a082015260208160c08360056107d05a03fa9150805192505080151561121057600080fd5b5092915050565b60c0604051908101604052806006906020820280388339808201915050905050905600a165627a7a723058207d8a5152d31ea08c0c70989ed73b6cab02321689f7d68cbdb646bac2df8df7ae0029",
  "source": "pragma solidity >=0.4.2;\n\n/**\n * @title Elliptic curve operations on twist points for alt_bn128\n * @author Mustafa Al-Bassam (mus@musalbas.com)\n * @dev Homepage: https://github.com/musalbas/solidity-BN256G2\n */\n\nlibrary ECopsG2 {\n    uint256 internal constant FIELD_MODULUS = 0x30644e72e131a029b85045b68181585d97816a916871ca8d3c208c16d87cfd47;\n    uint256 internal constant TWISTBX = 0x2b149d40ceb8aaae81be18991be06ac3b5b4c5e559dbefa33267e6dc24a138e5;\n    uint256 internal constant TWISTBY = 0x9713b03af0fed4cd2cafadeed8fdf4a74fa084e52d1852e4a2bd0685c315d2;\n    uint internal constant PTXX = 0;\n    uint internal constant PTXY = 1;\n    uint internal constant PTYX = 2;\n    uint internal constant PTYY = 3;\n    uint internal constant PTZX = 4;\n    uint internal constant PTZY = 5;\n\n    /**\n     * @notice Add two twist points\n     * @param pt1xx Coefficient 1 of x on point 1\n     * @param pt1xy Coefficient 2 of x on point 1\n     * @param pt1yx Coefficient 1 of y on point 1\n     * @param pt1yy Coefficient 2 of y on point 1\n     * @param pt2xx Coefficient 1 of x on point 2\n     * @param pt2xy Coefficient 2 of x on point 2\n     * @param pt2yx Coefficient 1 of y on point 2\n     * @param pt2yy Coefficient 2 of y on point 2\n     * @return (pt3xx, pt3xy, pt3yx, pt3yy)\n     */\n    function ECTwistAdd(\n        uint256 pt1xx, uint256 pt1xy,\n        uint256 pt1yx, uint256 pt1yy,\n        uint256 pt2xx, uint256 pt2xy,\n        uint256 pt2yx, uint256 pt2yy\n    ) public view returns (\n        uint256, uint256,\n        uint256, uint256\n    ) {\n        if (\n            pt1xx == 0 && pt1xy == 0 &&\n            pt1yx == 0 && pt1yy == 0\n        ) {\n            if (!(\n                pt2xx == 0 && pt2xy == 0 &&\n                pt2yx == 0 && pt2yy == 0\n            )) {\n                assert(_isOnCurve(\n                    pt2xx, pt2xy,\n                    pt2yx, pt2yy\n                ));\n            }\n            return (\n                pt2xx, pt2xy,\n                pt2yx, pt2yy\n            );\n        } else if (\n            pt2xx == 0 && pt2xy == 0 &&\n            pt2yx == 0 && pt2yy == 0\n        ) {\n            assert(_isOnCurve(\n                pt1xx, pt1xy,\n                pt1yx, pt1yy\n            ));\n            return (\n                pt1xx, pt1xy,\n                pt1yx, pt1yy\n            );\n        }\n\n        assert(_isOnCurve(\n            pt1xx, pt1xy,\n            pt1yx, pt1yy\n        ));\n        assert(_isOnCurve(\n            pt2xx, pt2xy,\n            pt2yx, pt2yy\n        ));\n\n        uint256[6] memory pt3 = _ECTwistAddJacobian(\n            pt1xx, pt1xy,\n            pt1yx, pt1yy,\n            1,     0,\n            pt2xx, pt2xy,\n            pt2yx, pt2yy,\n            1,     0\n        );\n\n        return _fromJacobian(\n            pt3[PTXX], pt3[PTXY],\n            pt3[PTYX], pt3[PTYY],\n            pt3[PTZX], pt3[PTZY]\n        );\n    }\n\n    /**\n     * @notice Multiply a twist point by a scalar\n     * @param s     Scalar to multiply by\n     * @param pt1xx Coefficient 1 of x\n     * @param pt1xy Coefficient 2 of x\n     * @param pt1yx Coefficient 1 of y\n     * @param pt1yy Coefficient 2 of y\n     * @return (pt2xx, pt2xy, pt2yx, pt2yy)\n     */\n    function ECTwistMul(\n        uint256 pt1xx, uint256 pt1xy,\n        uint256 pt1yx, uint256 pt1yy,\n        uint256 s\n    ) public view returns (\n        uint256, uint256,\n        uint256, uint256\n    ) {\n        uint256 pt1zx = 1;\n        if (\n            pt1xx == 0 && pt1xy == 0 &&\n            pt1yx == 0 && pt1yy == 0\n        ) {\n            pt1xx = 1;\n            pt1yx = 1;\n            pt1zx = 0;\n        } else {\n            assert(_isOnCurve(\n                pt1xx, pt1xy,\n                pt1yx, pt1yy\n            ));\n        }\n\n        uint256[6] memory pt2 = _ECTwistMulJacobian(\n            s,\n            pt1xx, pt1xy,\n            pt1yx, pt1yy,\n            pt1zx, 0\n        );\n\n        return _fromJacobian(\n            pt2[PTXX], pt2[PTXY],\n            pt2[PTYX], pt2[PTYY],\n            pt2[PTZX], pt2[PTZY]\n        );\n    }\n\n    /**\n     * @notice Get the field modulus\n     * @return The field modulus\n     */\n    function GetFieldModulus() public pure returns (uint256) {\n        return FIELD_MODULUS;\n    }\n\n    function submod(uint256 a, uint256 b, uint256 n) internal pure returns (uint256) {\n        return addmod(a, n - b, n);\n    }\n\n    function _FQ2Mul(\n        uint256 xx, uint256 xy,\n        uint256 yx, uint256 yy\n    ) internal pure returns (uint256, uint256) {\n        return (\n            submod(mulmod(xx, yx, FIELD_MODULUS), mulmod(xy, yy, FIELD_MODULUS), FIELD_MODULUS),\n            addmod(mulmod(xx, yy, FIELD_MODULUS), mulmod(xy, yx, FIELD_MODULUS), FIELD_MODULUS)\n        );\n    }\n\n    function _FQ2Muc(\n        uint256 xx, uint256 xy,\n        uint256 c\n    ) internal pure returns (uint256, uint256) {\n        return (\n            mulmod(xx, c, FIELD_MODULUS),\n            mulmod(xy, c, FIELD_MODULUS)\n        );\n    }\n\n    function _FQ2Add(\n        uint256 xx, uint256 xy,\n        uint256 yx, uint256 yy\n    ) internal pure returns (uint256, uint256) {\n        return (\n            addmod(xx, yx, FIELD_MODULUS),\n            addmod(xy, yy, FIELD_MODULUS)\n        );\n    }\n\n    function _FQ2Sub(\n        uint256 xx, uint256 xy,\n        uint256 yx, uint256 yy\n    ) internal pure returns (uint256 rx, uint256 ry) {\n        return (\n            submod(xx, yx, FIELD_MODULUS),\n            submod(xy, yy, FIELD_MODULUS)\n        );\n    }\n\n    function _FQ2Div(\n        uint256 xx, uint256 xy,\n        uint256 yx, uint256 yy\n    ) internal view returns (uint256, uint256) {\n        (yx, yy) = _FQ2Inv(yx, yy);\n        return _FQ2Mul(xx, xy, yx, yy);\n    }\n\n    function _FQ2Inv(uint256 x, uint256 y) internal view returns (uint256, uint256) {\n        uint256 inv = _modInv(addmod(mulmod(y, y, FIELD_MODULUS), mulmod(x, x, FIELD_MODULUS), FIELD_MODULUS), FIELD_MODULUS);\n        return (\n            mulmod(x, inv, FIELD_MODULUS),\n            FIELD_MODULUS - mulmod(y, inv, FIELD_MODULUS)\n        );\n    }\n\n    function _isOnCurve(\n        uint256 xx, uint256 xy,\n        uint256 yx, uint256 yy\n    ) internal pure returns (bool) {\n        uint256 yyx;\n        uint256 yyy;\n        uint256 xxxx;\n        uint256 xxxy;\n        (yyx, yyy) = _FQ2Mul(yx, yy, yx, yy);\n        (xxxx, xxxy) = _FQ2Mul(xx, xy, xx, xy);\n        (xxxx, xxxy) = _FQ2Mul(xxxx, xxxy, xx, xy);\n        (yyx, yyy) = _FQ2Sub(yyx, yyy, xxxx, xxxy);\n        (yyx, yyy) = _FQ2Sub(yyx, yyy, TWISTBX, TWISTBY);\n        return yyx == 0 && yyy == 0;\n    }\n\n    function _modInv(uint256 a, uint256 n) internal view returns (uint256 result) {\n        bool success;\n        assembly {\n            let freemem := mload(0x40)\n            mstore(freemem, 0x20)\n            mstore(add(freemem,0x20), 0x20)\n            mstore(add(freemem,0x40), 0x20)\n            mstore(add(freemem,0x60), a)\n            mstore(add(freemem,0x80), sub(n, 2))\n            mstore(add(freemem,0xA0), n)\n            success := staticcall(sub(gas, 2000), 5, freemem, 0xC0, freemem, 0x20)\n            result := mload(freemem)\n        }\n        require(success);\n    }\n\n    function _fromJacobian(\n        uint256 pt1xx, uint256 pt1xy,\n        uint256 pt1yx, uint256 pt1yy,\n        uint256 pt1zx, uint256 pt1zy\n    ) internal view returns (\n        uint256 pt2xx, uint256 pt2xy,\n        uint256 pt2yx, uint256 pt2yy\n    ) {\n        uint256 invzx;\n        uint256 invzy;\n        (invzx, invzy) = _FQ2Inv(pt1zx, pt1zy);\n        (pt2xx, pt2xy) = _FQ2Mul(pt1xx, pt1xy, invzx, invzy);\n        (pt2yx, pt2yy) = _FQ2Mul(pt1yx, pt1yy, invzx, invzy);\n    }\n\n    function _ECTwistAddJacobian(\n        uint256 pt1xx, uint256 pt1xy,\n        uint256 pt1yx, uint256 pt1yy,\n        uint256 pt1zx, uint256 pt1zy,\n        uint256 pt2xx, uint256 pt2xy,\n        uint256 pt2yx, uint256 pt2yy,\n        uint256 pt2zx, uint256 pt2zy) internal pure returns (uint256[6] memory pt3) {\n            if (pt1zx == 0 && pt1zy == 0) {\n                (\n                    pt3[PTXX], pt3[PTXY],\n                    pt3[PTYX], pt3[PTYY],\n                    pt3[PTZX], pt3[PTZY]\n                ) = (\n                    pt2xx, pt2xy,\n                    pt2yx, pt2yy,\n                    pt2zx, pt2zy\n                );\n                return pt3;\n            } else if (pt2zx == 0 && pt2zy == 0) {\n                (\n                    pt3[PTXX], pt3[PTXY],\n                    pt3[PTYX], pt3[PTYY],\n                    pt3[PTZX], pt3[PTZY]\n                ) = (\n                    pt1xx, pt1xy,\n                    pt1yx, pt1yy,\n                    pt1zx, pt1zy\n                );\n                return pt3;\n            }\n\n            (pt2yx,     pt2yy)     = _FQ2Mul(pt2yx, pt2yy, pt1zx, pt1zy); // U1 = y2 * z1\n            (pt3[PTYX], pt3[PTYY]) = _FQ2Mul(pt1yx, pt1yy, pt2zx, pt2zy); // U2 = y1 * z2\n            (pt2xx,     pt2xy)     = _FQ2Mul(pt2xx, pt2xy, pt1zx, pt1zy); // V1 = x2 * z1\n            (pt3[PTZX], pt3[PTZY]) = _FQ2Mul(pt1xx, pt1xy, pt2zx, pt2zy); // V2 = x1 * z2\n\n            if (pt2xx == pt3[PTZX] && pt2xy == pt3[PTZY]) {\n                if (pt2yx == pt3[PTYX] && pt2yy == pt3[PTYY]) {\n                    (\n                        pt3[PTXX], pt3[PTXY],\n                        pt3[PTYX], pt3[PTYY],\n                        pt3[PTZX], pt3[PTZY]\n                    ) = _ECTwistDoubleJacobian(pt1xx, pt1xy, pt1yx, pt1yy, pt1zx, pt1zy);\n                    return pt3;\n                }\n                (\n                    pt3[PTXX], pt3[PTXY],\n                    pt3[PTYX], pt3[PTYY],\n                    pt3[PTZX], pt3[PTZY]\n                ) = (\n                    1, 0,\n                    1, 0,\n                    0, 0\n                );\n                return pt3;\n            }\n\n            (pt2zx,     pt2zy)     = _FQ2Mul(pt1zx, pt1zy, pt2zx,     pt2zy);     // W = z1 * z2\n            (pt1xx,     pt1xy)     = _FQ2Sub(pt2yx, pt2yy, pt3[PTYX], pt3[PTYY]); // U = U1 - U2\n            (pt1yx,     pt1yy)     = _FQ2Sub(pt2xx, pt2xy, pt3[PTZX], pt3[PTZY]); // V = V1 - V2\n            (pt1zx,     pt1zy)     = _FQ2Mul(pt1yx, pt1yy, pt1yx,     pt1yy);     // V_squared = V * V\n            (pt2yx,     pt2yy)     = _FQ2Mul(pt1zx, pt1zy, pt3[PTZX], pt3[PTZY]); // V_squared_times_V2 = V_squared * V2\n            (pt1zx,     pt1zy)     = _FQ2Mul(pt1zx, pt1zy, pt1yx,     pt1yy);     // V_cubed = V * V_squared\n            (pt3[PTZX], pt3[PTZY]) = _FQ2Mul(pt1zx, pt1zy, pt2zx,     pt2zy);     // newz = V_cubed * W\n            (pt2xx,     pt2xy)     = _FQ2Mul(pt1xx, pt1xy, pt1xx,     pt1xy);     // U * U\n            (pt2xx,     pt2xy)     = _FQ2Mul(pt2xx, pt2xy, pt2zx,     pt2zy);     // U * U * W\n            (pt2xx,     pt2xy)     = _FQ2Sub(pt2xx, pt2xy, pt1zx,     pt1zy);     // U * U * W - V_cubed\n            (pt2zx,     pt2zy)     = _FQ2Muc(pt2yx, pt2yy, 2);                    // 2 * V_squared_times_V2\n            (pt2xx,     pt2xy)     = _FQ2Sub(pt2xx, pt2xy, pt2zx,     pt2zy);     // A = U * U * W - V_cubed - 2 * V_squared_times_V2\n            (pt3[PTXX], pt3[PTXY]) = _FQ2Mul(pt1yx, pt1yy, pt2xx,     pt2xy);     // newx = V * A\n            (pt1yx,     pt1yy)     = _FQ2Sub(pt2yx, pt2yy, pt2xx,     pt2xy);     // V_squared_times_V2 - A\n            (pt1yx,     pt1yy)     = _FQ2Mul(pt1xx, pt1xy, pt1yx,     pt1yy);     // U * (V_squared_times_V2 - A)\n            (pt1xx,     pt1xy)     = _FQ2Mul(pt1zx, pt1zy, pt3[PTYX], pt3[PTYY]); // V_cubed * U2\n            (pt3[PTYX], pt3[PTYY]) = _FQ2Sub(pt1yx, pt1yy, pt1xx,     pt1xy);     // newy = U * (V_squared_times_V2 - A) - V_cubed * U2\n    }\n\n    function _ECTwistDoubleJacobian(\n        uint256 pt1xx, uint256 pt1xy,\n        uint256 pt1yx, uint256 pt1yy,\n        uint256 pt1zx, uint256 pt1zy\n    ) internal pure returns (\n        uint256 pt2xx, uint256 pt2xy,\n        uint256 pt2yx, uint256 pt2yy,\n        uint256 pt2zx, uint256 pt2zy\n    ) {\n        (pt2xx, pt2xy) = _FQ2Muc(pt1xx, pt1xy, 3);            // 3 * x\n        (pt2xx, pt2xy) = _FQ2Mul(pt2xx, pt2xy, pt1xx, pt1xy); // W = 3 * x * x\n        (pt1zx, pt1zy) = _FQ2Mul(pt1yx, pt1yy, pt1zx, pt1zy); // S = y * z\n        (pt2yx, pt2yy) = _FQ2Mul(pt1xx, pt1xy, pt1yx, pt1yy); // x * y\n        (pt2yx, pt2yy) = _FQ2Mul(pt2yx, pt2yy, pt1zx, pt1zy); // B = x * y * S\n        (pt1xx, pt1xy) = _FQ2Mul(pt2xx, pt2xy, pt2xx, pt2xy); // W * W\n        (pt2zx, pt2zy) = _FQ2Muc(pt2yx, pt2yy, 8);            // 8 * B\n        (pt1xx, pt1xy) = _FQ2Sub(pt1xx, pt1xy, pt2zx, pt2zy); // H = W * W - 8 * B\n        (pt2zx, pt2zy) = _FQ2Mul(pt1zx, pt1zy, pt1zx, pt1zy); // S_squared = S * S\n        (pt2yx, pt2yy) = _FQ2Muc(pt2yx, pt2yy, 4);            // 4 * B\n        (pt2yx, pt2yy) = _FQ2Sub(pt2yx, pt2yy, pt1xx, pt1xy); // 4 * B - H\n        (pt2yx, pt2yy) = _FQ2Mul(pt2yx, pt2yy, pt2xx, pt2xy); // W * (4 * B - H)\n        (pt2xx, pt2xy) = _FQ2Muc(pt1yx, pt1yy, 8);            // 8 * y\n        (pt2xx, pt2xy) = _FQ2Mul(pt2xx, pt2xy, pt1yx, pt1yy); // 8 * y * y\n        (pt2xx, pt2xy) = _FQ2Mul(pt2xx, pt2xy, pt2zx, pt2zy); // 8 * y * y * S_squared\n        (pt2yx, pt2yy) = _FQ2Sub(pt2yx, pt2yy, pt2xx, pt2xy); // newy = W * (4 * B - H) - 8 * y * y * S_squared\n        (pt2xx, pt2xy) = _FQ2Muc(pt1xx, pt1xy, 2);            // 2 * H\n        (pt2xx, pt2xy) = _FQ2Mul(pt2xx, pt2xy, pt1zx, pt1zy); // newx = 2 * H * S\n        (pt2zx, pt2zy) = _FQ2Mul(pt1zx, pt1zy, pt2zx, pt2zy); // S * S_squared\n        (pt2zx, pt2zy) = _FQ2Muc(pt2zx, pt2zy, 8);            // newz = 8 * S * S_squared\n    }\n\n    function _ECTwistMulJacobian(\n        uint256 d,\n        uint256 pt1xx, uint256 pt1xy,\n        uint256 pt1yx, uint256 pt1yy,\n        uint256 pt1zx, uint256 pt1zy\n    ) internal pure returns (uint256[6] memory pt2) {\n        while (d != 0) {\n            if ((d & 1) != 0) {\n                pt2 = _ECTwistAddJacobian(\n                    pt2[PTXX], pt2[PTXY],\n                    pt2[PTYX], pt2[PTYY],\n                    pt2[PTZX], pt2[PTZY],\n                    pt1xx, pt1xy,\n                    pt1yx, pt1yy,\n                    pt1zx, pt1zy);\n            }\n            (\n                pt1xx, pt1xy,\n                pt1yx, pt1yy,\n                pt1zx, pt1zy\n            ) = _ECTwistDoubleJacobian(\n                pt1xx, pt1xy,\n                pt1yx, pt1yy,\n                pt1zx, pt1zy\n            );\n\n            d = d / 2;\n        }\n    }\n}\n",
  "sourcePath": "/home/ubuntu/ethereum/AttriChain/contracts/utillib/ECopsG2.sol",
  "compiler": {
    "name": "solc",
    "version": "0.4.23+commit.124ca40d.Emscripten.clang"
  },
  "schemaVersion": "2.0.0",
  "updatedAt": "2020-07-11T18:29:40.273Z"
}