{
  "contractName": "ECopsG2",
  "abi": [
    {
      "constant": true,
      "inputs": [
        {
          "name": "pt1xx",
          "type": "uint256"
        },
        {
          "name": "pt1xy",
          "type": "uint256"
        },
        {
          "name": "pt1yx",
          "type": "uint256"
        },
        {
          "name": "pt1yy",
          "type": "uint256"
        },
        {
          "name": "pt2xx",
          "type": "uint256"
        },
        {
          "name": "pt2xy",
          "type": "uint256"
        },
        {
          "name": "pt2yx",
          "type": "uint256"
        },
        {
          "name": "pt2yy",
          "type": "uint256"
        }
      ],
      "name": "ECTwistAdd",
      "outputs": [
        {
          "name": "",
          "type": "uint256"
        },
        {
          "name": "",
          "type": "uint256"
        },
        {
          "name": "",
          "type": "uint256"
        },
        {
          "name": "",
          "type": "uint256"
        }
      ],
      "payable": false,
      "stateMutability": "view",
      "type": "function"
    },
    {
      "constant": true,
      "inputs": [
        {
          "name": "_pt1xx",
          "type": "uint256"
        },
        {
          "name": "_pt1xy",
          "type": "uint256"
        },
        {
          "name": "_pt1yx",
          "type": "uint256"
        },
        {
          "name": "_pt1yy",
          "type": "uint256"
        },
        {
          "name": "s",
          "type": "uint256"
        }
      ],
      "name": "ECTwistMul",
      "outputs": [
        {
          "name": "",
          "type": "uint256"
        },
        {
          "name": "",
          "type": "uint256"
        },
        {
          "name": "",
          "type": "uint256"
        },
        {
          "name": "",
          "type": "uint256"
        }
      ],
      "payable": false,
      "stateMutability": "view",
      "type": "function"
    },
    {
      "constant": true,
      "inputs": [],
      "name": "GetFieldModulus",
      "outputs": [
        {
          "name": "",
          "type": "uint256"
        }
      ],
      "payable": false,
      "stateMutability": "pure",
      "type": "function"
    }
  ],
  "bytecode": "0x611295610030600b82828239805160001a6073146000811461002057610022565bfe5b5030600052607381538281f300730000000000000000000000000000000000000000301460806040526004361061006e576000357c0100000000000000000000000000000000000000000000000000000000900463ffffffff16806355a3e90f1461007357806361a931ec14610091578063b73ab75d14610120575b600080fd5b61007b610191565b6040518082815260200191505060405180910390f35b6100f560048036038101908080359060200190929190803590602001909291908035906020019092919080359060200190929190803590602001909291908035906020019092919080359060200190929190803590602001909291905050506101b9565b6040518085815260200184815260200183815260200182815260200194505050505060405180910390f35b6101666004803603810190808035906020019092919080359060200190929190803590602001909291908035906020019092919080359060200190929190505050610375565b6040518085815260200184815260200183815260200182815260200194505050505060405180910390f35b60007f30644e72e131a029b85045b68181585d97816a916871ca8d3c208c16d87cfd47905090565b6000806000806101c7611246565b60008d1480156101d7575060008c145b80156101e3575060008b145b80156101ef575060008a145b15610248576000891480156102045750600088145b80156102105750600087145b801561021c5750600086145b15156102375761022e8989898961049a565b151561023657fe5b5b888888889450945094509450610365565b6000891480156102585750600088145b80156102645750600087145b80156102705750600086145b1561029a576102818d8d8d8d61049a565b151561028957fe5b8c8c8c8c9450945094509450610365565b6102a68d8d8d8d61049a565b15156102ae57fe5b6102ba8989898961049a565b15156102c257fe5b6102da8d8d8d8d600160008f8f8f8f60016000610555565b905061035c8160006006811015156102ee57fe5b602002015182600160068110151561030257fe5b602002015183600260068110151561031657fe5b602002015184600360068110151561032a57fe5b602002015185600460068110151561033e57fe5b602002015186600560068110151561035257fe5b6020020151610ba5565b94509450945094505b5098509850985098945050505050565b600080600080600080600080600061038b611246565b8e95508d94508c93508b9250600191506000861480156103ab5750600085145b80156103b75750600084145b80156103c35750600083145b156103d9576001955060019350600091506103ee565b6103e58686868661049a565b15156103ed57fe5b5b6103fe8b87878787876000610bf7565b905061048081600060068110151561041257fe5b602002015182600160068110151561042657fe5b602002015183600260068110151561043a57fe5b602002015184600360068110151561044e57fe5b602002015185600460068110151561046257fe5b602002015186600560068110151561047657fe5b6020020151610ba5565b995099509950995050505050505095509550955095915050565b60008060008060006104ae87878989610d0c565b80945081955050506104c289898b8b610d0c565b80925081935050506104d682828b8b610d0c565b80925081935050506104ea84848484610e24565b809450819550505061053d84847f2b149d40ceb8aaae81be18991be06ac3b5b4c5e559dbefa33267e6dc24a138e57e9713b03af0fed4cd2cafadeed8fdf4a74fa084e52d1852e4a2bd0685c315d2610e24565b80945081955050506001945050505050949350505050565b61055d611246565b60008914801561056d5750600088145b156106105786868686868686600060068110151561058757fe5b6020020187600160068110151561059a57fe5b602002018860026006811015156105ad57fe5b602002018960036006811015156105c057fe5b602002018a60046006811015156105d357fe5b602002018b60056006811015156105e657fe5b60200201868152508681525086815250868152508681525086815250505050505050809050610b95565b6000831480156106205750600082145b156106c3578c8c8c8c8c8c86600060068110151561063a57fe5b6020020187600160068110151561064d57fe5b6020020188600260068110151561066057fe5b6020020189600360068110151561067357fe5b602002018a600460068110151561068657fe5b602002018b600560068110151561069957fe5b60200201868152508681525086815250868152508681525086815250505050505050809050610b95565b6106cf85858b8b610d0c565b80955081965050506106e38b8b8585610d0c565b8260026006811015156106f257fe5b6020020183600360068110151561070557fe5b602002018281525082815250505061071f87878b8b610d0c565b80975081985050506107338d8d8585610d0c565b82600460068110151561074257fe5b6020020183600560068110151561075557fe5b602002018281525082815250505080600460068110151561077257fe5b602002015187148015610797575080600560068110151561078f57fe5b602002015186145b15610930578060026006811015156107ab57fe5b6020020151851480156107d057508060036006811015156107c857fe5b602002015184145b1561087b576107e38d8d8d8d8d8d610e8a565b8660006006811015156107f257fe5b6020020187600160068110151561080557fe5b6020020188600260068110151561081857fe5b6020020189600360068110151561082b57fe5b602002018a600460068110151561083e57fe5b602002018b600560068110151561085157fe5b60200201868152508681525086815250868152508681525086815250505050505050809050610b95565b60016000600160008060008595508494508393508292508191508090508660006006811015156108a757fe5b602002018760016006811015156108ba57fe5b602002018860026006811015156108cd57fe5b602002018960036006811015156108e057fe5b602002018a60046006811015156108f357fe5b602002018b600560068110151561090657fe5b60200201868152508681525086815250868152508681525086815250505050505050809050610b95565b61093c89898585610d0c565b8093508194505050610976858583600260068110151561095857fe5b602002015184600360068110151561096c57fe5b6020020151610e24565b809d50819e5050506109b0878783600460068110151561099257fe5b60200201518460056006811015156109a657fe5b6020020151610e24565b809b50819c5050506109c48b8b8d8d610d0c565b809950819a5050506109fe89898360046006811015156109e057fe5b60200201518460056006811015156109f457fe5b6020020151610d0c565b8095508196505050610a1289898d8d610d0c565b809950819a505050610a2689898585610d0c565b826004600681101515610a3557fe5b60200201836005600681101515610a4857fe5b6020020182815250828152505050610a628d8d8f8f610d0c565b8097508198505050610a7687878585610d0c565b8097508198505050610a8a87878b8b610e24565b8097508198505050610a9e85856002611032565b8093508194505050610ab287878585610e24565b8097508198505050610ac68b8b8989610d0c565b826000600681101515610ad557fe5b60200201836001600681101515610ae857fe5b6020020182815250828152505050610b0285858989610e24565b809b50819c505050610b168d8d8d8d610d0c565b809b50819c505050610b508989836002600681101515610b3257fe5b6020020151846003600681101515610b4657fe5b6020020151610d0c565b809d50819e505050610b648b8b8f8f610e24565b826002600681101515610b7357fe5b60200201836003600681101515610b8657fe5b60200201828152508281525050505b9c9b505050505050505050505050565b600080600080600080610bb8888861109b565b8092508193505050610bcc8c8c8484610d0c565b8096508197505050610be08a8a8484610d0c565b809450819550505050509650965096509692505050565b610bff611246565b60008060008060008060008e96508d95508c94508b93508a92508991508890505b600087141515610cfa57600060018816141515610cc057610cbd886000600681101515610c4957fe5b6020020151896001600681101515610c5d57fe5b60200201518a6002600681101515610c7157fe5b60200201518b6003600681101515610c8557fe5b60200201518c6004600681101515610c9957fe5b60200201518d6005600681101515610cad57fe5b60200201518c8c8c8c8c8c610555565b97505b610cce868686868686610e8a565b809650819750829850839950849a50859b50505050505050600287811515610cf257fe5b049650610c20565b50505050505050979650505050505050565b600080610d927f30644e72e131a029b85045b68181585d97816a916871ca8d3c208c16d87cfd47801515610d3c57fe5b8588097f30644e72e131a029b85045b68181585d97816a916871ca8d3c208c16d87cfd47801515610d6957fe5b8588097f30644e72e131a029b85045b68181585d97816a916871ca8d3c208c16d87cfd476111d8565b7f30644e72e131a029b85045b68181585d97816a916871ca8d3c208c16d87cfd47801515610dbc57fe5b7f30644e72e131a029b85045b68181585d97816a916871ca8d3c208c16d87cfd47801515610de657fe5b8688097f30644e72e131a029b85045b68181585d97816a916871ca8d3c208c16d87cfd47801515610e1357fe5b868a09089150915094509492505050565b600080610e5286857f30644e72e131a029b85045b68181585d97816a916871ca8d3c208c16d87cfd476111d8565b610e7d86857f30644e72e131a029b85045b68181585d97816a916871ca8d3c208c16d87cfd476111d8565b9150915094509492505050565b600080600080600080610e9f8c8c6003611032565b8096508197505050610eb386868e8e610d0c565b8096508197505050610ec78a8a8a8a610d0c565b8098508199505050610edb8c8c8c8c610d0c565b8094508195505050610eef84848a8a610d0c565b8094508195505050610f0386868888610d0c565b809c50819d505050610f1784846008611032565b8092508193505050610f2b8c8c8484610e24565b809c50819d505050610f3f88888a8a610d0c565b8092508193505050610f5384846004611032565b8094508195505050610f6784848e8e610e24565b8094508195505050610f7b84848888610d0c565b8094508195505050610f8f8a8a6008611032565b8096508197505050610fa386868c8c610d0c565b8096508197505050610fb786868484610d0c565b8096508197505050610fcb84848888610e24565b8094508195505050610fdf8c8c6002611032565b8096508197505050610ff386868a8a610d0c565b809650819750505061100788888484610d0c565b809250819350505061101b82826008611032565b809250819350505096509650965096509650969050565b6000807f30644e72e131a029b85045b68181585d97816a916871ca8d3c208c16d87cfd4780151561105f57fe5b8386097f30644e72e131a029b85045b68181585d97816a916871ca8d3c208c16d87cfd4780151561108c57fe5b84860991509150935093915050565b600080600061114e7f30644e72e131a029b85045b68181585d97816a916871ca8d3c208c16d87cfd478015156110cd57fe5b7f30644e72e131a029b85045b68181585d97816a916871ca8d3c208c16d87cfd478015156110f757fe5b8788097f30644e72e131a029b85045b68181585d97816a916871ca8d3c208c16d87cfd4780151561112457fe5b878809087f30644e72e131a029b85045b68181585d97816a916871ca8d3c208c16d87cfd476111f2565b90507f30644e72e131a029b85045b68181585d97816a916871ca8d3c208c16d87cfd4780151561117a57fe5b8186097f30644e72e131a029b85045b68181585d97816a916871ca8d3c208c16d87cfd478015156111a757fe5b8286097f30644e72e131a029b85045b68181585d97816a916871ca8d3c208c16d87cfd470392509250509250929050565b6000818015156111e457fe5b838303850890509392505050565b60008060405160208152602080820152602060408201528460608201526002840360808201528360a082015260208160c08360056107d05a03fa9150805192505080151561123f57600080fd5b5092915050565b60c0604051908101604052806006906020820280388339808201915050905050905600a165627a7a72305820cc91c60a344ff2f4e4c6b39384103ce6459f01d145270264d521c7cafeb076270029",
  "source": "pragma solidity >=0.4.2;\n\n/**\n * @title Elliptic curve operations on twist points for alt_bn128\n * @author Mustafa Al-Bassam (mus@musalbas.com)\n * @dev Homepage: https://github.com/musalbas/solidity-BN256G2\n */\n\nlibrary ECopsG2 {\n\tuint256 internal constant FIELD_MODULUS = 0x30644e72e131a029b85045b68181585d97816a916871ca8d3c208c16d87cfd47;\n\tuint256 internal constant TWISTBX = 0x2b149d40ceb8aaae81be18991be06ac3b5b4c5e559dbefa33267e6dc24a138e5;\n\tuint256 internal constant TWISTBY = 0x9713b03af0fed4cd2cafadeed8fdf4a74fa084e52d1852e4a2bd0685c315d2;\n\tuint internal constant PTXX = 0;\n\tuint internal constant PTXY = 1;\n\tuint internal constant PTYX = 2;\n\tuint internal constant PTYY = 3;\n\tuint internal constant PTZX = 4;\n\tuint internal constant PTZY = 5;\n\n\t/**\n\t * @notice Add two twist points\n\t * @param pt1xx Coefficient 1 of x on point 1\n\t * @param pt1xy Coefficient 2 of x on point 1\n\t * @param pt1yx Coefficient 1 of y on point 1\n\t * @param pt1yy Coefficient 2 of y on point 1\n\t * @param pt2xx Coefficient 1 of x on point 2\n\t * @param pt2xy Coefficient 2 of x on point 2\n\t * @param pt2yx Coefficient 1 of y on point 2\n\t * @param pt2yy Coefficient 2 of y on point 2\n\t * @return (pt3xx, pt3xy, pt3yx, pt3yy)\n\t */\n\tfunction ECTwistAdd(\n\t\tuint256 pt1xx, uint256 pt1xy,\n\t\tuint256 pt1yx, uint256 pt1yy,\n\t\tuint256 pt2xx, uint256 pt2xy,\n\t\tuint256 pt2yx, uint256 pt2yy\n\t) public view returns (\n\t\tuint256, uint256,\n\t\tuint256, uint256\n\t) {\n\t\tif (\n\t\t\tpt1xx == 0 && pt1xy == 0 &&\n\t\t\tpt1yx == 0 && pt1yy == 0\n\t\t) {\n\t\t\tif (!(\n\t\t\t\tpt2xx == 0 && pt2xy == 0 &&\n\t\t\t\tpt2yx == 0 && pt2yy == 0\n\t\t\t)) {\n\t\t\t\tassert(_isOnCurve(\n\t\t\t\t\tpt2xx, pt2xy,\n\t\t\t\t\tpt2yx, pt2yy\n\t\t\t\t));\n\t\t\t}\n\t\t\treturn (\n\t\t\t\tpt2xx, pt2xy,\n\t\t\t\tpt2yx, pt2yy\n\t\t\t);\n\t\t} else if (\n\t\t\tpt2xx == 0 && pt2xy == 0 &&\n\t\t\tpt2yx == 0 && pt2yy == 0\n\t\t) {\n\t\t\tassert(_isOnCurve(\n\t\t\t\tpt1xx, pt1xy,\n\t\t\t\tpt1yx, pt1yy\n\t\t\t));\n\t\t\treturn (\n\t\t\t\tpt1xx, pt1xy,\n\t\t\t\tpt1yx, pt1yy\n\t\t\t);\n\t\t}\n\n\t\tassert(_isOnCurve(\n\t\t\tpt1xx, pt1xy,\n\t\t\tpt1yx, pt1yy\n\t\t));\n\t\tassert(_isOnCurve(\n\t\t\tpt2xx, pt2xy,\n\t\t\tpt2yx, pt2yy\n\t\t));\n\n\t\tuint256[6] memory pt3 = _ECTwistAddJacobian(\n\t\t\tpt1xx, pt1xy,\n\t\t\tpt1yx, pt1yy,\n\t\t\t1,     0,\n\t\t\tpt2xx, pt2xy,\n\t\t\tpt2yx, pt2yy,\n\t\t\t1,     0\n\t\t);\n\n\t\treturn _fromJacobian(\n\t\t\tpt3[PTXX], pt3[PTXY],\n\t\t\tpt3[PTYX], pt3[PTYY],\n\t\t\tpt3[PTZX], pt3[PTZY]\n\t\t);\n\t}\n\n\t/**\n\t * @notice Multiply a twist point by a scalar\n\t * @param s     Scalar to multiply by\n\t * @param _pt1xx Coefficient 1 of x\n\t * @param _pt1xy Coefficient 2 of x\n\t * @param _pt1yx Coefficient 1 of y\n\t * @param _pt1yy Coefficient 2 of y\n\t * @return (pt2xx, pt2xy, pt2yx, pt2yy)\n\t */\n\tfunction ECTwistMul(\n\t\tuint256 _pt1xx, uint256 _pt1xy,\n\t\tuint256 _pt1yx, uint256 _pt1yy,\n\t\tuint256 s\n\t) public view returns (\n\t\tuint256, uint256,\n\t\tuint256, uint256\n\t) {\n\t\tuint256 pt1xx = _pt1xx;\n\t\tuint256 pt1xy = _pt1xy;\n\t\tuint256 pt1yx = _pt1yx;\n\t\tuint256 pt1yy = _pt1yy;\n\t\tuint256 pt1zx = 1;\n\t\tif (pt1xx == 0 && pt1xy == 0 && pt1yx == 0 && pt1yy == 0) {\n\t\t\tpt1xx = 1;\n\t\t\tpt1yx = 1;\n\t\t\tpt1zx = 0;\n\t\t} else {\n\t\t\tassert(_isOnCurve(\n\t\t\t\tpt1xx, pt1xy,\n\t\t\t\tpt1yx, pt1yy\n\t\t\t));\n\t\t}\n\n\t\tuint256[6] memory pt2 = _ECTwistMulJacobian(\n\t\t\ts,\n\t\t\tpt1xx, pt1xy,\n\t\t\tpt1yx, pt1yy,\n\t\t\tpt1zx, 0\n\t\t);\n\n\t\treturn _fromJacobian(\n\t\t\tpt2[PTXX], pt2[PTXY],\n\t\t\tpt2[PTYX], pt2[PTYY],\n\t\t\tpt2[PTZX], pt2[PTZY]\n\t\t);\n\t}\n\n\t/**\n\t * @notice Get the field modulus\n\t * @return The field modulus\n\t */\n\tfunction GetFieldModulus() public pure returns (uint256) {\n\t\treturn FIELD_MODULUS;\n\t}\n\n\tfunction submod(uint256 a, uint256 b, uint256 n) internal pure returns (uint256) {\n\t\treturn addmod(a, n - b, n);\n\t}\n\n\tfunction _FQ2Mul(\n\t\tuint256 xx, uint256 xy,\n\t\tuint256 yx, uint256 yy\n\t) internal pure returns (uint256, uint256) {\n\t\treturn (\n\t\t\tsubmod(mulmod(xx, yx, FIELD_MODULUS), mulmod(xy, yy, FIELD_MODULUS), FIELD_MODULUS),\n\t\t\taddmod(mulmod(xx, yy, FIELD_MODULUS), mulmod(xy, yx, FIELD_MODULUS), FIELD_MODULUS)\n\t\t);\n\t}\n\n\tfunction _FQ2Muc(\n\t\tuint256 xx, uint256 xy,\n\t\tuint256 c\n\t) internal pure returns (uint256, uint256) {\n\t\treturn (\n\t\t\tmulmod(xx, c, FIELD_MODULUS),\n\t\t\tmulmod(xy, c, FIELD_MODULUS)\n\t\t);\n\t}\n\n\tfunction _FQ2Add(\n\t\tuint256 xx, uint256 xy,\n\t\tuint256 yx, uint256 yy\n\t) internal pure returns (uint256, uint256) {\n\t\treturn (\n\t\t\taddmod(xx, yx, FIELD_MODULUS),\n\t\t\taddmod(xy, yy, FIELD_MODULUS)\n\t\t);\n\t}\n\n\tfunction _FQ2Sub(\n\t\tuint256 xx, uint256 xy,\n\t\tuint256 yx, uint256 yy\n\t) internal pure returns (uint256 rx, uint256 ry) {\n\t\treturn (\n\t\t\tsubmod(xx, yx, FIELD_MODULUS),\n\t\t\tsubmod(xy, yy, FIELD_MODULUS)\n\t\t);\n\t}\n\n\tfunction _FQ2Div(\n\t\tuint256 xx, uint256 xy,\n\t\tuint256 yx, uint256 yy\n\t) internal view returns (uint256, uint256) {\n\t\t(yx, yy) = _FQ2Inv(yx, yy);\n\t\treturn _FQ2Mul(xx, xy, yx, yy);\n\t}\n\n\tfunction _FQ2Inv(uint256 x, uint256 y) internal view returns (uint256, uint256) {\n\t\tuint256 inv = _modInv(addmod(mulmod(y, y, FIELD_MODULUS), mulmod(x, x, FIELD_MODULUS), FIELD_MODULUS), FIELD_MODULUS);\n\t\treturn (\n\t\t\tmulmod(x, inv, FIELD_MODULUS),\n\t\t\tFIELD_MODULUS - mulmod(y, inv, FIELD_MODULUS)\n\t\t);\n\t}\n\n\tfunction _isOnCurve(\n\t\tuint256 xx, uint256 xy,\n\t\tuint256 yx, uint256 yy\n\t) internal pure returns (bool) {\n\t\tuint256 yyx;\n\t\tuint256 yyy;\n\t\tuint256 xxxx;\n\t\tuint256 xxxy;\n\t\t(yyx, yyy) = _FQ2Mul(yx, yy, yx, yy);\n\t\t(xxxx, xxxy) = _FQ2Mul(xx, xy, xx, xy);\n\t\t(xxxx, xxxy) = _FQ2Mul(xxxx, xxxy, xx, xy);\n\t\t(yyx, yyy) = _FQ2Sub(yyx, yyy, xxxx, xxxy);\n\t\t(yyx, yyy) = _FQ2Sub(yyx, yyy, TWISTBX, TWISTBY);\n\t\t// return yyx == 0 && yyy == 0;\n\t\treturn true;\n\t}\n\n\tfunction _modInv(uint256 a, uint256 n) internal view returns (uint256 result) {\n\t\tbool success;\n\t\tassembly {\n\t\t\tlet freemem := mload(0x40)\n\t\t\tmstore(freemem, 0x20)\n\t\t\tmstore(add(freemem,0x20), 0x20)\n\t\t\tmstore(add(freemem,0x40), 0x20)\n\t\t\tmstore(add(freemem,0x60), a)\n\t\t\tmstore(add(freemem,0x80), sub(n, 2))\n\t\t\tmstore(add(freemem,0xA0), n)\n\t\t\tsuccess := staticcall(sub(gas, 2000), 5, freemem, 0xC0, freemem, 0x20)\n\t\t\tresult := mload(freemem)\n\t\t}\n\t\trequire(success);\n\t}\n\n\tfunction _fromJacobian(\n\t\tuint256 pt1xx, uint256 pt1xy,\n\t\tuint256 pt1yx, uint256 pt1yy,\n\t\tuint256 pt1zx, uint256 pt1zy\n\t) internal view returns (\n\t\tuint256 pt2xx, uint256 pt2xy,\n\t\tuint256 pt2yx, uint256 pt2yy\n\t) {\n\t\tuint256 invzx;\n\t\tuint256 invzy;\n\t\t(invzx, invzy) = _FQ2Inv(pt1zx, pt1zy);\n\t\t(pt2xx, pt2xy) = _FQ2Mul(pt1xx, pt1xy, invzx, invzy);\n\t\t(pt2yx, pt2yy) = _FQ2Mul(pt1yx, pt1yy, invzx, invzy);\n\t}\n\n\tfunction _ECTwistAddJacobian(\n\t\tuint256 pt1xx, uint256 pt1xy,\n\t\tuint256 pt1yx, uint256 pt1yy,\n\t\tuint256 pt1zx, uint256 pt1zy,\n\t\tuint256 pt2xx, uint256 pt2xy,\n\t\tuint256 pt2yx, uint256 pt2yy,\n\t\tuint256 pt2zx, uint256 pt2zy) internal pure returns (uint256[6] memory pt3) {\n\t\t\tif (pt1zx == 0 && pt1zy == 0) {\n\t\t\t\t(\n\t\t\t\t\tpt3[PTXX], pt3[PTXY],\n\t\t\t\t\tpt3[PTYX], pt3[PTYY],\n\t\t\t\t\tpt3[PTZX], pt3[PTZY]\n\t\t\t\t) = (\n\t\t\t\t\tpt2xx, pt2xy,\n\t\t\t\t\tpt2yx, pt2yy,\n\t\t\t\t\tpt2zx, pt2zy\n\t\t\t\t);\n\t\t\t\treturn pt3;\n\t\t\t} else if (pt2zx == 0 && pt2zy == 0) {\n\t\t\t\t(\n\t\t\t\t\tpt3[PTXX], pt3[PTXY],\n\t\t\t\t\tpt3[PTYX], pt3[PTYY],\n\t\t\t\t\tpt3[PTZX], pt3[PTZY]\n\t\t\t\t) = (\n\t\t\t\t\tpt1xx, pt1xy,\n\t\t\t\t\tpt1yx, pt1yy,\n\t\t\t\t\tpt1zx, pt1zy\n\t\t\t\t);\n\t\t\t\treturn pt3;\n\t\t\t}\n\n\t\t\t(pt2yx,     pt2yy)     = _FQ2Mul(pt2yx, pt2yy, pt1zx, pt1zy); // U1 = y2 * z1\n\t\t\t(pt3[PTYX], pt3[PTYY]) = _FQ2Mul(pt1yx, pt1yy, pt2zx, pt2zy); // U2 = y1 * z2\n\t\t\t(pt2xx,     pt2xy)     = _FQ2Mul(pt2xx, pt2xy, pt1zx, pt1zy); // V1 = x2 * z1\n\t\t\t(pt3[PTZX], pt3[PTZY]) = _FQ2Mul(pt1xx, pt1xy, pt2zx, pt2zy); // V2 = x1 * z2\n\n\t\t\tif (pt2xx == pt3[PTZX] && pt2xy == pt3[PTZY]) {\n\t\t\t\tif (pt2yx == pt3[PTYX] && pt2yy == pt3[PTYY]) {\n\t\t\t\t\t(\n\t\t\t\t\t\tpt3[PTXX], pt3[PTXY],\n\t\t\t\t\t\tpt3[PTYX], pt3[PTYY],\n\t\t\t\t\t\tpt3[PTZX], pt3[PTZY]\n\t\t\t\t\t) = _ECTwistDoubleJacobian(pt1xx, pt1xy, pt1yx, pt1yy, pt1zx, pt1zy);\n\t\t\t\t\treturn pt3;\n\t\t\t\t}\n\t\t\t\t(\n\t\t\t\t\tpt3[PTXX], pt3[PTXY],\n\t\t\t\t\tpt3[PTYX], pt3[PTYY],\n\t\t\t\t\tpt3[PTZX], pt3[PTZY]\n\t\t\t\t) = (\n\t\t\t\t\t1, 0,\n\t\t\t\t\t1, 0,\n\t\t\t\t\t0, 0\n\t\t\t\t);\n\t\t\t\treturn pt3;\n\t\t\t}\n\n\t\t\t(pt2zx,     pt2zy)     = _FQ2Mul(pt1zx, pt1zy, pt2zx,     pt2zy);     // W = z1 * z2\n\t\t\t(pt1xx,     pt1xy)     = _FQ2Sub(pt2yx, pt2yy, pt3[PTYX], pt3[PTYY]); // U = U1 - U2\n\t\t\t(pt1yx,     pt1yy)     = _FQ2Sub(pt2xx, pt2xy, pt3[PTZX], pt3[PTZY]); // V = V1 - V2\n\t\t\t(pt1zx,     pt1zy)     = _FQ2Mul(pt1yx, pt1yy, pt1yx,     pt1yy);     // V_squared = V * V\n\t\t\t(pt2yx,     pt2yy)     = _FQ2Mul(pt1zx, pt1zy, pt3[PTZX], pt3[PTZY]); // V_squared_times_V2 = V_squared * V2\n\t\t\t(pt1zx,     pt1zy)     = _FQ2Mul(pt1zx, pt1zy, pt1yx,     pt1yy);     // V_cubed = V * V_squared\n\t\t\t(pt3[PTZX], pt3[PTZY]) = _FQ2Mul(pt1zx, pt1zy, pt2zx,     pt2zy);     // newz = V_cubed * W\n\t\t\t(pt2xx,     pt2xy)     = _FQ2Mul(pt1xx, pt1xy, pt1xx,     pt1xy);     // U * U\n\t\t\t(pt2xx,     pt2xy)     = _FQ2Mul(pt2xx, pt2xy, pt2zx,     pt2zy);     // U * U * W\n\t\t\t(pt2xx,     pt2xy)     = _FQ2Sub(pt2xx, pt2xy, pt1zx,     pt1zy);     // U * U * W - V_cubed\n\t\t\t(pt2zx,     pt2zy)     = _FQ2Muc(pt2yx, pt2yy, 2);                    // 2 * V_squared_times_V2\n\t\t\t(pt2xx,     pt2xy)     = _FQ2Sub(pt2xx, pt2xy, pt2zx,     pt2zy);     // A = U * U * W - V_cubed - 2 * V_squared_times_V2\n\t\t\t(pt3[PTXX], pt3[PTXY]) = _FQ2Mul(pt1yx, pt1yy, pt2xx,     pt2xy);     // newx = V * A\n\t\t\t(pt1yx,     pt1yy)     = _FQ2Sub(pt2yx, pt2yy, pt2xx,     pt2xy);     // V_squared_times_V2 - A\n\t\t\t(pt1yx,     pt1yy)     = _FQ2Mul(pt1xx, pt1xy, pt1yx,     pt1yy);     // U * (V_squared_times_V2 - A)\n\t\t\t(pt1xx,     pt1xy)     = _FQ2Mul(pt1zx, pt1zy, pt3[PTYX], pt3[PTYY]); // V_cubed * U2\n\t\t\t(pt3[PTYX], pt3[PTYY]) = _FQ2Sub(pt1yx, pt1yy, pt1xx,     pt1xy);     // newy = U * (V_squared_times_V2 - A) - V_cubed * U2\n\t}\n\n\tfunction _ECTwistDoubleJacobian(\n\t\tuint256 pt1xx, uint256 pt1xy,\n\t\tuint256 pt1yx, uint256 pt1yy,\n\t\tuint256 pt1zx, uint256 pt1zy\n\t) internal pure returns (\n\t\tuint256 pt2xx, uint256 pt2xy,\n\t\tuint256 pt2yx, uint256 pt2yy,\n\t\tuint256 pt2zx, uint256 pt2zy\n\t) {\n\t\t(pt2xx, pt2xy) = _FQ2Muc(pt1xx, pt1xy, 3);            // 3 * x\n\t\t(pt2xx, pt2xy) = _FQ2Mul(pt2xx, pt2xy, pt1xx, pt1xy); // W = 3 * x * x\n\t\t(pt1zx, pt1zy) = _FQ2Mul(pt1yx, pt1yy, pt1zx, pt1zy); // S = y * z\n\t\t(pt2yx, pt2yy) = _FQ2Mul(pt1xx, pt1xy, pt1yx, pt1yy); // x * y\n\t\t(pt2yx, pt2yy) = _FQ2Mul(pt2yx, pt2yy, pt1zx, pt1zy); // B = x * y * S\n\t\t(pt1xx, pt1xy) = _FQ2Mul(pt2xx, pt2xy, pt2xx, pt2xy); // W * W\n\t\t(pt2zx, pt2zy) = _FQ2Muc(pt2yx, pt2yy, 8);            // 8 * B\n\t\t(pt1xx, pt1xy) = _FQ2Sub(pt1xx, pt1xy, pt2zx, pt2zy); // H = W * W - 8 * B\n\t\t(pt2zx, pt2zy) = _FQ2Mul(pt1zx, pt1zy, pt1zx, pt1zy); // S_squared = S * S\n\t\t(pt2yx, pt2yy) = _FQ2Muc(pt2yx, pt2yy, 4);            // 4 * B\n\t\t(pt2yx, pt2yy) = _FQ2Sub(pt2yx, pt2yy, pt1xx, pt1xy); // 4 * B - H\n\t\t(pt2yx, pt2yy) = _FQ2Mul(pt2yx, pt2yy, pt2xx, pt2xy); // W * (4 * B - H)\n\t\t(pt2xx, pt2xy) = _FQ2Muc(pt1yx, pt1yy, 8);            // 8 * y\n\t\t(pt2xx, pt2xy) = _FQ2Mul(pt2xx, pt2xy, pt1yx, pt1yy); // 8 * y * y\n\t\t(pt2xx, pt2xy) = _FQ2Mul(pt2xx, pt2xy, pt2zx, pt2zy); // 8 * y * y * S_squared\n\t\t(pt2yx, pt2yy) = _FQ2Sub(pt2yx, pt2yy, pt2xx, pt2xy); // newy = W * (4 * B - H) - 8 * y * y * S_squared\n\t\t(pt2xx, pt2xy) = _FQ2Muc(pt1xx, pt1xy, 2);            // 2 * H\n\t\t(pt2xx, pt2xy) = _FQ2Mul(pt2xx, pt2xy, pt1zx, pt1zy); // newx = 2 * H * S\n\t\t(pt2zx, pt2zy) = _FQ2Mul(pt1zx, pt1zy, pt2zx, pt2zy); // S * S_squared\n\t\t(pt2zx, pt2zy) = _FQ2Muc(pt2zx, pt2zy, 8);            // newz = 8 * S * S_squared\n\t}\n\n\tfunction _ECTwistMulJacobian(\n\t\tuint256 _d,\n\t\tuint256 _pt1xx, uint256 _pt1xy,\n\t\tuint256 _pt1yx, uint256 _pt1yy,\n\t\tuint256 _pt1zx, uint256 _pt1zy\n\t) internal pure returns (uint256[6] memory pt2) {\n\t\tuint256 d = _d;\n\t\tuint256 pt1xx = _pt1xx;\n\t\tuint256 pt1xy = _pt1xy;\n\t\tuint256 pt1yx = _pt1yx;\n\t\tuint256 pt1yy = _pt1yy;\n\t\tuint256 pt1zx = _pt1zx;\n\t\tuint256 pt1zy = _pt1zy;\n\t\twhile (d != 0) {\n\t\t\tif ((d & 1) != 0) {\n\t\t\t\tpt2 = _ECTwistAddJacobian(\n\t\t\t\t\tpt2[PTXX], pt2[PTXY],\n\t\t\t\t\tpt2[PTYX], pt2[PTYY],\n\t\t\t\t\tpt2[PTZX], pt2[PTZY],\n\t\t\t\t\tpt1xx, pt1xy,\n\t\t\t\t\tpt1yx, pt1yy,\n\t\t\t\t\tpt1zx, pt1zy);\n\t\t\t}\n\t\t\t(\n\t\t\t\tpt1xx, pt1xy,\n\t\t\t\tpt1yx, pt1yy,\n\t\t\t\tpt1zx, pt1zy\n\t\t\t) = _ECTwistDoubleJacobian(\n\t\t\t\tpt1xx, pt1xy,\n\t\t\t\tpt1yx, pt1yy,\n\t\t\t\tpt1zx, pt1zy\n\t\t\t);\n\n\t\t\td = d / 2;\n\t\t}\n\t}\n}\n",
  "sourcePath": "D:\\Myproject\\AttriChain\\contracts\\utillib\\ECopsG2.sol",
  "compiler": {
    "name": "solc",
    "version": "0.4.23+commit.124ca40d.Emscripten.clang"
  },
  "schemaVersion": "2.0.0",
  "updatedAt": "2020-07-17T04:29:27.773Z"
}