{
  "contractName": "test",
  "abi": [
    {
      "inputs": [],
      "payable": false,
      "stateMutability": "nonpayable",
      "type": "constructor"
    },
    {
      "constant": false,
      "inputs": [
        {
          "name": "uid",
          "type": "uint256"
        }
      ],
      "name": "request",
      "outputs": [],
      "payable": false,
      "stateMutability": "nonpayable",
      "type": "function"
    }
  ],
  "bytecode": "0x6080604052348015600f57600080fd5b50609d8061001e6000396000f300608060405260043610603f576000357c0100000000000000000000000000000000000000000000000000000000900463ffffffff168063d845a4b3146044575b600080fd5b348015604f57600080fd5b50606c60048036038101908080359060200190929190505050606e565b005b505600a165627a7a723058205a783d55d71d3510a3de8bb540c93a5957ae2b921ad61db497f0c99ce64177b50029",
  "source": "pragma solidity >=0.4.2;\r\n\r\nimport \"./nizk/LibNIZK.sol\";\r\nimport \"./LibDTBE.sol\";\r\n\r\ncontract test {\r\n    constructor() public {\r\n\r\n    }\r\n\r\n    function request(uint uid) public {\r\n        \r\n    }\r\n}",
  "sourcePath": "D:\\Myproject\\AttriChain\\contracts\\test.sol",
  "compiler": {
    "name": "solc",
    "version": "0.4.23+commit.124ca40d.Emscripten.clang"
  },
  "schemaVersion": "2.0.0",
  "updatedAt": "2020-07-04T14:05:11.843Z"
}