{
  "contractName": "test_dtbe_main",
  "abi": [
    {
      "constant": true,
      "inputs": [
        {
          "name": "",
          "type": "uint256"
        }
      ],
      "name": "esk",
      "outputs": [
        {
          "name": "ui",
          "type": "uint256"
        },
        {
          "name": "vi",
          "type": "uint256"
        }
      ],
      "payable": false,
      "stateMutability": "view",
      "type": "function"
    },
    {
      "constant": true,
      "inputs": [
        {
          "name": "",
          "type": "uint256"
        }
      ],
      "name": "esvk",
      "outputs": [
        {
          "components": [
            {
              "name": "X",
              "type": "uint256[2]"
            },
            {
              "name": "Y",
              "type": "uint256[2]"
            }
          ],
          "name": "Ui",
          "type": "tuple"
        },
        {
          "components": [
            {
              "name": "X",
              "type": "uint256[2]"
            },
            {
              "name": "Y",
              "type": "uint256[2]"
            }
          ],
          "name": "Vi",
          "type": "tuple"
        }
      ],
      "payable": false,
      "stateMutability": "view",
      "type": "function"
    },
    {
      "constant": true,
      "inputs": [
        {
          "name": "",
          "type": "uint256"
        }
      ],
      "name": "V",
      "outputs": [
        {
          "components": [
            {
              "name": "X",
              "type": "uint256"
            },
            {
              "name": "Y",
              "type": "uint256"
            }
          ],
          "name": "Ci1",
          "type": "tuple"
        },
        {
          "components": [
            {
              "name": "X",
              "type": "uint256"
            },
            {
              "name": "Y",
              "type": "uint256"
            }
          ],
          "name": "Ci2",
          "type": "tuple"
        }
      ],
      "payable": false,
      "stateMutability": "view",
      "type": "function"
    },
    {
      "constant": true,
      "inputs": [
        {
          "name": "",
          "type": "uint256"
        }
      ],
      "name": "c_dtbe",
      "outputs": [
        {
          "name": "X",
          "type": "uint256"
        },
        {
          "name": "Y",
          "type": "uint256"
        }
      ],
      "payable": false,
      "stateMutability": "view",
      "type": "function"
    },
    {
      "constant": true,
      "inputs": [],
      "name": "epk",
      "outputs": [
        {
          "components": [
            {
              "name": "_p",
              "type": "uint256"
            },
            {
              "components": [
                {
                  "name": "X",
                  "type": "uint256"
                },
                {
                  "name": "Y",
                  "type": "uint256"
                }
              ],
              "name": "G",
              "type": "tuple"
            },
            {
              "components": [
                {
                  "name": "X",
                  "type": "uint256[2]"
                },
                {
                  "name": "Y",
                  "type": "uint256[2]"
                }
              ],
              "name": "_G",
              "type": "tuple"
            },
            {
              "name": "_ECG1",
              "type": "string"
            },
            {
              "name": "_ECG2",
              "type": "string"
            },
            {
              "name": "_pairing",
              "type": "string"
            }
          ],
          "name": "P",
          "type": "tuple"
        },
        {
          "components": [
            {
              "name": "X",
              "type": "uint256"
            },
            {
              "name": "Y",
              "type": "uint256"
            }
          ],
          "name": "H",
          "type": "tuple"
        },
        {
          "components": [
            {
              "name": "X",
              "type": "uint256[2]"
            },
            {
              "name": "Y",
              "type": "uint256[2]"
            }
          ],
          "name": "_H",
          "type": "tuple"
        },
        {
          "components": [
            {
              "name": "X",
              "type": "uint256"
            },
            {
              "name": "Y",
              "type": "uint256"
            }
          ],
          "name": "U",
          "type": "tuple"
        },
        {
          "components": [
            {
              "name": "X",
              "type": "uint256[2]"
            },
            {
              "name": "Y",
              "type": "uint256[2]"
            }
          ],
          "name": "_U",
          "type": "tuple"
        },
        {
          "components": [
            {
              "name": "X",
              "type": "uint256"
            },
            {
              "name": "Y",
              "type": "uint256"
            }
          ],
          "name": "V",
          "type": "tuple"
        },
        {
          "components": [
            {
              "name": "X",
              "type": "uint256[2]"
            },
            {
              "name": "Y",
              "type": "uint256[2]"
            }
          ],
          "name": "_V",
          "type": "tuple"
        },
        {
          "components": [
            {
              "name": "X",
              "type": "uint256"
            },
            {
              "name": "Y",
              "type": "uint256"
            }
          ],
          "name": "W",
          "type": "tuple"
        },
        {
          "components": [
            {
              "name": "X",
              "type": "uint256[2]"
            },
            {
              "name": "Y",
              "type": "uint256[2]"
            }
          ],
          "name": "_W",
          "type": "tuple"
        },
        {
          "components": [
            {
              "name": "X",
              "type": "uint256"
            },
            {
              "name": "Y",
              "type": "uint256"
            }
          ],
          "name": "Z",
          "type": "tuple"
        },
        {
          "components": [
            {
              "name": "X",
              "type": "uint256[2]"
            },
            {
              "name": "Y",
              "type": "uint256[2]"
            }
          ],
          "name": "_Z",
          "type": "tuple"
        }
      ],
      "payable": false,
      "stateMutability": "view",
      "type": "function"
    },
    {
      "constant": false,
      "inputs": [
        {
          "name": "i",
          "type": "uint256"
        }
      ],
      "name": "dtbe_shareVerify",
      "outputs": [
        {
          "name": "",
          "type": "bool"
        }
      ],
      "payable": false,
      "stateMutability": "nonpayable",
      "type": "function"
    },
    {
      "constant": false,
      "inputs": [
        {
          "name": "i",
          "type": "uint256"
        }
      ],
      "name": "dtbe_shareDec",
      "outputs": [],
      "payable": false,
      "stateMutability": "nonpayable",
      "type": "function"
    },
    {
      "constant": false,
      "inputs": [],
      "name": "dtbe_combine",
      "outputs": [],
      "payable": false,
      "stateMutability": "nonpayable",
      "type": "function"
    }
  ],
  "bytecode": "0x608060405234801561001057600080fd5b50615dae80620000216000396000f30060806040526004361061008e576000357c0100000000000000000000000000000000000000000000000000000000900463ffffffff1680631ee2dd5b1461009357806323a4c22e146100aa5780634bc38368146100f257806376cf132b1461013a5780639b3a6da214610182578063a86122e5146101c7578063ab989f551461020f578063e6963c2e14610280575b600080fd5b34801561009f57600080fd5b506100a86102ad565b005b3480156100b657600080fd5b506100d56004803603810190808035906020019092919050505061097a565b604051808381526020018281526020019250505060405180910390f35b3480156100fe57600080fd5b5061011d600480360381019080803590602001909291905050506109ad565b604051808381526020018281526020019250505060405180910390f35b34801561014657600080fd5b5061016560048036038101908080359060200190929190505050610b08565b604051808381526020018281526020019250505060405180910390f35b34801561018e57600080fd5b506101ad60048036038101908080359060200190929190505050610b77565b604051808215151515815260200191505060405180910390f35b3480156101d357600080fd5b506101f260048036038101908080359060200190929190505050611423565b604051808381526020018281526020019250505060405180910390f35b34801561021b57600080fd5b50610224611456565b604051808c81526020018b81526020018a81526020018981526020018881526020018781526020018681526020018581526020018481526020018381526020018281526020019b50505050505050505050505060405180910390f35b34801561028c57600080fd5b506102ab60048036038101908080359060200190929190505050611ad9565b005b610977600061016060405190810160405290816000820160c060405190810160405290816000820154815260200160018201604080519081016040529081600082015481526020016001820154815250508152602001600382016040805190810160405290816000820160028060200260405190810160405280929190826002801561034e576020028201915b81548152602001906001019080831161033a575b5050505050815260200160028201600280602002604051908101604052809291908260028015610393576020028201915b81548152602001906001019080831161037f575b5050505050815250508152602001600782018054600181600116156101000203166002900480601f0160208091040260200160405190810160405280929190818152602001828054600181600116156101000203166002900480156104395780601f1061040e57610100808354040283529160200191610439565b820191906000526020600020905b81548152906001019060200180831161041c57829003601f168201915b50505050508152602001600882018054600181600116156101000203166002900480601f0160208091040260200160405190810160405280929190818152602001828054600181600116156101000203166002900480156104db5780601f106104b0576101008083540402835291602001916104db565b820191906000526020600020905b8154815290600101906020018083116104be57829003601f168201915b50505050508152602001600982018054600181600116156101000203166002900480601f01602080910402602001604051908101604052809291908181526020018280546001816001161561010002031660029004801561057d5780601f106105525761010080835404028352916020019161057d565b820191906000526020600020905b81548152906001019060200180831161056057829003601f168201915b5050505050815250508152602001600a8201604080519081016040529081600082015481526020016001820154815250508152602001600c8201604080519081016040529081600082016002806020026040519081016040528092919082600280156105fe576020028201915b8154815260200190600101908083116105ea575b5050505050815260200160028201600280602002604051908101604052809291908260028015610643576020028201915b81548152602001906001019080831161062f575b50505050508152505081526020016010820160408051908101604052908160008201548152602001600182015481525050815260200160128201604080519081016040529081600082016002806020026040519081016040528092919082600280156106c4576020028201915b8154815260200190600101908083116106b0575b5050505050815260200160028201600280602002604051908101604052809291908260028015610709576020028201915b8154815260200190600101908083116106f5575b505050505081525050815260200160168201604080519081016040529081600082015481526020016001820154815250508152602001601882016040805190810160405290816000820160028060200260405190810160405280929190826002801561078a576020028201915b815481526020019060010190808311610776575b50505050508152602001600282016002806020026040519081016040528092919082600280156107cf576020028201915b8154815260200190600101908083116107bb575b5050505050815250508152602001601c8201604080519081016040529081600082015481526020016001820154815250508152602001601e820160408051908101604052908160008201600280602002604051908101604052809291908260028015610850576020028201915b81548152602001906001019080831161083c575b5050505050815260200160028201600280602002604051908101604052809291908260028015610895576020028201915b815481526020019060010190808311610881575b5050505050815250508152602001602282016040805190810160405290816000820154815260200160018201548152505081526020016024820160408051908101604052908160008201600280602002604051908101604052809291908260028015610916576020028201915b815481526020019060010190808311610902575b505050505081526020016002820160028060200260405190810160405280929190826002801561095b576020028201915b815481526020019060010190808311610947575b505050505081525050815250506029602b602a6201e24061223c565b50565b60288181548110151561098957fe5b90600052602060002090600202016000915090508060000154908060010154905082565b6029818154811015156109bc57fe5b90600052602060002090600802016000915090508060000160408051908101604052908160008201600280602002604051908101604052809291908260028015610a1b576020028201915b815481526020019060010190808311610a07575b5050505050815260200160028201600280602002604051908101604052809291908260028015610a60576020028201915b815481526020019060010190808311610a4c575b505050505081525050908060040160408051908101604052908160008201600280602002604051908101604052809291908260028015610ab5576020028201915b815481526020019060010190808311610aa1575b5050505050815260200160028201600280602002604051908101604052809291908260028015610afa576020028201915b815481526020019060010190808311610ae6575b505050505081525050905082565b602b81815481101515610b1757fe5b90600052602060002090600402016000915090508060000160408051908101604052908160008201548152602001600182015481525050908060020160408051908101604052908160008201548152602001600182015481525050905082565b600061141c600061016060405190810160405290816000820160c0604051908101604052908160008201548152602001600182016040805190810160405290816000820154815260200160018201548152505081526020016003820160408051908101604052908160008201600280602002604051908101604052809291908260028015610c1a576020028201915b815481526020019060010190808311610c06575b5050505050815260200160028201600280602002604051908101604052809291908260028015610c5f576020028201915b815481526020019060010190808311610c4b575b5050505050815250508152602001600782018054600181600116156101000203166002900480601f016020809104026020016040519081016040528092919081815260200182805460018160011615610100020316600290048015610d055780601f10610cda57610100808354040283529160200191610d05565b820191906000526020600020905b815481529060010190602001808311610ce857829003601f168201915b50505050508152602001600882018054600181600116156101000203166002900480601f016020809104026020016040519081016040528092919081815260200182805460018160011615610100020316600290048015610da75780601f10610d7c57610100808354040283529160200191610da7565b820191906000526020600020905b815481529060010190602001808311610d8a57829003601f168201915b50505050508152602001600982018054600181600116156101000203166002900480601f016020809104026020016040519081016040528092919081815260200182805460018160011615610100020316600290048015610e495780601f10610e1e57610100808354040283529160200191610e49565b820191906000526020600020905b815481529060010190602001808311610e2c57829003601f168201915b5050505050815250508152602001600a8201604080519081016040529081600082015481526020016001820154815250508152602001600c820160408051908101604052908160008201600280602002604051908101604052809291908260028015610eca576020028201915b815481526020019060010190808311610eb6575b5050505050815260200160028201600280602002604051908101604052809291908260028015610f0f576020028201915b815481526020019060010190808311610efb575b5050505050815250508152602001601082016040805190810160405290816000820154815260200160018201548152505081526020016012820160408051908101604052908160008201600280602002604051908101604052809291908260028015610f90576020028201915b815481526020019060010190808311610f7c575b5050505050815260200160028201600280602002604051908101604052809291908260028015610fd5576020028201915b815481526020019060010190808311610fc1575b5050505050815250508152602001601682016040805190810160405290816000820154815260200160018201548152505081526020016018820160408051908101604052908160008201600280602002604051908101604052809291908260028015611056576020028201915b815481526020019060010190808311611042575b505050505081526020016002820160028060200260405190810160405280929190826002801561109b576020028201915b815481526020019060010190808311611087575b5050505050815250508152602001601c8201604080519081016040529081600082015481526020016001820154815250508152602001601e82016040805190810160405290816000820160028060200260405190810160405280929190826002801561111c576020028201915b815481526020019060010190808311611108575b5050505050815260200160028201600280602002604051908101604052809291908260028015611161576020028201915b81548152602001906001019080831161114d575b50505050508152505081526020016022820160408051908101604052908160008201548152602001600182015481525050815260200160248201604080519081016040529081600082016002806020026040519081016040528092919082600280156111e2576020028201915b8154815260200190600101908083116111ce575b5050505050815260200160028201600280602002604051908101604052809291908260028015611227576020028201915b815481526020019060010190808311611213575b5050505050815250508152505060298481548110151561124357fe5b906000526020600020906008020160408051908101604052908160008201604080519081016040529081600082016002806020026040519081016040528092919082600280156112a8576020028201915b815481526020019060010190808311611294575b50505050508152602001600282016002806020026040519081016040528092919082600280156112ed576020028201915b8154815260200190600101908083116112d9575b50505050508152505081526020016004820160408051908101604052908160008201600280602002604051908101604052809291908260028015611346576020028201915b815481526020019060010190808311611332575b505050505081526020016002820160028060200260405190810160405280929190826002801561138b576020028201915b815481526020019060010190808311611377575b505050505081525050815250506201e240602a602b60008154811015156113ae57fe5b906000526020600020906004020160408051908101604052908160008201604080519081016040529081600082015481526020016001820154815250508152602001600282016040805190810160405290816000820154815260200160018201548152505081525050612759565b9050919050565b602a8181548110151561143257fe5b90600052602060002090600202016000915090508060000154908060010154905082565b60008060000160c06040519081016040529081600082015481526020016001820160408051908101604052908160008201548152602001600182015481525050815260200160038201604080519081016040529081600082016002806020026040519081016040528092919082600280156114e6576020028201915b8154815260200190600101908083116114d2575b505050505081526020016002820160028060200260405190810160405280929190826002801561152b576020028201915b815481526020019060010190808311611517575b5050505050815250508152602001600782018054600181600116156101000203166002900480601f0160208091040260200160405190810160405280929190818152602001828054600181600116156101000203166002900480156115d15780601f106115a6576101008083540402835291602001916115d1565b820191906000526020600020905b8154815290600101906020018083116115b457829003601f168201915b50505050508152602001600882018054600181600116156101000203166002900480601f0160208091040260200160405190810160405280929190818152602001828054600181600116156101000203166002900480156116735780601f1061164857610100808354040283529160200191611673565b820191906000526020600020905b81548152906001019060200180831161165657829003601f168201915b50505050508152602001600982018054600181600116156101000203166002900480601f0160208091040260200160405190810160405280929190818152602001828054600181600116156101000203166002900480156117155780601f106116ea57610100808354040283529160200191611715565b820191906000526020600020905b8154815290600101906020018083116116f857829003601f168201915b5050505050815250509080600a01604080519081016040529081600082015481526020016001820154815250509080600c016040805190810160405290816000820160028060200260405190810160405280929190826002801561178e576020028201915b81548152602001906001019080831161177a575b50505050508152602001600282016002806020026040519081016040528092919082600280156117d3576020028201915b8154815260200190600101908083116117bf575b50505050508152505090806010016040805190810160405290816000820154815260200160018201548152505090806012016040805190810160405290816000820160028060200260405190810160405280929190826002801561184c576020028201915b815481526020019060010190808311611838575b5050505050815260200160028201600280602002604051908101604052809291908260028015611891576020028201915b81548152602001906001019080831161187d575b50505050508152505090806016016040805190810160405290816000820154815260200160018201548152505090806018016040805190810160405290816000820160028060200260405190810160405280929190826002801561190a576020028201915b8154815260200190600101908083116118f6575b505050505081526020016002820160028060200260405190810160405280929190826002801561194f576020028201915b81548152602001906001019080831161193b575b5050505050815250509080601c01604080519081016040529081600082015481526020016001820154815250509080601e01604080519081016040529081600082016002806020026040519081016040528092919082600280156119c8576020028201915b8154815260200190600101908083116119b4575b5050505050815260200160028201600280602002604051908101604052809291908260028015611a0d576020028201915b8154815260200190600101908083116119f9575b505050505081525050908060220160408051908101604052908160008201548152602001600182015481525050908060240160408051908101604052908160008201600280602002604051908101604052809291908260028015611a86576020028201915b815481526020019060010190808311611a72575b5050505050815260200160028201600280602002604051908101604052809291908260028015611acb576020028201915b815481526020019060010190808311611ab7575b50505050508152505090508b565b6121db600061016060405190810160405290816000820160c0604051908101604052908160008201548152602001600182016040805190810160405290816000820154815260200160018201548152505081526020016003820160408051908101604052908160008201600280602002604051908101604052809291908260028015611b7a576020028201915b815481526020019060010190808311611b66575b5050505050815260200160028201600280602002604051908101604052809291908260028015611bbf576020028201915b815481526020019060010190808311611bab575b5050505050815250508152602001600782018054600181600116156101000203166002900480601f016020809104026020016040519081016040528092919081815260200182805460018160011615610100020316600290048015611c655780601f10611c3a57610100808354040283529160200191611c65565b820191906000526020600020905b815481529060010190602001808311611c4857829003601f168201915b50505050508152602001600882018054600181600116156101000203166002900480601f016020809104026020016040519081016040528092919081815260200182805460018160011615610100020316600290048015611d075780601f10611cdc57610100808354040283529160200191611d07565b820191906000526020600020905b815481529060010190602001808311611cea57829003601f168201915b50505050508152602001600982018054600181600116156101000203166002900480601f016020809104026020016040519081016040528092919081815260200182805460018160011615610100020316600290048015611da95780601f10611d7e57610100808354040283529160200191611da9565b820191906000526020600020905b815481529060010190602001808311611d8c57829003601f168201915b5050505050815250508152602001600a8201604080519081016040529081600082015481526020016001820154815250508152602001600c820160408051908101604052908160008201600280602002604051908101604052809291908260028015611e2a576020028201915b815481526020019060010190808311611e16575b5050505050815260200160028201600280602002604051908101604052809291908260028015611e6f576020028201915b815481526020019060010190808311611e5b575b5050505050815250508152602001601082016040805190810160405290816000820154815260200160018201548152505081526020016012820160408051908101604052908160008201600280602002604051908101604052809291908260028015611ef0576020028201915b815481526020019060010190808311611edc575b5050505050815260200160028201600280602002604051908101604052809291908260028015611f35576020028201915b815481526020019060010190808311611f21575b5050505050815250508152602001601682016040805190810160405290816000820154815260200160018201548152505081526020016018820160408051908101604052908160008201600280602002604051908101604052809291908260028015611fb6576020028201915b815481526020019060010190808311611fa2575b5050505050815260200160028201600280602002604051908101604052809291908260028015611ffb576020028201915b815481526020019060010190808311611fe7575b5050505050815250508152602001601c8201604080519081016040529081600082015481526020016001820154815250508152602001601e82016040805190810160405290816000820160028060200260405190810160405280929190826002801561207c576020028201915b815481526020019060010190808311612068575b50505050508152602001600282016002806020026040519081016040528092919082600280156120c1576020028201915b8154815260200190600101908083116120ad575b5050505050815250508152602001602282016040805190810160405290816000820154815260200160018201548152505081526020016024820160408051908101604052908160008201600280602002604051908101604052809291908260028015612142576020028201915b81548152602001906001019080831161212e575b5050505050815260200160028201600280602002604051908101604052809291908260028015612187576020028201915b815481526020019060010190808311612173575b505050505081525050815250506028838154811015156121a357fe5b9060005260206000209060020201604080519081016040529081600082015481526020016001820154815250506201e240602a612a9c565b602b828154811015156121ea57fe5b9060005260206000209060040201600082015181600001600082015181600001556020820151816001015550506020820151816002016000820151816000015560208201518160010155505090505050565b612244615c98565b60008061224f615c98565b612257615c98565b6122628a8789612c55565b1515156122d7576040517f08c379a00000000000000000000000000000000000000000000000000000000081526004018080602001828103825260158152602001807f4552524f5221466f7263656420746f2073746f702e000000000000000000000081525060200191505060405180910390fd5b88805490509350600092505b8383101561254a576124d08a8a858154811015156122fd57fe5b90600052602060002090600802016040805190810160405290816000820160408051908101604052908160008201600280602002604051908101604052809291908260028015612362576020028201915b81548152602001906001019080831161234e575b50505050508152602001600282016002806020026040519081016040528092919082600280156123a7576020028201915b815481526020019060010190808311612393575b50505050508152505081526020016004820160408051908101604052908160008201600280602002604051908101604052809291908260028015612400576020028201915b8154815260200190600101908083116123ec575b5050505050815260200160028201600280602002604051908101604052809291908260028015612445576020028201915b815481526020019060010190808311612431575b50505050508152505081525050888a8c8881548110151561246257fe5b906000526020600020906004020160408051908101604052908160008201604080519081016040529081600082015481526020016001820154815250508152602001600282016040805190810160405290816000820154815260200160018201548152505081525050612759565b151515612545576040517f08c379a00000000000000000000000000000000000000000000000000000000081526004018080602001828103825260158152602001807f4552524f5221466f7263656420746f2073746f702e000000000000000000000081525060200191505060405180910390fd5b6122e3565b6125d088600081548110151561255c57fe5b90600052602060002090600402016000016040805190810160405290816000820154815260200160018201548152505089600081548110151561259b57fe5b906000526020600020906004020160020160408051908101604052908160008201548152602001600182015481525050613248565b604080519081016040529081600082015481526020016001820154815250509150600192505b838310156126d8576126aa826126868a8681548110151561261357fe5b9060005260206000209060040201600001604080519081016040529081600082015481526020016001820154815250508b8781548110151561265157fe5b906000526020600020906004020160020160408051908101604052908160008201548152602001600182015481525050613248565b60408051908101604052908160008201548152602001600182015481525050613248565b60408051908101604052908160008201548152602001600182015481525050915082806001019350506125f6565b6126e182613290565b9150612728828860028154811015156126f657fe5b906000526020600020906002020160408051908101604052908160008201548152602001600182015481525050613248565b6040805190810160405290816000820154815260200160018201548152505090508094505050505095945050505050565b600060608060608061276c8a8989612c55565b1515156127e1576040517f08c379a00000000000000000000000000000000000000000000000000000000081526004018080602001828103825260158152602001807f4552524f5221466f7263656420746f2073746f702e000000000000000000000081525060200191505060405180910390fd5b600260405190808252806020026020018201604052801561281c57816020015b612809615cb2565b8152602001906001900390816128015790505b509350600260405190808252806020026020018201604052801561285a57816020015b612847615ccc565b81526020019060019003908161283f5790505b509250600260405190808252806020026020018201604052801561289857816020015b612885615cb2565b81526020019060019003908161287d5790505b50915060026040519080825280602002602001820160405280156128d657816020015b6128c3615ccc565b8152602001906001900390816128bb5790505b50905085600001518460008151811015156128ed57fe5b9060200190602002018190525061293e87600081548110151561290c57fe5b906000526020600020906002020160408051908101604052908160008201548152602001600182015481525050613290565b84600181518110151561294d57fe5b90602001906020020181905250896040015183600081518110151561296e57fe5b90602001906020020181905250886000015183600181518110151561298f57fe5b9060200190602002018190525085602001518260008151811015156129b057fe5b90602001906020020181905250612a018760018154811015156129cf57fe5b906000526020600020906002020160408051908101604052908160008201548152602001600182015481525050613290565b826001815181101515612a1057fe5b906020019060200201819052508960c00151816000815181101515612a3157fe5b906020019060200201819052508860200151816001815181101515612a5257fe5b90602001906020020181905250612a69848461332b565b1580612a7c5750612a7a828261332b565b155b15612a8a5760009450612a8f565b600194505b5050505095945050505050565b612aa4615cf3565b6000612ab1868585612c55565b151515612b26576040517f08c379a00000000000000000000000000000000000000000000000000000000081526004018080602001828103825260158152602001807f4552524f5221466f7263656420746f2073746f702e000000000000000000000081525060200191505060405180910390fd5b612b6f836000815481101515612b3857fe5b906000526020600020906002020160408051908101604052908160008201548152602001600182015481525050866000015161333f565b816000016000820154816000015560018201548160010155905050612bd3836001815481101515612b9c57fe5b906000526020600020906002020160408051908101604052908160008201548152602001600182015481525050866020015161333f565b8160020160008201548160000155600182015481600101559050508060408051908101604052908160008201604080519081016040529081600082015481526020016001820154815250508152602001600282016040805190810160405290816000820154815260200160018201548152505081525050915050949350505050565b60006060806060806002604051908082528060200260200182016040528015612c9857816020015b612c85615cb2565b815260200190600190039081612c7d5790505b5093506002604051908082528060200260200182016040528015612cd657816020015b612cc3615ccc565b815260200190600190039081612cbb5790505b5092506002604051908082528060200260200182016040528015612d1457816020015b612d01615cb2565b815260200190600190039081612cf95790505b5091506002604051908082528060200260200182016040528015612d5257816020015b612d3f615ccc565b815260200190600190039081612d375790505b509050856000815481101515612d6457fe5b906000526020600020906002020160408051908101604052908160008201548152602001600182015481525050846000815181101515612da057fe5b90602001906020020181905250612df1866003815481101515612dbf57fe5b906000526020600020906002020160408051908101604052908160008201548152602001600182015481525050613290565b846001815181101515612e0057fe5b90602001906020020181905250612ebe612e1e89608001518961337e565b60408051908101604052908160008201600280602002604051908101604052809291908260028015612e65576020028201915b815481526020019060010190808311612e51575b5050505050815260200160028201600280602002604051908101604052809291908260028015612eaa576020028201915b815481526020019060010190808311612e96575b50505050508152505089610100015161368e565b60408051908101604052908160008201600280602002604051908101604052809291908260028015612f05576020028201915b815481526020019060010190808311612ef1575b5050505050815260200160028201600280602002604051908101604052809291908260028015612f4a576020028201915b815481526020019060010190808311612f36575b505050505081525050836000815181101515612f6257fe5b906020019060200201819052508760400151836000815181101515612f8357fe5b906020019060200201819052508760400151836001815181101515612fa457fe5b90602001906020020181905250856001815481101515612fc057fe5b906000526020600020906002020160408051908101604052908160008201548152602001600182015481525050826000815181101515612ffc57fe5b9060200190602002018190525061304d86600481548110151561301b57fe5b906000526020600020906002020160408051908101604052908160008201548152602001600182015481525050613290565b82600181518110151561305c57fe5b9060200190602002018190525061311a61307a89608001518961337e565b604080519081016040529081600082016002806020026040519081016040528092919082600280156130c1576020028201915b8154815260200190600101908083116130ad575b5050505050815260200160028201600280602002604051908101604052809291908260028015613106576020028201915b8154815260200190600101908083116130f2575b50505050508152505089610140015161368e565b60408051908101604052908160008201600280602002604051908101604052809291908260028015613161576020028201915b81548152602001906001019080831161314d575b50505050508152602001600282016002806020026040519081016040528092919082600280156131a6576020028201915b815481526020019060010190808311613192575b5050505050815250508160008151811015156131be57fe5b906020019060200201819052508760c001518160008151811015156131df57fe5b906020019060200201819052508760c0015181600181518110151561320057fe5b90602001906020020181905250613217848461332b565b158061322a5750613228828261332b565b155b15613238576000945061323d565b600194505b505050509392505050565b60008060008061326a8660000151876020015187600001518860200151613f13565b809350819450505082816000018190555081816001018190555080935050505092915050565b613298615c98565b60007f30644e72e131a029b85045b68181585d97816a916871ca8d3c208c16d87cfd479050600083600001511480156132d5575060008360200151145b156132f85760408051908101604052806000815260200160008152509150613325565b60408051908101604052808460000151815260200182856020015181151561331c57fe5b06830381525091505b50919050565b60006133378383613f4d565b905092915050565b60008060008061335886600001518760200151876141e0565b809350819450505082816000018190555081816001018190555080935050505092915050565b600080600080600061338e615d1a565b60008095506000945060009350600092506000896000015160006002811015156133b457fe5b60200201511480156133dd57506000896000015160016002811015156133d657fe5b6020020151145b801561340057506000896020015160006002811015156133f957fe5b6020020151145b8015613423575060008960200151600160028110151561341c57fe5b6020020151145b156134435761343c8860016000600160008060006142ec565b915061358f565b6134ab8960000151600060028110151561345957fe5b60200201518a60000151600160028110151561347157fe5b60200201518b60200151600060028110151561348957fe5b60200201518c6020015160016002811015156134a157fe5b6020020151614401565b151561351f576040517f08c379a00000000000000000000000000000000000000000000000000000000081526004018080602001828103825260058152602001807f657272303500000000000000000000000000000000000000000000000000000081525060200191505060405180910390fd5b61358c888a60000151600060028110151561353657fe5b60200201518b60000151600160028110151561354e57fe5b60200201518c60200151600060028110151561356657fe5b60200201518d60200151600160028110151561357e57fe5b6020020151600160006142ec565b91505b61360f8260006006811015156135a157fe5b60200201518360016006811015156135b557fe5b60200201518460026006811015156135c957fe5b60200201518560036006811015156135dd57fe5b60200201518660046006811015156135f157fe5b602002015187600560068110151561360557fe5b60200201516144ca565b809650819750829850839950505050508581600001600060028110151561363257fe5b01819055508481600001600160028110151561364a57fe5b01819055508381600201600060028110151561366257fe5b01819055508281600201600160028110151561367a57fe5b018190555080965050505050505092915050565b600080613699615d1a565b6000856000015160006002811015156136ae57fe5b60200201511480156136d757506000856000015160016002811015156136d057fe5b6020020151145b80156136fa57506000856020015160006002811015156136f357fe5b6020020151145b801561371d575060008560200151600160028110151561371657fe5b6020020151145b1561395a5760008460000151600060028110151561373757fe5b6020020151148015613760575060008460000151600160028110151561375957fe5b6020020151145b8015613783575060008460200151600060028110151561377c57fe5b6020020151145b80156137a6575060008460200151600160028110151561379f57fe5b6020020151145b151561388957613814846000015160006002811015156137c257fe5b6020020151856000015160016002811015156137da57fe5b6020020151866020015160006002811015156137f257fe5b60200201518760200151600160028110151561380a57fe5b6020020151614401565b1515613888576040517f08c379a00000000000000000000000000000000000000000000000000000000081526004018080602001828103825260058152602001807f657272303100000000000000000000000000000000000000000000000000000081525060200191505060405180910390fd5b5b8360000151600060028110151561389c57fe5b6020020151846000015160016002811015156138b457fe5b6020020151856020015160006002811015156138cc57fe5b6020020151866020015160016002811015156138e457fe5b60200201518560000160006002811015156138fb57fe5b01600087600001600160028110151561391057fe5b01600089600201600060028110151561392557fe5b0160008b600201600160028110151561393a57fe5b016000889190505587919050558691905055859190505550505050613f08565b60008460000151600060028110151561396f57fe5b6020020151148015613998575060008460000151600160028110151561399157fe5b6020020151145b80156139bb57506000846020015160006002811015156139b457fe5b6020020151145b80156139de57506000846020015160016002811015156139d757fe5b6020020151145b15613b9057613a4b856000015160006002811015156139f957fe5b602002015186600001516001600281101515613a1157fe5b602002015187602001516000600281101515613a2957fe5b602002015188602001516001600281101515613a4157fe5b6020020151614401565b1515613abf576040517f08c379a00000000000000000000000000000000000000000000000000000000081526004018080602001828103825260058152602001807f657272303200000000000000000000000000000000000000000000000000000081525060200191505060405180910390fd5b84600001516000600281101515613ad257fe5b602002015185600001516001600281101515613aea57fe5b602002015186602001516000600281101515613b0257fe5b602002015187602001516001600281101515613b1a57fe5b6020020151856000016000600281101515613b3157fe5b016000876000016001600281101515613b4657fe5b016000896002016000600281101515613b5b57fe5b0160008b6002016001600281101515613b7057fe5b016000889190505587919050558691905055859190505550505050613f07565b613bf885600001516000600281101515613ba657fe5b602002015186600001516001600281101515613bbe57fe5b602002015187602001516000600281101515613bd657fe5b602002015188602001516001600281101515613bee57fe5b6020020151614401565b1515613c6c576040517f08c379a00000000000000000000000000000000000000000000000000000000081526004018080602001828103825260058152602001807f657272303300000000000000000000000000000000000000000000000000000081525060200191505060405180910390fd5b613cd484600001516000600281101515613c8257fe5b602002015185600001516001600281101515613c9a57fe5b602002015186602001516000600281101515613cb257fe5b602002015187602001516001600281101515613cca57fe5b6020020151614401565b1515613d48576040517f08c379a00000000000000000000000000000000000000000000000000000000081526004018080602001828103825260058152602001807f657272303400000000000000000000000000000000000000000000000000000081525060200191505060405180910390fd5b613e1885600001516000600281101515613d5e57fe5b602002015186600001516001600281101515613d7657fe5b602002015187602001516000600281101515613d8e57fe5b602002015188602001516001600281101515613da657fe5b6020020151600160008a600001516000600281101515613dc257fe5b60200201518b600001516001600281101515613dda57fe5b60200201518c602001516000600281101515613df257fe5b60200201518d602001516001600281101515613e0a57fe5b60200201516001600061451c565b9050613e9a816000600681101515613e2c57fe5b6020020151826001600681101515613e4057fe5b6020020151836002600681101515613e5457fe5b6020020151846003600681101515613e6857fe5b6020020151856004600681101515613e7c57fe5b6020020151866005600681101515613e9057fe5b60200201516144ca565b856000016000600281101515613eac57fe5b016000876000016001600281101515613ec157fe5b016000896002016000600281101515613ed657fe5b0160008b6002016001600281101515613eeb57fe5b0160008891905055879190505586919050558591905055505050505b5b819250505092915050565b6000806000613f288787600188886001614b6c565b809350819850829950505050613f3f878783614cfc565b925092505094509492505050565b600080600060606000613f5e615d3d565b600087518951141515613f7057600080fd5b8851955060068602945084604051908082528060200260200182016040528015613fa95781602001602082028038833980820191505090505b509350600092505b85831015614186578883815181101515613fc757fe5b90602001906020020151600001518460006006860201815181101515613fe957fe5b9060200190602002018181525050888381518110151561400557fe5b9060200190602002015160200151846001600686020181518110151561402757fe5b9060200190602002018181525050878381518110151561404357fe5b9060200190602002015160000151600060028110151561405f57fe5b6020020151846002600686020181518110151561407857fe5b9060200190602002018181525050878381518110151561409457fe5b906020019060200201516000015160016002811015156140b057fe5b602002015184600360068602018151811015156140c957fe5b906020019060200201818152505087838151811015156140e557fe5b9060200190602002015160200151600060028110151561410157fe5b6020020151846004600686020181518110151561411a57fe5b9060200190602002018181525050878381518110151561413657fe5b9060200190602002015160200151600160028110151561415257fe5b6020020151846005600686020181518110151561416b57fe5b90602001906020020181815250508280600101935050613fb1565b6020826020870260208701600060086107d05a03f1905080600081146141ab576141ad565bfe5b508015156141ba57600080fd5b60008260006001811015156141cb57fe5b60200201511415965050505050505092915050565b6000806000806000806000871415614203576141fa614d73565b955095506142e0565b6001871415614217578888955095506142e0565b60028714156142335761422a8989614d87565b955095506142e0565b8893508792506001915060019050889550879450600060028881151561425557fe5b06141561426457600094508495505b6001879060020a900496505b60008711156142d057614284848484614dbb565b809450819550829650505050600160028881151561429e57fe5b0614156142c0576142b3848484898986614b6c565b8093508197508298505050505b6001879060020a90049650614270565b6142db868683614cfc565b955095505b50505050935093915050565b6142f4615d1a565b60008060008060008060008e96508d95508c94508b93508a92508991508890505b6000871415156143ef576000600188161415156143b5576143b288600060068110151561433e57fe5b602002015189600160068110151561435257fe5b60200201518a600260068110151561436657fe5b60200201518b600360068110151561437a57fe5b60200201518c600460068110151561438e57fe5b60200201518d60056006811015156143a257fe5b60200201518c8c8c8c8c8c61451c565b97505b6143c386868686868661526c565b809650819750829850839950849a50859b505050505050506002878115156143e757fe5b049650614315565b50505050505050979650505050505050565b600080600080600061441587878989615414565b809450819550505061442989898b8b615414565b809250819350505061443d82828b8b615414565b80925081935050506144518484848461552c565b80945081955050506144a484847f2b149d40ceb8aaae81be18991be06ac3b5b4c5e559dbefa33267e6dc24a138e57e9713b03af0fed4cd2cafadeed8fdf4a74fa084e52d1852e4a2bd0685c315d261552c565b80945081955050506000841480156144bc5750600083145b945050505050949350505050565b6000806000806000806144dd8888615592565b80925081935050506144f18c8c8484615414565b80965081975050506145058a8a8484615414565b809450819550505050509650965096509692505050565b614524615d1a565b6000891480156145345750600088145b156145d75786868686868686600060068110151561454e57fe5b6020020187600160068110151561456157fe5b6020020188600260068110151561457457fe5b6020020189600360068110151561458757fe5b602002018a600460068110151561459a57fe5b602002018b60056006811015156145ad57fe5b60200201868152508681525086815250868152508681525086815250505050505050809050614b5c565b6000831480156145e75750600082145b1561468a578c8c8c8c8c8c86600060068110151561460157fe5b6020020187600160068110151561461457fe5b6020020188600260068110151561462757fe5b6020020189600360068110151561463a57fe5b602002018a600460068110151561464d57fe5b602002018b600560068110151561466057fe5b60200201868152508681525086815250868152508681525086815250505050505050809050614b5c565b61469685858b8b615414565b80955081965050506146aa8b8b8585615414565b8260026006811015156146b957fe5b602002018360036006811015156146cc57fe5b60200201828152508281525050506146e687878b8b615414565b80975081985050506146fa8d8d8585615414565b82600460068110151561470957fe5b6020020183600560068110151561471c57fe5b602002018281525082815250505080600460068110151561473957fe5b60200201518714801561475e575080600560068110151561475657fe5b602002015186145b156148f75780600260068110151561477257fe5b602002015185148015614797575080600360068110151561478f57fe5b602002015184145b15614842576147aa8d8d8d8d8d8d61526c565b8660006006811015156147b957fe5b602002018760016006811015156147cc57fe5b602002018860026006811015156147df57fe5b602002018960036006811015156147f257fe5b602002018a600460068110151561480557fe5b602002018b600560068110151561481857fe5b60200201868152508681525086815250868152508681525086815250505050505050809050614b5c565b600160006001600080600085955084945083935082925081915080905086600060068110151561486e57fe5b6020020187600160068110151561488157fe5b6020020188600260068110151561489457fe5b602002018960036006811015156148a757fe5b602002018a60046006811015156148ba57fe5b602002018b60056006811015156148cd57fe5b60200201868152508681525086815250868152508681525086815250505050505050809050614b5c565b61490389898585615414565b809350819450505061493d858583600260068110151561491f57fe5b602002015184600360068110151561493357fe5b602002015161552c565b809d50819e505050614977878783600460068110151561495957fe5b602002015184600560068110151561496d57fe5b602002015161552c565b809b50819c50505061498b8b8b8d8d615414565b809950819a5050506149c589898360046006811015156149a757fe5b60200201518460056006811015156149bb57fe5b6020020151615414565b80955081965050506149d989898d8d615414565b809950819a5050506149ed89898585615414565b8260046006811015156149fc57fe5b60200201836005600681101515614a0f57fe5b6020020182815250828152505050614a298d8d8f8f615414565b8097508198505050614a3d87878585615414565b8097508198505050614a5187878b8b61552c565b8097508198505050614a65858560026156cf565b8093508194505050614a798787858561552c565b8097508198505050614a8d8b8b8989615414565b826000600681101515614a9c57fe5b60200201836001600681101515614aaf57fe5b6020020182815250828152505050614ac98585898961552c565b809b50819c505050614add8d8d8d8d615414565b809b50819c505050614b178989836002600681101515614af957fe5b6020020151846003600681101515614b0d57fe5b6020020151615414565b809d50819e505050614b2b8b8b8f8f61552c565b826002600681101515614b3a57fe5b60200201836003600681101515614b4d57fe5b60200201828152508281525050505b9c9b505050505050505050505050565b6000806000806000806000614b818d8d615738565b15614b9457898989965096509650614cec565b614b9e8a8a615738565b15614bb1578c8c8c965096509650614cec565b7f30644e72e131a029b85045b68181585d97816a916871ca8d3c208c16d87cfd47801515614bdb57fe5b888d0993507f30644e72e131a029b85045b68181585d97816a916871ca8d3c208c16d87cfd47801515614c0a57fe5b8b8a0992507f30644e72e131a029b85045b68181585d97816a916871ca8d3c208c16d87cfd47801515614c3957fe5b888e0991507f30644e72e131a029b85045b68181585d97816a916871ca8d3c208c16d87cfd47801515614c6857fe5b8b8b09905080821415614ca65782841415614c9357614c888d8d8d614dbb565b965096509650614cec565b614c9b615762565b965096509650614cec565b614cdf7f30644e72e131a029b85045b68181585d97816a916871ca8d3c208c16d87cfd47801515614cd357fe5b898d0983838688615780565b8097508198508299505050505b5050505096509650969350505050565b6000806000614d0a84615b36565b90507f30644e72e131a029b85045b68181585d97816a916871ca8d3c208c16d87cfd47801515614d3657fe5b81870992507f30644e72e131a029b85045b68181585d97816a916871ca8d3c208c16d87cfd47801515614d6557fe5b818609915050935093915050565b600080600080819150809050915091509091565b6000806000614d9885856001614dbb565b809350819650829750505050614daf858583614cfc565b92509250509250929050565b6000806000806000806000614dd08a8a615738565b15614de857614ddd615762565b96509650965061525f565b7f30644e72e131a029b85045b68181585d97816a916871ca8d3c208c16d87cfd47801515614e1257fe5b888a0992507f30644e72e131a029b85045b68181585d97816a916871ca8d3c208c16d87cfd47801515614e4157fe5b6002840992507f30644e72e131a029b85045b68181585d97816a916871ca8d3c208c16d87cfd47801515614e7157fe5b8a840991507f30644e72e131a029b85045b68181585d97816a916871ca8d3c208c16d87cfd47801515614ea057fe5b89830991507f30644e72e131a029b85045b68181585d97816a916871ca8d3c208c16d87cfd47801515614ecf57fe5b6002830991507f30644e72e131a029b85045b68181585d97816a916871ca8d3c208c16d87cfd47801515614eff57fe5b8a8b0999507f30644e72e131a029b85045b68181585d97816a916871ca8d3c208c16d87cfd47801515614f2e57fe5b60038b0993507f30644e72e131a029b85045b68181585d97816a916871ca8d3c208c16d87cfd47801515614f5e57fe5b88890997507f30644e72e131a029b85045b68181585d97816a916871ca8d3c208c16d87cfd47801515614f8d57fe5b6000890997507f30644e72e131a029b85045b68181585d97816a916871ca8d3c208c16d87cfd47801515614fbd57fe5b88850893507f30644e72e131a029b85045b68181585d97816a916871ca8d3c208c16d87cfd47801515614fec57fe5b84850990507f30644e72e131a029b85045b68181585d97816a916871ca8d3c208c16d87cfd4780151561501b57fe5b8260020999507f30644e72e131a029b85045b68181585d97816a916871ca8d3c208c16d87cfd4780151561504b57fe5b8a7f30644e72e131a029b85045b68181585d97816a916871ca8d3c208c16d87cfd4703820890507f30644e72e131a029b85045b68181585d97816a916871ca8d3c208c16d87cfd4780151561509c57fe5b817f30644e72e131a029b85045b68181585d97816a916871ca8d3c208c16d87cfd4703830899507f30644e72e131a029b85045b68181585d97816a916871ca8d3c208c16d87cfd478015156150ed57fe5b8a850999507f30644e72e131a029b85045b68181585d97816a916871ca8d3c208c16d87cfd4780151561511c57fe5b838a0998507f30644e72e131a029b85045b68181585d97816a916871ca8d3c208c16d87cfd4780151561514b57fe5b898a0998507f30644e72e131a029b85045b68181585d97816a916871ca8d3c208c16d87cfd4780151561517a57fe5b8960020998507f30644e72e131a029b85045b68181585d97816a916871ca8d3c208c16d87cfd478015156151aa57fe5b897f30644e72e131a029b85045b68181585d97816a916871ca8d3c208c16d87cfd47038b0895507f30644e72e131a029b85045b68181585d97816a916871ca8d3c208c16d87cfd478015156151fb57fe5b81840996507f30644e72e131a029b85045b68181585d97816a916871ca8d3c208c16d87cfd4780151561522a57fe5b83840994507f30644e72e131a029b85045b68181585d97816a916871ca8d3c208c16d87cfd4780151561525957fe5b83860994505b5050505093509350939050565b6000806000806000806152818c8c60036156cf565b809650819750505061529586868e8e615414565b80965081975050506152a98a8a8a8a615414565b80985081995050506152bd8c8c8c8c615414565b80945081955050506152d184848a8a615414565b80945081955050506152e586868888615414565b809c50819d5050506152f9848460086156cf565b809250819350505061530d8c8c848461552c565b809c50819d50505061532188888a8a615414565b8092508193505050615335848460046156cf565b809450819550505061534984848e8e61552c565b809450819550505061535d84848888615414565b80945081955050506153718a8a60086156cf565b809650819750505061538586868c8c615414565b809650819750505061539986868484615414565b80965081975050506153ad8484888861552c565b80945081955050506153c18c8c60026156cf565b80965081975050506153d586868a8a615414565b80965081975050506153e988888484615414565b80925081935050506153fd828260086156cf565b809250819350505096509650965096509650969050565b60008061549a7f30644e72e131a029b85045b68181585d97816a916871ca8d3c208c16d87cfd4780151561544457fe5b8588097f30644e72e131a029b85045b68181585d97816a916871ca8d3c208c16d87cfd4780151561547157fe5b8588097f30644e72e131a029b85045b68181585d97816a916871ca8d3c208c16d87cfd47615c2a565b7f30644e72e131a029b85045b68181585d97816a916871ca8d3c208c16d87cfd478015156154c457fe5b7f30644e72e131a029b85045b68181585d97816a916871ca8d3c208c16d87cfd478015156154ee57fe5b8688097f30644e72e131a029b85045b68181585d97816a916871ca8d3c208c16d87cfd4780151561551b57fe5b868a09089150915094509492505050565b60008061555a86857f30644e72e131a029b85045b68181585d97816a916871ca8d3c208c16d87cfd47615c2a565b61558586857f30644e72e131a029b85045b68181585d97816a916871ca8d3c208c16d87cfd47615c2a565b9150915094509492505050565b60008060006156457f30644e72e131a029b85045b68181585d97816a916871ca8d3c208c16d87cfd478015156155c457fe5b7f30644e72e131a029b85045b68181585d97816a916871ca8d3c208c16d87cfd478015156155ee57fe5b8788097f30644e72e131a029b85045b68181585d97816a916871ca8d3c208c16d87cfd4780151561561b57fe5b878809087f30644e72e131a029b85045b68181585d97816a916871ca8d3c208c16d87cfd47615c44565b90507f30644e72e131a029b85045b68181585d97816a916871ca8d3c208c16d87cfd4780151561567157fe5b8186097f30644e72e131a029b85045b68181585d97816a916871ca8d3c208c16d87cfd4780151561569e57fe5b8286097f30644e72e131a029b85045b68181585d97816a916871ca8d3c208c16d87cfd470392509250509250929050565b6000807f30644e72e131a029b85045b68181585d97816a916871ca8d3c208c16d87cfd478015156156fc57fe5b8386097f30644e72e131a029b85045b68181585d97816a916871ca8d3c208c16d87cfd4780151561572957fe5b84860991509150935093915050565b600080831480156157495750600082145b15615757576001905061575c565b600090505b92915050565b60008060008060006001829250819150809050925092509250909192565b6000806000806000806000807f30644e72e131a029b85045b68181585d97816a916871ca8d3c208c16d87cfd478015156157b657fe5b8a7f30644e72e131a029b85045b68181585d97816a916871ca8d3c208c16d87cfd47038a0890507f30644e72e131a029b85045b68181585d97816a916871ca8d3c208c16d87cfd4780151561580757fe5b8b7f30644e72e131a029b85045b68181585d97816a916871ca8d3c208c16d87cfd47038d0894507f30644e72e131a029b85045b68181585d97816a916871ca8d3c208c16d87cfd4780151561585857fe5b85860993507f30644e72e131a029b85045b68181585d97816a916871ca8d3c208c16d87cfd4780151561588757fe5b81820991507f30644e72e131a029b85045b68181585d97816a916871ca8d3c208c16d87cfd478015156158b657fe5b8d830991507f30644e72e131a029b85045b68181585d97816a916871ca8d3c208c16d87cfd478015156158e557fe5b8c8c089a507f30644e72e131a029b85045b68181585d97816a916871ca8d3c208c16d87cfd4780151561591457fe5b848c099a507f30644e72e131a029b85045b68181585d97816a916871ca8d3c208c16d87cfd4780151561594357fe5b8b7f30644e72e131a029b85045b68181585d97816a916871ca8d3c208c16d87cfd4703830891507f30644e72e131a029b85045b68181585d97816a916871ca8d3c208c16d87cfd4780151561599457fe5b82860997507f30644e72e131a029b85045b68181585d97816a916871ca8d3c208c16d87cfd478015156159c357fe5b85850992507f30644e72e131a029b85045b68181585d97816a916871ca8d3c208c16d87cfd478015156159f257fe5b848d099b507f30644e72e131a029b85045b68181585d97816a916871ca8d3c208c16d87cfd47801515615a2157fe5b827f30644e72e131a029b85045b68181585d97816a916871ca8d3c208c16d87cfd47038d089b507f30644e72e131a029b85045b68181585d97816a916871ca8d3c208c16d87cfd47801515615a7257fe5b8c820990507f30644e72e131a029b85045b68181585d97816a916871ca8d3c208c16d87cfd47801515615aa157fe5b838a0998507f30644e72e131a029b85045b68181585d97816a916871ca8d3c208c16d87cfd47801515615ad057fe5b897f30644e72e131a029b85045b68181585d97816a916871ca8d3c208c16d87cfd4703820896507f30644e72e131a029b85045b68181585d97816a916871ca8d3c208c16d87cfd47801515615b2157fe5b8d840995505050505050955095509592505050565b60008060008060008060009450600193507f30644e72e131a029b85045b68181585d97816a916871ca8d3c208c16d87cfd4792508691505b600082141515615c1d578183811515615b8357fe5b049050837f30644e72e131a029b85045b68181585d97816a916871ca8d3c208c16d87cfd47801515615bb157fe5b7f30644e72e131a029b85045b68181585d97816a916871ca8d3c208c16d87cfd47801515615bdb57fe5b8684097f30644e72e131a029b85045b68181585d97816a916871ca8d3c208c16d87cfd4703870880955081965050508182820284038093508194505050615b6e565b8495505050505050919050565b600081801515615c3657fe5b838303850890509392505050565b60008060405160208152602080820152602060408201528460608201526002840360808201528360a082015260208160c08360056107d05a03fa91508051925050801515615c9157600080fd5b5092915050565b604080519081016040528060008152602001600081525090565b604080519081016040528060008152602001600081525090565b608060405190810160405280615ce0615d60565b8152602001615ced615d60565b81525090565b608060405190810160405280615d07615cb2565b8152602001615d14615cb2565b81525090565b60c060405190810160405280600690602082028038833980820191505090505090565b602060405190810160405280600190602082028038833980820191505090505090565b60408051908101604052806002906020820280388339808201915050905050905600a165627a7a7230582076a0d7967922a079eb26db4a5ac8ac5fc66caa43660d95eec03fc35dca3282320029",
  "source": "// This file is MIT Licensed.\r\n//\r\n// Copyright 2020 xu yunkai\r\n\r\npragma solidity >=0.4.2;\r\n\r\n// import \"./test_dtbe.sol\";\r\nimport \"./test.sol\";\r\n// import \"./dtbe/LibDTBE.sol\";\r\nimport \"./utillib/Pairing.sol\";\r\n\r\ncontract test_dtbe_main is test{\r\n    using LibDTBE for *;\r\n    using Pairing for *;\r\n\r\n    // LibDTBE.PK public epk;\r\n    // LibDTBE.SK[] public esk;\r\n    // LibDTBE.SVK[] public esvk;\r\n    // Pairing.G1Point[] public c_dtbe;\r\n    LibDTBE.CLUE[] public V;\r\n\r\n    function dtbe_shareVerify(uint i) public returns(bool) {\r\n        return LibDTBE.shareVerify(test.epk, test.esvk[i], 123456, test.c_dtbe, V[0]);\r\n    }\r\n\r\n    function dtbe_shareDec(uint i) public {\r\n        V[i] = LibDTBE.shareDec(test.epk, test.esk[i], 123456, test.c_dtbe);\r\n    }\r\n\r\n    function dtbe_combine() public {\r\n        LibDTBE.combine(test.epk, test.esvk, V, test.c_dtbe, 123456);\r\n    }\r\n}",
  "sourcePath": "D:\\Myproject\\AttriChain\\contracts\\test_dtbe_main.sol",
  "compiler": {
    "name": "solc",
    "version": "0.4.23+commit.124ca40d.Emscripten.clang"
  },
  "schemaVersion": "2.0.0",
  "updatedAt": "2020-07-15T18:37:49.510Z"
}