{
  "contractName": "test",
  "abi": [
    {
      "constant": true,
      "inputs": [
        {
          "name": "",
          "type": "uint256"
        }
      ],
      "name": "esk",
      "outputs": [
        {
          "name": "ui",
          "type": "uint256"
        },
        {
          "name": "vi",
          "type": "uint256"
        }
      ],
      "payable": false,
      "stateMutability": "view",
      "type": "function"
    },
    {
      "constant": true,
      "inputs": [
        {
          "name": "",
          "type": "uint256"
        }
      ],
      "name": "esvk",
      "outputs": [
        {
          "components": [
            {
              "name": "X",
              "type": "uint256[2]"
            },
            {
              "name": "Y",
              "type": "uint256[2]"
            }
          ],
          "name": "Ui",
          "type": "tuple"
        },
        {
          "components": [
            {
              "name": "X",
              "type": "uint256[2]"
            },
            {
              "name": "Y",
              "type": "uint256[2]"
            }
          ],
          "name": "Vi",
          "type": "tuple"
        }
      ],
      "payable": false,
      "stateMutability": "view",
      "type": "function"
    },
    {
      "constant": true,
      "inputs": [
        {
          "name": "",
          "type": "uint256"
        }
      ],
      "name": "c_dtbe",
      "outputs": [
        {
          "name": "X",
          "type": "uint256"
        },
        {
          "name": "Y",
          "type": "uint256"
        }
      ],
      "payable": false,
      "stateMutability": "view",
      "type": "function"
    },
    {
      "constant": true,
      "inputs": [],
      "name": "epk",
      "outputs": [
        {
          "components": [
            {
              "name": "_p",
              "type": "uint256"
            },
            {
              "components": [
                {
                  "name": "X",
                  "type": "uint256"
                },
                {
                  "name": "Y",
                  "type": "uint256"
                }
              ],
              "name": "G",
              "type": "tuple"
            },
            {
              "components": [
                {
                  "name": "X",
                  "type": "uint256[2]"
                },
                {
                  "name": "Y",
                  "type": "uint256[2]"
                }
              ],
              "name": "_G",
              "type": "tuple"
            },
            {
              "name": "_ECG1",
              "type": "string"
            },
            {
              "name": "_ECG2",
              "type": "string"
            },
            {
              "name": "_pairing",
              "type": "string"
            }
          ],
          "name": "P",
          "type": "tuple"
        },
        {
          "components": [
            {
              "name": "X",
              "type": "uint256"
            },
            {
              "name": "Y",
              "type": "uint256"
            }
          ],
          "name": "H",
          "type": "tuple"
        },
        {
          "components": [
            {
              "name": "X",
              "type": "uint256[2]"
            },
            {
              "name": "Y",
              "type": "uint256[2]"
            }
          ],
          "name": "_H",
          "type": "tuple"
        },
        {
          "components": [
            {
              "name": "X",
              "type": "uint256"
            },
            {
              "name": "Y",
              "type": "uint256"
            }
          ],
          "name": "U",
          "type": "tuple"
        },
        {
          "components": [
            {
              "name": "X",
              "type": "uint256[2]"
            },
            {
              "name": "Y",
              "type": "uint256[2]"
            }
          ],
          "name": "_U",
          "type": "tuple"
        },
        {
          "components": [
            {
              "name": "X",
              "type": "uint256"
            },
            {
              "name": "Y",
              "type": "uint256"
            }
          ],
          "name": "V",
          "type": "tuple"
        },
        {
          "components": [
            {
              "name": "X",
              "type": "uint256[2]"
            },
            {
              "name": "Y",
              "type": "uint256[2]"
            }
          ],
          "name": "_V",
          "type": "tuple"
        },
        {
          "components": [
            {
              "name": "X",
              "type": "uint256"
            },
            {
              "name": "Y",
              "type": "uint256"
            }
          ],
          "name": "W",
          "type": "tuple"
        },
        {
          "components": [
            {
              "name": "X",
              "type": "uint256[2]"
            },
            {
              "name": "Y",
              "type": "uint256[2]"
            }
          ],
          "name": "_W",
          "type": "tuple"
        },
        {
          "components": [
            {
              "name": "X",
              "type": "uint256"
            },
            {
              "name": "Y",
              "type": "uint256"
            }
          ],
          "name": "Z",
          "type": "tuple"
        },
        {
          "components": [
            {
              "name": "X",
              "type": "uint256[2]"
            },
            {
              "name": "Y",
              "type": "uint256[2]"
            }
          ],
          "name": "_Z",
          "type": "tuple"
        }
      ],
      "payable": false,
      "stateMutability": "view",
      "type": "function"
    }
  ],
  "bytecode": "0x608060405234801561001057600080fd5b50610a20806100206000396000f300608060405260043610610062576000357c0100000000000000000000000000000000000000000000000000000000900463ffffffff16806323a4c22e146100675780634bc38368146100af578063a86122e5146100f7578063ab989f551461013f575b600080fd5b34801561007357600080fd5b50610092600480360381019080803590602001909291905050506101b0565b604051808381526020018281526020019250505060405180910390f35b3480156100bb57600080fd5b506100da600480360381019080803590602001909291905050506101e3565b604051808381526020018281526020019250505060405180910390f35b34801561010357600080fd5b506101226004803603810190808035906020019092919050505061033e565b604051808381526020018281526020019250505060405180910390f35b34801561014b57600080fd5b50610154610371565b604051808c81526020018b81526020018a81526020018981526020018881526020018781526020018681526020018581526020018481526020018381526020018281526020019b50505050505050505050505060405180910390f35b6028818154811015156101bf57fe5b90600052602060002090600202016000915090508060000154908060010154905082565b6029818154811015156101f257fe5b90600052602060002090600802016000915090508060000160408051908101604052908160008201600280602002604051908101604052809291908260028015610251576020028201915b81548152602001906001019080831161023d575b5050505050815260200160028201600280602002604051908101604052809291908260028015610296576020028201915b815481526020019060010190808311610282575b5050505050815250509080600401604080519081016040529081600082016002806020026040519081016040528092919082600280156102eb576020028201915b8154815260200190600101908083116102d7575b5050505050815260200160028201600280602002604051908101604052809291908260028015610330576020028201915b81548152602001906001019080831161031c575b505050505081525050905082565b602a8181548110151561034d57fe5b90600052602060002090600202016000915090508060000154908060010154905082565b60008060000160c0604051908101604052908160008201548152602001600182016040805190810160405290816000820154815260200160018201548152505081526020016003820160408051908101604052908160008201600280602002604051908101604052809291908260028015610401576020028201915b8154815260200190600101908083116103ed575b5050505050815260200160028201600280602002604051908101604052809291908260028015610446576020028201915b815481526020019060010190808311610432575b5050505050815250508152602001600782018054600181600116156101000203166002900480601f0160208091040260200160405190810160405280929190818152602001828054600181600116156101000203166002900480156104ec5780601f106104c1576101008083540402835291602001916104ec565b820191906000526020600020905b8154815290600101906020018083116104cf57829003601f168201915b50505050508152602001600882018054600181600116156101000203166002900480601f01602080910402602001604051908101604052809291908181526020018280546001816001161561010002031660029004801561058e5780601f106105635761010080835404028352916020019161058e565b820191906000526020600020905b81548152906001019060200180831161057157829003601f168201915b50505050508152602001600982018054600181600116156101000203166002900480601f0160208091040260200160405190810160405280929190818152602001828054600181600116156101000203166002900480156106305780601f1061060557610100808354040283529160200191610630565b820191906000526020600020905b81548152906001019060200180831161061357829003601f168201915b5050505050815250509080600a01604080519081016040529081600082015481526020016001820154815250509080600c01604080519081016040529081600082016002806020026040519081016040528092919082600280156106a9576020028201915b815481526020019060010190808311610695575b50505050508152602001600282016002806020026040519081016040528092919082600280156106ee576020028201915b8154815260200190600101908083116106da575b505050505081525050908060100160408051908101604052908160008201548152602001600182015481525050908060120160408051908101604052908160008201600280602002604051908101604052809291908260028015610767576020028201915b815481526020019060010190808311610753575b50505050508152602001600282016002806020026040519081016040528092919082600280156107ac576020028201915b815481526020019060010190808311610798575b505050505081525050908060160160408051908101604052908160008201548152602001600182015481525050908060180160408051908101604052908160008201600280602002604051908101604052809291908260028015610825576020028201915b815481526020019060010190808311610811575b505050505081526020016002820160028060200260405190810160405280929190826002801561086a576020028201915b815481526020019060010190808311610856575b5050505050815250509080601c01604080519081016040529081600082015481526020016001820154815250509080601e01604080519081016040529081600082016002806020026040519081016040528092919082600280156108e3576020028201915b8154815260200190600101908083116108cf575b5050505050815260200160028201600280602002604051908101604052809291908260028015610928576020028201915b815481526020019060010190808311610914575b5050505050815250509080602201604080519081016040529081600082015481526020016001820154815250509080602401604080519081016040529081600082016002806020026040519081016040528092919082600280156109a1576020028201915b81548152602001906001019080831161098d575b50505050508152602001600282016002806020026040519081016040528092919082600280156109e6576020028201915b8154815260200190600101908083116109d2575b50505050508152505090508b5600a165627a7a72305820714e1047d8dea9b4d9d0b7a55935d0e14220e0723ec847b3cb20cbaecefc5fc60029",
  "source": "// This file is MIT Licensed.\n//\n// Copyright 2020 xu yunkai\n\npragma solidity >=0.4.2;\n\n// import \"./nizk/LibNizk.sol\";\nimport \"./dtbe/LibDTBE.sol\";\n// import \"./utillib/Pairing.sol\";\n\ncontract test{\n    // using Schnorr for *;\n    // using LibDTBE for *;\n    // using Pairing for *;\n\n    // uint256[2] pk;\n    // uint256 s;\n    // uint256 e;\n\n    LibDTBE.PK public epk;\n    LibDTBE.SK[] public esk;\n    LibDTBE.SVK[] public esvk;\n    Pairing.G1Point[] public c_dtbe;\n    // LibDTBE.CLUE[] public V;\n\n    // function nizk_prove() public {\n    //     (pk, s, e) = Schnorr.CreateProof(12345, 12345);\n    // }\n\n    // function nizk_verify() public returns(bool) {\n    //     return Schnorr.VerifyProof(pk, 12345, s, e);\n    // }\n\n    // function dtbe_keygen() public {\n    //     (epk, esk, esvk) = LibDTBE.KeyGen(3);\n    // }\n\n    // function dtbe_encrypt() public {\n    //     Pairing.G1Point memory M;\n    //     c_dtbe = LibDTBE.encrypt(epk, 123456, M);\n    // }\n\n    // function dtbe_shareVerify(uint i) public returns(bool) {\n        // return LibDTBE.shareVerify(epk, esvk[i], 123456, c_dtbe, V[0]);\n    // }\n\n    // function dtbe_shareDec(uint i) public {\n    //     V[i] = LibDTBE.shareDec(epk, esk[i], 123456, c_dtbe);\n    // }\n\n    // function dtbe_combine() public {\n    //     LibDTBE.combine(epk, esvk, V, c_dtbe, 123456);\n    // }\n}",
  "sourcePath": "D:\\Myproject\\AttriChain\\contracts\\test.sol",
  "compiler": {
    "name": "solc",
    "version": "0.4.23+commit.124ca40d.Emscripten.clang"
  },
  "schemaVersion": "2.0.0",
  "updatedAt": "2020-07-15T18:37:49.507Z"
}