{
  "contractName": "test",
  "abi": [
    {
      "constant": true,
      "inputs": [],
      "name": "pg",
      "outputs": [
        {
          "name": "_p",
          "type": "uint256"
        },
        {
          "components": [
            {
              "name": "X",
              "type": "uint256"
            },
            {
              "name": "Y",
              "type": "uint256"
            }
          ],
          "name": "G",
          "type": "tuple"
        },
        {
          "components": [
            {
              "name": "X",
              "type": "uint256[2]"
            },
            {
              "name": "Y",
              "type": "uint256[2]"
            }
          ],
          "name": "_G",
          "type": "tuple"
        },
        {
          "name": "_ECG1",
          "type": "string"
        },
        {
          "name": "_ECG2",
          "type": "string"
        },
        {
          "name": "_pairing",
          "type": "string"
        }
      ],
      "payable": false,
      "stateMutability": "view",
      "type": "function"
    },
    {
      "constant": true,
      "inputs": [
        {
          "name": "",
          "type": "uint256"
        }
      ],
      "name": "esk",
      "outputs": [
        {
          "name": "ui",
          "type": "uint256"
        },
        {
          "name": "vi",
          "type": "uint256"
        }
      ],
      "payable": false,
      "stateMutability": "view",
      "type": "function"
    },
    {
      "constant": true,
      "inputs": [
        {
          "name": "",
          "type": "uint256"
        }
      ],
      "name": "esvk",
      "outputs": [
        {
          "components": [
            {
              "name": "X",
              "type": "uint256[2]"
            },
            {
              "name": "Y",
              "type": "uint256[2]"
            }
          ],
          "name": "Ui",
          "type": "tuple"
        },
        {
          "components": [
            {
              "name": "X",
              "type": "uint256[2]"
            },
            {
              "name": "Y",
              "type": "uint256[2]"
            }
          ],
          "name": "Vi",
          "type": "tuple"
        }
      ],
      "payable": false,
      "stateMutability": "view",
      "type": "function"
    },
    {
      "constant": true,
      "inputs": [
        {
          "name": "",
          "type": "uint256"
        }
      ],
      "name": "c_dtbe",
      "outputs": [
        {
          "name": "X",
          "type": "uint256"
        },
        {
          "name": "Y",
          "type": "uint256"
        }
      ],
      "payable": false,
      "stateMutability": "view",
      "type": "function"
    },
    {
      "constant": true,
      "inputs": [],
      "name": "epk",
      "outputs": [
        {
          "components": [
            {
              "name": "_p",
              "type": "uint256"
            },
            {
              "components": [
                {
                  "name": "X",
                  "type": "uint256"
                },
                {
                  "name": "Y",
                  "type": "uint256"
                }
              ],
              "name": "G",
              "type": "tuple"
            },
            {
              "components": [
                {
                  "name": "X",
                  "type": "uint256[2]"
                },
                {
                  "name": "Y",
                  "type": "uint256[2]"
                }
              ],
              "name": "_G",
              "type": "tuple"
            },
            {
              "name": "_ECG1",
              "type": "string"
            },
            {
              "name": "_ECG2",
              "type": "string"
            },
            {
              "name": "_pairing",
              "type": "string"
            }
          ],
          "name": "P",
          "type": "tuple"
        },
        {
          "components": [
            {
              "name": "X",
              "type": "uint256"
            },
            {
              "name": "Y",
              "type": "uint256"
            }
          ],
          "name": "H",
          "type": "tuple"
        },
        {
          "components": [
            {
              "name": "X",
              "type": "uint256[2]"
            },
            {
              "name": "Y",
              "type": "uint256[2]"
            }
          ],
          "name": "_H",
          "type": "tuple"
        },
        {
          "components": [
            {
              "name": "X",
              "type": "uint256"
            },
            {
              "name": "Y",
              "type": "uint256"
            }
          ],
          "name": "U",
          "type": "tuple"
        },
        {
          "components": [
            {
              "name": "X",
              "type": "uint256[2]"
            },
            {
              "name": "Y",
              "type": "uint256[2]"
            }
          ],
          "name": "_U",
          "type": "tuple"
        },
        {
          "components": [
            {
              "name": "X",
              "type": "uint256"
            },
            {
              "name": "Y",
              "type": "uint256"
            }
          ],
          "name": "V",
          "type": "tuple"
        },
        {
          "components": [
            {
              "name": "X",
              "type": "uint256[2]"
            },
            {
              "name": "Y",
              "type": "uint256[2]"
            }
          ],
          "name": "_V",
          "type": "tuple"
        },
        {
          "components": [
            {
              "name": "X",
              "type": "uint256"
            },
            {
              "name": "Y",
              "type": "uint256"
            }
          ],
          "name": "W",
          "type": "tuple"
        },
        {
          "components": [
            {
              "name": "X",
              "type": "uint256[2]"
            },
            {
              "name": "Y",
              "type": "uint256[2]"
            }
          ],
          "name": "_W",
          "type": "tuple"
        },
        {
          "components": [
            {
              "name": "X",
              "type": "uint256"
            },
            {
              "name": "Y",
              "type": "uint256"
            }
          ],
          "name": "Z",
          "type": "tuple"
        },
        {
          "components": [
            {
              "name": "X",
              "type": "uint256[2]"
            },
            {
              "name": "Y",
              "type": "uint256[2]"
            }
          ],
          "name": "_Z",
          "type": "tuple"
        }
      ],
      "payable": false,
      "stateMutability": "view",
      "type": "function"
    }
  ],
  "bytecode": "0x608060405234801561001057600080fd5b50610e4c806100206000396000f30060806040526004361061006d576000357c0100000000000000000000000000000000000000000000000000000000900463ffffffff1680630b0e26dd1461007257806323a4c22e146101ef5780634bc3836814610237578063a86122e51461027f578063ab989f55146102c7575b600080fd5b34801561007e57600080fd5b50610087610338565b60405180878152602001868152602001858152602001806020018060200180602001848103845287818151815260200191508051906020019080838360005b838110156100e15780820151818401526020810190506100c6565b50505050905090810190601f16801561010e5780820380516001836020036101000a031916815260200191505b50848103835286818151815260200191508051906020019080838360005b8381101561014757808201518184015260208101905061012c565b50505050905090810190601f1680156101745780820380516001836020036101000a031916815260200191505b50848103825285818151815260200191508051906020019080838360005b838110156101ad578082015181840152602081019050610192565b50505050905090810190601f1680156101da5780820380516001836020036101000a031916815260200191505b50995050505050505050505060405180910390f35b3480156101fb57600080fd5b5061021a600480360381019080803590602001909291905050506105dc565b604051808381526020018281526020019250505060405180910390f35b34801561024357600080fd5b506102626004803603810190808035906020019092919050505061060f565b604051808381526020018281526020019250505060405180910390f35b34801561028b57600080fd5b506102aa6004803603810190808035906020019092919050505061076a565b604051808381526020018281526020019250505060405180910390f35b3480156102d357600080fd5b506102dc61079d565b604051808c81526020018b81526020018a81526020018981526020018881526020018781526020018681526020018581526020018481526020018381526020018281526020019b50505050505050505050505060405180910390f35b600080600001549080600101604080519081016040529081600082015481526020016001820154815250509080600301604080519081016040529081600082016002806020026040519081016040528092919082600280156103af576020028201915b81548152602001906001019080831161039b575b50505050508152602001600282016002806020026040519081016040528092919082600280156103f4576020028201915b8154815260200190600101908083116103e0575b50505050508152505090806007018054600181600116156101000203166002900480601f0160208091040260200160405190810160405280929190818152602001828054600181600116156101000203166002900480156104965780601f1061046b57610100808354040283529160200191610496565b820191906000526020600020905b81548152906001019060200180831161047957829003601f168201915b505050505090806008018054600181600116156101000203166002900480601f0160208091040260200160405190810160405280929190818152602001828054600181600116156101000203166002900480156105345780601f1061050957610100808354040283529160200191610534565b820191906000526020600020905b81548152906001019060200180831161051757829003601f168201915b505050505090806009018054600181600116156101000203166002900480601f0160208091040260200160405190810160405280929190818152602001828054600181600116156101000203166002900480156105d25780601f106105a7576101008083540402835291602001916105d2565b820191906000526020600020905b8154815290600101906020018083116105b557829003601f168201915b5050505050905086565b6032818154811015156105eb57fe5b90600052602060002090600202016000915090508060000154908060010154905082565b60338181548110151561061e57fe5b9060005260206000209060080201600091509050806000016040805190810160405290816000820160028060200260405190810160405280929190826002801561067d576020028201915b815481526020019060010190808311610669575b50505050508152602001600282016002806020026040519081016040528092919082600280156106c2576020028201915b8154815260200190600101908083116106ae575b505050505081525050908060040160408051908101604052908160008201600280602002604051908101604052809291908260028015610717576020028201915b815481526020019060010190808311610703575b505050505081526020016002820160028060200260405190810160405280929190826002801561075c576020028201915b815481526020019060010190808311610748575b505050505081525050905082565b60348181548110151561077957fe5b90600052602060002090600202016000915090508060000154908060010154905082565b600a8060000160c060405190810160405290816000820154815260200160018201604080519081016040529081600082015481526020016001820154815250508152602001600382016040805190810160405290816000820160028060200260405190810160405280929190826002801561082d576020028201915b815481526020019060010190808311610819575b5050505050815260200160028201600280602002604051908101604052809291908260028015610872576020028201915b81548152602001906001019080831161085e575b5050505050815250508152602001600782018054600181600116156101000203166002900480601f0160208091040260200160405190810160405280929190818152602001828054600181600116156101000203166002900480156109185780601f106108ed57610100808354040283529160200191610918565b820191906000526020600020905b8154815290600101906020018083116108fb57829003601f168201915b50505050508152602001600882018054600181600116156101000203166002900480601f0160208091040260200160405190810160405280929190818152602001828054600181600116156101000203166002900480156109ba5780601f1061098f576101008083540402835291602001916109ba565b820191906000526020600020905b81548152906001019060200180831161099d57829003601f168201915b50505050508152602001600982018054600181600116156101000203166002900480601f016020809104026020016040519081016040528092919081815260200182805460018160011615610100020316600290048015610a5c5780601f10610a3157610100808354040283529160200191610a5c565b820191906000526020600020905b815481529060010190602001808311610a3f57829003601f168201915b5050505050815250509080600a01604080519081016040529081600082015481526020016001820154815250509080600c0160408051908101604052908160008201600280602002604051908101604052809291908260028015610ad5576020028201915b815481526020019060010190808311610ac1575b5050505050815260200160028201600280602002604051908101604052809291908260028015610b1a576020028201915b815481526020019060010190808311610b06575b505050505081525050908060100160408051908101604052908160008201548152602001600182015481525050908060120160408051908101604052908160008201600280602002604051908101604052809291908260028015610b93576020028201915b815481526020019060010190808311610b7f575b5050505050815260200160028201600280602002604051908101604052809291908260028015610bd8576020028201915b815481526020019060010190808311610bc4575b505050505081525050908060160160408051908101604052908160008201548152602001600182015481525050908060180160408051908101604052908160008201600280602002604051908101604052809291908260028015610c51576020028201915b815481526020019060010190808311610c3d575b5050505050815260200160028201600280602002604051908101604052809291908260028015610c96576020028201915b815481526020019060010190808311610c82575b5050505050815250509080601c01604080519081016040529081600082015481526020016001820154815250509080601e0160408051908101604052908160008201600280602002604051908101604052809291908260028015610d0f576020028201915b815481526020019060010190808311610cfb575b5050505050815260200160028201600280602002604051908101604052809291908260028015610d54576020028201915b815481526020019060010190808311610d40575b505050505081525050908060220160408051908101604052908160008201548152602001600182015481525050908060240160408051908101604052908160008201600280602002604051908101604052809291908260028015610dcd576020028201915b815481526020019060010190808311610db9575b5050505050815260200160028201600280602002604051908101604052809291908260028015610e12576020028201915b815481526020019060010190808311610dfe575b50505050508152505090508b5600a165627a7a723058202fecce1e2dff01f66969dbb99d5ed8e70271b5674b4b5acb3198f9123d9402a60029",
  "source": "// This file is MIT Licensed.\n//\n// Copyright 2020 xu yunkai\n\npragma solidity >=0.4.2;\n\n// import \"./nizk/LibNizk.sol\";\nimport \"./dtbe/LibDTBE.sol\";\n\ncontract test{\n    // using Schnorr for *;\n    // using LibDTBE for *;\n    // using Pairing for *;\n\n    // uint256[2] pk;\n    // uint256 s;\n    // uint256 e;\n\n    LibDTBE.PGroup public pg;\n    LibDTBE.PK public epk;\n    LibDTBE.SK[] public esk;\n    LibDTBE.SVK[] public esvk;\n    Pairing.G1Point[] public c_dtbe;\n    // LibDTBE.CLUE[] public V;\n\n    // function nizk_prove() public {\n    //     (pk, s, e) = Schnorr.CreateProof(12345, 12345);\n    // }\n\n    // function nizk_verify() public returns(bool) {\n    //     return Schnorr.VerifyProof(pk, 12345, s, e);\n    // }\n\n    // function dtbe_keygen() public {\n    //     (epk, esk, esvk) = LibDTBE.KeyGen(3);\n    // }\n\n    // function dtbe_encrypt() public {\n    //     Pairing.G1Point memory M;\n    //     c_dtbe = LibDTBE.encrypt(epk, 123456, M);\n    // }\n\n    // function dtbe_shareVerify(uint i) public returns(bool) {\n        // return LibDTBE.shareVerify(epk, esvk[i], 123456, c_dtbe, V[0]);\n    // }\n\n    // function dtbe_shareDec(uint i) public {\n    //     V[i] = LibDTBE.shareDec(epk, esk[i], 123456, c_dtbe);\n    // }\n\n    // function dtbe_combine() public {\n    //     LibDTBE.combine(epk, esvk, V, c_dtbe, 123456);\n    // }\n}",
  "sourcePath": "D:\\Myproject\\AttriChain\\contracts\\test.sol",
  "compiler": {
    "name": "solc",
    "version": "0.4.23+commit.124ca40d.Emscripten.clang"
  },
  "schemaVersion": "2.0.0",
  "updatedAt": "2020-07-16T14:50:33.163Z"
}