{
  "contractName": "test_nizk",
  "abi": [
    {
      "constant": false,
      "inputs": [],
      "name": "nizk_prove",
      "outputs": [],
      "payable": false,
      "stateMutability": "nonpayable",
      "type": "function"
    },
    {
      "constant": false,
      "inputs": [],
      "name": "nizk_verify",
      "outputs": [
        {
          "name": "",
          "type": "bool"
        }
      ],
      "payable": false,
      "stateMutability": "nonpayable",
      "type": "function"
    }
  ],
  "bytecode": "0x608060405234801561001057600080fd5b50610808806100206000396000f30060806040526004361061004c576000357c0100000000000000000000000000000000000000000000000000000000900463ffffffff168063208c903b14610051578063c025b90214610080575b600080fd5b34801561005d57600080fd5b50610066610097565b604051808215151515815260200191505060405180910390f35b34801561008c57600080fd5b506100956100ed565b005b60006100e860006002806020026040519081016040528092919082600280156100d5576020028201915b8154815260200190600101908083116100c1575b5050505050613039600254600354610126565b905090565b6100f961303980610140565b600080600260006003600086919050558591905055849190509060026101209291906106f5565b50505050565b600061013485858585610370565b82149050949350505050565b610148610735565b600080610153610757565b600061015d610757565b6101806101686104e2565b610170610506565b8a81151561017a57fe5b0661052e565b9250826000015186600060028110151561019657fe5b60200201818152505082602001518660016002811015156101b357fe5b6020020181815250506101c4610506565b878960405160200180838152602001828152602001925050506040516020818303038152906040526040518082805190602001908083835b60208310151561022157805182526020820191506020810190506020830392506101fc565b6001836020036101000a03801982511681845116808217855250505050505090500191505060405180910390206001900481151561025b57fe5b06915061026f6102696104e2565b8361052e565b905085600060028110151561028057fe5b602002015186600160028110151561029457fe5b6020020151826000015183602001518a60405160200180868152602001858152602001848152602001838152602001828152602001955050505050506040516020818303038152906040526040518082805190602001908083835b60208310151561031457805182526020820191506020810190506020830392506102ef565b6001836020036101000a038019825116818451168082178552505050505050905001915050604051809103902060019004935061036482610353610506565b80151561035c57fe5b868b096105c8565b94505050509250925092565b600061037a610757565b610382610757565b61038a610757565b6103ad6103956104e2565b61039d610506565b888115156103a757fe5b0661052e565b925060408051908101604052808960006002811015156103c957fe5b602002015181526020018960016002811015156103e257fe5b602002015181525091506103ff836103fa848861052e565b61063a565b905087600060028110151561041057fe5b602002015188600160028110151561042457fe5b6020020151826000015183602001518a60405160200180868152602001858152602001848152602001838152602001828152602001955050505050506040516020818303038152906040526040518082805190602001908083835b6020831015156104a4578051825260208201915060208101905060208303925061047f565b6001836020036101000a0380198251168184511680821785525050505050509050019150506040518091039020600190049350505050949350505050565b6104ea610757565b6040805190810160405280600181526020016002815250905090565b60007f30644e72e131a029b85045b68181585d2833e84879b9709143e1f593f0000001905090565b610536610757565b61053e610771565b6000846000015182600060038110151561055457fe5b602002018181525050846020015182600160038110151561057157fe5b6020020181815250508382600260038110151561058a57fe5b60200201818152505060608360808460076107d05a03fa905080600081146105b1576105b3565bfe5b508015156105c057600080fd5b505092915050565b600080828411156105db57839050610601565b7f30644e72e131a029b85045b68181585d2833e84879b9709143e1f593f0000001840190505b7f30644e72e131a029b85045b68181585d2833e84879b9709143e1f593f000000180151561062b57fe5b60008483030891505092915050565b610642610757565b61064a610794565b6000846000015182600060048110151561066057fe5b602002018181525050846020015182600160048110151561067d57fe5b602002018181525050836000015182600260048110151561069a57fe5b60200201818152505083602001518260036004811015156106b757fe5b60200201818152505060608360c08460066107d05a03fa905080600081146106de576106e0565bfe5b508015156106ed57600080fd5b505092915050565b8260028101928215610724579160200282015b82811115610723578251825591602001919060010190610708565b5b50905061073191906107b7565b5090565b6040805190810160405280600290602082028038833980820191505090505090565b604080519081016040528060008152602001600081525090565b606060405190810160405280600390602082028038833980820191505090505090565b608060405190810160405280600490602082028038833980820191505090505090565b6107d991905b808211156107d55760008160009055506001016107bd565b5090565b905600a165627a7a72305820b538a42f26340a661085e78243b966aab53263f66a1ad2a24b6ab0bdaff0dcf20029",
  "source": "// This file is MIT Licensed.\r\n//\r\n// Copyright 2020 xu yunkai\r\n\r\npragma solidity >=0.4.2;\r\n\r\nimport \"./nizk/LibNizk.sol\";\r\n\r\ncontract test_nizk{\r\n    using Schnorr for *;\r\n\r\n    uint256[2] pk;\r\n    uint256 s;\r\n    uint256 e;\r\n\r\n    function nizk_prove() public {\r\n        (pk, s, e) = Schnorr.CreateProof(12345, 12345);\r\n    }\r\n\r\n    function nizk_verify() public returns(bool) {\r\n        return Schnorr.VerifyProof(pk, 12345, s, e);\r\n    }\r\n\r\n}",
  "sourcePath": "D:\\Myproject\\AttriChain\\contracts\\test_nizk.sol",
  "compiler": {
    "name": "solc",
    "version": "0.4.23+commit.124ca40d.Emscripten.clang"
  },
  "schemaVersion": "2.0.0",
  "updatedAt": "2020-07-16T19:25:14.271Z"
}