{
  "contractName": "test_dtbe",
  "abi": [
    {
      "constant": true,
      "inputs": [],
      "name": "pg",
      "outputs": [
        {
          "name": "_p",
          "type": "uint256"
        },
        {
          "components": [
            {
              "name": "X",
              "type": "uint256"
            },
            {
              "name": "Y",
              "type": "uint256"
            }
          ],
          "name": "G",
          "type": "tuple"
        },
        {
          "components": [
            {
              "name": "X",
              "type": "uint256[2]"
            },
            {
              "name": "Y",
              "type": "uint256[2]"
            }
          ],
          "name": "_G",
          "type": "tuple"
        },
        {
          "name": "_ECG1",
          "type": "string"
        },
        {
          "name": "_ECG2",
          "type": "string"
        },
        {
          "name": "_pairing",
          "type": "string"
        }
      ],
      "payable": false,
      "stateMutability": "view",
      "type": "function"
    },
    {
      "constant": true,
      "inputs": [
        {
          "name": "",
          "type": "uint256"
        }
      ],
      "name": "esk",
      "outputs": [
        {
          "name": "ui",
          "type": "uint256"
        },
        {
          "name": "vi",
          "type": "uint256"
        }
      ],
      "payable": false,
      "stateMutability": "view",
      "type": "function"
    },
    {
      "constant": true,
      "inputs": [
        {
          "name": "",
          "type": "uint256"
        }
      ],
      "name": "esvk",
      "outputs": [
        {
          "components": [
            {
              "name": "X",
              "type": "uint256[2]"
            },
            {
              "name": "Y",
              "type": "uint256[2]"
            }
          ],
          "name": "Ui",
          "type": "tuple"
        },
        {
          "components": [
            {
              "name": "X",
              "type": "uint256[2]"
            },
            {
              "name": "Y",
              "type": "uint256[2]"
            }
          ],
          "name": "Vi",
          "type": "tuple"
        }
      ],
      "payable": false,
      "stateMutability": "view",
      "type": "function"
    },
    {
      "constant": true,
      "inputs": [
        {
          "name": "",
          "type": "uint256"
        }
      ],
      "name": "c_dtbe",
      "outputs": [
        {
          "name": "X",
          "type": "uint256"
        },
        {
          "name": "Y",
          "type": "uint256"
        }
      ],
      "payable": false,
      "stateMutability": "view",
      "type": "function"
    },
    {
      "constant": true,
      "inputs": [],
      "name": "epk",
      "outputs": [
        {
          "components": [
            {
              "name": "_p",
              "type": "uint256"
            },
            {
              "components": [
                {
                  "name": "X",
                  "type": "uint256"
                },
                {
                  "name": "Y",
                  "type": "uint256"
                }
              ],
              "name": "G",
              "type": "tuple"
            },
            {
              "components": [
                {
                  "name": "X",
                  "type": "uint256[2]"
                },
                {
                  "name": "Y",
                  "type": "uint256[2]"
                }
              ],
              "name": "_G",
              "type": "tuple"
            },
            {
              "name": "_ECG1",
              "type": "string"
            },
            {
              "name": "_ECG2",
              "type": "string"
            },
            {
              "name": "_pairing",
              "type": "string"
            }
          ],
          "name": "P",
          "type": "tuple"
        },
        {
          "components": [
            {
              "name": "X",
              "type": "uint256"
            },
            {
              "name": "Y",
              "type": "uint256"
            }
          ],
          "name": "H",
          "type": "tuple"
        },
        {
          "components": [
            {
              "name": "X",
              "type": "uint256[2]"
            },
            {
              "name": "Y",
              "type": "uint256[2]"
            }
          ],
          "name": "_H",
          "type": "tuple"
        },
        {
          "components": [
            {
              "name": "X",
              "type": "uint256"
            },
            {
              "name": "Y",
              "type": "uint256"
            }
          ],
          "name": "U",
          "type": "tuple"
        },
        {
          "components": [
            {
              "name": "X",
              "type": "uint256[2]"
            },
            {
              "name": "Y",
              "type": "uint256[2]"
            }
          ],
          "name": "_U",
          "type": "tuple"
        },
        {
          "components": [
            {
              "name": "X",
              "type": "uint256"
            },
            {
              "name": "Y",
              "type": "uint256"
            }
          ],
          "name": "V",
          "type": "tuple"
        },
        {
          "components": [
            {
              "name": "X",
              "type": "uint256[2]"
            },
            {
              "name": "Y",
              "type": "uint256[2]"
            }
          ],
          "name": "_V",
          "type": "tuple"
        },
        {
          "components": [
            {
              "name": "X",
              "type": "uint256"
            },
            {
              "name": "Y",
              "type": "uint256"
            }
          ],
          "name": "W",
          "type": "tuple"
        },
        {
          "components": [
            {
              "name": "X",
              "type": "uint256[2]"
            },
            {
              "name": "Y",
              "type": "uint256[2]"
            }
          ],
          "name": "_W",
          "type": "tuple"
        },
        {
          "components": [
            {
              "name": "X",
              "type": "uint256"
            },
            {
              "name": "Y",
              "type": "uint256"
            }
          ],
          "name": "Z",
          "type": "tuple"
        },
        {
          "components": [
            {
              "name": "X",
              "type": "uint256[2]"
            },
            {
              "name": "Y",
              "type": "uint256[2]"
            }
          ],
          "name": "_Z",
          "type": "tuple"
        }
      ],
      "payable": false,
      "stateMutability": "view",
      "type": "function"
    },
    {
      "constant": false,
      "inputs": [],
      "name": "dtbe_keygen_1",
      "outputs": [],
      "payable": false,
      "stateMutability": "nonpayable",
      "type": "function"
    },
    {
      "constant": false,
      "inputs": [],
      "name": "dtbe_keygen_2",
      "outputs": [],
      "payable": false,
      "stateMutability": "nonpayable",
      "type": "function"
    },
    {
      "constant": false,
      "inputs": [],
      "name": "dtbe_keygen_3",
      "outputs": [],
      "payable": false,
      "stateMutability": "nonpayable",
      "type": "function"
    },
    {
      "constant": false,
      "inputs": [],
      "name": "dtbe_keygen_4",
      "outputs": [],
      "payable": false,
      "stateMutability": "nonpayable",
      "type": "function"
    },
    {
      "constant": false,
      "inputs": [],
      "name": "dtbe_keygen_5",
      "outputs": [],
      "payable": false,
      "stateMutability": "nonpayable",
      "type": "function"
    },
    {
      "constant": false,
      "inputs": [],
      "name": "dtbe_keygen_6",
      "outputs": [],
      "payable": false,
      "stateMutability": "nonpayable",
      "type": "function"
    },
    {
      "constant": false,
      "inputs": [
        {
          "name": "i",
          "type": "uint256"
        }
      ],
      "name": "dtbe_keygen_7",
      "outputs": [],
      "payable": false,
      "stateMutability": "nonpayable",
      "type": "function"
    },
    {
      "constant": false,
      "inputs": [
        {
          "name": "i",
          "type": "uint256"
        }
      ],
      "name": "dtbe_keygen_8",
      "outputs": [],
      "payable": false,
      "stateMutability": "nonpayable",
      "type": "function"
    },
    {
      "constant": false,
      "inputs": [],
      "name": "dtbe_keygen_9",
      "outputs": [],
      "payable": false,
      "stateMutability": "nonpayable",
      "type": "function"
    },
    {
      "constant": false,
      "inputs": [],
      "name": "dtbe_encrypt",
      "outputs": [],
      "payable": false,
      "stateMutability": "nonpayable",
      "type": "function"
    }
  ],
  "bytecode": "0x60806040527f30644e72e131a029b85045b68181585d97816a916871ca8d3c208c16d87cfd476035556000603f55600060405534801561003e57600080fd5b506140658061004e6000396000f3006080604052600436106100db576000357c0100000000000000000000000000000000000000000000000000000000900463ffffffff1680630b0e26dd146100e057806315f664a41461025d57806316411eab1461027457806318ddb6671461028b57806319b5bc5c146102a257806323a4c22e146102cf5780634bc38368146103175780635d6985211461035f5780638cfbc48e1461038c578063a86122e5146103a3578063ab989f55146103eb578063e32465101461045c578063e3c895a114610473578063ee2b6ae51461048a578063efb5bcaa146104a1575b600080fd5b3480156100ec57600080fd5b506100f56104b8565b60405180878152602001868152602001858152602001806020018060200180602001848103845287818151815260200191508051906020019080838360005b8381101561014f578082015181840152602081019050610134565b50505050905090810190601f16801561017c5780820380516001836020036101000a031916815260200191505b50848103835286818151815260200191508051906020019080838360005b838110156101b557808201518184015260208101905061019a565b50505050905090810190601f1680156101e25780820380516001836020036101000a031916815260200191505b50848103825285818151815260200191508051906020019080838360005b8381101561021b578082015181840152602081019050610200565b50505050905090810190601f1680156102485780820380516001836020036101000a031916815260200191505b50995050505050505050505060405180910390f35b34801561026957600080fd5b5061027261075c565b005b34801561028057600080fd5b50610289610839565b005b34801561029757600080fd5b506102a061091e565b005b3480156102ae57600080fd5b506102cd60048036038101908080359060200190929190505050610b4c565b005b3480156102db57600080fd5b506102fa60048036038101908080359060200190929190505050610c46565b604051808381526020018281526020019250505060405180910390f35b34801561032357600080fd5b5061034260048036038101908080359060200190929190505050610c79565b604051808381526020018281526020019250505060405180910390f35b34801561036b57600080fd5b5061038a60048036038101908080359060200190929190505050610dd4565b005b34801561039857600080fd5b506103a1610ece565b005b3480156103af57600080fd5b506103ce60048036038101908080359060200190929190505050610fab565b604051808381526020018281526020019250505060405180910390f35b3480156103f757600080fd5b50610400610fde565b604051808c81526020018b81526020018a81526020018981526020018881526020018781526020018681526020018581526020018481526020018381526020018281526020019b50505050505050505050505060405180910390f35b34801561046857600080fd5b50610471611661565b005b34801561047f57600080fd5b506104886116ac565b005b34801561049657600080fd5b5061049f6119ec565b005b3480156104ad57600080fd5b506104b6611eab565b005b6000806000015490806001016040805190810160405290816000820154815260200160018201548152505090806003016040805190810160405290816000820160028060200260405190810160405280929190826002801561052f576020028201915b81548152602001906001019080831161051b575b5050505050815260200160028201600280602002604051908101604052809291908260028015610574576020028201915b815481526020019060010190808311610560575b50505050508152505090806007018054600181600116156101000203166002900480601f0160208091040260200160405190810160405280929190818152602001828054600181600116156101000203166002900480156106165780601f106105eb57610100808354040283529160200191610616565b820191906000526020600020905b8154815290600101906020018083116105f957829003601f168201915b505050505090806008018054600181600116156101000203166002900480601f0160208091040260200160405190810160405280929190818152602001828054600181600116156101000203166002900480156106b45780601f10610689576101008083540402835291602001916106b4565b820191906000526020600020905b81548152906001019060200180831161069757829003601f168201915b505050505090806009018054600181600116156101000203166002900480601f0160208091040260200160405190810160405280929190818152602001828054600181600116156101000203166002900480156107525780601f1061072757610100808354040283529160200191610752565b820191906000526020600020905b81548152906001019060200180831161073557829003601f168201915b5050505050905086565b610801600a601801604080519081016040529081600082016002806020026040519081016040528092919082600280156107ab576020028201915b815481526020019060010190808311610797575b50505050508152602001600282016002806020026040519081016040528092919082600280156107f0576020028201915b8154815260200190600101908083116107dc575b505050505081525050603854611f88565b600a602401600082018160000190600261081c929190613e0a565b506002820181600201906002610833929190613e0a565b50905050565b6108e6600a60120160408051908101604052908160008201600280602002604051908101604052809291908260028015610888576020028201915b815481526020019060010190808311610874575b50505050508152602001600282016002806020026040519081016040528092919082600280156108cd576020028201915b8154815260200190600101908083116108b9575b5050505050815250506108e16040546121bc565b611f88565b600a6018016000820181600001906002610901929190613e0a565b506002820181600201906002610918929190613e0a565b50905050565b60008060039150600090505b81811015610b48576033604080519081016040528060418460038110151561094e57fe5b6004020160408051908101604052908160008201600280602002604051908101604052809291908260028015610999576020028201915b815481526020019060010190808311610985575b50505050508152602001600282016002806020026040519081016040528092919082600280156109de576020028201915b8154815260200190600101908083116109ca575b5050505050815250508152602001604d846003811015156109fb57fe5b6004020160408051908101604052908160008201600280602002604051908101604052809291908260028015610a46576020028201915b815481526020019060010190808311610a32575b5050505050815260200160028201600280602002604051908101604052809291908260028015610a8b576020028201915b815481526020019060010190808311610a77575b50505050508152505081525090806001815401808255809150509060018203906000526020600020906008020160009091929091909150600082015181600001600082015181600001906002610ae2929190613e47565b50602082015181600201906002610afa929190613e47565b505050602082015181600401600082015181600001906002610b1d929190613e47565b50602082015181600201906002610b35929190613e47565b505050505050808060010191505061092a565b5050565b610bff600a600c0160408051908101604052908160008201600280602002604051908101604052809291908260028015610b9b576020028201915b815481526020019060010190808311610b87575b5050505050815260200160028201600280602002604051908101604052809291908260028015610be0576020028201915b815481526020019060010190808311610bcc575b505050505081525050603983600381101515610bf857fe5b0154611f88565b604182600381101515610c0e57fe5b600402016000820181600001906002610c28929190613e0a565b506002820181600201906002610c3f929190613e0a565b5090505050565b603281815481101515610c5557fe5b90600052602060002090600202016000915090508060000154908060010154905082565b603381815481101515610c8857fe5b90600052602060002090600802016000915090508060000160408051908101604052908160008201600280602002604051908101604052809291908260028015610ce7576020028201915b815481526020019060010190808311610cd3575b5050505050815260200160028201600280602002604051908101604052809291908260028015610d2c576020028201915b815481526020019060010190808311610d18575b505050505081525050908060040160408051908101604052908160008201600280602002604051908101604052809291908260028015610d81576020028201915b815481526020019060010190808311610d6d575b5050505050815260200160028201600280602002604051908101604052809291908260028015610dc6576020028201915b815481526020019060010190808311610db2575b505050505081525050905082565b610e87600a60180160408051908101604052908160008201600280602002604051908101604052809291908260028015610e23576020028201915b815481526020019060010190808311610e0f575b5050505050815260200160028201600280602002604051908101604052809291908260028015610e68576020028201915b815481526020019060010190808311610e54575b505050505081525050603c83600381101515610e8057fe5b0154611f88565b604d82600381101515610e9657fe5b600402016000820181600001906002610eb0929190613e0a565b506002820181600201906002610ec7929190613e0a565b5090505050565b610f73600a600c0160408051908101604052908160008201600280602002604051908101604052809291908260028015610f1d576020028201915b815481526020019060010190808311610f09575b5050505050815260200160028201600280602002604051908101604052809291908260028015610f62576020028201915b815481526020019060010190808311610f4e575b505050505081525050603f54611f88565b600a6012016000820181600001906002610f8e929190613e0a565b506002820181600201906002610fa5929190613e0a565b50905050565b603481815481101515610fba57fe5b90600052602060002090600202016000915090508060000154908060010154905082565b600a8060000160c060405190810160405290816000820154815260200160018201604080519081016040529081600082015481526020016001820154815250508152602001600382016040805190810160405290816000820160028060200260405190810160405280929190826002801561106e576020028201915b81548152602001906001019080831161105a575b50505050508152602001600282016002806020026040519081016040528092919082600280156110b3576020028201915b81548152602001906001019080831161109f575b5050505050815250508152602001600782018054600181600116156101000203166002900480601f0160208091040260200160405190810160405280929190818152602001828054600181600116156101000203166002900480156111595780601f1061112e57610100808354040283529160200191611159565b820191906000526020600020905b81548152906001019060200180831161113c57829003601f168201915b50505050508152602001600882018054600181600116156101000203166002900480601f0160208091040260200160405190810160405280929190818152602001828054600181600116156101000203166002900480156111fb5780601f106111d0576101008083540402835291602001916111fb565b820191906000526020600020905b8154815290600101906020018083116111de57829003601f168201915b50505050508152602001600982018054600181600116156101000203166002900480601f01602080910402602001604051908101604052809291908181526020018280546001816001161561010002031660029004801561129d5780601f106112725761010080835404028352916020019161129d565b820191906000526020600020905b81548152906001019060200180831161128057829003601f168201915b5050505050815250509080600a01604080519081016040529081600082015481526020016001820154815250509080600c0160408051908101604052908160008201600280602002604051908101604052809291908260028015611316576020028201915b815481526020019060010190808311611302575b505050505081526020016002820160028060200260405190810160405280929190826002801561135b576020028201915b815481526020019060010190808311611347575b5050505050815250509080601001604080519081016040529081600082015481526020016001820154815250509080601201604080519081016040529081600082016002806020026040519081016040528092919082600280156113d4576020028201915b8154815260200190600101908083116113c0575b5050505050815260200160028201600280602002604051908101604052809291908260028015611419576020028201915b815481526020019060010190808311611405575b505050505081525050908060160160408051908101604052908160008201548152602001600182015481525050908060180160408051908101604052908160008201600280602002604051908101604052809291908260028015611492576020028201915b81548152602001906001019080831161147e575b50505050508152602001600282016002806020026040519081016040528092919082600280156114d7576020028201915b8154815260200190600101908083116114c3575b5050505050815250509080601c01604080519081016040529081600082015481526020016001820154815250509080601e0160408051908101604052908160008201600280602002604051908101604052809291908260028015611550576020028201915b81548152602001906001019080831161153c575b5050505050815260200160028201600280602002604051908101604052809291908260028015611595576020028201915b815481526020019060010190808311611581575b50505050508152505090806022016040805190810160405290816000820154815260200160018201548152505090806024016040805190810160405290816000820160028060200260405190810160405280929190826002801561160e576020028201915b8154815260200190600101908083116115fa575b5050505050815260200160028201600280602002604051908101604052809291908260028015611653576020028201915b81548152602001906001019080831161163f575b50505050508152505090508b565b61167461166c6122b0565b603654611f88565b600a600c01600082018160000190600261168f929190613e0a565b5060028201816002019060026116a6929190613e0a565b50905050565b6000806116b7613e87565b6116c260355461237a565b92506116cf60355461237a565b915060346116ff600a8001604080519081016040529081600082015481526020016001820154815250508561242a565b9080600181540180825580915050906001820390600052602060002090600202016000909192909190915060008201548160000155600182015481600101555050506034611770600a601601604080519081016040529081600082015481526020016001820154815250508461242a565b90806001815401808255809150509060018203906000526020600020906002020160009091929091909150600082015481600001556001820154816001015550505060346118226040805190810160405280607b81526020016101c88152506117fe600a6010016040805190810160405290816000820154815260200160018201548152505086880161242a565b60408051908101604052908160008201548152602001600182015481525050612469565b908060018154018082558091505090600182039060005260206000209060020201600090919290919091506000820154816000015560018201548160010155505050611894600a601001604080519081016040529081600082015481526020016001820154815250506201e24061242a565b604080519081016040529081600082015481526020016001820154815250509050603461190c6118e783600a601c0160408051908101604052908160008201548152602001600182015481525050612469565b604080519081016040529081600082015481526020016001820154815250508561242a565b90806001815401808255809150509060018203906000526020600020906002020160009091929091909150600082015481600001556001820154816001015550505060346119a561198083600a60220160408051908101604052908160008201548152602001600182015481525050612469565b604080519081016040529081600082015481526020016001820154815250508461242a565b908060018154018082558091505090600182039060005260206000209060020201600090919290919091506000820154816000015560018201548160010155505050505050565b600080600391506035546000800181905550611a066122b0565b6000600301600082015181600001906002611a22929190613e47565b50602082015181600201906002611a3a929190613e47565b509050506040805190810160405280600981526020017f45436f70732e736f6c000000000000000000000000000000000000000000000081525060006007019080519060200190611a8c929190613ea1565b506040805190810160405280600b81526020017f45436f707347322e736f6c00000000000000000000000000000000000000000081525060006008019080519060200190611adb929190613ea1565b506040805190810160405280600b81526020017f50616972696e672e736f6c00000000000000000000000000000000000000000081525060006009019080519060200190611b2a929190613ea1565b506000600a6000016000820154816000015560018201816001016000820154816000015560018201548160010155505060038201816003016000820181600001906002611b78929190613e0a565b506002820181600201906002611b8f929190613e0a565b50505060078201816007019080546001816001161561010002031660029004611bb9929190613f21565b5060088201816008019080546001816001161561010002031660029004611be1929190613f21565b5060098201816009019080546001816001161561010002031660029004611c09929190613f21565b50905050611c1860355461237a565b603681905550611c2960355461237a565b603781905550611c3a60355461237a565b603881905550600090505b81811015611d4757611c5860355461237a565b603982600381101515611c6757fe5b0181905550611c7760355461237a565b603c82600381101515611c8657fe5b0181905550603981600381101515611c9a57fe5b0154603f5401603f81905550603c81600381101515611cb557fe5b01546040540160408190555060326040805190810160405280603984600381101515611cdd57fe5b01548152602001603c84600381101515611cf357fe5b01548152509080600181540180825580915050906001820390600052602060002090600202016000909192909190915060008201518160000155602082015181600101555050508080600101915050611c45565b611d5a611d526124b1565b60365461242a565b600a80016000820154816000015560018201548160010155905050611da3600a800160408051908101604052908160008201548152602001600182015481525050603f5461242a565b600a6010016000820154816000015560018201548160010155905050611df6600a60100160408051908101604052908160008201548152602001600182015481525050611df16040546121bc565b61242a565b600a6016016000820154816000015560018201548160010155905050611e40600a80016040805190810160405290816000820154815260200160018201548152505060375461242a565b600a601c016000820154816000015560018201548160010155905050611e8b600a6016016040805190810160405290816000820154815260200160018201548152505060385461242a565b600a60220160008201548160000155600182015481600101559050505050565b611f50600a600c0160408051908101604052908160008201600280602002604051908101604052809291908260028015611efa576020028201915b815481526020019060010190808311611ee6575b5050505050815260200160028201600280602002604051908101604052809291908260028015611f3f576020028201915b815481526020019060010190808311611f2b575b505050505081525050603754611f88565b600a601e016000820181600001906002611f6b929190613e0a565b506002820181600201906002611f82929190613e0a565b50905050565b6000806000806000611f98613fa8565b6000809550600094506000935060009250600089600001516000600281101515611fbe57fe5b6020020151148015611fe75750600089600001516001600281101515611fe057fe5b6020020151145b801561200a575060008960200151600060028110151561200357fe5b6020020151145b801561202d575060008960200151600160028110151561202657fe5b6020020151145b1561204d576120468860016000600160008060006124d5565b91506120bd565b6120ba888a60000151600060028110151561206457fe5b60200201518b60000151600160028110151561207c57fe5b60200201518c60200151600060028110151561209457fe5b60200201518d6020015160016002811015156120ac57fe5b6020020151600160006124d5565b91505b61213d8260006006811015156120cf57fe5b60200201518360016006811015156120e357fe5b60200201518460026006811015156120f757fe5b602002015185600360068110151561210b57fe5b602002015186600460068110151561211f57fe5b602002015187600560068110151561213357fe5b60200201516125ea565b809650819750829850839950505050508581600001600060028110151561216057fe5b01819055508481600001600160028110151561217857fe5b01819055508381600201600060028110151561219057fe5b0181905550828160020160016002811015156121a857fe5b018190555080965050505050505092915050565b60008060008060008060009450600193507f30644e72e131a029b85045b68181585d97816a916871ca8d3c208c16d87cfd4792508691505b6000821415156122a357818381151561220957fe5b049050837f30644e72e131a029b85045b68181585d97816a916871ca8d3c208c16d87cfd4780151561223757fe5b7f30644e72e131a029b85045b68181585d97816a916871ca8d3c208c16d87cfd4780151561226157fe5b8684097f30644e72e131a029b85045b68181585d97816a916871ca8d3c208c16d87cfd47038708809550819650505081828202840380935081945050506121f4565b8495505050505050919050565b6122b8613fcb565b604080519081016040528060408051908101604052807f198e9393920d483a7260bfb731fb5d25f1aa493335a9e71297e485b7aef312c281526020017f1800deef121f1e76426a00665e5c4479674322d4f75edadd46debd5cd992f6ed815250815260200160408051908101604052807f090689d0585ff075ec9e99ad690c3395bc4b313370b38ef355acdadcd122975b81526020017f12c85ea5db8c6deb4aab71808dcb408fe3d1e7690c43d37b4ce6cc0166fa7daa815250815250905090565b6000806000600184019150448260405160200180838152602001828152602001925050506040516020818303038152906040526040518082805190602001908083835b6020831015156123e257805182526020820191506020810190506020830392506123bd565b6001836020036101000a0380198251168184511680821785525050505050509050019150506040518091039020600190049050838181151561242057fe5b0692505050919050565b600080600080612443866000015187602001518761263c565b809350819450505082816000018190555081816001018190555080935050505092915050565b60008060008061248b8660000151876020015187600001518860200151612748565b809350819450505082816000018190555081816001018190555080935050505092915050565b6124b9613e87565b6040805190810160405280600181526020016002815250905090565b6124dd613fa8565b60008060008060008060008e96508d95508c94508b93508a92508991508890505b6000871415156125d85760006001881614151561259e5761259b88600060068110151561252757fe5b602002015189600160068110151561253b57fe5b60200201518a600260068110151561254f57fe5b60200201518b600360068110151561256357fe5b60200201518c600460068110151561257757fe5b60200201518d600560068110151561258b57fe5b60200201518c8c8c8c8c8c612782565b97505b6125ac868686868686612dd2565b809650819750829850839950849a50859b505050505050506002878115156125d057fe5b0496506124fe565b50505050505050979650505050505050565b6000806000806000806125fd8888612f7a565b80925081935050506126118c8c84846130b7565b80965081975050506126258a8a84846130b7565b809450819550505050509650965096509692505050565b600080600080600080600087141561265f576126566131cf565b9550955061273c565b60018714156126735788889550955061273c565b600287141561268f5761268689896131e3565b9550955061273c565b889350879250600191506001905088955087945060006002888115156126b157fe5b0614156126c057600094508495505b6001879060020a900496505b600087111561272c576126e0848484613217565b80945081955082965050505060016002888115156126fa57fe5b06141561271c5761270f8484848989866136c8565b8093508197508298505050505b6001879060020a900496506126cc565b612737868683613858565b955095505b50505050935093915050565b600080600061275d87876001888860016136c8565b809350819850829950505050612774878783613858565b925092505094509492505050565b61278a613fa8565b60008914801561279a5750600088145b1561283d578686868686868660006006811015156127b457fe5b602002018760016006811015156127c757fe5b602002018860026006811015156127da57fe5b602002018960036006811015156127ed57fe5b602002018a600460068110151561280057fe5b602002018b600560068110151561281357fe5b60200201868152508681525086815250868152508681525086815250505050505050809050612dc2565b60008314801561284d5750600082145b156128f0578c8c8c8c8c8c86600060068110151561286757fe5b6020020187600160068110151561287a57fe5b6020020188600260068110151561288d57fe5b602002018960036006811015156128a057fe5b602002018a60046006811015156128b357fe5b602002018b60056006811015156128c657fe5b60200201868152508681525086815250868152508681525086815250505050505050809050612dc2565b6128fc85858b8b6130b7565b80955081965050506129108b8b85856130b7565b82600260068110151561291f57fe5b6020020183600360068110151561293257fe5b602002018281525082815250505061294c87878b8b6130b7565b80975081985050506129608d8d85856130b7565b82600460068110151561296f57fe5b6020020183600560068110151561298257fe5b602002018281525082815250505080600460068110151561299f57fe5b6020020151871480156129c457508060056006811015156129bc57fe5b602002015186145b15612b5d578060026006811015156129d857fe5b6020020151851480156129fd57508060036006811015156129f557fe5b602002015184145b15612aa857612a108d8d8d8d8d8d612dd2565b866000600681101515612a1f57fe5b60200201876001600681101515612a3257fe5b60200201886002600681101515612a4557fe5b60200201896003600681101515612a5857fe5b602002018a6004600681101515612a6b57fe5b602002018b6005600681101515612a7e57fe5b60200201868152508681525086815250868152508681525086815250505050505050809050612dc2565b6001600060016000806000859550849450839350829250819150809050866000600681101515612ad457fe5b60200201876001600681101515612ae757fe5b60200201886002600681101515612afa57fe5b60200201896003600681101515612b0d57fe5b602002018a6004600681101515612b2057fe5b602002018b6005600681101515612b3357fe5b60200201868152508681525086815250868152508681525086815250505050505050809050612dc2565b612b69898985856130b7565b8093508194505050612ba38585836002600681101515612b8557fe5b6020020151846003600681101515612b9957fe5b60200201516138cf565b809d50819e505050612bdd8787836004600681101515612bbf57fe5b6020020151846005600681101515612bd357fe5b60200201516138cf565b809b50819c505050612bf18b8b8d8d6130b7565b809950819a505050612c2b8989836004600681101515612c0d57fe5b6020020151846005600681101515612c2157fe5b60200201516130b7565b8095508196505050612c3f89898d8d6130b7565b809950819a505050612c53898985856130b7565b826004600681101515612c6257fe5b60200201836005600681101515612c7557fe5b6020020182815250828152505050612c8f8d8d8f8f6130b7565b8097508198505050612ca3878785856130b7565b8097508198505050612cb787878b8b6138cf565b8097508198505050612ccb85856002613935565b8093508194505050612cdf878785856138cf565b8097508198505050612cf38b8b89896130b7565b826000600681101515612d0257fe5b60200201836001600681101515612d1557fe5b6020020182815250828152505050612d2f858589896138cf565b809b50819c505050612d438d8d8d8d6130b7565b809b50819c505050612d7d8989836002600681101515612d5f57fe5b6020020151846003600681101515612d7357fe5b60200201516130b7565b809d50819e505050612d918b8b8f8f6138cf565b826002600681101515612da057fe5b60200201836003600681101515612db357fe5b60200201828152508281525050505b9c9b505050505050505050505050565b600080600080600080612de78c8c6003613935565b8096508197505050612dfb86868e8e6130b7565b8096508197505050612e0f8a8a8a8a6130b7565b8098508199505050612e238c8c8c8c6130b7565b8094508195505050612e3784848a8a6130b7565b8094508195505050612e4b868688886130b7565b809c50819d505050612e5f84846008613935565b8092508193505050612e738c8c84846138cf565b809c50819d505050612e8788888a8a6130b7565b8092508193505050612e9b84846004613935565b8094508195505050612eaf84848e8e6138cf565b8094508195505050612ec3848488886130b7565b8094508195505050612ed78a8a6008613935565b8096508197505050612eeb86868c8c6130b7565b8096508197505050612eff868684846130b7565b8096508197505050612f13848488886138cf565b8094508195505050612f278c8c6002613935565b8096508197505050612f3b86868a8a6130b7565b8096508197505050612f4f888884846130b7565b8092508193505050612f6382826008613935565b809250819350505096509650965096509650969050565b600080600061302d7f30644e72e131a029b85045b68181585d97816a916871ca8d3c208c16d87cfd47801515612fac57fe5b7f30644e72e131a029b85045b68181585d97816a916871ca8d3c208c16d87cfd47801515612fd657fe5b8788097f30644e72e131a029b85045b68181585d97816a916871ca8d3c208c16d87cfd4780151561300357fe5b878809087f30644e72e131a029b85045b68181585d97816a916871ca8d3c208c16d87cfd4761399e565b90507f30644e72e131a029b85045b68181585d97816a916871ca8d3c208c16d87cfd4780151561305957fe5b8186097f30644e72e131a029b85045b68181585d97816a916871ca8d3c208c16d87cfd4780151561308657fe5b8286097f30644e72e131a029b85045b68181585d97816a916871ca8d3c208c16d87cfd470392509250509250929050565b60008061313d7f30644e72e131a029b85045b68181585d97816a916871ca8d3c208c16d87cfd478015156130e757fe5b8588097f30644e72e131a029b85045b68181585d97816a916871ca8d3c208c16d87cfd4780151561311457fe5b8588097f30644e72e131a029b85045b68181585d97816a916871ca8d3c208c16d87cfd476139f2565b7f30644e72e131a029b85045b68181585d97816a916871ca8d3c208c16d87cfd4780151561316757fe5b7f30644e72e131a029b85045b68181585d97816a916871ca8d3c208c16d87cfd4780151561319157fe5b8688097f30644e72e131a029b85045b68181585d97816a916871ca8d3c208c16d87cfd478015156131be57fe5b868a09089150915094509492505050565b600080600080819150809050915091509091565b60008060006131f485856001613217565b80935081965082975050505061320b858583613858565b92509250509250929050565b600080600080600080600061322c8a8a613a0c565b1561324457613239613a36565b9650965096506136bb565b7f30644e72e131a029b85045b68181585d97816a916871ca8d3c208c16d87cfd4780151561326e57fe5b888a0992507f30644e72e131a029b85045b68181585d97816a916871ca8d3c208c16d87cfd4780151561329d57fe5b6002840992507f30644e72e131a029b85045b68181585d97816a916871ca8d3c208c16d87cfd478015156132cd57fe5b8a840991507f30644e72e131a029b85045b68181585d97816a916871ca8d3c208c16d87cfd478015156132fc57fe5b89830991507f30644e72e131a029b85045b68181585d97816a916871ca8d3c208c16d87cfd4780151561332b57fe5b6002830991507f30644e72e131a029b85045b68181585d97816a916871ca8d3c208c16d87cfd4780151561335b57fe5b8a8b0999507f30644e72e131a029b85045b68181585d97816a916871ca8d3c208c16d87cfd4780151561338a57fe5b60038b0993507f30644e72e131a029b85045b68181585d97816a916871ca8d3c208c16d87cfd478015156133ba57fe5b88890997507f30644e72e131a029b85045b68181585d97816a916871ca8d3c208c16d87cfd478015156133e957fe5b6000890997507f30644e72e131a029b85045b68181585d97816a916871ca8d3c208c16d87cfd4780151561341957fe5b88850893507f30644e72e131a029b85045b68181585d97816a916871ca8d3c208c16d87cfd4780151561344857fe5b84850990507f30644e72e131a029b85045b68181585d97816a916871ca8d3c208c16d87cfd4780151561347757fe5b8260020999507f30644e72e131a029b85045b68181585d97816a916871ca8d3c208c16d87cfd478015156134a757fe5b8a7f30644e72e131a029b85045b68181585d97816a916871ca8d3c208c16d87cfd4703820890507f30644e72e131a029b85045b68181585d97816a916871ca8d3c208c16d87cfd478015156134f857fe5b817f30644e72e131a029b85045b68181585d97816a916871ca8d3c208c16d87cfd4703830899507f30644e72e131a029b85045b68181585d97816a916871ca8d3c208c16d87cfd4780151561354957fe5b8a850999507f30644e72e131a029b85045b68181585d97816a916871ca8d3c208c16d87cfd4780151561357857fe5b838a0998507f30644e72e131a029b85045b68181585d97816a916871ca8d3c208c16d87cfd478015156135a757fe5b898a0998507f30644e72e131a029b85045b68181585d97816a916871ca8d3c208c16d87cfd478015156135d657fe5b8960020998507f30644e72e131a029b85045b68181585d97816a916871ca8d3c208c16d87cfd4780151561360657fe5b897f30644e72e131a029b85045b68181585d97816a916871ca8d3c208c16d87cfd47038b0895507f30644e72e131a029b85045b68181585d97816a916871ca8d3c208c16d87cfd4780151561365757fe5b81840996507f30644e72e131a029b85045b68181585d97816a916871ca8d3c208c16d87cfd4780151561368657fe5b83840994507f30644e72e131a029b85045b68181585d97816a916871ca8d3c208c16d87cfd478015156136b557fe5b83860994505b5050505093509350939050565b60008060008060008060006136dd8d8d613a0c565b156136f057898989965096509650613848565b6136fa8a8a613a0c565b1561370d578c8c8c965096509650613848565b7f30644e72e131a029b85045b68181585d97816a916871ca8d3c208c16d87cfd4780151561373757fe5b888d0993507f30644e72e131a029b85045b68181585d97816a916871ca8d3c208c16d87cfd4780151561376657fe5b8b8a0992507f30644e72e131a029b85045b68181585d97816a916871ca8d3c208c16d87cfd4780151561379557fe5b888e0991507f30644e72e131a029b85045b68181585d97816a916871ca8d3c208c16d87cfd478015156137c457fe5b8b8b0990508082141561380257828414156137ef576137e48d8d8d613217565b965096509650613848565b6137f7613a36565b965096509650613848565b61383b7f30644e72e131a029b85045b68181585d97816a916871ca8d3c208c16d87cfd4780151561382f57fe5b898d0983838688613a54565b8097508198508299505050505b5050505096509650969350505050565b6000806000613866846121bc565b90507f30644e72e131a029b85045b68181585d97816a916871ca8d3c208c16d87cfd4780151561389257fe5b81870992507f30644e72e131a029b85045b68181585d97816a916871ca8d3c208c16d87cfd478015156138c157fe5b818609915050935093915050565b6000806138fd86857f30644e72e131a029b85045b68181585d97816a916871ca8d3c208c16d87cfd476139f2565b61392886857f30644e72e131a029b85045b68181585d97816a916871ca8d3c208c16d87cfd476139f2565b9150915094509492505050565b6000807f30644e72e131a029b85045b68181585d97816a916871ca8d3c208c16d87cfd4780151561396257fe5b8386097f30644e72e131a029b85045b68181585d97816a916871ca8d3c208c16d87cfd4780151561398f57fe5b84860991509150935093915050565b60008060405160208152602080820152602060408201528460608201526002840360808201528360a082015260208160c08360056107d05a03fa915080519250508015156139eb57600080fd5b5092915050565b6000818015156139fe57fe5b838303850890509392505050565b60008083148015613a1d5750600082145b15613a2b5760019050613a30565b600090505b92915050565b60008060008060006001829250819150809050925092509250909192565b6000806000806000806000807f30644e72e131a029b85045b68181585d97816a916871ca8d3c208c16d87cfd47801515613a8a57fe5b8a7f30644e72e131a029b85045b68181585d97816a916871ca8d3c208c16d87cfd47038a0890507f30644e72e131a029b85045b68181585d97816a916871ca8d3c208c16d87cfd47801515613adb57fe5b8b7f30644e72e131a029b85045b68181585d97816a916871ca8d3c208c16d87cfd47038d0894507f30644e72e131a029b85045b68181585d97816a916871ca8d3c208c16d87cfd47801515613b2c57fe5b85860993507f30644e72e131a029b85045b68181585d97816a916871ca8d3c208c16d87cfd47801515613b5b57fe5b81820991507f30644e72e131a029b85045b68181585d97816a916871ca8d3c208c16d87cfd47801515613b8a57fe5b8d830991507f30644e72e131a029b85045b68181585d97816a916871ca8d3c208c16d87cfd47801515613bb957fe5b8c8c089a507f30644e72e131a029b85045b68181585d97816a916871ca8d3c208c16d87cfd47801515613be857fe5b848c099a507f30644e72e131a029b85045b68181585d97816a916871ca8d3c208c16d87cfd47801515613c1757fe5b8b7f30644e72e131a029b85045b68181585d97816a916871ca8d3c208c16d87cfd4703830891507f30644e72e131a029b85045b68181585d97816a916871ca8d3c208c16d87cfd47801515613c6857fe5b82860997507f30644e72e131a029b85045b68181585d97816a916871ca8d3c208c16d87cfd47801515613c9757fe5b85850992507f30644e72e131a029b85045b68181585d97816a916871ca8d3c208c16d87cfd47801515613cc657fe5b848d099b507f30644e72e131a029b85045b68181585d97816a916871ca8d3c208c16d87cfd47801515613cf557fe5b827f30644e72e131a029b85045b68181585d97816a916871ca8d3c208c16d87cfd47038d089b507f30644e72e131a029b85045b68181585d97816a916871ca8d3c208c16d87cfd47801515613d4657fe5b8c820990507f30644e72e131a029b85045b68181585d97816a916871ca8d3c208c16d87cfd47801515613d7557fe5b838a0998507f30644e72e131a029b85045b68181585d97816a916871ca8d3c208c16d87cfd47801515613da457fe5b897f30644e72e131a029b85045b68181585d97816a916871ca8d3c208c16d87cfd4703820896507f30644e72e131a029b85045b68181585d97816a916871ca8d3c208c16d87cfd47801515613df557fe5b8d840995505050505050955095509592505050565b8260028101928215613e36579182015b82811115613e35578254825591600101919060010190613e1a565b5b509050613e439190613ff2565b5090565b8260028101928215613e76579160200282015b82811115613e75578251825591602001919060010190613e5a565b5b509050613e839190613ff2565b5090565b604080519081016040528060008152602001600081525090565b828054600181600116156101000203166002900490600052602060002090601f016020900481019282601f10613ee257805160ff1916838001178555613f10565b82800160010185558215613f10579182015b82811115613f0f578251825591602001919060010190613ef4565b5b509050613f1d9190613ff2565b5090565b828054600181600116156101000203166002900490600052602060002090601f016020900481019282601f10613f5a5780548555613f97565b82800160010185558215613f9757600052602060002091601f016020900482015b82811115613f96578254825591600101919060010190613f7b565b5b509050613fa49190613ff2565b5090565b60c060405190810160405280600690602082028038833980820191505090505090565b608060405190810160405280613fdf614017565b8152602001613fec614017565b81525090565b61401491905b80821115614010576000816000905550600101613ff8565b5090565b90565b60408051908101604052806002906020820280388339808201915050905050905600a165627a7a723058200a5bcb923be6e7f0418f3326d104b84303115698610c3ea2ab40981310c77def0029",
  "source": "// This file is MIT Licensed.\r\n//\r\n// Copyright 2020 xu yunkai\r\n\r\npragma solidity >=0.4.2;\r\n// pragma experimental ABIEncoderV2;\r\n\r\nimport \"./dtbe/LibDTBE.sol\";\r\n\r\n// contract test_dtbe_main{\r\n//     function setepk(LibDTBE.PK _epk) public;\r\n//     function setesk(LibDTBE.SK[] _esk) public;\r\n//     function setesvk(LibDTBE.SVK[] _esvk) public;\r\n//     function setcdtbe(Pairing.G1Point[] _c_dtbe) public;\r\n// }\r\n\r\ncontract test_dtbe{\r\n    using LibDTBE for *;\r\n    using Pairing for *;\r\n\r\n    LibDTBE.PGroup public pg;\r\n    LibDTBE.PK public epk;\r\n    LibDTBE.SK[] public esk;\r\n    LibDTBE.SVK[] public esvk;\r\n    Pairing.G1Point[] public c_dtbe;\r\n    // LibDTBE.CLUE[] public V;\r\n\r\n    uint p = 21888242871839275222246405745257275088696311157297823662689037894645226208583;\r\n    uint256 h;\r\n    uint256 w;\r\n    uint256 z;\r\n    uint256[3] _ui;\r\n    uint256[3] _vi;\r\n    uint256 u = 0; //sum of ui\r\n    uint256 v = 0; //sum of vi\r\n    Pairing.G2Point[3] _ui_;\r\n    Pairing.G2Point[3] _vi_;\r\n\r\n\r\n    // function get\r\n\r\n    function dtbe_keygen_1() public {\r\n        // (epk, esk, esvk) = LibDTBE.KeyGen(3);\r\n\r\n        uint n = 3;\r\n        pg._p = p;\r\n        pg._G = Pairing.P2();\r\n\t\tpg._ECG1 = \"ECops.sol\";\r\n\t\tpg._ECG2 = \"ECopsG2.sol\";\r\n\t\tpg._pairing = \"Pairing.sol\";\r\n\t\tepk.P = pg;\r\n\r\n        h = LibDTBE.rand(p);\r\n        w = LibDTBE.rand(p);\r\n        z = LibDTBE.rand(p);\r\n        // uint256 h = LibDTBE.rand(p);\r\n        // uint256 w = LibDTBE.rand(p);\r\n        // uint256 z = LibDTBE.rand(p);\r\n        // uint256[] memory _ui = new uint256[](n);\r\n        // uint256[] memory _vi = new uint256[](n);\r\n        // uint256 u = 0; //sum of ui\r\n        // uint256 v = 0; //sum of vi\r\n\r\n        uint i = 0;\r\n        while(i < n){\r\n            _ui[i] = LibDTBE.rand(p);\r\n            _vi[i] = LibDTBE.rand(p);\r\n            u = u + _ui[i];\r\n            v = v + _vi[i];\r\n            //initialize the sk\r\n            esk.push(LibDTBE.SK({\r\n                ui: _ui[i],\r\n                vi: _vi[i]\r\n            }));\r\n            i++;\r\n        }\r\n\r\n        epk.H = LibDTBE.G1mul(Pairing.P1(), h);\r\n\t\t// epk._H = LibDTBE.G2mul(Pairing.P2(), h);\r\n\r\n\t\tepk.U = LibDTBE.G1mul(epk.H, u);\r\n\t\t// epk._U = LibDTBE.G2mul(epk._H, u);\r\n\r\n        epk.V = LibDTBE.G1mul(epk.U, ECops.inverse(v));\r\n        // epk._V = LibDTBE.G2mul(epk._U, ECops.inverse(v));\r\n\r\n        epk.W = LibDTBE.G1mul(epk.H, w);\r\n        // epk._W = LibDTBE.G2mul(epk._H, w);\r\n\r\n        epk.Z = LibDTBE.G1mul(epk.V, z);\r\n        // epk._Z = LibDTBE.G2mul(epk._V, z);\r\n\r\n        // i = 0;\r\n        // while(i < n){\r\n        //     esvk.push(LibDTBE.SVK({\r\n        //         Ui: LibDTBE.G2mul(epk._H, _ui[i]),\r\n        //         Vi: LibDTBE.G2mul(epk._V, _vi[i])\r\n        //     }));\r\n        //     i++;\r\n        // }\r\n    }\r\n\r\n    function dtbe_keygen_2() public {\r\n\t\tepk._H = LibDTBE.G2mul(Pairing.P2(), h);\r\n\t\t// epk._U = LibDTBE.G2mul(epk._H, u);\r\n        // epk._V = LibDTBE.G2mul(epk._U, ECops.inverse(v));\r\n        // epk._W = LibDTBE.G2mul(epk._H, w);\r\n        // epk._Z = LibDTBE.G2mul(epk._V, z);\r\n    }\r\n\r\n    function dtbe_keygen_3() public {\r\n\t\tepk._U = LibDTBE.G2mul(epk._H, u);\r\n    }\r\n\r\n    function dtbe_keygen_4() public {\r\n\t\tepk._V = LibDTBE.G2mul(epk._U, ECops.inverse(v));\r\n    }\r\n\r\n    function dtbe_keygen_5() public {\r\n\t\tepk._W = LibDTBE.G2mul(epk._H, w);\r\n    }\r\n\r\n    function dtbe_keygen_6() public {\r\n\t\tepk._Z = LibDTBE.G2mul(epk._V, z);\r\n    }\r\n\r\n    function dtbe_keygen_7(uint i) public {\r\n        _ui_[i] = LibDTBE.G2mul(epk._H, _ui[i]);\r\n    }\r\n\r\n    function dtbe_keygen_8(uint i) public {\r\n        _vi_[i] = LibDTBE.G2mul(epk._V, _vi[i]);\r\n    }\r\n\r\n    function dtbe_keygen_9() public {\r\n        uint n = 3;\r\n        uint i = 0;\r\n        while(i < n){\r\n            esvk.push(LibDTBE.SVK({\r\n                Ui: _ui_[i],\r\n                Vi: _vi_[i]\r\n            }));\r\n            i++;\r\n        }\r\n    }\r\n\r\n    function dtbe_encrypt() public {\r\n        // Pairing.G1Point memory M = Pairing.G1Point(123, 456);\r\n        // c_dtbe = LibDTBE.encrypt(epk, 123456, M);\r\n\r\n        uint256 r1 = LibDTBE.rand(p);\r\n\t\tuint256 r2 = LibDTBE.rand(p);\r\n        c_dtbe.push(LibDTBE.G1mul(epk.H, r1));\r\n        c_dtbe.push(LibDTBE.G1mul(epk.V, r2));\r\n        c_dtbe.push(LibDTBE.G1add(Pairing.G1Point(123, 456), LibDTBE.G1mul(epk.U, r1 + r2)));\r\n        Pairing.G1Point memory tmp = LibDTBE.G1mul(epk.U, 123456);\r\n        c_dtbe.push(LibDTBE.G1mul(LibDTBE.G1add(tmp, epk.W), r1));\r\n        c_dtbe.push(LibDTBE.G1mul(LibDTBE.G1add(tmp, epk.Z), r2));\r\n    }\r\n}",
  "sourcePath": "D:\\Myproject\\AttriChain\\contracts\\test_dtbe.sol",
  "compiler": {
    "name": "solc",
    "version": "0.4.23+commit.124ca40d.Emscripten.clang"
  },
  "schemaVersion": "2.0.0",
  "updatedAt": "2020-07-16T15:31:36.045Z"
}