{
  "contractName": "test_dtbe_main",
  "abi": [
    {
      "constant": true,
      "inputs": [
        {
          "name": "",
          "type": "uint256"
        }
      ],
      "name": "esk",
      "outputs": [
        {
          "name": "ui",
          "type": "uint256"
        },
        {
          "name": "vi",
          "type": "uint256"
        }
      ],
      "payable": false,
      "stateMutability": "view",
      "type": "function"
    },
    {
      "constant": true,
      "inputs": [
        {
          "name": "",
          "type": "uint256"
        }
      ],
      "name": "esvk",
      "outputs": [
        {
          "components": [
            {
              "name": "X",
              "type": "uint256[2]"
            },
            {
              "name": "Y",
              "type": "uint256[2]"
            }
          ],
          "name": "Ui",
          "type": "tuple"
        },
        {
          "components": [
            {
              "name": "X",
              "type": "uint256[2]"
            },
            {
              "name": "Y",
              "type": "uint256[2]"
            }
          ],
          "name": "Vi",
          "type": "tuple"
        }
      ],
      "payable": false,
      "stateMutability": "view",
      "type": "function"
    },
    {
      "constant": true,
      "inputs": [
        {
          "name": "",
          "type": "uint256"
        }
      ],
      "name": "V",
      "outputs": [
        {
          "components": [
            {
              "name": "X",
              "type": "uint256"
            },
            {
              "name": "Y",
              "type": "uint256"
            }
          ],
          "name": "Ci1",
          "type": "tuple"
        },
        {
          "components": [
            {
              "name": "X",
              "type": "uint256"
            },
            {
              "name": "Y",
              "type": "uint256"
            }
          ],
          "name": "Ci2",
          "type": "tuple"
        }
      ],
      "payable": false,
      "stateMutability": "view",
      "type": "function"
    },
    {
      "constant": true,
      "inputs": [
        {
          "name": "",
          "type": "uint256"
        }
      ],
      "name": "c_dtbe",
      "outputs": [
        {
          "name": "X",
          "type": "uint256"
        },
        {
          "name": "Y",
          "type": "uint256"
        }
      ],
      "payable": false,
      "stateMutability": "view",
      "type": "function"
    },
    {
      "constant": true,
      "inputs": [],
      "name": "epk",
      "outputs": [
        {
          "components": [
            {
              "name": "_p",
              "type": "uint256"
            },
            {
              "components": [
                {
                  "name": "X",
                  "type": "uint256"
                },
                {
                  "name": "Y",
                  "type": "uint256"
                }
              ],
              "name": "G",
              "type": "tuple"
            },
            {
              "components": [
                {
                  "name": "X",
                  "type": "uint256[2]"
                },
                {
                  "name": "Y",
                  "type": "uint256[2]"
                }
              ],
              "name": "_G",
              "type": "tuple"
            },
            {
              "name": "_ECG1",
              "type": "string"
            },
            {
              "name": "_ECG2",
              "type": "string"
            },
            {
              "name": "_pairing",
              "type": "string"
            }
          ],
          "name": "P",
          "type": "tuple"
        },
        {
          "components": [
            {
              "name": "X",
              "type": "uint256"
            },
            {
              "name": "Y",
              "type": "uint256"
            }
          ],
          "name": "H",
          "type": "tuple"
        },
        {
          "components": [
            {
              "name": "X",
              "type": "uint256[2]"
            },
            {
              "name": "Y",
              "type": "uint256[2]"
            }
          ],
          "name": "_H",
          "type": "tuple"
        },
        {
          "components": [
            {
              "name": "X",
              "type": "uint256"
            },
            {
              "name": "Y",
              "type": "uint256"
            }
          ],
          "name": "U",
          "type": "tuple"
        },
        {
          "components": [
            {
              "name": "X",
              "type": "uint256[2]"
            },
            {
              "name": "Y",
              "type": "uint256[2]"
            }
          ],
          "name": "_U",
          "type": "tuple"
        },
        {
          "components": [
            {
              "name": "X",
              "type": "uint256"
            },
            {
              "name": "Y",
              "type": "uint256"
            }
          ],
          "name": "V",
          "type": "tuple"
        },
        {
          "components": [
            {
              "name": "X",
              "type": "uint256[2]"
            },
            {
              "name": "Y",
              "type": "uint256[2]"
            }
          ],
          "name": "_V",
          "type": "tuple"
        },
        {
          "components": [
            {
              "name": "X",
              "type": "uint256"
            },
            {
              "name": "Y",
              "type": "uint256"
            }
          ],
          "name": "W",
          "type": "tuple"
        },
        {
          "components": [
            {
              "name": "X",
              "type": "uint256[2]"
            },
            {
              "name": "Y",
              "type": "uint256[2]"
            }
          ],
          "name": "_W",
          "type": "tuple"
        },
        {
          "components": [
            {
              "name": "X",
              "type": "uint256"
            },
            {
              "name": "Y",
              "type": "uint256"
            }
          ],
          "name": "Z",
          "type": "tuple"
        },
        {
          "components": [
            {
              "name": "X",
              "type": "uint256[2]"
            },
            {
              "name": "Y",
              "type": "uint256[2]"
            }
          ],
          "name": "_Z",
          "type": "tuple"
        }
      ],
      "payable": false,
      "stateMutability": "view",
      "type": "function"
    },
    {
      "constant": false,
      "inputs": [
        {
          "name": "i",
          "type": "uint256"
        }
      ],
      "name": "dtbe_shareDec",
      "outputs": [],
      "payable": false,
      "stateMutability": "nonpayable",
      "type": "function"
    },
    {
      "constant": false,
      "inputs": [],
      "name": "dtbe_combine",
      "outputs": [],
      "payable": false,
      "stateMutability": "nonpayable",
      "type": "function"
    }
  ],
  "bytecode": "0x608060405234801561001057600080fd5b50612bc6806100206000396000f300608060405260043610610083576000357c0100000000000000000000000000000000000000000000000000000000900463ffffffff1680631ee2dd5b1461008857806323a4c22e1461009f5780634bc38368146100e757806376cf132b1461012f578063a86122e514610177578063ab989f55146101bf578063e6963c2e14610230575b600080fd5b34801561009457600080fd5b5061009d61025d565b005b3480156100ab57600080fd5b506100ca60048036038101908080359060200190929190505050610d0e565b604051808381526020018281526020019250505060405180910390f35b3480156100f357600080fd5b5061011260048036038101908080359060200190929190505050610d41565b604051808381526020018281526020019250505060405180910390f35b34801561013b57600080fd5b5061015a60048036038101908080359060200190929190505050610e9c565b604051808381526020018281526020019250505060405180910390f35b34801561018357600080fd5b506101a260048036038101908080359060200190929190505050610f0b565b604051808381526020018281526020019250505060405180910390f35b3480156101cb57600080fd5b506101d4610f3e565b604051808c81526020018b81526020018a81526020018981526020018881526020018781526020018681526020018581526020018481526020018381526020018281526020019b50505050505050505050505060405180910390f35b34801561023c57600080fd5b5061025b600480360381019080803590602001909291905050506115c1565b005b600080610268612afa565b6029805490509250600091505b82821015610b2557610b1f600061016060405190810160405290816000820160c060405190810160405290816000820154815260200160018201604080519081016040529081600082015481526020016001820154815250508152602001600382016040805190810160405290816000820160028060200260405190810160405280929190826002801561031e576020028201915b81548152602001906001019080831161030a575b5050505050815260200160028201600280602002604051908101604052809291908260028015610363576020028201915b81548152602001906001019080831161034f575b5050505050815250508152602001600782018054600181600116156101000203166002900480601f0160208091040260200160405190810160405280929190818152602001828054600181600116156101000203166002900480156104095780601f106103de57610100808354040283529160200191610409565b820191906000526020600020905b8154815290600101906020018083116103ec57829003601f168201915b50505050508152602001600882018054600181600116156101000203166002900480601f0160208091040260200160405190810160405280929190818152602001828054600181600116156101000203166002900480156104ab5780601f10610480576101008083540402835291602001916104ab565b820191906000526020600020905b81548152906001019060200180831161048e57829003601f168201915b50505050508152602001600982018054600181600116156101000203166002900480601f01602080910402602001604051908101604052809291908181526020018280546001816001161561010002031660029004801561054d5780601f106105225761010080835404028352916020019161054d565b820191906000526020600020905b81548152906001019060200180831161053057829003601f168201915b5050505050815250508152602001600a8201604080519081016040529081600082015481526020016001820154815250508152602001600c8201604080519081016040529081600082016002806020026040519081016040528092919082600280156105ce576020028201915b8154815260200190600101908083116105ba575b5050505050815260200160028201600280602002604051908101604052809291908260028015610613576020028201915b8154815260200190600101908083116105ff575b5050505050815250508152602001601082016040805190810160405290816000820154815260200160018201548152505081526020016012820160408051908101604052908160008201600280602002604051908101604052809291908260028015610694576020028201915b815481526020019060010190808311610680575b50505050508152602001600282016002806020026040519081016040528092919082600280156106d9576020028201915b8154815260200190600101908083116106c5575b505050505081525050815260200160168201604080519081016040529081600082015481526020016001820154815250508152602001601882016040805190810160405290816000820160028060200260405190810160405280929190826002801561075a576020028201915b815481526020019060010190808311610746575b505050505081526020016002820160028060200260405190810160405280929190826002801561079f576020028201915b81548152602001906001019080831161078b575b5050505050815250508152602001601c8201604080519081016040529081600082015481526020016001820154815250508152602001601e820160408051908101604052908160008201600280602002604051908101604052809291908260028015610820576020028201915b81548152602001906001019080831161080c575b5050505050815260200160028201600280602002604051908101604052809291908260028015610865576020028201915b815481526020019060010190808311610851575b50505050508152505081526020016022820160408051908101604052908160008201548152602001600182015481525050815260200160248201604080519081016040529081600082016002806020026040519081016040528092919082600280156108e6576020028201915b8154815260200190600101908083116108d2575b505050505081526020016002820160028060200260405190810160405280929190826002801561092b576020028201915b815481526020019060010190808311610917575b5050505050815250508152505060298481548110151561094757fe5b906000526020600020906008020160408051908101604052908160008201604080519081016040529081600082016002806020026040519081016040528092919082600280156109ac576020028201915b815481526020019060010190808311610998575b50505050508152602001600282016002806020026040519081016040528092919082600280156109f1576020028201915b8154815260200190600101908083116109dd575b50505050508152505081526020016004820160408051908101604052908160008201600280602002604051908101604052809291908260028015610a4a576020028201915b815481526020019060010190808311610a36575b5050505050815260200160028201600280602002604051908101604052809291908260028015610a8f576020028201915b815481526020019060010190808311610a7b575b505050505081525050815250506201e240602a602b87815481101515610ab157fe5b906000526020600020906004020160408051908101604052908160008201604080519081016040529081600082015481526020016001820154815250508152602001600282016040805190810160405290816000820154815260200160018201548152505081525050611736565b50610275565b610bad602b6000815481101515610b3857fe5b906000526020600020906004020160000160408051908101604052908160008201548152602001600182015481525050602b6000815481101515610b7857fe5b9060005260206000209060040201600201604080519081016040529081600082015481526020016001820154815250506119f9565b604080519081016040529081600082015481526020016001820154815250509050600191505b82821015610cb757610c8981610c65602b85815481101515610bf157fe5b906000526020600020906004020160000160408051908101604052908160008201548152602001600182015481525050602b86815481101515610c3057fe5b9060005260206000209060040201600201604080519081016040529081600082015481526020016001820154815250506119f9565b604080519081016040529081600082015481526020016001820154815250506119f9565b6040805190810160405290816000820154815260200160018201548152505090508180600101925050610bd3565b610cc081611a41565b9050610d0881602a6002815481101515610cd657fe5b9060005260206000209060020201604080519081016040529081600082015481526020016001820154815250506119f9565b50505050565b602881815481101515610d1d57fe5b90600052602060002090600202016000915090508060000154908060010154905082565b602981815481101515610d5057fe5b90600052602060002090600802016000915090508060000160408051908101604052908160008201600280602002604051908101604052809291908260028015610daf576020028201915b815481526020019060010190808311610d9b575b5050505050815260200160028201600280602002604051908101604052809291908260028015610df4576020028201915b815481526020019060010190808311610de0575b505050505081525050908060040160408051908101604052908160008201600280602002604051908101604052809291908260028015610e49576020028201915b815481526020019060010190808311610e35575b5050505050815260200160028201600280602002604051908101604052809291908260028015610e8e576020028201915b815481526020019060010190808311610e7a575b505050505081525050905082565b602b81815481101515610eab57fe5b90600052602060002090600402016000915090508060000160408051908101604052908160008201548152602001600182015481525050908060020160408051908101604052908160008201548152602001600182015481525050905082565b602a81815481101515610f1a57fe5b90600052602060002090600202016000915090508060000154908060010154905082565b60008060000160c0604051908101604052908160008201548152602001600182016040805190810160405290816000820154815260200160018201548152505081526020016003820160408051908101604052908160008201600280602002604051908101604052809291908260028015610fce576020028201915b815481526020019060010190808311610fba575b5050505050815260200160028201600280602002604051908101604052809291908260028015611013576020028201915b815481526020019060010190808311610fff575b5050505050815250508152602001600782018054600181600116156101000203166002900480601f0160208091040260200160405190810160405280929190818152602001828054600181600116156101000203166002900480156110b95780601f1061108e576101008083540402835291602001916110b9565b820191906000526020600020905b81548152906001019060200180831161109c57829003601f168201915b50505050508152602001600882018054600181600116156101000203166002900480601f01602080910402602001604051908101604052809291908181526020018280546001816001161561010002031660029004801561115b5780601f106111305761010080835404028352916020019161115b565b820191906000526020600020905b81548152906001019060200180831161113e57829003601f168201915b50505050508152602001600982018054600181600116156101000203166002900480601f0160208091040260200160405190810160405280929190818152602001828054600181600116156101000203166002900480156111fd5780601f106111d2576101008083540402835291602001916111fd565b820191906000526020600020905b8154815290600101906020018083116111e057829003601f168201915b5050505050815250509080600a01604080519081016040529081600082015481526020016001820154815250509080600c0160408051908101604052908160008201600280602002604051908101604052809291908260028015611276576020028201915b815481526020019060010190808311611262575b50505050508152602001600282016002806020026040519081016040528092919082600280156112bb576020028201915b8154815260200190600101908083116112a7575b505050505081525050908060100160408051908101604052908160008201548152602001600182015481525050908060120160408051908101604052908160008201600280602002604051908101604052809291908260028015611334576020028201915b815481526020019060010190808311611320575b5050505050815260200160028201600280602002604051908101604052809291908260028015611379576020028201915b815481526020019060010190808311611365575b5050505050815250509080601601604080519081016040529081600082015481526020016001820154815250509080601801604080519081016040529081600082016002806020026040519081016040528092919082600280156113f2576020028201915b8154815260200190600101908083116113de575b5050505050815260200160028201600280602002604051908101604052809291908260028015611437576020028201915b815481526020019060010190808311611423575b5050505050815250509080601c01604080519081016040529081600082015481526020016001820154815250509080601e01604080519081016040529081600082016002806020026040519081016040528092919082600280156114b0576020028201915b81548152602001906001019080831161149c575b50505050508152602001600282016002806020026040519081016040528092919082600280156114f5576020028201915b8154815260200190600101908083116114e1575b50505050508152505090806022016040805190810160405290816000820154815260200160018201548152505090806024016040805190810160405290816000820160028060200260405190810160405280929190826002801561156e576020028201915b81548152602001906001019080831161155a575b50505050508152602001600282016002806020026040519081016040528092919082600280156115b3576020028201915b81548152602001906001019080831161159f575b50505050508152505090508b565b6000611629602a60008154811015156115d657fe5b90600052602060002090600202016040805190810160405290816000820154815260200160018201548152505060288481548110151561161257fe5b906000526020600020906002020160000154611adc565b8160000160008201548160000155600182015481600101559050506116aa602a600181548110151561165757fe5b90600052602060002090600202016040805190810160405290816000820154815260200160018201548152505060288481548110151561169357fe5b906000526020600020906002020160010154611adc565b816002016000820154816000015560018201548160010155905050602b81908060018154018082558091505090600182039060005260206000209060040201600090919290919091506000820181600001600082015481600001556001820154816001015550506002820181600201600082015481600001556001820154816001015550505050505050565b6000606080606080600260405190808252806020026020018201604052801561177957816020015b611766612b14565b81526020019060019003908161175e5790505b50935060026040519080825280602002602001820160405280156117b757816020015b6117a4612b2e565b81526020019060019003908161179c5790505b50925060026040519080825280602002602001820160405280156117f557816020015b6117e2612b14565b8152602001906001900390816117da5790505b509150600260405190808252806020026020018201604052801561183357816020015b611820612b2e565b8152602001906001900390816118185790505b509050856000015184600081518110151561184a57fe5b9060200190602002018190525061189b87600081548110151561186957fe5b906000526020600020906002020160408051908101604052908160008201548152602001600182015481525050611a41565b8460018151811015156118aa57fe5b9060200190602002018190525089604001518360008151811015156118cb57fe5b9060200190602002018190525088600001518360018151811015156118ec57fe5b90602001906020020181905250856020015182600081518110151561190d57fe5b9060200190602002018190525061195e87600181548110151561192c57fe5b906000526020600020906002020160408051908101604052908160008201548152602001600182015481525050611a41565b82600181518110151561196d57fe5b906020019060200201819052508960c0015181600081518110151561198e57fe5b9060200190602002018190525088602001518160018151811015156119af57fe5b906020019060200201819052506119c68484611b1b565b15806119d957506119d78282611b1b565b155b156119e757600094506119ec565b600194505b5050505095945050505050565b600080600080611a1b8660000151876020015187600001518860200151611b2f565b809350819450505082816000018190555081816001018190555080935050505092915050565b611a49612afa565b60007f30644e72e131a029b85045b68181585d97816a916871ca8d3c208c16d87cfd47905060008360000151148015611a86575060008360200151145b15611aa95760408051908101604052806000815260200160008152509150611ad6565b604080519081016040528084600001518152602001828560200151811515611acd57fe5b06830381525091505b50919050565b600080600080611af58660000151876020015187611b69565b809350819450505082816000018190555081816001018190555080935050505092915050565b6000611b278383611c75565b905092915050565b6000806000611b448787600188886001611f08565b809350819850829950505050611b5b878783612098565b925092505094509492505050565b6000806000806000806000871415611b8c57611b8361210f565b95509550611c69565b6001871415611ba057888895509550611c69565b6002871415611bbc57611bb38989612123565b95509550611c69565b88935087925060019150600190508895508794506000600288811515611bde57fe5b061415611bed57600094508495505b6001879060020a900496505b6000871115611c5957611c0d848484612157565b8094508195508296505050506001600288811515611c2757fe5b061415611c4957611c3c848484898986611f08565b8093508197508298505050505b6001879060020a90049650611bf9565b611c64868683612098565b955095505b50505050935093915050565b600080600060606000611c86612b55565b600087518951141515611c9857600080fd5b8851955060068602945084604051908082528060200260200182016040528015611cd15781602001602082028038833980820191505090505b509350600092505b85831015611eae578883815181101515611cef57fe5b90602001906020020151600001518460006006860201815181101515611d1157fe5b90602001906020020181815250508883815181101515611d2d57fe5b90602001906020020151602001518460016006860201815181101515611d4f57fe5b90602001906020020181815250508783815181101515611d6b57fe5b90602001906020020151600001516000600281101515611d8757fe5b60200201518460026006860201815181101515611da057fe5b90602001906020020181815250508783815181101515611dbc57fe5b90602001906020020151600001516001600281101515611dd857fe5b60200201518460036006860201815181101515611df157fe5b90602001906020020181815250508783815181101515611e0d57fe5b90602001906020020151602001516000600281101515611e2957fe5b60200201518460046006860201815181101515611e4257fe5b90602001906020020181815250508783815181101515611e5e57fe5b90602001906020020151602001516001600281101515611e7a57fe5b60200201518460056006860201815181101515611e9357fe5b90602001906020020181815250508280600101935050611cd9565b6020826020870260208701600060086107d05a03f190508060008114611ed357611ed5565bfe5b50801515611ee257600080fd5b6000826000600181101515611ef357fe5b60200201511415965050505050505092915050565b6000806000806000806000611f1d8d8d612608565b15611f3057898989965096509650612088565b611f3a8a8a612608565b15611f4d578c8c8c965096509650612088565b7f30644e72e131a029b85045b68181585d97816a916871ca8d3c208c16d87cfd47801515611f7757fe5b888d0993507f30644e72e131a029b85045b68181585d97816a916871ca8d3c208c16d87cfd47801515611fa657fe5b8b8a0992507f30644e72e131a029b85045b68181585d97816a916871ca8d3c208c16d87cfd47801515611fd557fe5b888e0991507f30644e72e131a029b85045b68181585d97816a916871ca8d3c208c16d87cfd4780151561200457fe5b8b8b09905080821415612042578284141561202f576120248d8d8d612157565b965096509650612088565b612037612632565b965096509650612088565b61207b7f30644e72e131a029b85045b68181585d97816a916871ca8d3c208c16d87cfd4780151561206f57fe5b898d0983838688612650565b8097508198508299505050505b5050505096509650969350505050565b60008060006120a684612a06565b90507f30644e72e131a029b85045b68181585d97816a916871ca8d3c208c16d87cfd478015156120d257fe5b81870992507f30644e72e131a029b85045b68181585d97816a916871ca8d3c208c16d87cfd4780151561210157fe5b818609915050935093915050565b600080600080819150809050915091509091565b600080600061213485856001612157565b80935081965082975050505061214b858583612098565b92509250509250929050565b600080600080600080600061216c8a8a612608565b1561218457612179612632565b9650965096506125fb565b7f30644e72e131a029b85045b68181585d97816a916871ca8d3c208c16d87cfd478015156121ae57fe5b888a0992507f30644e72e131a029b85045b68181585d97816a916871ca8d3c208c16d87cfd478015156121dd57fe5b6002840992507f30644e72e131a029b85045b68181585d97816a916871ca8d3c208c16d87cfd4780151561220d57fe5b8a840991507f30644e72e131a029b85045b68181585d97816a916871ca8d3c208c16d87cfd4780151561223c57fe5b89830991507f30644e72e131a029b85045b68181585d97816a916871ca8d3c208c16d87cfd4780151561226b57fe5b6002830991507f30644e72e131a029b85045b68181585d97816a916871ca8d3c208c16d87cfd4780151561229b57fe5b8a8b0999507f30644e72e131a029b85045b68181585d97816a916871ca8d3c208c16d87cfd478015156122ca57fe5b60038b0993507f30644e72e131a029b85045b68181585d97816a916871ca8d3c208c16d87cfd478015156122fa57fe5b88890997507f30644e72e131a029b85045b68181585d97816a916871ca8d3c208c16d87cfd4780151561232957fe5b6000890997507f30644e72e131a029b85045b68181585d97816a916871ca8d3c208c16d87cfd4780151561235957fe5b88850893507f30644e72e131a029b85045b68181585d97816a916871ca8d3c208c16d87cfd4780151561238857fe5b84850990507f30644e72e131a029b85045b68181585d97816a916871ca8d3c208c16d87cfd478015156123b757fe5b8260020999507f30644e72e131a029b85045b68181585d97816a916871ca8d3c208c16d87cfd478015156123e757fe5b8a7f30644e72e131a029b85045b68181585d97816a916871ca8d3c208c16d87cfd4703820890507f30644e72e131a029b85045b68181585d97816a916871ca8d3c208c16d87cfd4780151561243857fe5b817f30644e72e131a029b85045b68181585d97816a916871ca8d3c208c16d87cfd4703830899507f30644e72e131a029b85045b68181585d97816a916871ca8d3c208c16d87cfd4780151561248957fe5b8a850999507f30644e72e131a029b85045b68181585d97816a916871ca8d3c208c16d87cfd478015156124b857fe5b838a0998507f30644e72e131a029b85045b68181585d97816a916871ca8d3c208c16d87cfd478015156124e757fe5b898a0998507f30644e72e131a029b85045b68181585d97816a916871ca8d3c208c16d87cfd4780151561251657fe5b8960020998507f30644e72e131a029b85045b68181585d97816a916871ca8d3c208c16d87cfd4780151561254657fe5b897f30644e72e131a029b85045b68181585d97816a916871ca8d3c208c16d87cfd47038b0895507f30644e72e131a029b85045b68181585d97816a916871ca8d3c208c16d87cfd4780151561259757fe5b81840996507f30644e72e131a029b85045b68181585d97816a916871ca8d3c208c16d87cfd478015156125c657fe5b83840994507f30644e72e131a029b85045b68181585d97816a916871ca8d3c208c16d87cfd478015156125f557fe5b83860994505b5050505093509350939050565b600080831480156126195750600082145b15612627576001905061262c565b600090505b92915050565b60008060008060006001829250819150809050925092509250909192565b6000806000806000806000807f30644e72e131a029b85045b68181585d97816a916871ca8d3c208c16d87cfd4780151561268657fe5b8a7f30644e72e131a029b85045b68181585d97816a916871ca8d3c208c16d87cfd47038a0890507f30644e72e131a029b85045b68181585d97816a916871ca8d3c208c16d87cfd478015156126d757fe5b8b7f30644e72e131a029b85045b68181585d97816a916871ca8d3c208c16d87cfd47038d0894507f30644e72e131a029b85045b68181585d97816a916871ca8d3c208c16d87cfd4780151561272857fe5b85860993507f30644e72e131a029b85045b68181585d97816a916871ca8d3c208c16d87cfd4780151561275757fe5b81820991507f30644e72e131a029b85045b68181585d97816a916871ca8d3c208c16d87cfd4780151561278657fe5b8d830991507f30644e72e131a029b85045b68181585d97816a916871ca8d3c208c16d87cfd478015156127b557fe5b8c8c089a507f30644e72e131a029b85045b68181585d97816a916871ca8d3c208c16d87cfd478015156127e457fe5b848c099a507f30644e72e131a029b85045b68181585d97816a916871ca8d3c208c16d87cfd4780151561281357fe5b8b7f30644e72e131a029b85045b68181585d97816a916871ca8d3c208c16d87cfd4703830891507f30644e72e131a029b85045b68181585d97816a916871ca8d3c208c16d87cfd4780151561286457fe5b82860997507f30644e72e131a029b85045b68181585d97816a916871ca8d3c208c16d87cfd4780151561289357fe5b85850992507f30644e72e131a029b85045b68181585d97816a916871ca8d3c208c16d87cfd478015156128c257fe5b848d099b507f30644e72e131a029b85045b68181585d97816a916871ca8d3c208c16d87cfd478015156128f157fe5b827f30644e72e131a029b85045b68181585d97816a916871ca8d3c208c16d87cfd47038d089b507f30644e72e131a029b85045b68181585d97816a916871ca8d3c208c16d87cfd4780151561294257fe5b8c820990507f30644e72e131a029b85045b68181585d97816a916871ca8d3c208c16d87cfd4780151561297157fe5b838a0998507f30644e72e131a029b85045b68181585d97816a916871ca8d3c208c16d87cfd478015156129a057fe5b897f30644e72e131a029b85045b68181585d97816a916871ca8d3c208c16d87cfd4703820896507f30644e72e131a029b85045b68181585d97816a916871ca8d3c208c16d87cfd478015156129f157fe5b8d840995505050505050955095509592505050565b60008060008060008060009450600193507f30644e72e131a029b85045b68181585d97816a916871ca8d3c208c16d87cfd4792508691505b600082141515612aed578183811515612a5357fe5b049050837f30644e72e131a029b85045b68181585d97816a916871ca8d3c208c16d87cfd47801515612a8157fe5b7f30644e72e131a029b85045b68181585d97816a916871ca8d3c208c16d87cfd47801515612aab57fe5b8684097f30644e72e131a029b85045b68181585d97816a916871ca8d3c208c16d87cfd4703870880955081965050508182820284038093508194505050612a3e565b8495505050505050919050565b604080519081016040528060008152602001600081525090565b604080519081016040528060008152602001600081525090565b608060405190810160405280612b42612b78565b8152602001612b4f612b78565b81525090565b602060405190810160405280600190602082028038833980820191505090505090565b60408051908101604052806002906020820280388339808201915050905050905600a165627a7a7230582058607aad891eeac8c1e3ed2eadf31e12451a74256e2eecc953404be4bc77636e0029",
  "source": "// This file is MIT Licensed.\r\n//\r\n// Copyright 2020 xu yunkai\r\n\r\npragma solidity >=0.4.2;\r\n// pragma experimental ABIEncoderV2;\r\n\r\nimport \"./dtbe/LibDTBE.sol\";\r\n\r\ncontract test_dtbe_main{\r\n    using LibDTBE for *;\r\n    using Pairing for *;\r\n\r\n    LibDTBE.PK public epk;\r\n    LibDTBE.SK[] public esk;\r\n    LibDTBE.SVK[] public esvk;\r\n    Pairing.G1Point[] public c_dtbe;\r\n    LibDTBE.CLUE[] public V;\r\n\r\n    // function dtbe_shareVerify(uint i) public returns(bool) {\r\n    //     return LibDTBE.shareVerify(epk, esvk[i], 123456, c_dtbe, V[0]);\r\n    // }\r\n\r\n    function dtbe_shareDec(uint i) public {\r\n        // V[i] = LibDTBE.shareDec(epk, esk[i], 123456, c_dtbe);\r\n\r\n        LibDTBE.CLUE vi;\r\n        vi.Ci1 = LibDTBE.G1mul(c_dtbe[0], esk[i].ui);\r\n        vi.Ci2 = LibDTBE.G1mul(c_dtbe[1], esk[i].vi);\r\n        V.push(vi);\r\n    }\r\n\r\n    function dtbe_combine() public {\r\n        // LibDTBE.combine(epk, esvk, V, c_dtbe, 123456);\r\n\r\n        uint len = esvk.length;\r\n        uint i = 0;\r\n        while(i < len){\r\n            LibDTBE.shareVerify(epk, esvk[i], 123456, c_dtbe, V[i]);\r\n            // require(\r\n            // \t(!shareVerify(epk, esvk[i], t, Cdtbe, v[i])),\r\n            // \t\"ERROR!Forced to stop.\"\r\n            // );\r\n        }\r\n\r\n        Pairing.G1Point memory tmp = LibDTBE.G1add(V[0].Ci1, V[0].Ci2);\r\n        i = 1;\r\n        while(i < len){\r\n            tmp = LibDTBE.G1add(tmp, LibDTBE.G1add(V[i].Ci1, V[i].Ci2));\r\n            i++;\r\n        }\r\n        tmp = Pairing.negate(tmp);\r\n        LibDTBE.G1add(tmp, c_dtbe[2]);\r\n        // return M;\r\n    }\r\n\r\n    // function setepk(LibDTBE.PK _epk) public{\r\n    //     epk = _epk;\r\n    // }\r\n    // function setesk(LibDTBE.SK[] _esk) public{\r\n    //     uint i = 0;\r\n    //     while (i<3){\r\n    //         esk.push(_esk[i]);\r\n    //         i++;\r\n    //     }\r\n    // }\r\n    // function setesvk(LibDTBE.SVK[] _esvk) public{\r\n    //     uint i = 0;\r\n    //     while (i<3){\r\n    //         esvk.push(_esvk[i]);\r\n    //         i++;\r\n    //     }\r\n    // }\r\n    // function setcdtbe(Pairing.G1Point[] _c_dtbe) public{\r\n    //     uint i = 0;\r\n    //     while (i<5){\r\n    //         c_dtbe.push(_c_dtbe[i]);\r\n    //         i++;\r\n    //     }\r\n    // }\r\n}",
  "sourcePath": "D:\\Myproject\\AttriChain\\contracts\\test_dtbe_main.sol",
  "compiler": {
    "name": "solc",
    "version": "0.4.23+commit.124ca40d.Emscripten.clang"
  },
  "schemaVersion": "2.0.0",
  "updatedAt": "2020-07-16T15:31:36.040Z"
}