{
  "contractName": "test",
  "abi": [
    {
      "inputs": [],
      "payable": false,
      "stateMutability": "nonpayable",
      "type": "constructor"
    },
    {
      "constant": false,
      "inputs": [
        {
          "name": "uid",
          "type": "uint256"
        }
      ],
      "name": "request",
      "outputs": [],
      "payable": false,
      "stateMutability": "nonpayable",
      "type": "function"
    }
  ],
  "bytecode": "0x6080604052348015600f57600080fd5b50609d8061001e6000396000f300608060405260043610603f576000357c0100000000000000000000000000000000000000000000000000000000900463ffffffff168063d845a4b3146044575b600080fd5b348015604f57600080fd5b50606c60048036038101908080359060200190929190505050606e565b005b505600a165627a7a72305820e5744b470c02d929a30db82915af3496575714fc2c082dfdb04e18deef4abfbe0029",
  "source": "pragma solidity >=0.4.2;\n\nimport \"./nizk/LibNIZK.sol\";\nimport \"./LibDTBE.sol\";\n\ncontract test {\n    constructor() public {\n\n    }\n\n    function request(uint uid) public {\n        \n    }\n}",
  "sourcePath": "/home/ubuntu/ethereum/AttriChain/contracts/test.sol",
  "compiler": {
    "name": "solc",
    "version": "0.4.23+commit.124ca40d.Emscripten.clang"
  },
  "schemaVersion": "2.0.0",
  "updatedAt": "2020-07-11T14:14:35.621Z"
}