{
  "contractName": "test",
  "abi": [
    {
      "constant": true,
      "inputs": [],
      "name": "nizk_pp",
      "outputs": [
        {
          "name": "",
          "type": "string"
        }
      ],
      "payable": false,
      "stateMutability": "view",
      "type": "function"
    },
    {
      "constant": false,
      "inputs": [],
      "name": "nizk_setup",
      "outputs": [
        {
          "name": "",
          "type": "string"
        }
      ],
      "payable": false,
      "stateMutability": "nonpayable",
      "type": "function"
    },
    {
      "constant": false,
      "inputs": [],
      "name": "nizk_add",
      "outputs": [],
      "payable": false,
      "stateMutability": "nonpayable",
      "type": "function"
    },
    {
      "constant": false,
      "inputs": [],
      "name": "nizk_sub",
      "outputs": [],
      "payable": false,
      "stateMutability": "nonpayable",
      "type": "function"
    }
  ],
  "bytecode": "0x608060405234801561001057600080fd5b50611d75806100206000396000f300608060405260043610610062576000357c0100000000000000000000000000000000000000000000000000000000900463ffffffff1680632833fa231461006757806360baabf3146100f7578063bf3e440714610187578063fe785d9b1461019e575b600080fd5b34801561007357600080fd5b5061007c6101b5565b6040518080602001828103825283818151815260200191508051906020019080838360005b838110156100bc5780820151818401526020810190506100a1565b50505050905090810190601f1680156100e95780820380516001836020036101000a031916815260200191505b509250505060405180910390f35b34801561010357600080fd5b5061010c610253565b6040518080602001828103825283818151815260200191508051906020019080838360005b8381101561014c578082015181840152602081019050610131565b50505050905090810190601f1680156101795780820380516001836020036101000a031916815260200191505b509250505060405180910390f35b34801561019357600080fd5b5061019c610313565b005b3480156101aa57600080fd5b506101b3610938565b005b60008054600181600116156101000203166002900480601f01602080910402602001604051908101604052809291908181526020018280546001816001161561010002031660029004801561024b5780601f106102205761010080835404028352916020019161024b565b820191906000526020600020905b81548152906001019060200180831161022e57829003601f168201915b505050505081565b606061025d610f5d565b60009080519060200190610272929190611ca4565b5060008054600181600116156101000203166002900480601f0160208091040260200160405190810160405280929190818152602001828054600181600116156101000203166002900480156103095780601f106102de57610100808354040283529160200191610309565b820191906000526020600020905b8154815290600101906020018083116102ec57829003601f168201915b5050505050905090565b600061031e816110ac565b6040805190810160405280600781526020017f6e697a6b5f70700000000000000000000000000000000000000000000000000081525081600801908051906020019061036b929190611ca4565b50610934816101206040519081016040529081600082018054600181600116156101000203166002900480601f0160208091040260200160405190810160405280929190818152602001828054600181600116156101000203166002900480156104165780601f106103eb57610100808354040283529160200191610416565b820191906000526020600020905b8154815290600101906020018083116103f957829003601f168201915b50505050508152602001600182018054600181600116156101000203166002900480601f0160208091040260200160405190810160405280929190818152602001828054600181600116156101000203166002900480156104b85780601f1061048d576101008083540402835291602001916104b8565b820191906000526020600020905b81548152906001019060200180831161049b57829003601f168201915b50505050508152602001600282018054600181600116156101000203166002900480601f01602080910402602001604051908101604052809291908181526020018280546001816001161561010002031660029004801561055a5780601f1061052f5761010080835404028352916020019161055a565b820191906000526020600020905b81548152906001019060200180831161053d57829003601f168201915b50505050508152602001600382018054600181600116156101000203166002900480601f0160208091040260200160405190810160405280929190818152602001828054600181600116156101000203166002900480156105fc5780601f106105d1576101008083540402835291602001916105fc565b820191906000526020600020905b8154815290600101906020018083116105df57829003601f168201915b50505050508152602001600482018054600181600116156101000203166002900480601f01602080910402602001604051908101604052809291908181526020018280546001816001161561010002031660029004801561069e5780601f106106735761010080835404028352916020019161069e565b820191906000526020600020905b81548152906001019060200180831161068157829003601f168201915b50505050508152602001600582018054600181600116156101000203166002900480601f0160208091040260200160405190810160405280929190818152602001828054600181600116156101000203166002900480156107405780601f1061071557610100808354040283529160200191610740565b820191906000526020600020905b81548152906001019060200180831161072357829003601f168201915b50505050508152602001600682018054600181600116156101000203166002900480601f0160208091040260200160405190810160405280929190818152602001828054600181600116156101000203166002900480156107e25780601f106107b7576101008083540402835291602001916107e2565b820191906000526020600020905b8154815290600101906020018083116107c557829003601f168201915b50505050508152602001600782018054600181600116156101000203166002900480601f0160208091040260200160405190810160405280929190818152602001828054600181600116156101000203166002900480156108845780601f1061085957610100808354040283529160200191610884565b820191906000526020600020905b81548152906001019060200180831161086757829003601f168201915b50505050508152602001600882018054600181600116156101000203166002900480601f0160208091040260200160405190810160405280929190818152602001828054600181600116156101000203166002900480156109265780601f106108fb57610100808354040283529160200191610926565b820191906000526020600020905b81548152906001019060200180831161090957829003601f168201915b505050505081525050611220565b5050565b6000610943816110ac565b6040805190810160405280600781526020017f6e697a6b5f707000000000000000000000000000000000000000000000000000815250816008019080519060200190610990929190611ca4565b50610f59816101206040519081016040529081600082018054600181600116156101000203166002900480601f016020809104026020016040519081016040528092919081815260200182805460018160011615610100020316600290048015610a3b5780601f10610a1057610100808354040283529160200191610a3b565b820191906000526020600020905b815481529060010190602001808311610a1e57829003601f168201915b50505050508152602001600182018054600181600116156101000203166002900480601f016020809104026020016040519081016040528092919081815260200182805460018160011615610100020316600290048015610add5780601f10610ab257610100808354040283529160200191610add565b820191906000526020600020905b815481529060010190602001808311610ac057829003601f168201915b50505050508152602001600282018054600181600116156101000203166002900480601f016020809104026020016040519081016040528092919081815260200182805460018160011615610100020316600290048015610b7f5780601f10610b5457610100808354040283529160200191610b7f565b820191906000526020600020905b815481529060010190602001808311610b6257829003601f168201915b50505050508152602001600382018054600181600116156101000203166002900480601f016020809104026020016040519081016040528092919081815260200182805460018160011615610100020316600290048015610c215780601f10610bf657610100808354040283529160200191610c21565b820191906000526020600020905b815481529060010190602001808311610c0457829003601f168201915b50505050508152602001600482018054600181600116156101000203166002900480601f016020809104026020016040519081016040528092919081815260200182805460018160011615610100020316600290048015610cc35780601f10610c9857610100808354040283529160200191610cc3565b820191906000526020600020905b815481529060010190602001808311610ca657829003601f168201915b50505050508152602001600582018054600181600116156101000203166002900480601f016020809104026020016040519081016040528092919081815260200182805460018160011615610100020316600290048015610d655780601f10610d3a57610100808354040283529160200191610d65565b820191906000526020600020905b815481529060010190602001808311610d4857829003601f168201915b50505050508152602001600682018054600181600116156101000203166002900480601f016020809104026020016040519081016040528092919081815260200182805460018160011615610100020316600290048015610e075780601f10610ddc57610100808354040283529160200191610e07565b820191906000526020600020905b815481529060010190602001808311610dea57829003601f168201915b50505050508152602001600782018054600181600116156101000203166002900480601f016020809104026020016040519081016040528092919081815260200182805460018160011615610100020316600290048015610ea95780601f10610e7e57610100808354040283529160200191610ea9565b820191906000526020600020905b815481529060010190602001808311610e8c57829003601f168201915b50505050508152602001600882018054600181600116156101000203166002900480601f016020809104026020016040519081016040528092919081815260200182805460018160011615610100020316600290048015610f4b5780601f10610f2057610100808354040283529160200191610f4b565b820191906000526020600020905b815481529060010190602001808311610f2e57829003601f168201915b505050505081525050611641565b5050565b60608060006060600080600060606000606060405190810160405280603081526020017f5b3639643938643661303463343162343630356161636237626432663734626581526020017f655d5b31306e697a6b5f73657475705d000000000000000000000000000000008152509750620e01009650866040519080825280601f01601f1916602001820160405280156110055781602001602082028038833980820191505090505b5095506020860194506110606040805190810160405280600181526020017f7c0000000000000000000000000000000000000000000000000000000000000081525061105087611a55565b8a611bae9092919063ffffffff16565b9750875192506020880194508285209350602060405190810160405280600081525091508360019004905060008114151561109d578198506110a1565b8598505b505050505050505090565b60206040519081016040528060008152508160000190805190602001906110d4929190611ca4565b5060206040519081016040528060008152508160010190805190602001906110fd929190611ca4565b506020604051908101604052806000815250816002019080519060200190611126929190611ca4565b50602060405190810160405280600081525081600301908051906020019061114f929190611ca4565b506020604051908101604052806000815250816004019080519060200190611178929190611ca4565b5060206040519081016040528060008152508160050190805190602001906111a1929190611ca4565b5060206040519081016040528060008152508160060190805190602001906111ca929190611ca4565b5060206040519081016040528060008152508160070190805190602001906111f3929190611ca4565b50602060405190810160405280600081525081600801908051906020019061121c929190611ca4565b5050565b60608060006060600080600060606000606060405190810160405280603881526020017f5b3639643938643661303463343162343630356161636237626432663734626581526020017f655d5b31386e697a6b5f617075626369706865727375625d000000000000000081525097506112dd6040805190810160405280600181526020017f7c000000000000000000000000000000000000000000000000000000000000008152508b600001518a611bae9092919063ffffffff16565b975061132d6040805190810160405280600181526020017f7c000000000000000000000000000000000000000000000000000000000000008152508b602001518a611bae9092919063ffffffff16565b97506101809650866040519080825280601f01601f1916602001820160405280156113675781602001602082028038833980820191505090505b5095506020860194506113c26040805190810160405280600181526020017f7c000000000000000000000000000000000000000000000000000000000000008152506113b287611a55565b8a611bae9092919063ffffffff16565b97506114126040805190810160405280600181526020017f7c000000000000000000000000000000000000000000000000000000000000008152508b604001518a611bae9092919063ffffffff16565b97506114626040805190810160405280600181526020017f7c000000000000000000000000000000000000000000000000000000000000008152508b606001518a611bae9092919063ffffffff16565b97506114b26040805190810160405280600181526020017f7c000000000000000000000000000000000000000000000000000000000000008152508b608001518a611bae9092919063ffffffff16565b97506115026040805190810160405280600181526020017f7c000000000000000000000000000000000000000000000000000000000000008152508b60a001518a611bae9092919063ffffffff16565b97506115526040805190810160405280600181526020017f7c000000000000000000000000000000000000000000000000000000000000008152508b60c001518a611bae9092919063ffffffff16565b97506115a26040805190810160405280600181526020017f7c000000000000000000000000000000000000000000000000000000000000008152508b60e001518a611bae9092919063ffffffff16565b97506115f36040805190810160405280600181526020017f7c000000000000000000000000000000000000000000000000000000000000008152508b61010001518a611bae9092919063ffffffff16565b9750875192506020880194508285209350602060405190810160405280600081525091508360019004905060008114151561163057819850611634565b8598505b5050505050505050919050565b6060806060600080600080606060405190810160405280603881526020017f5b3639643938643661303463343162343630356161636237626432663734626581526020017f655d5b31386e697a6b5f617075626369706865726164645d000000000000000081525095506116f96040805190810160405280600181526020017f7c00000000000000000000000000000000000000000000000000000000000000815250896000015188611bae9092919063ffffffff16565b95506117496040805190810160405280600181526020017f7c00000000000000000000000000000000000000000000000000000000000000815250896020015188611bae9092919063ffffffff16565b95506101806040519080825280601f01601f1916602001820160405280156117805781602001602082028038833980820191505090505b5094506020850193506117db6040805190810160405280600181526020017f7c000000000000000000000000000000000000000000000000000000000000008152506117cb86611a55565b88611bae9092919063ffffffff16565b955061182b6040805190810160405280600181526020017f7c00000000000000000000000000000000000000000000000000000000000000815250896040015188611bae9092919063ffffffff16565b955061187b6040805190810160405280600181526020017f7c00000000000000000000000000000000000000000000000000000000000000815250896060015188611bae9092919063ffffffff16565b95506118cb6040805190810160405280600181526020017f7c00000000000000000000000000000000000000000000000000000000000000815250896080015188611bae9092919063ffffffff16565b955061191b6040805190810160405280600181526020017f7c000000000000000000000000000000000000000000000000000000000000008152508960a0015188611bae9092919063ffffffff16565b955061196b6040805190810160405280600181526020017f7c000000000000000000000000000000000000000000000000000000000000008152508960c0015188611bae9092919063ffffffff16565b95506119bb6040805190810160405280600181526020017f7c000000000000000000000000000000000000000000000000000000000000008152508960e0015188611bae9092919063ffffffff16565b9550611a0c6040805190810160405280600181526020017f7c0000000000000000000000000000000000000000000000000000000000000081525089610100015188611bae9092919063ffffffff16565b955085519150602086019350818420925082600190049050600081141515611a465760206040519081016040528060008152509650611a4a565b8496505b505050505050919050565b6060600080600080851415611aa1576040805190810160405280600181526020017f30000000000000000000000000000000000000000000000000000000000000008152509350611ba6565b600092508491505b6000821115611ace57600a82811515611abe57fe5b0491508280600101935050611aa9565b8260ff166040519080825280601f01601f191660200182016040528015611b045781602001602082028038833980820191505090505b5093506001830390505b6000851115611ba5576030600a86811515611b2557fe5b06017f01000000000000000000000000000000000000000000000000000000000000000284828060019003935060ff16815181101515611b6157fe5b9060200101907effffffffffffffffffffffffffffffffffffffffffffffffffffffffffffff1916908160001a905350600a85811515611b9d57fe5b049450611b0e565b5b505050919050565b60606000806000806000865188518a5101016040519080825280601f01601f191660200182016040528015611bf25781602001602082028038833980820191505090505b50955060208901945060208801935060208701925060208601915060009050611c1f818301868b51611c59565b885181019050611c33818301858a51611c59565b875181019050611c47818301848951611c59565b86518101905050505050509392505050565b60005b602082101515611c815782518452602084019350602083019250602082039150611c5c565b6001826020036101000a0390508019835116818551168181178652505050505050565b828054600181600116156101000203166002900490600052602060002090601f016020900481019282601f10611ce557805160ff1916838001178555611d13565b82800160010185558215611d13579182015b82811115611d12578251825591602001919060010190611cf7565b5b509050611d209190611d24565b5090565b611d4691905b80821115611d42576000816000905550600101611d2a565b5090565b905600a165627a7a723058204ba67513ddff415e08d74336759aa45286cc4d9a61f65ed3fe35889c033b3d850029",
  "source": "pragma solidity >=0.4.2;\n\nimport \"./nizk/LibNIZK.sol\";\nimport \"./nizk/LibNizkParam.sol\";\nimport \"./dtbe/LibDTBE.sol\";\n\ncontract test{\n    using LibNIZK for *;\n    using LibNizkParam for *;\n    using LibDTBE for *;\n\n    string public nizk_pp;\n\n    function nizk_setup() public returns(string memory) {\n        nizk_pp = LibNIZK.nizk_setup();\n        return nizk_pp;\n    }\n\n    function nizk_add() public {\n        LibNizkParam.NizkParam param;\n        LibNizkParam.reset(param);\n        param.nizkpp = 'nizk_pp';\n        LibNIZK.nizk_apubcipheradd(param);\n    }\n\n    function nizk_sub() public {\n        LibNizkParam.NizkParam param;\n        LibNizkParam.reset(param);\n        param.nizkpp = 'nizk_pp';\n        LibNIZK.nizk_apubciphersub(param);\n    }\n}",
  "sourcePath": "/home/ubuntu/ethereum/AttriChain/contracts/test.sol",
  "compiler": {
    "name": "solc",
    "version": "0.4.23+commit.124ca40d.Emscripten.clang"
  },
  "schemaVersion": "2.0.0",
  "updatedAt": "2020-07-12T09:57:07.296Z"
}