{
  "contractName": "test_dtbe",
  "abi": [
    {
      "constant": true,
      "inputs": [],
      "name": "pg",
      "outputs": [
        {
          "name": "_p",
          "type": "uint256"
        },
        {
          "components": [
            {
              "name": "X",
              "type": "uint256"
            },
            {
              "name": "Y",
              "type": "uint256"
            }
          ],
          "name": "G",
          "type": "tuple"
        },
        {
          "components": [
            {
              "name": "X",
              "type": "uint256[2]"
            },
            {
              "name": "Y",
              "type": "uint256[2]"
            }
          ],
          "name": "_G",
          "type": "tuple"
        },
        {
          "name": "_ECG1",
          "type": "string"
        },
        {
          "name": "_ECG2",
          "type": "string"
        },
        {
          "name": "_pairing",
          "type": "string"
        }
      ],
      "payable": false,
      "stateMutability": "view",
      "type": "function"
    },
    {
      "constant": true,
      "inputs": [
        {
          "name": "",
          "type": "uint256"
        }
      ],
      "name": "esk",
      "outputs": [
        {
          "name": "ui",
          "type": "uint256"
        },
        {
          "name": "vi",
          "type": "uint256"
        }
      ],
      "payable": false,
      "stateMutability": "view",
      "type": "function"
    },
    {
      "constant": true,
      "inputs": [
        {
          "name": "",
          "type": "uint256"
        }
      ],
      "name": "esvk",
      "outputs": [
        {
          "components": [
            {
              "name": "X",
              "type": "uint256[2]"
            },
            {
              "name": "Y",
              "type": "uint256[2]"
            }
          ],
          "name": "Ui",
          "type": "tuple"
        },
        {
          "components": [
            {
              "name": "X",
              "type": "uint256[2]"
            },
            {
              "name": "Y",
              "type": "uint256[2]"
            }
          ],
          "name": "Vi",
          "type": "tuple"
        }
      ],
      "payable": false,
      "stateMutability": "view",
      "type": "function"
    },
    {
      "constant": true,
      "inputs": [
        {
          "name": "",
          "type": "uint256"
        }
      ],
      "name": "c_dtbe",
      "outputs": [
        {
          "name": "X",
          "type": "uint256"
        },
        {
          "name": "Y",
          "type": "uint256"
        }
      ],
      "payable": false,
      "stateMutability": "view",
      "type": "function"
    },
    {
      "constant": true,
      "inputs": [],
      "name": "epk",
      "outputs": [
        {
          "components": [
            {
              "name": "_p",
              "type": "uint256"
            },
            {
              "components": [
                {
                  "name": "X",
                  "type": "uint256"
                },
                {
                  "name": "Y",
                  "type": "uint256"
                }
              ],
              "name": "G",
              "type": "tuple"
            },
            {
              "components": [
                {
                  "name": "X",
                  "type": "uint256[2]"
                },
                {
                  "name": "Y",
                  "type": "uint256[2]"
                }
              ],
              "name": "_G",
              "type": "tuple"
            },
            {
              "name": "_ECG1",
              "type": "string"
            },
            {
              "name": "_ECG2",
              "type": "string"
            },
            {
              "name": "_pairing",
              "type": "string"
            }
          ],
          "name": "P",
          "type": "tuple"
        },
        {
          "components": [
            {
              "name": "X",
              "type": "uint256"
            },
            {
              "name": "Y",
              "type": "uint256"
            }
          ],
          "name": "H",
          "type": "tuple"
        },
        {
          "components": [
            {
              "name": "X",
              "type": "uint256[2]"
            },
            {
              "name": "Y",
              "type": "uint256[2]"
            }
          ],
          "name": "_H",
          "type": "tuple"
        },
        {
          "components": [
            {
              "name": "X",
              "type": "uint256"
            },
            {
              "name": "Y",
              "type": "uint256"
            }
          ],
          "name": "U",
          "type": "tuple"
        },
        {
          "components": [
            {
              "name": "X",
              "type": "uint256[2]"
            },
            {
              "name": "Y",
              "type": "uint256[2]"
            }
          ],
          "name": "_U",
          "type": "tuple"
        },
        {
          "components": [
            {
              "name": "X",
              "type": "uint256"
            },
            {
              "name": "Y",
              "type": "uint256"
            }
          ],
          "name": "V",
          "type": "tuple"
        },
        {
          "components": [
            {
              "name": "X",
              "type": "uint256[2]"
            },
            {
              "name": "Y",
              "type": "uint256[2]"
            }
          ],
          "name": "_V",
          "type": "tuple"
        },
        {
          "components": [
            {
              "name": "X",
              "type": "uint256"
            },
            {
              "name": "Y",
              "type": "uint256"
            }
          ],
          "name": "W",
          "type": "tuple"
        },
        {
          "components": [
            {
              "name": "X",
              "type": "uint256[2]"
            },
            {
              "name": "Y",
              "type": "uint256[2]"
            }
          ],
          "name": "_W",
          "type": "tuple"
        },
        {
          "components": [
            {
              "name": "X",
              "type": "uint256"
            },
            {
              "name": "Y",
              "type": "uint256"
            }
          ],
          "name": "Z",
          "type": "tuple"
        },
        {
          "components": [
            {
              "name": "X",
              "type": "uint256[2]"
            },
            {
              "name": "Y",
              "type": "uint256[2]"
            }
          ],
          "name": "_Z",
          "type": "tuple"
        }
      ],
      "payable": false,
      "stateMutability": "view",
      "type": "function"
    },
    {
      "constant": false,
      "inputs": [],
      "name": "dtbe_keygen_1",
      "outputs": [],
      "payable": false,
      "stateMutability": "nonpayable",
      "type": "function"
    },
    {
      "constant": false,
      "inputs": [],
      "name": "dtbe_keygen_2",
      "outputs": [],
      "payable": false,
      "stateMutability": "nonpayable",
      "type": "function"
    },
    {
      "constant": false,
      "inputs": [],
      "name": "dtbe_keygen_3",
      "outputs": [],
      "payable": false,
      "stateMutability": "nonpayable",
      "type": "function"
    },
    {
      "constant": false,
      "inputs": [],
      "name": "dtbe_keygen_4",
      "outputs": [],
      "payable": false,
      "stateMutability": "nonpayable",
      "type": "function"
    },
    {
      "constant": false,
      "inputs": [],
      "name": "dtbe_keygen_5",
      "outputs": [],
      "payable": false,
      "stateMutability": "nonpayable",
      "type": "function"
    },
    {
      "constant": false,
      "inputs": [],
      "name": "dtbe_keygen_6",
      "outputs": [],
      "payable": false,
      "stateMutability": "nonpayable",
      "type": "function"
    },
    {
      "constant": false,
      "inputs": [
        {
          "name": "i",
          "type": "uint256"
        }
      ],
      "name": "dtbe_keygen_7",
      "outputs": [],
      "payable": false,
      "stateMutability": "nonpayable",
      "type": "function"
    },
    {
      "constant": false,
      "inputs": [
        {
          "name": "i",
          "type": "uint256"
        }
      ],
      "name": "dtbe_keygen_8",
      "outputs": [],
      "payable": false,
      "stateMutability": "nonpayable",
      "type": "function"
    },
    {
      "constant": false,
      "inputs": [],
      "name": "dtbe_keygen_9",
      "outputs": [],
      "payable": false,
      "stateMutability": "nonpayable",
      "type": "function"
    },
    {
      "constant": false,
      "inputs": [],
      "name": "dtbe_encrypt",
      "outputs": [],
      "payable": false,
      "stateMutability": "nonpayable",
      "type": "function"
    },
    {
      "constant": false,
      "inputs": [],
      "name": "getepk1",
      "outputs": [
        {
          "name": "",
          "type": "uint256"
        },
        {
          "name": "",
          "type": "uint256"
        },
        {
          "name": "",
          "type": "uint256"
        },
        {
          "name": "",
          "type": "uint256"
        }
      ],
      "payable": false,
      "stateMutability": "nonpayable",
      "type": "function"
    },
    {
      "constant": false,
      "inputs": [],
      "name": "getepk2",
      "outputs": [
        {
          "name": "",
          "type": "uint256"
        },
        {
          "name": "",
          "type": "uint256"
        },
        {
          "name": "",
          "type": "uint256"
        },
        {
          "name": "",
          "type": "uint256"
        }
      ],
      "payable": false,
      "stateMutability": "nonpayable",
      "type": "function"
    },
    {
      "constant": false,
      "inputs": [],
      "name": "getepk3",
      "outputs": [
        {
          "name": "",
          "type": "uint256"
        },
        {
          "name": "",
          "type": "uint256"
        },
        {
          "name": "",
          "type": "uint256"
        },
        {
          "name": "",
          "type": "uint256"
        }
      ],
      "payable": false,
      "stateMutability": "nonpayable",
      "type": "function"
    },
    {
      "constant": false,
      "inputs": [],
      "name": "getepk4",
      "outputs": [
        {
          "name": "",
          "type": "uint256"
        },
        {
          "name": "",
          "type": "uint256"
        },
        {
          "name": "",
          "type": "uint256"
        },
        {
          "name": "",
          "type": "uint256"
        }
      ],
      "payable": false,
      "stateMutability": "nonpayable",
      "type": "function"
    },
    {
      "constant": false,
      "inputs": [],
      "name": "getepk5",
      "outputs": [
        {
          "name": "",
          "type": "uint256"
        },
        {
          "name": "",
          "type": "uint256"
        },
        {
          "name": "",
          "type": "uint256"
        },
        {
          "name": "",
          "type": "uint256"
        }
      ],
      "payable": false,
      "stateMutability": "nonpayable",
      "type": "function"
    },
    {
      "constant": false,
      "inputs": [],
      "name": "getepk6",
      "outputs": [
        {
          "name": "",
          "type": "uint256"
        },
        {
          "name": "",
          "type": "uint256"
        },
        {
          "name": "",
          "type": "uint256"
        },
        {
          "name": "",
          "type": "uint256"
        }
      ],
      "payable": false,
      "stateMutability": "nonpayable",
      "type": "function"
    },
    {
      "constant": false,
      "inputs": [],
      "name": "getepk7",
      "outputs": [
        {
          "name": "",
          "type": "uint256"
        },
        {
          "name": "",
          "type": "uint256"
        },
        {
          "name": "",
          "type": "uint256"
        },
        {
          "name": "",
          "type": "uint256"
        }
      ],
      "payable": false,
      "stateMutability": "nonpayable",
      "type": "function"
    },
    {
      "constant": false,
      "inputs": [],
      "name": "getepk8",
      "outputs": [
        {
          "name": "",
          "type": "uint256"
        },
        {
          "name": "",
          "type": "uint256"
        }
      ],
      "payable": false,
      "stateMutability": "nonpayable",
      "type": "function"
    },
    {
      "constant": false,
      "inputs": [],
      "name": "getesk",
      "outputs": [
        {
          "name": "",
          "type": "uint256"
        },
        {
          "name": "",
          "type": "uint256"
        },
        {
          "name": "",
          "type": "uint256"
        },
        {
          "name": "",
          "type": "uint256"
        },
        {
          "name": "",
          "type": "uint256"
        },
        {
          "name": "",
          "type": "uint256"
        }
      ],
      "payable": false,
      "stateMutability": "nonpayable",
      "type": "function"
    },
    {
      "constant": false,
      "inputs": [
        {
          "name": "i",
          "type": "uint256"
        }
      ],
      "name": "getesvk1",
      "outputs": [
        {
          "name": "",
          "type": "uint256"
        },
        {
          "name": "",
          "type": "uint256"
        },
        {
          "name": "",
          "type": "uint256"
        },
        {
          "name": "",
          "type": "uint256"
        }
      ],
      "payable": false,
      "stateMutability": "nonpayable",
      "type": "function"
    },
    {
      "constant": false,
      "inputs": [
        {
          "name": "i",
          "type": "uint256"
        }
      ],
      "name": "getesvk2",
      "outputs": [
        {
          "name": "",
          "type": "uint256"
        },
        {
          "name": "",
          "type": "uint256"
        },
        {
          "name": "",
          "type": "uint256"
        },
        {
          "name": "",
          "type": "uint256"
        }
      ],
      "payable": false,
      "stateMutability": "nonpayable",
      "type": "function"
    },
    {
      "constant": false,
      "inputs": [],
      "name": "getcdtbe1",
      "outputs": [
        {
          "name": "",
          "type": "uint256"
        },
        {
          "name": "",
          "type": "uint256"
        },
        {
          "name": "",
          "type": "uint256"
        },
        {
          "name": "",
          "type": "uint256"
        },
        {
          "name": "",
          "type": "uint256"
        },
        {
          "name": "",
          "type": "uint256"
        }
      ],
      "payable": false,
      "stateMutability": "nonpayable",
      "type": "function"
    },
    {
      "constant": false,
      "inputs": [],
      "name": "getcdtbe2",
      "outputs": [
        {
          "name": "",
          "type": "uint256"
        },
        {
          "name": "",
          "type": "uint256"
        },
        {
          "name": "",
          "type": "uint256"
        },
        {
          "name": "",
          "type": "uint256"
        }
      ],
      "payable": false,
      "stateMutability": "nonpayable",
      "type": "function"
    }
  ],
  "bytecode": "0x60806040526000603e556000603f5534801561001a57600080fd5b50614ba88061002a6000396000f300608060405260043610610169576000357c0100000000000000000000000000000000000000000000000000000000900463ffffffff168062a82dd01461016e5780630b0e26dd146101ae57806315f664a41461032b57806316411eab1461034257806318ddb6671461035957806319b5bc5c1461037057806323a4c22e1461039d57806330d6a4d0146103e55780634bc38368146104255780635d6985211461046d5780635e5fd77a1461049a5780637ca29fc1146104da5780638cfbc48e1461051a5780639184a68914610531578063a86122e514610571578063aa64f1d3146105b9578063ab989f55146105f9578063b254b48f1461066a578063bf84da15146106c0578063c9d7b7311461070e578063d12f0d681461074e578063d79f8122146107a4578063e3246510146107f2578063e3c895a114610809578063e48c8e3114610820578063e60f60ba14610852578063ee2b6ae514610892578063efb5bcaa146108a9575b600080fd5b34801561017a57600080fd5b506101836108c0565b6040518085815260200184815260200183815260200182815260200194505050505060405180910390f35b3480156101ba57600080fd5b506101c3610934565b60405180878152602001868152602001858152602001806020018060200180602001848103845287818151815260200191508051906020019080838360005b8381101561021d578082015181840152602081019050610202565b50505050905090810190601f16801561024a5780820380516001836020036101000a031916815260200191505b50848103835286818151815260200191508051906020019080838360005b83811015610283578082015181840152602081019050610268565b50505050905090810190601f1680156102b05780820380516001836020036101000a031916815260200191505b50848103825285818151815260200191508051906020019080838360005b838110156102e95780820151818401526020810190506102ce565b50505050905090810190601f1680156103165780820380516001836020036101000a031916815260200191505b50995050505050505050505060405180910390f35b34801561033757600080fd5b50610340610bd8565b005b34801561034e57600080fd5b50610357610cb5565b005b34801561036557600080fd5b5061036e610d9a565b005b34801561037c57600080fd5b5061039b60048036038101908080359060200190929190505050610fc8565b005b3480156103a957600080fd5b506103c8600480360381019080803590602001909291905050506110c2565b604051808381526020018281526020019250505060405180910390f35b3480156103f157600080fd5b506103fa6110f5565b6040518085815260200184815260200183815260200182815260200194505050505060405180910390f35b34801561043157600080fd5b5061045060048036038101908080359060200190929190505050611149565b604051808381526020018281526020019250505060405180910390f35b34801561047957600080fd5b50610498600480360381019080803590602001909291905050506112a4565b005b3480156104a657600080fd5b506104af61139e565b6040518085815260200184815260200183815260200182815260200194505050505060405180910390f35b3480156104e657600080fd5b506104ef611412565b6040518085815260200184815260200183815260200182815260200194505050505060405180910390f35b34801561052657600080fd5b5061052f611468565b005b34801561053d57600080fd5b50610546611545565b6040518085815260200184815260200183815260200182815260200194505050505060405180910390f35b34801561057d57600080fd5b5061059c6004803603810190808035906020019092919050505061159b565b604051808381526020018281526020019250505060405180910390f35b3480156105c557600080fd5b506105ce6115ce565b6040518085815260200184815260200183815260200182815260200194505050505060405180910390f35b34801561060557600080fd5b5061060e611624565b604051808c81526020018b81526020018a81526020018981526020018881526020018781526020018681526020018581526020018481526020018381526020018281526020019b50505050505050505050505060405180910390f35b34801561067657600080fd5b5061069560048036038101908080359060200190929190505050611ca7565b6040518085815260200184815260200183815260200182815260200194505050505060405180910390f35b3480156106cc57600080fd5b506106d5611d88565b60405180878152602001868152602001858152602001848152602001838152602001828152602001965050505050505060405180910390f35b34801561071a57600080fd5b50610723611e71565b6040518085815260200184815260200183815260200182815260200194505050505060405180910390f35b34801561075a57600080fd5b5061077960048036038101908080359060200190929190505050611ec7565b6040518085815260200184815260200183815260200182815260200194505050505060405180910390f35b3480156107b057600080fd5b506107b9611fa8565b60405180878152602001868152602001858152602001848152602001838152602001828152602001965050505050505060405180910390f35b3480156107fe57600080fd5b50610807612091565b005b34801561081557600080fd5b5061081e6120dc565b005b34801561082c57600080fd5b5061083561243e565b604051808381526020018281526020019250505060405180910390f35b34801561085e57600080fd5b50610867612479565b6040518085815260200184815260200183815260200182815260200194505050505060405180910390f35b34801561089e57600080fd5b506108a7612515565b005b3480156108b557600080fd5b506108be6129ee565b005b600080600080600a601e0160000160006002811015156108dc57fe5b0154600a601e0160000160016002811015156108f457fe5b0154600a601e01600201600060028110151561090c57fe5b0154600a601e01600201600160028110151561092457fe5b0154935093509350935090919293565b600080600001549080600101604080519081016040529081600082015481526020016001820154815250509080600301604080519081016040529081600082016002806020026040519081016040528092919082600280156109ab576020028201915b815481526020019060010190808311610997575b50505050508152602001600282016002806020026040519081016040528092919082600280156109f0576020028201915b8154815260200190600101908083116109dc575b50505050508152505090806007018054600181600116156101000203166002900480601f016020809104026020016040519081016040528092919081815260200182805460018160011615610100020316600290048015610a925780601f10610a6757610100808354040283529160200191610a92565b820191906000526020600020905b815481529060010190602001808311610a7557829003601f168201915b505050505090806008018054600181600116156101000203166002900480601f016020809104026020016040519081016040528092919081815260200182805460018160011615610100020316600290048015610b305780601f10610b0557610100808354040283529160200191610b30565b820191906000526020600020905b815481529060010190602001808311610b1357829003601f168201915b505050505090806009018054600181600116156101000203166002900480601f016020809104026020016040519081016040528092919081815260200182805460018160011615610100020316600290048015610bce5780601f10610ba357610100808354040283529160200191610bce565b820191906000526020600020905b815481529060010190602001808311610bb157829003601f168201915b5050505050905086565b610c7d600a60180160408051908101604052908160008201600280602002604051908101604052809291908260028015610c27576020028201915b815481526020019060010190808311610c13575b5050505050815260200160028201600280602002604051908101604052809291908260028015610c6c576020028201915b815481526020019060010190808311610c58575b505050505081525050603754612acb565b600a6024016000820181600001906002610c9892919061494d565b506002820181600201906002610caf92919061494d565b50905050565b610d62600a60120160408051908101604052908160008201600280602002604051908101604052809291908260028015610d04576020028201915b815481526020019060010190808311610cf0575b5050505050815260200160028201600280602002604051908101604052809291908260028015610d49576020028201915b815481526020019060010190808311610d35575b505050505081525050610d5d603f54612cff565b612acb565b600a6018016000820181600001906002610d7d92919061494d565b506002820181600201906002610d9492919061494d565b50905050565b60008060039150600090505b81811015610fc45760336040805190810160405280604084600381101515610dca57fe5b6004020160408051908101604052908160008201600280602002604051908101604052809291908260028015610e15576020028201915b815481526020019060010190808311610e01575b5050505050815260200160028201600280602002604051908101604052809291908260028015610e5a576020028201915b815481526020019060010190808311610e46575b5050505050815250508152602001604c84600381101515610e7757fe5b6004020160408051908101604052908160008201600280602002604051908101604052809291908260028015610ec2576020028201915b815481526020019060010190808311610eae575b5050505050815260200160028201600280602002604051908101604052809291908260028015610f07576020028201915b815481526020019060010190808311610ef3575b50505050508152505081525090806001815401808255809150509060018203906000526020600020906008020160009091929091909150600082015181600001600082015181600001906002610f5e92919061498a565b50602082015181600201906002610f7692919061498a565b505050602082015181600401600082015181600001906002610f9992919061498a565b50602082015181600201906002610fb192919061498a565b5050505050508080600101915050610da6565b5050565b61107b600a600c0160408051908101604052908160008201600280602002604051908101604052809291908260028015611017576020028201915b815481526020019060010190808311611003575b505050505081526020016002820160028060200260405190810160405280929190826002801561105c576020028201915b815481526020019060010190808311611048575b50505050508152505060388360038110151561107457fe5b0154612acb565b60408260038110151561108a57fe5b6004020160008201816000019060026110a492919061494d565b5060028201816002019060026110bb92919061494d565b5090505050565b6032818154811015156110d157fe5b90600052602060002090600202016000915090508060000154908060010154905082565b600080600080600a800160000154600a800160010154600a600c01600001600060028110151561112157fe5b0154600a600c01600001600160028110151561113957fe5b0154935093509350935090919293565b60338181548110151561115857fe5b906000526020600020906008020160009150905080600001604080519081016040529081600082016002806020026040519081016040528092919082600280156111b7576020028201915b8154815260200190600101908083116111a3575b50505050508152602001600282016002806020026040519081016040528092919082600280156111fc576020028201915b8154815260200190600101908083116111e8575b505050505081525050908060040160408051908101604052908160008201600280602002604051908101604052809291908260028015611251576020028201915b81548152602001906001019080831161123d575b5050505050815260200160028201600280602002604051908101604052809291908260028015611296576020028201915b815481526020019060010190808311611282575b505050505081525050905082565b611357600a601801604080519081016040529081600082016002806020026040519081016040528092919082600280156112f3576020028201915b8154815260200190600101908083116112df575b5050505050815260200160028201600280602002604051908101604052809291908260028015611338576020028201915b815481526020019060010190808311611324575b505050505081525050603b8360038110151561135057fe5b0154612acb565b604c8260038110151561136657fe5b60040201600082018160000190600261138092919061494d565b50600282018160020190600261139792919061494d565b5090505050565b600080600080600a60120160000160006002811015156113ba57fe5b0154600a60120160000160016002811015156113d257fe5b0154600a60120160020160006002811015156113ea57fe5b0154600a601201600201600160028110151561140257fe5b0154935093509350935090919293565b600080600080600a600c01600201600060028110151561142e57fe5b0154600a600c01600201600160028110151561144657fe5b0154600a60100160000154600a60100160010154935093509350935090919293565b61150d600a600c01604080519081016040529081600082016002806020026040519081016040528092919082600280156114b7576020028201915b8154815260200190600101908083116114a3575b50505050508152602001600282016002806020026040519081016040528092919082600280156114fc576020028201915b8154815260200190600101908083116114e8575b505050505081525050603e54612acb565b600a601201600082018160000190600261152892919061494d565b50600282018160020190600261153f92919061494d565b50905050565b600080600080600a60220160000154600a60220160010154600a602401600001600060028110151561157357fe5b0154600a602401600001600160028110151561158b57fe5b0154935093509350935090919293565b6034818154811015156115aa57fe5b90600052602060002090600202016000915090508060000154908060010154905082565b600080600080600a60160160000154600a60160160010154600a60180160000160006002811015156115fc57fe5b0154600a601801600001600160028110151561161457fe5b0154935093509350935090919293565b600a8060000160c06040519081016040529081600082015481526020016001820160408051908101604052908160008201548152602001600182015481525050815260200160038201604080519081016040529081600082016002806020026040519081016040528092919082600280156116b4576020028201915b8154815260200190600101908083116116a0575b50505050508152602001600282016002806020026040519081016040528092919082600280156116f9576020028201915b8154815260200190600101908083116116e5575b5050505050815250508152602001600782018054600181600116156101000203166002900480601f01602080910402602001604051908101604052809291908181526020018280546001816001161561010002031660029004801561179f5780601f106117745761010080835404028352916020019161179f565b820191906000526020600020905b81548152906001019060200180831161178257829003601f168201915b50505050508152602001600882018054600181600116156101000203166002900480601f0160208091040260200160405190810160405280929190818152602001828054600181600116156101000203166002900480156118415780601f1061181657610100808354040283529160200191611841565b820191906000526020600020905b81548152906001019060200180831161182457829003601f168201915b50505050508152602001600982018054600181600116156101000203166002900480601f0160208091040260200160405190810160405280929190818152602001828054600181600116156101000203166002900480156118e35780601f106118b8576101008083540402835291602001916118e3565b820191906000526020600020905b8154815290600101906020018083116118c657829003601f168201915b5050505050815250509080600a01604080519081016040529081600082015481526020016001820154815250509080600c016040805190810160405290816000820160028060200260405190810160405280929190826002801561195c576020028201915b815481526020019060010190808311611948575b50505050508152602001600282016002806020026040519081016040528092919082600280156119a1576020028201915b81548152602001906001019080831161198d575b505050505081525050908060100160408051908101604052908160008201548152602001600182015481525050908060120160408051908101604052908160008201600280602002604051908101604052809291908260028015611a1a576020028201915b815481526020019060010190808311611a06575b5050505050815260200160028201600280602002604051908101604052809291908260028015611a5f576020028201915b815481526020019060010190808311611a4b575b505050505081525050908060160160408051908101604052908160008201548152602001600182015481525050908060180160408051908101604052908160008201600280602002604051908101604052809291908260028015611ad8576020028201915b815481526020019060010190808311611ac4575b5050505050815260200160028201600280602002604051908101604052809291908260028015611b1d576020028201915b815481526020019060010190808311611b09575b5050505050815250509080601c01604080519081016040529081600082015481526020016001820154815250509080601e0160408051908101604052908160008201600280602002604051908101604052809291908260028015611b96576020028201915b815481526020019060010190808311611b82575b5050505050815260200160028201600280602002604051908101604052809291908260028015611bdb576020028201915b815481526020019060010190808311611bc7575b505050505081525050908060220160408051908101604052908160008201548152602001600182015481525050908060240160408051908101604052908160008201600280602002604051908101604052809291908260028015611c54576020028201915b815481526020019060010190808311611c40575b5050505050815260200160028201600280602002604051908101604052809291908260028015611c99576020028201915b815481526020019060010190808311611c85575b50505050508152505090508b565b600080600080603385815481101515611cbc57fe5b90600052602060002090600802016004016000016000600281101515611cde57fe5b0154603386815481101515611cef57fe5b90600052602060002090600802016004016000016001600281101515611d1157fe5b0154603387815481101515611d2257fe5b90600052602060002090600802016004016002016000600281101515611d4457fe5b0154603388815481101515611d5557fe5b90600052602060002090600802016004016002016001600281101515611d7757fe5b015493509350935093509193509193565b60008060008060008060346000815481101515611da157fe5b90600052602060002090600202016000015460346000815481101515611dc357fe5b90600052602060002090600202016001015460346001815481101515611de557fe5b90600052602060002090600202016000015460346001815481101515611e0757fe5b90600052602060002090600202016001015460346002815481101515611e2957fe5b90600052602060002090600202016000015460346002815481101515611e4b57fe5b906000526020600020906002020160010154955095509550955095509550909192939495565b600080600080600a6018016002016000600281101515611e8d57fe5b0154600a6018016002016001600281101515611ea557fe5b0154600a601c0160000154600a601c0160010154935093509350935090919293565b600080600080603385815481101515611edc57fe5b90600052602060002090600802016000016000016000600281101515611efe57fe5b0154603386815481101515611f0f57fe5b90600052602060002090600802016000016000016001600281101515611f3157fe5b0154603387815481101515611f4257fe5b90600052602060002090600802016000016002016000600281101515611f6457fe5b0154603388815481101515611f7557fe5b90600052602060002090600802016000016002016001600281101515611f9757fe5b015493509350935093509193509193565b60008060008060008060326000815481101515611fc157fe5b90600052602060002090600202016000015460326000815481101515611fe357fe5b9060005260206000209060020201600101546032600181548110151561200557fe5b9060005260206000209060020201600001546032600181548110151561202757fe5b9060005260206000209060020201600101546032600281548110151561204957fe5b9060005260206000209060020201600001546032600281548110151561206b57fe5b906000526020600020906002020160010154955095509550955095509550909192939495565b6120a461209c612df3565b603554612acb565b600a600c0160008201816000019060026120bf92919061494d565b5060028201816002019060026120d692919061494d565b50905050565b60008060006120e96149ca565b7f30644e72e131a029b85045b68181585d97816a916871ca8d3c208c16d87cfd47935061211584612ebd565b925061212084612ebd565b91506034612150600a80016040805190810160405290816000820154815260200160018201548152505085612f6d565b90806001815401808255809150509060018203906000526020600020906002020160009091929091909150600082015481600001556001820154816001015550505060346121c1600a6016016040805190810160405290816000820154815260200160018201548152505084612f6d565b90806001815401808255809150509060018203906000526020600020906002020160009091929091909150600082015481600001556001820154816001015550505060346122736040805190810160405280607b81526020016101c881525061224f600a60100160408051908101604052908160008201548152602001600182015481525050868801612f6d565b60408051908101604052908160008201548152602001600182015481525050612fac565b9080600181540180825580915050906001820390600052602060002090600202016000909192909190915060008201548160000155600182015481600101555050506122e5600a601001604080519081016040529081600082015481526020016001820154815250506201e240612f6d565b604080519081016040529081600082015481526020016001820154815250509050603461235d61233883600a601c0160408051908101604052908160008201548152602001600182015481525050612fac565b6040805190810160405290816000820154815260200160018201548152505085612f6d565b90806001815401808255809150509060018203906000526020600020906002020160009091929091909150600082015481600001556001820154816001015550505060346123f66123d183600a60220160408051908101604052908160008201548152602001600182015481525050612fac565b6040805190810160405290816000820154815260200160018201548152505084612f6d565b90806001815401808255809150509060018203906000526020600020906002020160009091929091909150600082015481600001556001820154816001015550505050505050565b600080600a602401600201600060028110151561245757fe5b0154600a602401600201600160028110151561246f57fe5b0154915091509091565b6000806000806034600381548110151561248f57fe5b906000526020600020906002020160000154603460038154811015156124b157fe5b906000526020600020906002020160010154603460048154811015156124d357fe5b906000526020600020906002020160000154603460048154811015156124f557fe5b906000526020600020906002020160010154935093509350935090919293565b6000806000600392507f30644e72e131a029b85045b68181585d97816a916871ca8d3c208c16d87cfd479150816000800181905550612552612df3565b600060030160008201518160000190600261256e92919061498a565b5060208201518160020190600261258692919061498a565b509050506040805190810160405280600981526020017f45436f70732e736f6c0000000000000000000000000000000000000000000000815250600060070190805190602001906125d89291906149e4565b506040805190810160405280600b81526020017f45436f707347322e736f6c000000000000000000000000000000000000000000815250600060080190805190602001906126279291906149e4565b506040805190810160405280600b81526020017f50616972696e672e736f6c000000000000000000000000000000000000000000815250600060090190805190602001906126769291906149e4565b506000600a60000160008201548160000155600182018160010160008201548160000155600182015481600101555050600382018160030160008201816000019060026126c492919061494d565b5060028201816002019060026126db92919061494d565b50505060078201816007019080546001816001161561010002031660029004612705929190614a64565b506008820181600801908054600181600116156101000203166002900461272d929190614a64565b5060098201816009019080546001816001161561010002031660029004612755929190614a64565b5090505061276282612ebd565b60358190555061277182612ebd565b60368190555061278082612ebd565b603781905550600090505b828110156128895761279c82612ebd565b6038826003811015156127ab57fe5b01819055506127b982612ebd565b603b826003811015156127c857fe5b01819055506038816003811015156127dc57fe5b0154603e5401603e81905550603b816003811015156127f757fe5b0154603f5401603f819055506032604080519081016040528060388460038110151561281f57fe5b01548152602001603b8460038110151561283557fe5b0154815250908060018154018082558091505090600182039060005260206000209060020201600090919290919091506000820151816000015560208201518160010155505050808060010191505061278b565b61289c612894612ff4565b603554612f6d565b600a800160008201548160000155600182015481600101559050506128e5600a800160408051908101604052908160008201548152602001600182015481525050603e54612f6d565b600a6010016000820154816000015560018201548160010155905050612938600a60100160408051908101604052908160008201548152602001600182015481525050612933603f54612cff565b612f6d565b600a6016016000820154816000015560018201548160010155905050612982600a800160408051908101604052908160008201548152602001600182015481525050603654612f6d565b600a601c0160008201548160000155600182015481600101559050506129cd600a60160160408051908101604052908160008201548152602001600182015481525050603754612f6d565b600a6022016000820154816000015560018201548160010155905050505050565b612a93600a600c0160408051908101604052908160008201600280602002604051908101604052809291908260028015612a3d576020028201915b815481526020019060010190808311612a29575b5050505050815260200160028201600280602002604051908101604052809291908260028015612a82576020028201915b815481526020019060010190808311612a6e575b505050505081525050603654612acb565b600a601e016000820181600001906002612aae92919061494d565b506002820181600201906002612ac592919061494d565b50905050565b6000806000806000612adb614aeb565b6000809550600094506000935060009250600089600001516000600281101515612b0157fe5b6020020151148015612b2a5750600089600001516001600281101515612b2357fe5b6020020151145b8015612b4d5750600089602001516000600281101515612b4657fe5b6020020151145b8015612b705750600089602001516001600281101515612b6957fe5b6020020151145b15612b9057612b89886001600060016000806000613018565b9150612c00565b612bfd888a600001516000600281101515612ba757fe5b60200201518b600001516001600281101515612bbf57fe5b60200201518c602001516000600281101515612bd757fe5b60200201518d602001516001600281101515612bef57fe5b602002015160016000613018565b91505b612c80826000600681101515612c1257fe5b6020020151836001600681101515612c2657fe5b6020020151846002600681101515612c3a57fe5b6020020151856003600681101515612c4e57fe5b6020020151866004600681101515612c6257fe5b6020020151876005600681101515612c7657fe5b602002015161312d565b8096508197508298508399505050505085816000016000600281101515612ca357fe5b018190555084816000016001600281101515612cbb57fe5b018190555083816002016000600281101515612cd357fe5b018190555082816002016001600281101515612ceb57fe5b018190555080965050505050505092915050565b60008060008060008060009450600193507f30644e72e131a029b85045b68181585d97816a916871ca8d3c208c16d87cfd4792508691505b600082141515612de6578183811515612d4c57fe5b049050837f30644e72e131a029b85045b68181585d97816a916871ca8d3c208c16d87cfd47801515612d7a57fe5b7f30644e72e131a029b85045b68181585d97816a916871ca8d3c208c16d87cfd47801515612da457fe5b8684097f30644e72e131a029b85045b68181585d97816a916871ca8d3c208c16d87cfd4703870880955081965050508182820284038093508194505050612d37565b8495505050505050919050565b612dfb614b0e565b604080519081016040528060408051908101604052807f198e9393920d483a7260bfb731fb5d25f1aa493335a9e71297e485b7aef312c281526020017f1800deef121f1e76426a00665e5c4479674322d4f75edadd46debd5cd992f6ed815250815260200160408051908101604052807f090689d0585ff075ec9e99ad690c3395bc4b313370b38ef355acdadcd122975b81526020017f12c85ea5db8c6deb4aab71808dcb408fe3d1e7690c43d37b4ce6cc0166fa7daa815250815250905090565b6000806000600184019150448260405160200180838152602001828152602001925050506040516020818303038152906040526040518082805190602001908083835b602083101515612f255780518252602082019150602081019050602083039250612f00565b6001836020036101000a03801982511681845116808217855250505050505090500191505060405180910390206001900490508381811515612f6357fe5b0692505050919050565b600080600080612f86866000015187602001518761317f565b809350819450505082816000018190555081816001018190555080935050505092915050565b600080600080612fce866000015187602001518760000151886020015161328b565b809350819450505082816000018190555081816001018190555080935050505092915050565b612ffc6149ca565b6040805190810160405280600181526020016002815250905090565b613020614aeb565b60008060008060008060008e96508d95508c94508b93508a92508991508890505b60008714151561311b576000600188161415156130e1576130de88600060068110151561306a57fe5b602002015189600160068110151561307e57fe5b60200201518a600260068110151561309257fe5b60200201518b60036006811015156130a657fe5b60200201518c60046006811015156130ba57fe5b60200201518d60056006811015156130ce57fe5b60200201518c8c8c8c8c8c6132c5565b97505b6130ef868686868686613915565b809650819750829850839950849a50859b5050505050505060028781151561311357fe5b049650613041565b50505050505050979650505050505050565b6000806000806000806131408888613abd565b80925081935050506131548c8c8484613bfa565b80965081975050506131688a8a8484613bfa565b809450819550505050509650965096509692505050565b60008060008060008060008714156131a257613199613d12565b9550955061327f565b60018714156131b65788889550955061327f565b60028714156131d2576131c98989613d26565b9550955061327f565b889350879250600191506001905088955087945060006002888115156131f457fe5b06141561320357600094508495505b6001879060020a900496505b600087111561326f57613223848484613d5a565b809450819550829650505050600160028881151561323d57fe5b06141561325f5761325284848489898661420b565b8093508197508298505050505b6001879060020a9004965061320f565b61327a86868361439b565b955095505b50505050935093915050565b60008060006132a0878760018888600161420b565b8093508198508299505050506132b787878361439b565b925092505094509492505050565b6132cd614aeb565b6000891480156132dd5750600088145b15613380578686868686868660006006811015156132f757fe5b6020020187600160068110151561330a57fe5b6020020188600260068110151561331d57fe5b6020020189600360068110151561333057fe5b602002018a600460068110151561334357fe5b602002018b600560068110151561335657fe5b60200201868152508681525086815250868152508681525086815250505050505050809050613905565b6000831480156133905750600082145b15613433578c8c8c8c8c8c8660006006811015156133aa57fe5b602002018760016006811015156133bd57fe5b602002018860026006811015156133d057fe5b602002018960036006811015156133e357fe5b602002018a60046006811015156133f657fe5b602002018b600560068110151561340957fe5b60200201868152508681525086815250868152508681525086815250505050505050809050613905565b61343f85858b8b613bfa565b80955081965050506134538b8b8585613bfa565b82600260068110151561346257fe5b6020020183600360068110151561347557fe5b602002018281525082815250505061348f87878b8b613bfa565b80975081985050506134a38d8d8585613bfa565b8260046006811015156134b257fe5b602002018360056006811015156134c557fe5b60200201828152508281525050508060046006811015156134e257fe5b60200201518714801561350757508060056006811015156134ff57fe5b602002015186145b156136a05780600260068110151561351b57fe5b602002015185148015613540575080600360068110151561353857fe5b602002015184145b156135eb576135538d8d8d8d8d8d613915565b86600060068110151561356257fe5b6020020187600160068110151561357557fe5b6020020188600260068110151561358857fe5b6020020189600360068110151561359b57fe5b602002018a60046006811015156135ae57fe5b602002018b60056006811015156135c157fe5b60200201868152508681525086815250868152508681525086815250505050505050809050613905565b600160006001600080600085955084945083935082925081915080905086600060068110151561361757fe5b6020020187600160068110151561362a57fe5b6020020188600260068110151561363d57fe5b6020020189600360068110151561365057fe5b602002018a600460068110151561366357fe5b602002018b600560068110151561367657fe5b60200201868152508681525086815250868152508681525086815250505050505050809050613905565b6136ac89898585613bfa565b80935081945050506136e685858360026006811015156136c857fe5b60200201518460036006811015156136dc57fe5b6020020151614412565b809d50819e505050613720878783600460068110151561370257fe5b602002015184600560068110151561371657fe5b6020020151614412565b809b50819c5050506137348b8b8d8d613bfa565b809950819a50505061376e898983600460068110151561375057fe5b602002015184600560068110151561376457fe5b6020020151613bfa565b809550819650505061378289898d8d613bfa565b809950819a50505061379689898585613bfa565b8260046006811015156137a557fe5b602002018360056006811015156137b857fe5b60200201828152508281525050506137d28d8d8f8f613bfa565b80975081985050506137e687878585613bfa565b80975081985050506137fa87878b8b614412565b809750819850505061380e85856002614478565b809350819450505061382287878585614412565b80975081985050506138368b8b8989613bfa565b82600060068110151561384557fe5b6020020183600160068110151561385857fe5b602002018281525082815250505061387285858989614412565b809b50819c5050506138868d8d8d8d613bfa565b809b50819c5050506138c089898360026006811015156138a257fe5b60200201518460036006811015156138b657fe5b6020020151613bfa565b809d50819e5050506138d48b8b8f8f614412565b8260026006811015156138e357fe5b602002018360036006811015156138f657fe5b60200201828152508281525050505b9c9b505050505050505050505050565b60008060008060008061392a8c8c6003614478565b809650819750505061393e86868e8e613bfa565b80965081975050506139528a8a8a8a613bfa565b80985081995050506139668c8c8c8c613bfa565b809450819550505061397a84848a8a613bfa565b809450819550505061398e86868888613bfa565b809c50819d5050506139a284846008614478565b80925081935050506139b68c8c8484614412565b809c50819d5050506139ca88888a8a613bfa565b80925081935050506139de84846004614478565b80945081955050506139f284848e8e614412565b8094508195505050613a0684848888613bfa565b8094508195505050613a1a8a8a6008614478565b8096508197505050613a2e86868c8c613bfa565b8096508197505050613a4286868484613bfa565b8096508197505050613a5684848888614412565b8094508195505050613a6a8c8c6002614478565b8096508197505050613a7e86868a8a613bfa565b8096508197505050613a9288888484613bfa565b8092508193505050613aa682826008614478565b809250819350505096509650965096509650969050565b6000806000613b707f30644e72e131a029b85045b68181585d97816a916871ca8d3c208c16d87cfd47801515613aef57fe5b7f30644e72e131a029b85045b68181585d97816a916871ca8d3c208c16d87cfd47801515613b1957fe5b8788097f30644e72e131a029b85045b68181585d97816a916871ca8d3c208c16d87cfd47801515613b4657fe5b878809087f30644e72e131a029b85045b68181585d97816a916871ca8d3c208c16d87cfd476144e1565b90507f30644e72e131a029b85045b68181585d97816a916871ca8d3c208c16d87cfd47801515613b9c57fe5b8186097f30644e72e131a029b85045b68181585d97816a916871ca8d3c208c16d87cfd47801515613bc957fe5b8286097f30644e72e131a029b85045b68181585d97816a916871ca8d3c208c16d87cfd470392509250509250929050565b600080613c807f30644e72e131a029b85045b68181585d97816a916871ca8d3c208c16d87cfd47801515613c2a57fe5b8588097f30644e72e131a029b85045b68181585d97816a916871ca8d3c208c16d87cfd47801515613c5757fe5b8588097f30644e72e131a029b85045b68181585d97816a916871ca8d3c208c16d87cfd47614535565b7f30644e72e131a029b85045b68181585d97816a916871ca8d3c208c16d87cfd47801515613caa57fe5b7f30644e72e131a029b85045b68181585d97816a916871ca8d3c208c16d87cfd47801515613cd457fe5b8688097f30644e72e131a029b85045b68181585d97816a916871ca8d3c208c16d87cfd47801515613d0157fe5b868a09089150915094509492505050565b600080600080819150809050915091509091565b6000806000613d3785856001613d5a565b809350819650829750505050613d4e85858361439b565b92509250509250929050565b6000806000806000806000613d6f8a8a61454f565b15613d8757613d7c614579565b9650965096506141fe565b7f30644e72e131a029b85045b68181585d97816a916871ca8d3c208c16d87cfd47801515613db157fe5b888a0992507f30644e72e131a029b85045b68181585d97816a916871ca8d3c208c16d87cfd47801515613de057fe5b6002840992507f30644e72e131a029b85045b68181585d97816a916871ca8d3c208c16d87cfd47801515613e1057fe5b8a840991507f30644e72e131a029b85045b68181585d97816a916871ca8d3c208c16d87cfd47801515613e3f57fe5b89830991507f30644e72e131a029b85045b68181585d97816a916871ca8d3c208c16d87cfd47801515613e6e57fe5b6002830991507f30644e72e131a029b85045b68181585d97816a916871ca8d3c208c16d87cfd47801515613e9e57fe5b8a8b0999507f30644e72e131a029b85045b68181585d97816a916871ca8d3c208c16d87cfd47801515613ecd57fe5b60038b0993507f30644e72e131a029b85045b68181585d97816a916871ca8d3c208c16d87cfd47801515613efd57fe5b88890997507f30644e72e131a029b85045b68181585d97816a916871ca8d3c208c16d87cfd47801515613f2c57fe5b6000890997507f30644e72e131a029b85045b68181585d97816a916871ca8d3c208c16d87cfd47801515613f5c57fe5b88850893507f30644e72e131a029b85045b68181585d97816a916871ca8d3c208c16d87cfd47801515613f8b57fe5b84850990507f30644e72e131a029b85045b68181585d97816a916871ca8d3c208c16d87cfd47801515613fba57fe5b8260020999507f30644e72e131a029b85045b68181585d97816a916871ca8d3c208c16d87cfd47801515613fea57fe5b8a7f30644e72e131a029b85045b68181585d97816a916871ca8d3c208c16d87cfd4703820890507f30644e72e131a029b85045b68181585d97816a916871ca8d3c208c16d87cfd4780151561403b57fe5b817f30644e72e131a029b85045b68181585d97816a916871ca8d3c208c16d87cfd4703830899507f30644e72e131a029b85045b68181585d97816a916871ca8d3c208c16d87cfd4780151561408c57fe5b8a850999507f30644e72e131a029b85045b68181585d97816a916871ca8d3c208c16d87cfd478015156140bb57fe5b838a0998507f30644e72e131a029b85045b68181585d97816a916871ca8d3c208c16d87cfd478015156140ea57fe5b898a0998507f30644e72e131a029b85045b68181585d97816a916871ca8d3c208c16d87cfd4780151561411957fe5b8960020998507f30644e72e131a029b85045b68181585d97816a916871ca8d3c208c16d87cfd4780151561414957fe5b897f30644e72e131a029b85045b68181585d97816a916871ca8d3c208c16d87cfd47038b0895507f30644e72e131a029b85045b68181585d97816a916871ca8d3c208c16d87cfd4780151561419a57fe5b81840996507f30644e72e131a029b85045b68181585d97816a916871ca8d3c208c16d87cfd478015156141c957fe5b83840994507f30644e72e131a029b85045b68181585d97816a916871ca8d3c208c16d87cfd478015156141f857fe5b83860994505b5050505093509350939050565b60008060008060008060006142208d8d61454f565b156142335789898996509650965061438b565b61423d8a8a61454f565b15614250578c8c8c96509650965061438b565b7f30644e72e131a029b85045b68181585d97816a916871ca8d3c208c16d87cfd4780151561427a57fe5b888d0993507f30644e72e131a029b85045b68181585d97816a916871ca8d3c208c16d87cfd478015156142a957fe5b8b8a0992507f30644e72e131a029b85045b68181585d97816a916871ca8d3c208c16d87cfd478015156142d857fe5b888e0991507f30644e72e131a029b85045b68181585d97816a916871ca8d3c208c16d87cfd4780151561430757fe5b8b8b099050808214156143455782841415614332576143278d8d8d613d5a565b96509650965061438b565b61433a614579565b96509650965061438b565b61437e7f30644e72e131a029b85045b68181585d97816a916871ca8d3c208c16d87cfd4780151561437257fe5b898d0983838688614597565b8097508198508299505050505b5050505096509650969350505050565b60008060006143a984612cff565b90507f30644e72e131a029b85045b68181585d97816a916871ca8d3c208c16d87cfd478015156143d557fe5b81870992507f30644e72e131a029b85045b68181585d97816a916871ca8d3c208c16d87cfd4780151561440457fe5b818609915050935093915050565b60008061444086857f30644e72e131a029b85045b68181585d97816a916871ca8d3c208c16d87cfd47614535565b61446b86857f30644e72e131a029b85045b68181585d97816a916871ca8d3c208c16d87cfd47614535565b9150915094509492505050565b6000807f30644e72e131a029b85045b68181585d97816a916871ca8d3c208c16d87cfd478015156144a557fe5b8386097f30644e72e131a029b85045b68181585d97816a916871ca8d3c208c16d87cfd478015156144d257fe5b84860991509150935093915050565b60008060405160208152602080820152602060408201528460608201526002840360808201528360a082015260208160c08360056107d05a03fa9150805192505080151561452e57600080fd5b5092915050565b60008180151561454157fe5b838303850890509392505050565b600080831480156145605750600082145b1561456e5760019050614573565b600090505b92915050565b60008060008060006001829250819150809050925092509250909192565b6000806000806000806000807f30644e72e131a029b85045b68181585d97816a916871ca8d3c208c16d87cfd478015156145cd57fe5b8a7f30644e72e131a029b85045b68181585d97816a916871ca8d3c208c16d87cfd47038a0890507f30644e72e131a029b85045b68181585d97816a916871ca8d3c208c16d87cfd4780151561461e57fe5b8b7f30644e72e131a029b85045b68181585d97816a916871ca8d3c208c16d87cfd47038d0894507f30644e72e131a029b85045b68181585d97816a916871ca8d3c208c16d87cfd4780151561466f57fe5b85860993507f30644e72e131a029b85045b68181585d97816a916871ca8d3c208c16d87cfd4780151561469e57fe5b81820991507f30644e72e131a029b85045b68181585d97816a916871ca8d3c208c16d87cfd478015156146cd57fe5b8d830991507f30644e72e131a029b85045b68181585d97816a916871ca8d3c208c16d87cfd478015156146fc57fe5b8c8c089a507f30644e72e131a029b85045b68181585d97816a916871ca8d3c208c16d87cfd4780151561472b57fe5b848c099a507f30644e72e131a029b85045b68181585d97816a916871ca8d3c208c16d87cfd4780151561475a57fe5b8b7f30644e72e131a029b85045b68181585d97816a916871ca8d3c208c16d87cfd4703830891507f30644e72e131a029b85045b68181585d97816a916871ca8d3c208c16d87cfd478015156147ab57fe5b82860997507f30644e72e131a029b85045b68181585d97816a916871ca8d3c208c16d87cfd478015156147da57fe5b85850992507f30644e72e131a029b85045b68181585d97816a916871ca8d3c208c16d87cfd4780151561480957fe5b848d099b507f30644e72e131a029b85045b68181585d97816a916871ca8d3c208c16d87cfd4780151561483857fe5b827f30644e72e131a029b85045b68181585d97816a916871ca8d3c208c16d87cfd47038d089b507f30644e72e131a029b85045b68181585d97816a916871ca8d3c208c16d87cfd4780151561488957fe5b8c820990507f30644e72e131a029b85045b68181585d97816a916871ca8d3c208c16d87cfd478015156148b857fe5b838a0998507f30644e72e131a029b85045b68181585d97816a916871ca8d3c208c16d87cfd478015156148e757fe5b897f30644e72e131a029b85045b68181585d97816a916871ca8d3c208c16d87cfd4703820896507f30644e72e131a029b85045b68181585d97816a916871ca8d3c208c16d87cfd4780151561493857fe5b8d840995505050505050955095509592505050565b8260028101928215614979579182015b8281111561497857825482559160010191906001019061495d565b5b5090506149869190614b35565b5090565b82600281019282156149b9579160200282015b828111156149b857825182559160200191906001019061499d565b5b5090506149c69190614b35565b5090565b604080519081016040528060008152602001600081525090565b828054600181600116156101000203166002900490600052602060002090601f016020900481019282601f10614a2557805160ff1916838001178555614a53565b82800160010185558215614a53579182015b82811115614a52578251825591602001919060010190614a37565b5b509050614a609190614b35565b5090565b828054600181600116156101000203166002900490600052602060002090601f016020900481019282601f10614a9d5780548555614ada565b82800160010185558215614ada57600052602060002091601f016020900482015b82811115614ad9578254825591600101919060010190614abe565b5b509050614ae79190614b35565b5090565b60c060405190810160405280600690602082028038833980820191505090505090565b608060405190810160405280614b22614b5a565b8152602001614b2f614b5a565b81525090565b614b5791905b80821115614b53576000816000905550600101614b3b565b5090565b90565b60408051908101604052806002906020820280388339808201915050905050905600a165627a7a72305820b474549d1a49d3d68cd103a5d597e892051383bc398f9373c200b61e34cde2500029",
  "source": "// This file is MIT Licensed.\r\n//\r\n// Copyright 2020 xu yunkai\r\n\r\npragma solidity >=0.4.2;\r\n// pragma experimental ABIEncoderV2;\r\n\r\nimport \"./dtbe/LibDTBE.sol\";\r\n\r\ncontract test_dtbe{\r\n    using LibDTBE for *;\r\n    using Pairing for *;\r\n\r\n    LibDTBE.PGroup public pg;\r\n    LibDTBE.PK public epk;\r\n    LibDTBE.SK[] public esk;\r\n    LibDTBE.SVK[] public esvk;\r\n    Pairing.G1Point[] public c_dtbe;\r\n    // LibDTBE.CLUE[] public V;\r\n\r\n    uint256 h;\r\n    uint256 w;\r\n    uint256 z;\r\n    uint256[3] _ui;\r\n    uint256[3] _vi;\r\n    uint256 u = 0; //sum of ui\r\n    uint256 v = 0; //sum of vi\r\n    Pairing.G2Point[3] _ui_;\r\n    Pairing.G2Point[3] _vi_;\r\n\r\n\r\n    function dtbe_keygen_1() public {\r\n        // (epk, esk, esvk) = LibDTBE.KeyGen(3);\r\n\r\n        uint n = 3;\r\n        uint p = 21888242871839275222246405745257275088696311157297823662689037894645226208583;\r\n        pg._p = p;\r\n        pg._G = Pairing.P2();\r\n\t\tpg._ECG1 = \"ECops.sol\";\r\n\t\tpg._ECG2 = \"ECopsG2.sol\";\r\n\t\tpg._pairing = \"Pairing.sol\";\r\n\t\tepk.P = pg;\r\n\r\n        h = LibDTBE.rand(p);\r\n        w = LibDTBE.rand(p);\r\n        z = LibDTBE.rand(p);\r\n        // uint256 h = LibDTBE.rand(p);\r\n        // uint256 w = LibDTBE.rand(p);\r\n        // uint256 z = LibDTBE.rand(p);\r\n        // uint256[] memory _ui = new uint256[](n);\r\n        // uint256[] memory _vi = new uint256[](n);\r\n        // uint256 u = 0; //sum of ui\r\n        // uint256 v = 0; //sum of vi\r\n\r\n        uint i = 0;\r\n        while(i < n){\r\n            _ui[i] = LibDTBE.rand(p);\r\n            _vi[i] = LibDTBE.rand(p);\r\n            u = u + _ui[i];\r\n            v = v + _vi[i];\r\n            //initialize the sk\r\n            esk.push(LibDTBE.SK({\r\n                ui: _ui[i],\r\n                vi: _vi[i]\r\n            }));\r\n            i++;\r\n        }\r\n\r\n        epk.H = LibDTBE.G1mul(Pairing.P1(), h);\r\n\t\t// epk._H = LibDTBE.G2mul(Pairing.P2(), h);\r\n\r\n\t\tepk.U = LibDTBE.G1mul(epk.H, u);\r\n\t\t// epk._U = LibDTBE.G2mul(epk._H, u);\r\n\r\n        epk.V = LibDTBE.G1mul(epk.U, ECops.inverse(v));\r\n        // epk._V = LibDTBE.G2mul(epk._U, ECops.inverse(v));\r\n\r\n        epk.W = LibDTBE.G1mul(epk.H, w);\r\n        // epk._W = LibDTBE.G2mul(epk._H, w);\r\n\r\n        epk.Z = LibDTBE.G1mul(epk.V, z);\r\n        // epk._Z = LibDTBE.G2mul(epk._V, z);\r\n\r\n        // i = 0;\r\n        // while(i < n){\r\n        //     esvk.push(LibDTBE.SVK({\r\n        //         Ui: LibDTBE.G2mul(epk._H, _ui[i]),\r\n        //         Vi: LibDTBE.G2mul(epk._V, _vi[i])\r\n        //     }));\r\n        //     i++;\r\n        // }\r\n    }\r\n\r\n    function dtbe_keygen_2() public {\r\n\t\tepk._H = LibDTBE.G2mul(Pairing.P2(), h);\r\n\t\t// epk._U = LibDTBE.G2mul(epk._H, u);\r\n        // epk._V = LibDTBE.G2mul(epk._U, ECops.inverse(v));\r\n        // epk._W = LibDTBE.G2mul(epk._H, w);\r\n        // epk._Z = LibDTBE.G2mul(epk._V, z);\r\n    }\r\n\r\n    function dtbe_keygen_3() public {\r\n\t\tepk._U = LibDTBE.G2mul(epk._H, u);\r\n    }\r\n\r\n    function dtbe_keygen_4() public {\r\n\t\tepk._V = LibDTBE.G2mul(epk._U, ECops.inverse(v));\r\n    }\r\n\r\n    function dtbe_keygen_5() public {\r\n\t\tepk._W = LibDTBE.G2mul(epk._H, w);\r\n    }\r\n\r\n    function dtbe_keygen_6() public {\r\n\t\tepk._Z = LibDTBE.G2mul(epk._V, z);\r\n    }\r\n\r\n    function dtbe_keygen_7(uint i) public {\r\n        _ui_[i] = LibDTBE.G2mul(epk._H, _ui[i]);\r\n    }\r\n\r\n    function dtbe_keygen_8(uint i) public {\r\n        _vi_[i] = LibDTBE.G2mul(epk._V, _vi[i]);\r\n    }\r\n\r\n    function dtbe_keygen_9() public {\r\n        uint n = 3;\r\n        uint i = 0;\r\n        while(i < n){\r\n            esvk.push(LibDTBE.SVK({\r\n                Ui: _ui_[i],\r\n                Vi: _vi_[i]\r\n            }));\r\n            i++;\r\n        }\r\n    }\r\n\r\n    function dtbe_encrypt() public {\r\n        // Pairing.G1Point memory M = Pairing.G1Point(123, 456);\r\n        // c_dtbe = LibDTBE.encrypt(epk, 123456, M);\r\n\r\n        uint p = 21888242871839275222246405745257275088696311157297823662689037894645226208583;\r\n        uint256 r1 = LibDTBE.rand(p);\r\n\t\tuint256 r2 = LibDTBE.rand(p);\r\n        c_dtbe.push(LibDTBE.G1mul(epk.H, r1));\r\n        c_dtbe.push(LibDTBE.G1mul(epk.V, r2));\r\n        c_dtbe.push(LibDTBE.G1add(Pairing.G1Point(123, 456), LibDTBE.G1mul(epk.U, r1 + r2)));\r\n        Pairing.G1Point memory tmp = LibDTBE.G1mul(epk.U, 123456);\r\n        c_dtbe.push(LibDTBE.G1mul(LibDTBE.G1add(tmp, epk.W), r1));\r\n        c_dtbe.push(LibDTBE.G1mul(LibDTBE.G1add(tmp, epk.Z), r2));\r\n    }\r\n\r\n    function getepk1() public returns(uint, uint, uint, uint) {\r\n        // uint[] e;\r\n        // e.push(epk.H.X); e.push(epk.H.Y);\r\n        // e.push(epk._H.X[0]); e.push(epk._H.X[1]); e.push(epk._H.Y[0]); e.push(epk._H.Y[1]);\r\n        // e.push(epk.U.X); e.push(epk.U.Y);\r\n        // e.push(epk._U.X[0]); e.push(epk._U.X[1]); e.push(epk._U.Y[0]); e.push(epk._U.Y[1]);\r\n        // e.push(epk.V.X); e.push(epk.V.Y);\r\n        // e.push(epk._V.X[0]); e.push(epk._V.X[1]); e.push(epk._V.Y[0]); e.push(epk._V.Y[1]);\r\n        // e.push(epk.W.X); e.push(epk.W.Y);\r\n        // e.push(epk._W.X[0]); e.push(epk._W.X[1]); e.push(epk._W.Y[0]); e.push(epk._W.Y[1]);\r\n        // e.push(epk.Z.X); e.push(epk.Z.Y);\r\n        // e.push(epk._Z.X[0]); e.push(epk._Z.X[1]); e.push(epk._Z.Y[0]); e.push(epk._Z.Y[1]);\r\n\r\n        return (epk.H.X, epk.H.Y, epk._H.X[0], epk._H.X[1]);\r\n    }\r\n\r\n    function getepk2() public returns(uint, uint, uint, uint){\r\n        return (epk._H.Y[0], epk._H.Y[1], epk.U.X, epk.U.Y);\r\n    }\r\n\r\n    function getepk3() public returns(uint, uint, uint, uint){\r\n        return (epk._U.X[0], epk._U.X[1], epk._U.Y[0], epk._U.Y[1]);\r\n    }\r\n\r\n    function getepk4() public returns(uint, uint, uint, uint){\r\n        return (epk.V.X, epk.V.Y, epk._V.X[0], epk._V.X[1]);\r\n    }\r\n\r\n    function getepk5() public returns(uint, uint, uint, uint){\r\n        return (epk._V.Y[0], epk._V.Y[1], epk.W.X, epk.W.Y);\r\n    }\r\n\r\n    function getepk6() public returns(uint, uint, uint, uint){\r\n        return (epk._W.X[0], epk._W.X[1], epk._W.Y[0], epk._W.Y[1]);\r\n    }\r\n\r\n    function getepk7() public returns(uint, uint, uint, uint){\r\n        return (epk.Z.X, epk.Z.Y, epk._Z.X[0], epk._Z.X[1]);\r\n    }\r\n\r\n    function getepk8() public returns(uint, uint){\r\n        return (epk._Z.Y[0], epk._Z.Y[1]);\r\n    }\r\n\r\n    function getesk() public returns(uint, uint, uint, uint, uint, uint) {\r\n        return (esk[0].ui, esk[0].vi, esk[1].ui, esk[1].vi, esk[2].ui, esk[2].vi);\r\n    }\r\n\r\n    function getesvk1(uint i) public returns(uint, uint, uint, uint) {\r\n        return (\r\n        esvk[i].Ui.X[0],\r\n        esvk[i].Ui.X[1],\r\n        esvk[i].Ui.Y[0],\r\n        esvk[i].Ui.Y[1]\r\n        );\r\n    }\r\n\r\n    function getesvk2(uint i) public returns(uint, uint, uint, uint) {\r\n        return (\r\n        esvk[i].Vi.X[0],\r\n        esvk[i].Vi.X[1],\r\n        esvk[i].Vi.Y[0],\r\n        esvk[i].Vi.Y[1]\r\n        );\r\n    }\r\n\r\n    function getcdtbe1() public returns(uint, uint, uint, uint, uint, uint) {\r\n        return (\r\n            c_dtbe[0].X, c_dtbe[0].Y,\r\n            c_dtbe[1].X, c_dtbe[1].Y,\r\n            c_dtbe[2].X, c_dtbe[2].Y\r\n        );\r\n    }\r\n\r\n    function getcdtbe2() public returns(uint, uint, uint, uint) {\r\n        return (\r\n            c_dtbe[3].X, c_dtbe[3].Y,\r\n            c_dtbe[4].X, c_dtbe[4].Y\r\n            );\r\n    }\r\n\r\n    // function transData(uint main_addr) public {\r\n    //     test_dtbe_main_interface test_main = test_dtbe_main_interface(main_addr);\r\n    //     // epk\r\n    //     uint[] e;\r\n    //     e.push(epk.H.X); e.push(epk.H.Y);\r\n    //     e.push(epk._H.X[0]); e.push(epk._H.X[1]); e.push(epk._H.Y[0]); e.push(epk._H.Y[1]);\r\n    //     e.push(epk.U.X); e.push(epk.U.Y);\r\n    //     e.push(epk._U.X[0]); e.push(epk._U.X[1]); e.push(epk._U.Y[0]); e.push(epk._U.Y[1]);\r\n    //     e.push(epk.V.X); e.push(epk.V.Y);\r\n    //     e.push(epk._V.X[0]); e.push(epk._V.X[1]); e.push(epk._V.Y[0]); e.push(epk._V.Y[1]);\r\n    //     e.push(epk.W.X); e.push(epk.W.Y);\r\n    //     e.push(epk._W.X[0]); e.push(epk._W.X[1]); e.push(epk._W.Y[0]); e.push(epk._W.Y[1]);\r\n    //     e.push(epk.Z.X); e.push(epk.Z.Y);\r\n    //     e.push(epk._Z.X[0]); e.push(epk._Z.X[1]); e.push(epk._Z.Y[0]); e.push(epk._Z.Y[1]);\r\n    //     test_main.setepk();\r\n\r\n    //     // esk\r\n    //     e.length = 0;\r\n    //     uint i = 0;\r\n    //     while(i<3){\r\n    //         e.push(esk[i].ui);\r\n    //         e.push(esk[i].vi);\r\n    //         i++;\r\n    //     }\r\n    //     test_main.setesk(e);\r\n\r\n    //     // esvk\r\n    //     e.length = 0;\r\n    //     i = 0;\r\n    //     while(i<3){\r\n    //         e.push(esvk[i].Ui.X[0]);\r\n    //         e.push(esvk[i].Ui.X[1]);\r\n    //         e.push(esvk[i].Ui.Y[0]);\r\n    //         e.push(esvk[i].Ui.Y[1]);\r\n    //         e.push(esvk[i].Vi.X[0]);\r\n    //         e.push(esvk[i].Vi.X[1]);\r\n    //         e.push(esvk[i].Vi.Y[0]);\r\n    //         e.push(esvk[i].Vi.Y[1]);\r\n    //         i++;\r\n    //     }\r\n    //     test_main.setesk(e);\r\n\r\n    //     // c_dtbe\r\n    //     e.length = 0;\r\n    //     i = 0;\r\n    //     while(i<5){\r\n    //         e.push(c_dtbe[i].X);\r\n    //         e.push(c_dtbe[i].Y);\r\n    //     }\r\n    //     test_main.setcdtbe(e);\r\n    // }\r\n}",
  "sourcePath": "D:\\Myproject\\AttriChain\\contracts\\test_dtbe.sol",
  "compiler": {
    "name": "solc",
    "version": "0.4.23+commit.124ca40d.Emscripten.clang"
  },
  "schemaVersion": "2.0.0",
  "updatedAt": "2020-07-16T19:43:13.019Z"
}