{
  "contractName": "test",
  "abi": [
    {
      "constant": true,
      "inputs": [
        {
          "name": "",
          "type": "uint256"
        }
      ],
      "name": "esk",
      "outputs": [
        {
          "name": "ui",
          "type": "uint256"
        },
        {
          "name": "vi",
          "type": "uint256"
        }
      ],
      "payable": false,
      "stateMutability": "view",
      "type": "function"
    },
    {
      "constant": true,
      "inputs": [
        {
          "name": "",
          "type": "uint256"
        }
      ],
      "name": "esvk",
      "outputs": [
        {
          "components": [
            {
              "name": "X",
              "type": "uint256[2]"
            },
            {
              "name": "Y",
              "type": "uint256[2]"
            }
          ],
          "name": "Ui",
          "type": "tuple"
        },
        {
          "components": [
            {
              "name": "X",
              "type": "uint256[2]"
            },
            {
              "name": "Y",
              "type": "uint256[2]"
            }
          ],
          "name": "Vi",
          "type": "tuple"
        }
      ],
      "payable": false,
      "stateMutability": "view",
      "type": "function"
    },
    {
      "constant": true,
      "inputs": [
        {
          "name": "",
          "type": "uint256"
        }
      ],
      "name": "c_dtbe",
      "outputs": [
        {
          "name": "X",
          "type": "uint256"
        },
        {
          "name": "Y",
          "type": "uint256"
        }
      ],
      "payable": false,
      "stateMutability": "view",
      "type": "function"
    },
    {
      "constant": true,
      "inputs": [],
      "name": "epk",
      "outputs": [
        {
          "components": [
            {
              "name": "_p",
              "type": "uint256"
            },
            {
              "components": [
                {
                  "name": "X",
                  "type": "uint256"
                },
                {
                  "name": "Y",
                  "type": "uint256"
                }
              ],
              "name": "G",
              "type": "tuple"
            },
            {
              "components": [
                {
                  "name": "X",
                  "type": "uint256[2]"
                },
                {
                  "name": "Y",
                  "type": "uint256[2]"
                }
              ],
              "name": "_G",
              "type": "tuple"
            },
            {
              "name": "_ECG1",
              "type": "string"
            },
            {
              "name": "_ECG2",
              "type": "string"
            },
            {
              "name": "_pairing",
              "type": "string"
            }
          ],
          "name": "P",
          "type": "tuple"
        },
        {
          "components": [
            {
              "name": "X",
              "type": "uint256"
            },
            {
              "name": "Y",
              "type": "uint256"
            }
          ],
          "name": "H",
          "type": "tuple"
        },
        {
          "components": [
            {
              "name": "X",
              "type": "uint256[2]"
            },
            {
              "name": "Y",
              "type": "uint256[2]"
            }
          ],
          "name": "_H",
          "type": "tuple"
        },
        {
          "components": [
            {
              "name": "X",
              "type": "uint256"
            },
            {
              "name": "Y",
              "type": "uint256"
            }
          ],
          "name": "U",
          "type": "tuple"
        },
        {
          "components": [
            {
              "name": "X",
              "type": "uint256[2]"
            },
            {
              "name": "Y",
              "type": "uint256[2]"
            }
          ],
          "name": "_U",
          "type": "tuple"
        },
        {
          "components": [
            {
              "name": "X",
              "type": "uint256"
            },
            {
              "name": "Y",
              "type": "uint256"
            }
          ],
          "name": "V",
          "type": "tuple"
        },
        {
          "components": [
            {
              "name": "X",
              "type": "uint256[2]"
            },
            {
              "name": "Y",
              "type": "uint256[2]"
            }
          ],
          "name": "_V",
          "type": "tuple"
        },
        {
          "components": [
            {
              "name": "X",
              "type": "uint256"
            },
            {
              "name": "Y",
              "type": "uint256"
            }
          ],
          "name": "W",
          "type": "tuple"
        },
        {
          "components": [
            {
              "name": "X",
              "type": "uint256[2]"
            },
            {
              "name": "Y",
              "type": "uint256[2]"
            }
          ],
          "name": "_W",
          "type": "tuple"
        },
        {
          "components": [
            {
              "name": "X",
              "type": "uint256"
            },
            {
              "name": "Y",
              "type": "uint256"
            }
          ],
          "name": "Z",
          "type": "tuple"
        },
        {
          "components": [
            {
              "name": "X",
              "type": "uint256[2]"
            },
            {
              "name": "Y",
              "type": "uint256[2]"
            }
          ],
          "name": "_Z",
          "type": "tuple"
        }
      ],
      "payable": false,
      "stateMutability": "view",
      "type": "function"
    },
    {
      "constant": false,
      "inputs": [],
      "name": "nizk_prove",
      "outputs": [],
      "payable": false,
      "stateMutability": "nonpayable",
      "type": "function"
    },
    {
      "constant": false,
      "inputs": [],
      "name": "nizk_verify",
      "outputs": [
        {
          "name": "",
          "type": "bool"
        }
      ],
      "payable": false,
      "stateMutability": "nonpayable",
      "type": "function"
    },
    {
      "constant": false,
      "inputs": [],
      "name": "dtbe_keygen",
      "outputs": [],
      "payable": false,
      "stateMutability": "nonpayable",
      "type": "function"
    },
    {
      "constant": false,
      "inputs": [],
      "name": "dtbe_encrypt",
      "outputs": [],
      "payable": false,
      "stateMutability": "nonpayable",
      "type": "function"
    }
  ],
  "bytecode": "0x608060405234801561001057600080fd5b50612972806100206000396000f30060806040526004361061008e576000357c0100000000000000000000000000000000000000000000000000000000900463ffffffff168063208c903b1461009357806323a4c22e146100c25780634bc383681461010a578063749c006514610152578063a86122e514610169578063ab989f55146101b1578063c025b90214610222578063e3c895a114610239575b600080fd5b34801561009f57600080fd5b506100a8610250565b604051808215151515815260200191505060405180910390f35b3480156100ce57600080fd5b506100ed600480360381019080803590602001909291905050506102a6565b604051808381526020018281526020019250505060405180910390f35b34801561011657600080fd5b50610135600480360381019080803590602001909291905050506102cf565b604051808381526020018281526020019250505060405180910390f35b34801561015e57600080fd5b50610167610420565b005b34801561017557600080fd5b5061019460048036038101908080359060200190929190505050610422565b604051808381526020018281526020019250505060405180910390f35b3480156101bd57600080fd5b506101c6610455565b604051808c81526020018b81526020018a81526020018981526020018881526020018781526020018681526020018581526020018481526020018381526020018281526020019b50505050505050505050505060405180910390f35b34801561022e57600080fd5b50610237610ad8565b005b34801561024557600080fd5b5061024e610b11565b005b60006102a1600060028060200260405190810160405280929190826002801561028e576020028201915b81548152602001906001019080831161027a575b50505050506130396002546003546111e2565b905090565b602c816003811015156102b557fe5b600202016000915090508060000154908060010154905082565b6032816003811015156102de57fe5b600802016000915090508060000160408051908101604052908160008201600280602002604051908101604052809291908260028015610333576020028201915b81548152602001906001019080831161031f575b5050505050815260200160028201600280602002604051908101604052809291908260028015610378576020028201915b815481526020019060010190808311610364575b5050505050815250509080600401604080519081016040529081600082016002806020026040519081016040528092919082600280156103cd576020028201915b8154815260200190600101908083116103b9575b5050505050815260200160028201600280602002604051908101604052809291908260028015610412576020028201915b8154815260200190600101908083116103fe575b505050505081525050905082565b565b604a8181548110151561043157fe5b90600052602060002090600202016000915090508060000154908060010154905082565b60048060000160c06040519081016040529081600082015481526020016001820160408051908101604052908160008201548152602001600182015481525050815260200160038201604080519081016040529081600082016002806020026040519081016040528092919082600280156104e5576020028201915b8154815260200190600101908083116104d1575b505050505081526020016002820160028060200260405190810160405280929190826002801561052a576020028201915b815481526020019060010190808311610516575b5050505050815250508152602001600782018054600181600116156101000203166002900480601f0160208091040260200160405190810160405280929190818152602001828054600181600116156101000203166002900480156105d05780601f106105a5576101008083540402835291602001916105d0565b820191906000526020600020905b8154815290600101906020018083116105b357829003601f168201915b50505050508152602001600882018054600181600116156101000203166002900480601f0160208091040260200160405190810160405280929190818152602001828054600181600116156101000203166002900480156106725780601f1061064757610100808354040283529160200191610672565b820191906000526020600020905b81548152906001019060200180831161065557829003601f168201915b50505050508152602001600982018054600181600116156101000203166002900480601f0160208091040260200160405190810160405280929190818152602001828054600181600116156101000203166002900480156107145780601f106106e957610100808354040283529160200191610714565b820191906000526020600020905b8154815290600101906020018083116106f757829003601f168201915b5050505050815250509080600a01604080519081016040529081600082015481526020016001820154815250509080600c016040805190810160405290816000820160028060200260405190810160405280929190826002801561078d576020028201915b815481526020019060010190808311610779575b50505050508152602001600282016002806020026040519081016040528092919082600280156107d2576020028201915b8154815260200190600101908083116107be575b50505050508152505090806010016040805190810160405290816000820154815260200160018201548152505090806012016040805190810160405290816000820160028060200260405190810160405280929190826002801561084b576020028201915b815481526020019060010190808311610837575b5050505050815260200160028201600280602002604051908101604052809291908260028015610890576020028201915b81548152602001906001019080831161087c575b505050505081525050908060160160408051908101604052908160008201548152602001600182015481525050908060180160408051908101604052908160008201600280602002604051908101604052809291908260028015610909576020028201915b8154815260200190600101908083116108f5575b505050505081526020016002820160028060200260405190810160405280929190826002801561094e576020028201915b81548152602001906001019080831161093a575b5050505050815250509080601c01604080519081016040529081600082015481526020016001820154815250509080601e01604080519081016040529081600082016002806020026040519081016040528092919082600280156109c7576020028201915b8154815260200190600101908083116109b3575b5050505050815260200160028201600280602002604051908101604052809291908260028015610a0c576020028201915b8154815260200190600101908083116109f8575b505050505081525050908060220160408051908101604052908160008201548152602001600182015481525050908060240160408051908101604052908160008201600280602002604051908101604052809291908260028015610a85576020028201915b815481526020019060010190808311610a71575b5050505050815260200160028201600280602002604051908101604052809291908260028015610aca576020028201915b815481526020019060010190808311610ab6575b50505050508152505090508b565b610ae4613039806111fc565b60008060026000600360008691905055859190505584919050906002610b0b92919061282b565b50505050565b610b1961286b565b6111de600461016060405190810160405290816000820160c0604051908101604052908160008201548152602001600182016040805190810160405290816000820154815260200160018201548152505081526020016003820160408051908101604052908160008201600280602002604051908101604052809291908260028015610bba576020028201915b815481526020019060010190808311610ba6575b5050505050815260200160028201600280602002604051908101604052809291908260028015610bff576020028201915b815481526020019060010190808311610beb575b5050505050815250508152602001600782018054600181600116156101000203166002900480601f016020809104026020016040519081016040528092919081815260200182805460018160011615610100020316600290048015610ca55780601f10610c7a57610100808354040283529160200191610ca5565b820191906000526020600020905b815481529060010190602001808311610c8857829003601f168201915b50505050508152602001600882018054600181600116156101000203166002900480601f016020809104026020016040519081016040528092919081815260200182805460018160011615610100020316600290048015610d475780601f10610d1c57610100808354040283529160200191610d47565b820191906000526020600020905b815481529060010190602001808311610d2a57829003601f168201915b50505050508152602001600982018054600181600116156101000203166002900480601f016020809104026020016040519081016040528092919081815260200182805460018160011615610100020316600290048015610de95780601f10610dbe57610100808354040283529160200191610de9565b820191906000526020600020905b815481529060010190602001808311610dcc57829003601f168201915b5050505050815250508152602001600a8201604080519081016040529081600082015481526020016001820154815250508152602001600c820160408051908101604052908160008201600280602002604051908101604052809291908260028015610e6a576020028201915b815481526020019060010190808311610e56575b5050505050815260200160028201600280602002604051908101604052809291908260028015610eaf576020028201915b815481526020019060010190808311610e9b575b5050505050815250508152602001601082016040805190810160405290816000820154815260200160018201548152505081526020016012820160408051908101604052908160008201600280602002604051908101604052809291908260028015610f30576020028201915b815481526020019060010190808311610f1c575b5050505050815260200160028201600280602002604051908101604052809291908260028015610f75576020028201915b815481526020019060010190808311610f61575b5050505050815250508152602001601682016040805190810160405290816000820154815260200160018201548152505081526020016018820160408051908101604052908160008201600280602002604051908101604052809291908260028015610ff6576020028201915b815481526020019060010190808311610fe2575b505050505081526020016002820160028060200260405190810160405280929190826002801561103b576020028201915b815481526020019060010190808311611027575b5050505050815250508152602001601c8201604080519081016040529081600082015481526020016001820154815250508152602001601e8201604080519081016040529081600082016002806020026040519081016040528092919082600280156110bc576020028201915b8154815260200190600101908083116110a8575b5050505050815260200160028201600280602002604051908101604052809291908260028015611101576020028201915b8154815260200190600101908083116110ed575b5050505050815250508152602001602282016040805190810160405290816000820154815260200160018201548152505081526020016024820160408051908101604052908160008201600280602002604051908101604052809291908260028015611182576020028201915b81548152602001906001019080831161116e575b50505050508152602001600282016002806020026040519081016040528092919082600280156111c7576020028201915b8154815260200190600101908083116111b3575b505050505081525050815250506201e2408361142c565b5050565b60006111f085858585611619565b82149050949350505050565b611204612885565b60008061120f6128a7565b60006112196128a7565b61123c61122461178b565b61122c6117af565b8a81151561123657fe5b066117d7565b9250826000015186600060028110151561125257fe5b602002018181525050826020015186600160028110151561126f57fe5b6020020181815250506112806117af565b878960405160200180838152602001828152602001925050506040516020818303038152906040526040518082805190602001908083835b6020831015156112dd57805182526020820191506020810190506020830392506112b8565b6001836020036101000a03801982511681845116808217855250505050505090500191505060405180910390206001900481151561131757fe5b06915061132b61132561178b565b836117d7565b905085600060028110151561133c57fe5b602002015186600160028110151561135057fe5b6020020151826000015183602001518a60405160200180868152602001858152602001848152602001838152602001828152602001955050505050506040516020818303038152906040526040518082805190602001908083835b6020831015156113d057805182526020820191506020810190506020830392506113ab565b6001836020036101000a03801982511681845116808217855250505050505090500191505060405180910390206001900493506114208261140f6117af565b80151561141857fe5b868b09611871565b94505050509250925092565b606060008061143961286b565b61144161286b565b61144961286b565b61145161286b565b61145961286b565b61146161286b565b606061148c7f30644e72e131a029b85045b68181585d97816a916871ca8d3c208c16d87cfd476118e3565b98506114b77f30644e72e131a029b85045b68181585d97816a916871ca8d3c208c16d87cfd476118e3565b97506114c78d602001518a611993565b96506114d78d60a0015189611993565b95506114f28b6114ed8f606001518b8d01611993565b6119e1565b94506115028d606001518d611993565b935061151b611515858f60e001516119e1565b8a611993565b925061153561152f858f61012001516119e1565b89611993565b9150600560405190808252806020026020018201604052801561157257816020015b61155f6128c1565b8152602001906001900390816115575790505b5090508681600081518110151561158557fe5b90602001906020020181905250858160018151811015156115a257fe5b90602001906020020181905250848160028151811015156115bf57fe5b90602001906020020181905250828160038151811015156115dc57fe5b90602001906020020181905250818160048151811015156115f957fe5b906020019060200201819052508099505050505050505050509392505050565b60006116236128a7565b61162b6128a7565b6116336128a7565b61165661163e61178b565b6116466117af565b8881151561165057fe5b066117d7565b9250604080519081016040528089600060028110151561167257fe5b6020020151815260200189600160028110151561168b57fe5b602002015181525091506116a8836116a384886117d7565b611a38565b90508760006002811015156116b957fe5b60200201518860016002811015156116cd57fe5b6020020151826000015183602001518a60405160200180868152602001858152602001848152602001838152602001828152602001955050505050506040516020818303038152906040526040518082805190602001908083835b60208310151561174d5780518252602082019150602081019050602083039250611728565b6001836020036101000a0380198251168184511680821785525050505050509050019150506040518091039020600190049350505050949350505050565b6117936128a7565b6040805190810160405280600181526020016002815250905090565b60007f30644e72e131a029b85045b68181585d2833e84879b9709143e1f593f0000001905090565b6117df6128a7565b6117e76128db565b600084600001518260006003811015156117fd57fe5b602002018181525050846020015182600160038110151561181a57fe5b6020020181815250508382600260038110151561183357fe5b60200201818152505060608360808460076107d05a03fa9050806000811461185a5761185c565bfe5b5080151561186957600080fd5b505092915050565b60008082841115611884578390506118aa565b7f30644e72e131a029b85045b68181585d2833e84879b9709143e1f593f0000001840190505b7f30644e72e131a029b85045b68181585d2833e84879b9709143e1f593f00000018015156118d457fe5b60008483030891505092915050565b6000806000600184019150448260405160200180838152602001828152602001925050506040516020818303038152906040526040518082805190602001908083835b60208310151561194b5780518252602082019150602081019050602083039250611926565b6001836020036101000a0380198251168184511680821785525050505050509050019150506040518091039020600190049050838181151561198957fe5b0692505050919050565b61199b61286b565b6000806119a661286b565b6119b98660000151876020015187611af3565b8093508194505050828160000181815250508181602001818152505080935050505092915050565b6119e961286b565b6000806119f461286b565b611a108660000151876020015187600001518860200151611bff565b8093508194505050828160000181815250508181602001818152505080935050505092915050565b611a406128a7565b611a486128fe565b60008460000151826000600481101515611a5e57fe5b6020020181815250508460200151826001600481101515611a7b57fe5b6020020181815250508360000151826002600481101515611a9857fe5b6020020181815250508360200151826003600481101515611ab557fe5b60200201818152505060608360c08460066107d05a03fa90508060008114611adc57611ade565bfe5b50801515611aeb57600080fd5b505092915050565b6000806000806000806000871415611b1657611b0d611c39565b95509550611bf3565b6001871415611b2a57888895509550611bf3565b6002871415611b4657611b3d8989611c4d565b95509550611bf3565b88935087925060019150600190508895508794506000600288811515611b6857fe5b061415611b7757600094508495505b6001879060020a900496505b6000871115611be357611b97848484611c81565b8094508195508296505050506001600288811515611bb157fe5b061415611bd357611bc6848484898986612132565b8093508197508298505050505b6001879060020a90049650611b83565b611bee8686836122c2565b955095505b50505050935093915050565b6000806000611c148787600188886001612132565b809350819850829950505050611c2b8787836122c2565b925092505094509492505050565b600080600080819150809050915091509091565b6000806000611c5e85856001611c81565b809350819650829750505050611c758585836122c2565b92509250509250929050565b6000806000806000806000611c968a8a612339565b15611cae57611ca3612363565b965096509650612125565b7f30644e72e131a029b85045b68181585d97816a916871ca8d3c208c16d87cfd47801515611cd857fe5b888a0992507f30644e72e131a029b85045b68181585d97816a916871ca8d3c208c16d87cfd47801515611d0757fe5b6002840992507f30644e72e131a029b85045b68181585d97816a916871ca8d3c208c16d87cfd47801515611d3757fe5b8a840991507f30644e72e131a029b85045b68181585d97816a916871ca8d3c208c16d87cfd47801515611d6657fe5b89830991507f30644e72e131a029b85045b68181585d97816a916871ca8d3c208c16d87cfd47801515611d9557fe5b6002830991507f30644e72e131a029b85045b68181585d97816a916871ca8d3c208c16d87cfd47801515611dc557fe5b8a8b0999507f30644e72e131a029b85045b68181585d97816a916871ca8d3c208c16d87cfd47801515611df457fe5b60038b0993507f30644e72e131a029b85045b68181585d97816a916871ca8d3c208c16d87cfd47801515611e2457fe5b88890997507f30644e72e131a029b85045b68181585d97816a916871ca8d3c208c16d87cfd47801515611e5357fe5b6000890997507f30644e72e131a029b85045b68181585d97816a916871ca8d3c208c16d87cfd47801515611e8357fe5b88850893507f30644e72e131a029b85045b68181585d97816a916871ca8d3c208c16d87cfd47801515611eb257fe5b84850990507f30644e72e131a029b85045b68181585d97816a916871ca8d3c208c16d87cfd47801515611ee157fe5b8260020999507f30644e72e131a029b85045b68181585d97816a916871ca8d3c208c16d87cfd47801515611f1157fe5b8a7f30644e72e131a029b85045b68181585d97816a916871ca8d3c208c16d87cfd4703820890507f30644e72e131a029b85045b68181585d97816a916871ca8d3c208c16d87cfd47801515611f6257fe5b817f30644e72e131a029b85045b68181585d97816a916871ca8d3c208c16d87cfd4703830899507f30644e72e131a029b85045b68181585d97816a916871ca8d3c208c16d87cfd47801515611fb357fe5b8a850999507f30644e72e131a029b85045b68181585d97816a916871ca8d3c208c16d87cfd47801515611fe257fe5b838a0998507f30644e72e131a029b85045b68181585d97816a916871ca8d3c208c16d87cfd4780151561201157fe5b898a0998507f30644e72e131a029b85045b68181585d97816a916871ca8d3c208c16d87cfd4780151561204057fe5b8960020998507f30644e72e131a029b85045b68181585d97816a916871ca8d3c208c16d87cfd4780151561207057fe5b897f30644e72e131a029b85045b68181585d97816a916871ca8d3c208c16d87cfd47038b0895507f30644e72e131a029b85045b68181585d97816a916871ca8d3c208c16d87cfd478015156120c157fe5b81840996507f30644e72e131a029b85045b68181585d97816a916871ca8d3c208c16d87cfd478015156120f057fe5b83840994507f30644e72e131a029b85045b68181585d97816a916871ca8d3c208c16d87cfd4780151561211f57fe5b83860994505b5050505093509350939050565b60008060008060008060006121478d8d612339565b1561215a578989899650965096506122b2565b6121648a8a612339565b15612177578c8c8c9650965096506122b2565b7f30644e72e131a029b85045b68181585d97816a916871ca8d3c208c16d87cfd478015156121a157fe5b888d0993507f30644e72e131a029b85045b68181585d97816a916871ca8d3c208c16d87cfd478015156121d057fe5b8b8a0992507f30644e72e131a029b85045b68181585d97816a916871ca8d3c208c16d87cfd478015156121ff57fe5b888e0991507f30644e72e131a029b85045b68181585d97816a916871ca8d3c208c16d87cfd4780151561222e57fe5b8b8b0990508082141561226c57828414156122595761224e8d8d8d611c81565b9650965096506122b2565b612261612363565b9650965096506122b2565b6122a57f30644e72e131a029b85045b68181585d97816a916871ca8d3c208c16d87cfd4780151561229957fe5b898d0983838688612381565b8097508198508299505050505b5050505096509650969350505050565b60008060006122d084612737565b90507f30644e72e131a029b85045b68181585d97816a916871ca8d3c208c16d87cfd478015156122fc57fe5b81870992507f30644e72e131a029b85045b68181585d97816a916871ca8d3c208c16d87cfd4780151561232b57fe5b818609915050935093915050565b6000808314801561234a5750600082145b15612358576001905061235d565b600090505b92915050565b60008060008060006001829250819150809050925092509250909192565b6000806000806000806000807f30644e72e131a029b85045b68181585d97816a916871ca8d3c208c16d87cfd478015156123b757fe5b8a7f30644e72e131a029b85045b68181585d97816a916871ca8d3c208c16d87cfd47038a0890507f30644e72e131a029b85045b68181585d97816a916871ca8d3c208c16d87cfd4780151561240857fe5b8b7f30644e72e131a029b85045b68181585d97816a916871ca8d3c208c16d87cfd47038d0894507f30644e72e131a029b85045b68181585d97816a916871ca8d3c208c16d87cfd4780151561245957fe5b85860993507f30644e72e131a029b85045b68181585d97816a916871ca8d3c208c16d87cfd4780151561248857fe5b81820991507f30644e72e131a029b85045b68181585d97816a916871ca8d3c208c16d87cfd478015156124b757fe5b8d830991507f30644e72e131a029b85045b68181585d97816a916871ca8d3c208c16d87cfd478015156124e657fe5b8c8c089a507f30644e72e131a029b85045b68181585d97816a916871ca8d3c208c16d87cfd4780151561251557fe5b848c099a507f30644e72e131a029b85045b68181585d97816a916871ca8d3c208c16d87cfd4780151561254457fe5b8b7f30644e72e131a029b85045b68181585d97816a916871ca8d3c208c16d87cfd4703830891507f30644e72e131a029b85045b68181585d97816a916871ca8d3c208c16d87cfd4780151561259557fe5b82860997507f30644e72e131a029b85045b68181585d97816a916871ca8d3c208c16d87cfd478015156125c457fe5b85850992507f30644e72e131a029b85045b68181585d97816a916871ca8d3c208c16d87cfd478015156125f357fe5b848d099b507f30644e72e131a029b85045b68181585d97816a916871ca8d3c208c16d87cfd4780151561262257fe5b827f30644e72e131a029b85045b68181585d97816a916871ca8d3c208c16d87cfd47038d089b507f30644e72e131a029b85045b68181585d97816a916871ca8d3c208c16d87cfd4780151561267357fe5b8c820990507f30644e72e131a029b85045b68181585d97816a916871ca8d3c208c16d87cfd478015156126a257fe5b838a0998507f30644e72e131a029b85045b68181585d97816a916871ca8d3c208c16d87cfd478015156126d157fe5b897f30644e72e131a029b85045b68181585d97816a916871ca8d3c208c16d87cfd4703820896507f30644e72e131a029b85045b68181585d97816a916871ca8d3c208c16d87cfd4780151561272257fe5b8d840995505050505050955095509592505050565b60008060008060008060009450600193507f30644e72e131a029b85045b68181585d97816a916871ca8d3c208c16d87cfd4792508691505b60008214151561281e57818381151561278457fe5b049050837f30644e72e131a029b85045b68181585d97816a916871ca8d3c208c16d87cfd478015156127b257fe5b7f30644e72e131a029b85045b68181585d97816a916871ca8d3c208c16d87cfd478015156127dc57fe5b8684097f30644e72e131a029b85045b68181585d97816a916871ca8d3c208c16d87cfd470387088095508196505050818282028403809350819450505061276f565b8495505050505050919050565b826002810192821561285a579160200282015b8281111561285957825182559160200191906001019061283e565b5b5090506128679190612921565b5090565b604080519081016040528060008152602001600081525090565b6040805190810160405280600290602082028038833980820191505090505090565b604080519081016040528060008152602001600081525090565b604080519081016040528060008152602001600081525090565b606060405190810160405280600390602082028038833980820191505090505090565b608060405190810160405280600490602082028038833980820191505090505090565b61294391905b8082111561293f576000816000905550600101612927565b5090565b905600a165627a7a723058202f7e64db677774a04f8bb204d021ca256bfef4df79703970085b72d5c108eb910029",
  "source": "// This file is MIT Licensed.\n//\n// Copyright 2020 xu yunkai\n\npragma solidity >=0.4.2;\n\n// import \"./nizk/LibNIZK.sol\";\n// import \"./nizk/LibNizkParam.sol\";\nimport \"./nizk/LibNizk.sol\";\nimport \"./dtbe/LibDTBE.sol\";\nimport \"./utillib/Pairing.sol\";\n\ncontract test{\n    // using LibNIZK for *;\n    // using LibNizkParam for *;\n    using Schnorr for *;\n    using LibDTBE for *;\n    using Pairing for *;\n\n    // string public nizk_pp;\n    // LibNizkParam.NizkParam param;\n\n    uint256[2] pk;\n    uint256 s;\n    uint256 e;\n\n    LibDTBE.PK public epk;\n    LibDTBE.SK[3] public esk;\n    LibDTBE.SVK[3] public esvk;\n    Pairing.G1Point[] public c_dtbe;\n\n    // function nizk_setup() public returns(string memory) {\n    //     nizk_pp = LibNIZK.nizk_setup();\n    //     return nizk_pp;\n    // }\n\n    // function nizk_add() public {\n    //     LibNizkParam.reset(param);\n    //     param.nizkpp = 'nizk_pp';\n    //     LibNIZK.nizk_apubcipheradd(param);\n    // }\n\n    // function nizk_sub() public {\n    //     LibNizkParam.reset(param);\n    //     param.nizkpp = 'nizk_pp';\n    //     LibNIZK.nizk_apubciphersub(param);\n    // }\n\n    function nizk_prove() public {\n        (pk, s, e) = Schnorr.CreateProof(12345, 12345);\n    }\n\n    function nizk_verify() public returns(bool) {\n        return Schnorr.VerifyProof(pk, 12345, s, e);\n    }\n\n    function dtbe_keygen() public {\n        // LibDTBE.SK[] memory sk;\n        // LibDTBE.SVK[] memory svk;\n        // LibDTBE.KeyGen(3);\n        // for (uint i = 0;i < 3;i++){\n        //     esk[i] = sk[i];\n        // }\n        // for (i = 0;i < 3;i++){\n        //     esvk[i] = svk[i];\n        // }\n    }\n\n    function dtbe_encrypt() public {\n        Pairing.G1Point memory M;\n\n        LibDTBE.encrypt(epk, 123456, M);\n    }\n}",
  "sourcePath": "/home/ubuntu/ethereum/AttriChain/contracts/test.sol",
  "compiler": {
    "name": "solc",
    "version": "0.4.23+commit.124ca40d.Emscripten.clang"
  },
  "schemaVersion": "2.0.0",
  "updatedAt": "2020-07-13T13:51:39.323Z"
}