{
  "contractName": "test",
  "abi": [
    {
      "constant": true,
      "inputs": [
        {
          "name": "",
          "type": "uint256"
        }
      ],
      "name": "esk",
      "outputs": [
        {
          "name": "ui",
          "type": "uint256"
        },
        {
          "name": "vi",
          "type": "uint256"
        }
      ],
      "payable": false,
      "stateMutability": "view",
      "type": "function"
    },
    {
      "constant": true,
      "inputs": [
        {
          "name": "",
          "type": "uint256"
        }
      ],
      "name": "esvk",
      "outputs": [
        {
          "components": [
            {
              "name": "X",
              "type": "uint256[2]"
            },
            {
              "name": "Y",
              "type": "uint256[2]"
            }
          ],
          "name": "Ui",
          "type": "tuple"
        },
        {
          "components": [
            {
              "name": "X",
              "type": "uint256[2]"
            },
            {
              "name": "Y",
              "type": "uint256[2]"
            }
          ],
          "name": "Vi",
          "type": "tuple"
        }
      ],
      "payable": false,
      "stateMutability": "view",
      "type": "function"
    },
    {
      "constant": true,
      "inputs": [
        {
          "name": "",
          "type": "uint256"
        }
      ],
      "name": "V",
      "outputs": [
        {
          "components": [
            {
              "name": "X",
              "type": "uint256"
            },
            {
              "name": "Y",
              "type": "uint256"
            }
          ],
          "name": "Ci1",
          "type": "tuple"
        },
        {
          "components": [
            {
              "name": "X",
              "type": "uint256"
            },
            {
              "name": "Y",
              "type": "uint256"
            }
          ],
          "name": "Ci2",
          "type": "tuple"
        }
      ],
      "payable": false,
      "stateMutability": "view",
      "type": "function"
    },
    {
      "constant": true,
      "inputs": [
        {
          "name": "",
          "type": "uint256"
        }
      ],
      "name": "c_dtbe",
      "outputs": [
        {
          "name": "X",
          "type": "uint256"
        },
        {
          "name": "Y",
          "type": "uint256"
        }
      ],
      "payable": false,
      "stateMutability": "view",
      "type": "function"
    },
    {
      "constant": true,
      "inputs": [],
      "name": "epk",
      "outputs": [
        {
          "components": [
            {
              "name": "_p",
              "type": "uint256"
            },
            {
              "components": [
                {
                  "name": "X",
                  "type": "uint256"
                },
                {
                  "name": "Y",
                  "type": "uint256"
                }
              ],
              "name": "G",
              "type": "tuple"
            },
            {
              "components": [
                {
                  "name": "X",
                  "type": "uint256[2]"
                },
                {
                  "name": "Y",
                  "type": "uint256[2]"
                }
              ],
              "name": "_G",
              "type": "tuple"
            },
            {
              "name": "_ECG1",
              "type": "string"
            },
            {
              "name": "_ECG2",
              "type": "string"
            },
            {
              "name": "_pairing",
              "type": "string"
            }
          ],
          "name": "P",
          "type": "tuple"
        },
        {
          "components": [
            {
              "name": "X",
              "type": "uint256"
            },
            {
              "name": "Y",
              "type": "uint256"
            }
          ],
          "name": "H",
          "type": "tuple"
        },
        {
          "components": [
            {
              "name": "X",
              "type": "uint256[2]"
            },
            {
              "name": "Y",
              "type": "uint256[2]"
            }
          ],
          "name": "_H",
          "type": "tuple"
        },
        {
          "components": [
            {
              "name": "X",
              "type": "uint256"
            },
            {
              "name": "Y",
              "type": "uint256"
            }
          ],
          "name": "U",
          "type": "tuple"
        },
        {
          "components": [
            {
              "name": "X",
              "type": "uint256[2]"
            },
            {
              "name": "Y",
              "type": "uint256[2]"
            }
          ],
          "name": "_U",
          "type": "tuple"
        },
        {
          "components": [
            {
              "name": "X",
              "type": "uint256"
            },
            {
              "name": "Y",
              "type": "uint256"
            }
          ],
          "name": "V",
          "type": "tuple"
        },
        {
          "components": [
            {
              "name": "X",
              "type": "uint256[2]"
            },
            {
              "name": "Y",
              "type": "uint256[2]"
            }
          ],
          "name": "_V",
          "type": "tuple"
        },
        {
          "components": [
            {
              "name": "X",
              "type": "uint256"
            },
            {
              "name": "Y",
              "type": "uint256"
            }
          ],
          "name": "W",
          "type": "tuple"
        },
        {
          "components": [
            {
              "name": "X",
              "type": "uint256[2]"
            },
            {
              "name": "Y",
              "type": "uint256[2]"
            }
          ],
          "name": "_W",
          "type": "tuple"
        },
        {
          "components": [
            {
              "name": "X",
              "type": "uint256"
            },
            {
              "name": "Y",
              "type": "uint256"
            }
          ],
          "name": "Z",
          "type": "tuple"
        },
        {
          "components": [
            {
              "name": "X",
              "type": "uint256[2]"
            },
            {
              "name": "Y",
              "type": "uint256[2]"
            }
          ],
          "name": "_Z",
          "type": "tuple"
        }
      ],
      "payable": false,
      "stateMutability": "view",
      "type": "function"
    },
    {
      "inputs": [],
      "payable": false,
      "stateMutability": "nonpayable",
      "type": "constructor"
    },
    {
      "constant": false,
      "inputs": [],
      "name": "nizk_prove",
      "outputs": [],
      "payable": false,
      "stateMutability": "nonpayable",
      "type": "function"
    },
    {
      "constant": false,
      "inputs": [],
      "name": "nizk_verify",
      "outputs": [
        {
          "name": "",
          "type": "bool"
        }
      ],
      "payable": false,
      "stateMutability": "nonpayable",
      "type": "function"
    },
    {
      "constant": false,
      "inputs": [],
      "name": "dtbe_keygen",
      "outputs": [],
      "payable": false,
      "stateMutability": "nonpayable",
      "type": "function"
    },
    {
      "constant": false,
      "inputs": [],
      "name": "dtbe_encrypt",
      "outputs": [],
      "payable": false,
      "stateMutability": "nonpayable",
      "type": "function"
    },
    {
      "constant": false,
      "inputs": [
        {
          "name": "i",
          "type": "uint256"
        }
      ],
      "name": "dtbe_shareVerify",
      "outputs": [
        {
          "name": "",
          "type": "bool"
        }
      ],
      "payable": false,
      "stateMutability": "nonpayable",
      "type": "function"
    },
    {
      "constant": false,
      "inputs": [
        {
          "name": "i",
          "type": "uint256"
        }
      ],
      "name": "dtbe_shareDec",
      "outputs": [],
      "payable": false,
      "stateMutability": "nonpayable",
      "type": "function"
    },
    {
      "constant": false,
      "inputs": [],
      "name": "dtbe_combine",
      "outputs": [],
      "payable": false,
      "stateMutability": "nonpayable",
      "type": "function"
    }
  ],
  "bytecode": "0x608060405234801561001057600080fd5b506113a4806100206000396000f3006080604052600436106100ba576000357c0100000000000000000000000000000000000000000000000000000000900463ffffffff1680631ee2dd5b146100bf578063208c903b146100d657806323a4c22e146101055780634bc383681461014d578063749c00651461019557806376cf132b146101ac5780639b3a6da2146101f4578063a86122e514610239578063ab989f5514610281578063c025b902146102f2578063e3c895a114610309578063e6963c2e14610320575b600080fd5b3480156100cb57600080fd5b506100d461034d565b005b3480156100e257600080fd5b506100eb61034f565b604051808215151515815260200191505060405180910390f35b34801561011157600080fd5b50610130600480360381019080803590602001909291905050506103a5565b604051808381526020018281526020019250505060405180910390f35b34801561015957600080fd5b50610178600480360381019080803590602001909291905050506103d8565b604051808381526020018281526020019250505060405180910390f35b3480156101a157600080fd5b506101aa610533565b005b3480156101b857600080fd5b506101d760048036038101908080359060200190929190505050610535565b604051808381526020018281526020019250505060405180910390f35b34801561020057600080fd5b5061021f600480360381019080803590602001909291905050506105a4565b604051808215151515815260200191505060405180910390f35b34801561024557600080fd5b50610264600480360381019080803590602001909291905050506105ab565b604051808381526020018281526020019250505060405180910390f35b34801561028d57600080fd5b506102966105de565b604051808c81526020018b81526020018a81526020018981526020018881526020018781526020018681526020018581526020018481526020018381526020018281526020019b50505050505050505050505060405180910390f35b3480156102fe57600080fd5b50610307610c61565b005b34801561031557600080fd5b5061031e610c9a565b005b34801561032c57600080fd5b5061034b60048036038101908080359060200190929190505050610ca5565b005b565b60006103a0600060028060200260405190810160405280929190826002801561038d576020028201915b815481526020019060010190808311610379575b5050505050613039600254600354610ca8565b905090565b602c818154811015156103b457fe5b90600052602060002090600202016000915090508060000154908060010154905082565b602d818154811015156103e757fe5b90600052602060002090600802016000915090508060000160408051908101604052908160008201600280602002604051908101604052809291908260028015610446576020028201915b815481526020019060010190808311610432575b505050505081526020016002820160028060200260405190810160405280929190826002801561048b576020028201915b815481526020019060010190808311610477575b5050505050815250509080600401604080519081016040529081600082016002806020026040519081016040528092919082600280156104e0576020028201915b8154815260200190600101908083116104cc575b5050505050815260200160028201600280602002604051908101604052809291908260028015610525576020028201915b815481526020019060010190808311610511575b505050505081525050905082565b565b602f8181548110151561054457fe5b90600052602060002090600402016000915090508060000160408051908101604052908160008201548152602001600182015481525050908060020160408051908101604052908160008201548152602001600182015481525050905082565b6000919050565b602e818154811015156105ba57fe5b90600052602060002090600202016000915090508060000154908060010154905082565b60048060000160c060405190810160405290816000820154815260200160018201604080519081016040529081600082015481526020016001820154815250508152602001600382016040805190810160405290816000820160028060200260405190810160405280929190826002801561066e576020028201915b81548152602001906001019080831161065a575b50505050508152602001600282016002806020026040519081016040528092919082600280156106b3576020028201915b81548152602001906001019080831161069f575b5050505050815250508152602001600782018054600181600116156101000203166002900480601f0160208091040260200160405190810160405280929190818152602001828054600181600116156101000203166002900480156107595780601f1061072e57610100808354040283529160200191610759565b820191906000526020600020905b81548152906001019060200180831161073c57829003601f168201915b50505050508152602001600882018054600181600116156101000203166002900480601f0160208091040260200160405190810160405280929190818152602001828054600181600116156101000203166002900480156107fb5780601f106107d0576101008083540402835291602001916107fb565b820191906000526020600020905b8154815290600101906020018083116107de57829003601f168201915b50505050508152602001600982018054600181600116156101000203166002900480601f01602080910402602001604051908101604052809291908181526020018280546001816001161561010002031660029004801561089d5780601f106108725761010080835404028352916020019161089d565b820191906000526020600020905b81548152906001019060200180831161088057829003601f168201915b5050505050815250509080600a01604080519081016040529081600082015481526020016001820154815250509080600c0160408051908101604052908160008201600280602002604051908101604052809291908260028015610916576020028201915b815481526020019060010190808311610902575b505050505081526020016002820160028060200260405190810160405280929190826002801561095b576020028201915b815481526020019060010190808311610947575b5050505050815250509080601001604080519081016040529081600082015481526020016001820154815250509080601201604080519081016040529081600082016002806020026040519081016040528092919082600280156109d4576020028201915b8154815260200190600101908083116109c0575b5050505050815260200160028201600280602002604051908101604052809291908260028015610a19576020028201915b815481526020019060010190808311610a05575b505050505081525050908060160160408051908101604052908160008201548152602001600182015481525050908060180160408051908101604052908160008201600280602002604051908101604052809291908260028015610a92576020028201915b815481526020019060010190808311610a7e575b5050505050815260200160028201600280602002604051908101604052809291908260028015610ad7576020028201915b815481526020019060010190808311610ac3575b5050505050815250509080601c01604080519081016040529081600082015481526020016001820154815250509080601e0160408051908101604052908160008201600280602002604051908101604052809291908260028015610b50576020028201915b815481526020019060010190808311610b3c575b5050505050815260200160028201600280602002604051908101604052809291908260028015610b95576020028201915b815481526020019060010190808311610b81575b505050505081525050908060220160408051908101604052908160008201548152602001600182015481525050908060240160408051908101604052908160008201600280602002604051908101604052809291908260028015610c0e576020028201915b815481526020019060010190808311610bfa575b5050505050815260200160028201600280602002604051908101604052809291908260028015610c53576020028201915b815481526020019060010190808311610c3f575b50505050508152505090508b565b610c6d61303980610cc2565b60008060026000600360008691905055859190505584919050906002610c94929190611277565b50505050565b610ca26112b7565b50565b50565b6000610cb685858585610ef2565b82149050949350505050565b610cca6112d1565b600080610cd56112f3565b6000610cdf6112f3565b610d02610cea611064565b610cf2611088565b8a811515610cfc57fe5b066110b0565b92508260000151866000600281101515610d1857fe5b6020020181815250508260200151866001600281101515610d3557fe5b602002018181525050610d46611088565b878960405160200180838152602001828152602001925050506040516020818303038152906040526040518082805190602001908083835b602083101515610da35780518252602082019150602081019050602083039250610d7e565b6001836020036101000a038019825116818451168082178552505050505050905001915050604051809103902060019004811515610ddd57fe5b069150610df1610deb611064565b836110b0565b9050856000600281101515610e0257fe5b6020020151866001600281101515610e1657fe5b6020020151826000015183602001518a60405160200180868152602001858152602001848152602001838152602001828152602001955050505050506040516020818303038152906040526040518082805190602001908083835b602083101515610e965780518252602082019150602081019050602083039250610e71565b6001836020036101000a0380198251168184511680821785525050505050509050019150506040518091039020600190049350610ee682610ed5611088565b801515610ede57fe5b868b0961114a565b94505050509250925092565b6000610efc6112f3565b610f046112f3565b610f0c6112f3565b610f2f610f17611064565b610f1f611088565b88811515610f2957fe5b066110b0565b92506040805190810160405280896000600281101515610f4b57fe5b60200201518152602001896001600281101515610f6457fe5b60200201518152509150610f8183610f7c84886110b0565b6111bc565b9050876000600281101515610f9257fe5b6020020151886001600281101515610fa657fe5b6020020151826000015183602001518a60405160200180868152602001858152602001848152602001838152602001828152602001955050505050506040516020818303038152906040526040518082805190602001908083835b6020831015156110265780518252602082019150602081019050602083039250611001565b6001836020036101000a0380198251168184511680821785525050505050509050019150506040518091039020600190049350505050949350505050565b61106c6112f3565b6040805190810160405280600181526020016002815250905090565b60007f30644e72e131a029b85045b68181585d2833e84879b9709143e1f593f0000001905090565b6110b86112f3565b6110c061130d565b600084600001518260006003811015156110d657fe5b60200201818152505084602001518260016003811015156110f357fe5b6020020181815250508382600260038110151561110c57fe5b60200201818152505060608360808460076107d05a03fa9050806000811461113357611135565bfe5b5080151561114257600080fd5b505092915050565b6000808284111561115d57839050611183565b7f30644e72e131a029b85045b68181585d2833e84879b9709143e1f593f0000001840190505b7f30644e72e131a029b85045b68181585d2833e84879b9709143e1f593f00000018015156111ad57fe5b60008483030891505092915050565b6111c46112f3565b6111cc611330565b600084600001518260006004811015156111e257fe5b60200201818152505084602001518260016004811015156111ff57fe5b602002018181525050836000015182600260048110151561121c57fe5b602002018181525050836020015182600360048110151561123957fe5b60200201818152505060608360c08460066107d05a03fa9050806000811461126057611262565bfe5b5080151561126f57600080fd5b505092915050565b82600281019282156112a6579160200282015b828111156112a557825182559160200191906001019061128a565b5b5090506112b39190611353565b5090565b604080519081016040528060008152602001600081525090565b6040805190810160405280600290602082028038833980820191505090505090565b604080519081016040528060008152602001600081525090565b606060405190810160405280600390602082028038833980820191505090505090565b608060405190810160405280600490602082028038833980820191505090505090565b61137591905b80821115611371576000816000905550600101611359565b5090565b905600a165627a7a72305820c24ee0963a896c1606934f1dbcfb93305752cf2d7f309d56044847a85af740d50029",
  "source": "// This file is MIT Licensed.\n//\n// Copyright 2020 xu yunkai\n\npragma solidity >=0.4.2;\n\nimport \"./nizk/LibNizk.sol\";\nimport \"./dtbe/LibDTBE.sol\";\nimport \"./utillib/Pairing.sol\";\n\ncontract test{\n    using Schnorr for *;\n    using LibDTBE for *;\n    using Pairing for *;\n\n    uint256[2] pk;\n    uint256 s;\n    uint256 e;\n\n    LibDTBE.PK public epk;\n    LibDTBE.SK[] public esk;\n    LibDTBE.SVK[] public esvk;\n    Pairing.G1Point[] public c_dtbe;\n    LibDTBE.CLUE[] public V;\n\n    constructor() public{\n\n    }\n\n    function nizk_prove() public {\n        (pk, s, e) = Schnorr.CreateProof(12345, 12345);\n    }\n\n    function nizk_verify() public returns(bool) {\n        return Schnorr.VerifyProof(pk, 12345, s, e);\n    }\n\n    function dtbe_keygen() public {\n        // (epk, esk, esvk) = LibDTBE.KeyGen(3);\n    }\n\n    function dtbe_encrypt() public {\n        Pairing.G1Point memory M;\n        // c_dtbe = LibDTBE.encrypt(epk, 123456, M);\n    }\n\n    function dtbe_shareVerify(uint i) public returns(bool) {\n        // return LibDTBE.shareVerify(epk, esvk[i], 123456, c_dtbe, V[0]);\n    }\n\n    function dtbe_shareDec(uint i) public {\n        // V[i] = LibDTBE.shareDec(epk, esk[i], 123456, c_dtbe);\n    }\n\n    function dtbe_combine() public {\n        // LibDTBE.combine(epk, esvk, V, c_dtbe, 123456);\n    }\n}",
  "sourcePath": "/home/ubuntu/ethereum/AttriChain/contracts/test.sol",
  "compiler": {
    "name": "solc",
    "version": "0.4.23+commit.124ca40d.Emscripten.clang"
  },
  "schemaVersion": "2.0.0",
  "updatedAt": "2020-07-14T09:01:21.233Z"
}