{
  "contractName": "test_dtbe_main",
  "abi": [
    {
      "constant": true,
      "inputs": [
        {
          "name": "",
          "type": "uint256"
        }
      ],
      "name": "esk",
      "outputs": [
        {
          "name": "ui",
          "type": "uint256"
        },
        {
          "name": "vi",
          "type": "uint256"
        }
      ],
      "payable": false,
      "stateMutability": "view",
      "type": "function"
    },
    {
      "constant": true,
      "inputs": [
        {
          "name": "",
          "type": "uint256"
        }
      ],
      "name": "esvk",
      "outputs": [
        {
          "components": [
            {
              "name": "X",
              "type": "uint256[2]"
            },
            {
              "name": "Y",
              "type": "uint256[2]"
            }
          ],
          "name": "Ui",
          "type": "tuple"
        },
        {
          "components": [
            {
              "name": "X",
              "type": "uint256[2]"
            },
            {
              "name": "Y",
              "type": "uint256[2]"
            }
          ],
          "name": "Vi",
          "type": "tuple"
        }
      ],
      "payable": false,
      "stateMutability": "view",
      "type": "function"
    },
    {
      "constant": true,
      "inputs": [
        {
          "name": "",
          "type": "uint256"
        }
      ],
      "name": "V",
      "outputs": [
        {
          "components": [
            {
              "name": "X",
              "type": "uint256"
            },
            {
              "name": "Y",
              "type": "uint256"
            }
          ],
          "name": "Ci1",
          "type": "tuple"
        },
        {
          "components": [
            {
              "name": "X",
              "type": "uint256"
            },
            {
              "name": "Y",
              "type": "uint256"
            }
          ],
          "name": "Ci2",
          "type": "tuple"
        }
      ],
      "payable": false,
      "stateMutability": "view",
      "type": "function"
    },
    {
      "constant": true,
      "inputs": [
        {
          "name": "",
          "type": "uint256"
        }
      ],
      "name": "c_dtbe",
      "outputs": [
        {
          "name": "X",
          "type": "uint256"
        },
        {
          "name": "Y",
          "type": "uint256"
        }
      ],
      "payable": false,
      "stateMutability": "view",
      "type": "function"
    },
    {
      "constant": true,
      "inputs": [],
      "name": "epk",
      "outputs": [
        {
          "components": [
            {
              "name": "_p",
              "type": "uint256"
            },
            {
              "components": [
                {
                  "name": "X",
                  "type": "uint256"
                },
                {
                  "name": "Y",
                  "type": "uint256"
                }
              ],
              "name": "G",
              "type": "tuple"
            },
            {
              "components": [
                {
                  "name": "X",
                  "type": "uint256[2]"
                },
                {
                  "name": "Y",
                  "type": "uint256[2]"
                }
              ],
              "name": "_G",
              "type": "tuple"
            },
            {
              "name": "_ECG1",
              "type": "string"
            },
            {
              "name": "_ECG2",
              "type": "string"
            },
            {
              "name": "_pairing",
              "type": "string"
            }
          ],
          "name": "P",
          "type": "tuple"
        },
        {
          "components": [
            {
              "name": "X",
              "type": "uint256"
            },
            {
              "name": "Y",
              "type": "uint256"
            }
          ],
          "name": "H",
          "type": "tuple"
        },
        {
          "components": [
            {
              "name": "X",
              "type": "uint256[2]"
            },
            {
              "name": "Y",
              "type": "uint256[2]"
            }
          ],
          "name": "_H",
          "type": "tuple"
        },
        {
          "components": [
            {
              "name": "X",
              "type": "uint256"
            },
            {
              "name": "Y",
              "type": "uint256"
            }
          ],
          "name": "U",
          "type": "tuple"
        },
        {
          "components": [
            {
              "name": "X",
              "type": "uint256[2]"
            },
            {
              "name": "Y",
              "type": "uint256[2]"
            }
          ],
          "name": "_U",
          "type": "tuple"
        },
        {
          "components": [
            {
              "name": "X",
              "type": "uint256"
            },
            {
              "name": "Y",
              "type": "uint256"
            }
          ],
          "name": "V",
          "type": "tuple"
        },
        {
          "components": [
            {
              "name": "X",
              "type": "uint256[2]"
            },
            {
              "name": "Y",
              "type": "uint256[2]"
            }
          ],
          "name": "_V",
          "type": "tuple"
        },
        {
          "components": [
            {
              "name": "X",
              "type": "uint256"
            },
            {
              "name": "Y",
              "type": "uint256"
            }
          ],
          "name": "W",
          "type": "tuple"
        },
        {
          "components": [
            {
              "name": "X",
              "type": "uint256[2]"
            },
            {
              "name": "Y",
              "type": "uint256[2]"
            }
          ],
          "name": "_W",
          "type": "tuple"
        },
        {
          "components": [
            {
              "name": "X",
              "type": "uint256"
            },
            {
              "name": "Y",
              "type": "uint256"
            }
          ],
          "name": "Z",
          "type": "tuple"
        },
        {
          "components": [
            {
              "name": "X",
              "type": "uint256[2]"
            },
            {
              "name": "Y",
              "type": "uint256[2]"
            }
          ],
          "name": "_Z",
          "type": "tuple"
        }
      ],
      "payable": false,
      "stateMutability": "view",
      "type": "function"
    },
    {
      "constant": false,
      "inputs": [
        {
          "name": "i",
          "type": "uint256"
        }
      ],
      "name": "dtbe_shareDec",
      "outputs": [],
      "payable": false,
      "stateMutability": "nonpayable",
      "type": "function"
    },
    {
      "constant": false,
      "inputs": [],
      "name": "dtbe_combine",
      "outputs": [],
      "payable": false,
      "stateMutability": "nonpayable",
      "type": "function"
    },
    {
      "constant": false,
      "inputs": [
        {
          "name": "addr",
          "type": "uint256"
        }
      ],
      "name": "setData",
      "outputs": [],
      "payable": false,
      "stateMutability": "nonpayable",
      "type": "function"
    }
  ],
  "bytecode": "0x608060405234801561001057600080fd5b50613a7e806100206000396000f30060806040526004361061008e576000357c0100000000000000000000000000000000000000000000000000000000900463ffffffff1680631ee2dd5b1461009357806323a4c22e146100aa5780634bc38368146100f25780635b4b73a91461013a57806376cf132b14610167578063a86122e5146101af578063ab989f55146101f7578063e6963c2e14610268575b600080fd5b34801561009f57600080fd5b506100a8610295565b005b3480156100b657600080fd5b506100d560048036038101908080359060200190929190505050610495565b604051808381526020018281526020019250505060405180910390f35b3480156100fe57600080fd5b5061011d600480360381019080803590602001909291905050506104c8565b604051808381526020018281526020019250505060405180910390f35b34801561014657600080fd5b5061016560048036038101908080359060200190929190505050610623565b005b34801561017357600080fd5b5061019260048036038101908080359060200190929190505050611fe8565b604051808381526020018281526020019250505060405180910390f35b3480156101bb57600080fd5b506101da60048036038101908080359060200190929190505050612057565b604051808381526020018281526020019250505060405180910390f35b34801561020357600080fd5b5061020c61208a565b604051808c81526020018b81526020018a81526020018981526020018881526020018781526020018681526020018581526020018481526020018381526020018281526020019b50505050505050505050505060405180910390f35b34801561027457600080fd5b506102936004803603810190808035906020019092919050505061270d565b005b6000806102a0613822565b602980549050925060009150610334602b60008154811015156102bf57fe5b906000526020600020906004020160000160408051908101604052908160008201548152602001600182015481525050602b60008154811015156102ff57fe5b9060005260206000209060040201600201604080519081016040529081600082015481526020016001820154815250506128fe565b604080519081016040529081600082015481526020016001820154815250509050600191505b8282101561043e57610410816103ec602b8581548110151561037857fe5b906000526020600020906004020160000160408051908101604052908160008201548152602001600182015481525050602b868154811015156103b757fe5b9060005260206000209060040201600201604080519081016040529081600082015481526020016001820154815250506128fe565b604080519081016040529081600082015481526020016001820154815250506128fe565b604080519081016040529081600082015481526020016001820154815250509050818060010192505061035a565b61044781612946565b905061048f81602a600281548110151561045d57fe5b9060005260206000209060020201604080519081016040529081600082015481526020016001820154815250506128fe565b50505050565b6028818154811015156104a457fe5b90600052602060002090600202016000915090508060000154908060010154905082565b6029818154811015156104d757fe5b90600052602060002090600802016000915090508060000160408051908101604052908160008201600280602002604051908101604052809291908260028015610536576020028201915b815481526020019060010190808311610522575b505050505081526020016002820160028060200260405190810160405280929190826002801561057b576020028201915b815481526020019060010190808311610567575b5050505050815250509080600401604080519081016040529081600082016002806020026040519081016040528092919082600280156105d0576020028201915b8154815260200190600101908083116105bc575b5050505050815260200160028201600280602002604051908101604052809291908260028015610615576020028201915b815481526020019060010190808311610601575b505050505081525050905082565b600061062d61383c565b60008060008594508473ffffffffffffffffffffffffffffffffffffffff166330d6a4d06040518163ffffffff167c0100000000000000000000000000000000000000000000000000000000028152600401608060405180830381600087803b15801561069957600080fd5b505af11580156106ad573d6000803e3d6000fd5b505050506040513d60808110156106c357600080fd5b8101908080519060200190929190805190602001909291908051906020019092919080519060200190929190505050876000601e8110151561070157fe5b60200201886001601e8110151561071457fe5b60200201896002601e8110151561072757fe5b602002018a6003601e8110151561073a57fe5b6020020184815250848152508481525084815250505050508473ffffffffffffffffffffffffffffffffffffffff16637ca29fc16040518163ffffffff167c0100000000000000000000000000000000000000000000000000000000028152600401608060405180830381600087803b1580156107b657600080fd5b505af11580156107ca573d6000803e3d6000fd5b505050506040513d60808110156107e057600080fd5b8101908080519060200190929190805190602001909291908051906020019092919080519060200190929190505050876004601e8110151561081e57fe5b60200201886005601e8110151561083157fe5b60200201896006601e8110151561084457fe5b602002018a6007601e8110151561085757fe5b6020020184815250848152508481525084815250505050508473ffffffffffffffffffffffffffffffffffffffff16635e5fd77a6040518163ffffffff167c0100000000000000000000000000000000000000000000000000000000028152600401608060405180830381600087803b1580156108d357600080fd5b505af11580156108e7573d6000803e3d6000fd5b505050506040513d60808110156108fd57600080fd5b8101908080519060200190929190805190602001909291908051906020019092919080519060200190929190505050876008601e8110151561093b57fe5b60200201886009601e8110151561094e57fe5b6020020189600a601e8110151561096157fe5b602002018a600b601e8110151561097457fe5b6020020184815250848152508481525084815250505050508473ffffffffffffffffffffffffffffffffffffffff1663aa64f1d36040518163ffffffff167c0100000000000000000000000000000000000000000000000000000000028152600401608060405180830381600087803b1580156109f057600080fd5b505af1158015610a04573d6000803e3d6000fd5b505050506040513d6080811015610a1a57600080fd5b810190808051906020019092919080519060200190929190805190602001909291908051906020019092919050505087600c601e81101515610a5857fe5b6020020188600d601e81101515610a6b57fe5b6020020189600e601e81101515610a7e57fe5b602002018a600f601e81101515610a9157fe5b6020020184815250848152508481525084815250505050508473ffffffffffffffffffffffffffffffffffffffff1663c9d7b7316040518163ffffffff167c0100000000000000000000000000000000000000000000000000000000028152600401608060405180830381600087803b158015610b0d57600080fd5b505af1158015610b21573d6000803e3d6000fd5b505050506040513d6080811015610b3757600080fd5b8101908080519060200190929190805190602001909291908051906020019092919080519060200190929190505050876010601e81101515610b7557fe5b60200201886011601e81101515610b8857fe5b60200201896012601e81101515610b9b57fe5b602002018a6013601e81101515610bae57fe5b6020020184815250848152508481525084815250505050508473ffffffffffffffffffffffffffffffffffffffff1662a82dd06040518163ffffffff167c0100000000000000000000000000000000000000000000000000000000028152600401608060405180830381600087803b158015610c2957600080fd5b505af1158015610c3d573d6000803e3d6000fd5b505050506040513d6080811015610c5357600080fd5b8101908080519060200190929190805190602001909291908051906020019092919080519060200190929190505050876014601e81101515610c9157fe5b60200201886015601e81101515610ca457fe5b60200201896016601e81101515610cb757fe5b602002018a6017601e81101515610cca57fe5b6020020184815250848152508481525084815250505050508473ffffffffffffffffffffffffffffffffffffffff16639184a6896040518163ffffffff167c0100000000000000000000000000000000000000000000000000000000028152600401608060405180830381600087803b158015610d4657600080fd5b505af1158015610d5a573d6000803e3d6000fd5b505050506040513d6080811015610d7057600080fd5b8101908080519060200190929190805190602001909291908051906020019092919080519060200190929190505050876018601e81101515610dae57fe5b60200201886019601e81101515610dc157fe5b6020020189601a601e81101515610dd457fe5b602002018a601b601e81101515610de757fe5b6020020184815250848152508481525084815250505050508473ffffffffffffffffffffffffffffffffffffffff1663e48c8e316040518163ffffffff167c01000000000000000000000000000000000000000000000000000000000281526004016040805180830381600087803b158015610e6257600080fd5b505af1158015610e76573d6000803e3d6000fd5b505050506040513d6040811015610e8c57600080fd5b81019080805190602001909291908051906020019092919050505085601c601e81101515610eb657fe5b6020020186601d601e81101515610ec957fe5b60200201828152508281525050507f30644e72e131a029b85045b68181585d97816a916871ca8d3c208c16d87cfd478360000181905550610f086129e1565b83600301600082015181600001906002610f23929190613860565b50602082015181600201906002610f3b929190613860565b509050506040805190810160405280600981526020017f45436f70732e736f6c0000000000000000000000000000000000000000000000815250836007019080519060200190610f8c9291906138a0565b506040805190810160405280600b81526020017f45436f707347322e736f6c000000000000000000000000000000000000000000815250836008019080519060200190610fda9291906138a0565b506040805190810160405280600b81526020017f50616972696e672e736f6c0000000000000000000000000000000000000000008152508360090190805190602001906110289291906138a0565b5082600080016000820154816000015560018201816001016000820154816000015560018201548160010155505060038201816003016000820181600001906002611074929190613920565b50600282018160020190600261108b929190613920565b505050600782018160070190805460018160011615610100020316600290046110b592919061395d565b50600882018160080190805460018160011615610100020316600290046110dd92919061395d565b506009820181600901908054600181600116156101000203166002900461110592919061395d565b509050506040805190810160405280856000601e8110151561112357fe5b60200201518152602001856001601e8110151561113c57fe5b60200201518152506000600a01600082015181600001556020820151816001015590505060408051908101604052806040805190810160405280876002601e8110151561118557fe5b60200201518152602001876003601e8110151561119e57fe5b602002015181525081526020016040805190810160405280876004601e811015156111c557fe5b60200201518152602001876005601e811015156111de57fe5b60200201518152508152506000600c01600082015181600001906002611205929190613860565b5060208201518160020190600261121d929190613860565b509050506040805190810160405280856006601e8110151561123b57fe5b60200201518152602001856007601e8110151561125457fe5b60200201518152506000601001600082015181600001556020820151816001015590505060408051908101604052806040805190810160405280876008601e8110151561129d57fe5b60200201518152602001876009601e811015156112b657fe5b60200201518152508152602001604080519081016040528087600a601e811015156112dd57fe5b6020020151815260200187600b601e811015156112f657fe5b6020020151815250815250600060120160008201518160000190600261131d929190613860565b50602082015181600201906002611335929190613860565b50905050604080519081016040528085600c601e8110151561135357fe5b6020020151815260200185600d601e8110151561136c57fe5b6020020151815250600060160160008201518160000155602082015181600101559050506040805190810160405280604080519081016040528087600e601e811015156113b557fe5b6020020151815260200187600f601e811015156113ce57fe5b602002015181525081526020016040805190810160405280876010601e811015156113f557fe5b60200201518152602001876011601e8110151561140e57fe5b60200201518152508152506000601801600082015181600001906002611435929190613860565b5060208201518160020190600261144d929190613860565b509050506040805190810160405280856012601e8110151561146b57fe5b60200201518152602001856013601e8110151561148457fe5b60200201518152506000601c01600082015181600001556020820151816001015590505060408051908101604052806040805190810160405280876014601e811015156114cd57fe5b60200201518152602001876015601e811015156114e657fe5b602002015181525081526020016040805190810160405280876016601e8110151561150d57fe5b60200201518152602001876017601e8110151561152657fe5b60200201518152508152506000601e0160008201518160000190600261154d929190613860565b50602082015181600201906002611565929190613860565b509050506040805190810160405280856018601e8110151561158357fe5b60200201518152602001856019601e8110151561159c57fe5b6020020151815250600060220160008201518160000155602082015181600101559050506040805190810160405280604080519081016040528087601a601e811015156115e557fe5b6020020151815260200187601b601e811015156115fe57fe5b60200201518152508152602001604080519081016040528087601c601e8110151561162557fe5b6020020151815260200187601d601e8110151561163e57fe5b60200201518152508152506000602401600082015181600001906002611665929190613860565b5060208201518160020190600261167d929190613860565b509050508473ffffffffffffffffffffffffffffffffffffffff1663d79f81226040518163ffffffff167c010000000000000000000000000000000000000000000000000000000002815260040160c060405180830381600087803b1580156116e557600080fd5b505af11580156116f9573d6000803e3d6000fd5b505050506040513d60c081101561170f57600080fd5b81019080805190602001909291908051906020019092919080519060200190929190805190602001909291908051906020019092919080519060200190929190505050896000601e8110151561176157fe5b602002018a6001601e8110151561177457fe5b602002018b6002601e8110151561178757fe5b602002018c6003601e8110151561179a57fe5b602002018d6004601e811015156117ad57fe5b602002018e6005601e811015156117c057fe5b6020020186815250868152508681525086815250868152508681525050505050505060009150600090505b600382101561188757602860408051908101604052808684601e8110151561180f57fe5b602002015181526020018660018501601e8110151561182a57fe5b602002015181525090806001815401808255809150509060018203906000526020600020906002020160009091929091909150600082015181600001556020820151816001015550505060028101905081806001019250506117eb565b600091505b6003821015611cbd578473ffffffffffffffffffffffffffffffffffffffff1663d12f0d68836040518263ffffffff167c010000000000000000000000000000000000000000000000000000000002815260040180828152602001915050608060405180830381600087803b15801561190457600080fd5b505af1158015611918573d6000803e3d6000fd5b505050506040513d608081101561192e57600080fd5b8101908080519060200190929190805190602001909291908051906020019092919080519060200190929190505050876000601e8110151561196c57fe5b60200201886001601e8110151561197f57fe5b60200201896002601e8110151561199257fe5b602002018a6003601e811015156119a557fe5b6020020184815250848152508481525084815250505050508473ffffffffffffffffffffffffffffffffffffffff1663b254b48f836040518263ffffffff167c010000000000000000000000000000000000000000000000000000000002815260040180828152602001915050608060405180830381600087803b158015611a2c57600080fd5b505af1158015611a40573d6000803e3d6000fd5b505050506040513d6080811015611a5657600080fd5b8101908080519060200190929190805190602001909291908051906020019092919080519060200190929190505050876004601e81101515611a9457fe5b60200201886005601e81101515611aa757fe5b60200201896006601e81101515611aba57fe5b602002018a6007601e81101515611acd57fe5b60200201848152508481525084815250848152505050505060296040805190810160405280604080519081016040528060408051908101604052808a6000601e81101515611b1757fe5b602002015181526020018a6001601e81101515611b3057fe5b6020020151815250815260200160408051908101604052808a6002601e81101515611b5757fe5b602002015181526020018a6003601e81101515611b7057fe5b60200201518152508152508152602001604080519081016040528060408051908101604052808a6004601e81101515611ba557fe5b602002015181526020018a6005601e81101515611bbe57fe5b6020020151815250815260200160408051908101604052808a6006601e81101515611be557fe5b602002015181526020018a6007601e81101515611bfe57fe5b602002015181525081525081525090806001815401808255809150509060018203906000526020600020906008020160009091929091909150600082015181600001600082015181600001906002611c57929190613860565b50602082015181600201906002611c6f929190613860565b505050602082015181600401600082015181600001906002611c92929190613860565b50602082015181600201906002611caa929190613860565b505050505050818060010192505061188c565b8473ffffffffffffffffffffffffffffffffffffffff1663bf84da156040518163ffffffff167c010000000000000000000000000000000000000000000000000000000002815260040160c060405180830381600087803b158015611d2157600080fd5b505af1158015611d35573d6000803e3d6000fd5b505050506040513d60c0811015611d4b57600080fd5b81019080805190602001909291908051906020019092919080519060200190929190805190602001909291908051906020019092919080519060200190929190505050896000601e81101515611d9d57fe5b602002018a6001601e81101515611db057fe5b602002018b6002601e81101515611dc357fe5b602002018c6003601e81101515611dd657fe5b602002018d6004601e81101515611de957fe5b602002018e6005601e81101515611dfc57fe5b602002018681525086815250868152508681525086815250868152505050505050508473ffffffffffffffffffffffffffffffffffffffff1663e60f60ba6040518163ffffffff167c0100000000000000000000000000000000000000000000000000000000028152600401608060405180830381600087803b158015611e8257600080fd5b505af1158015611e96573d6000803e3d6000fd5b505050506040513d6080811015611eac57600080fd5b8101908080519060200190929190805190602001909291908051906020019092919080519060200190929190505050876006601e81101515611eea57fe5b60200201886007601e81101515611efd57fe5b60200201896008601e81101515611f1057fe5b602002018a6009601e81101515611f2357fe5b60200201848152508481525084815250848152505050505060009150600090505b6005821015611fe057602a60408051908101604052808684601e81101515611f6857fe5b602002015181526020018660018501601e81101515611f8357fe5b60200201518152509080600181540180825580915050906001820390600052602060002090600202016000909192909190915060008201518160000155602082015181600101555050506002810190508180600101925050611f44565b505050505050565b602b81815481101515611ff757fe5b90600052602060002090600402016000915090508060000160408051908101604052908160008201548152602001600182015481525050908060020160408051908101604052908160008201548152602001600182015481525050905082565b602a8181548110151561206657fe5b90600052602060002090600202016000915090508060000154908060010154905082565b60008060000160c060405190810160405290816000820154815260200160018201604080519081016040529081600082015481526020016001820154815250508152602001600382016040805190810160405290816000820160028060200260405190810160405280929190826002801561211a576020028201915b815481526020019060010190808311612106575b505050505081526020016002820160028060200260405190810160405280929190826002801561215f576020028201915b81548152602001906001019080831161214b575b5050505050815250508152602001600782018054600181600116156101000203166002900480601f0160208091040260200160405190810160405280929190818152602001828054600181600116156101000203166002900480156122055780601f106121da57610100808354040283529160200191612205565b820191906000526020600020905b8154815290600101906020018083116121e857829003601f168201915b50505050508152602001600882018054600181600116156101000203166002900480601f0160208091040260200160405190810160405280929190818152602001828054600181600116156101000203166002900480156122a75780601f1061227c576101008083540402835291602001916122a7565b820191906000526020600020905b81548152906001019060200180831161228a57829003601f168201915b50505050508152602001600982018054600181600116156101000203166002900480601f0160208091040260200160405190810160405280929190818152602001828054600181600116156101000203166002900480156123495780601f1061231e57610100808354040283529160200191612349565b820191906000526020600020905b81548152906001019060200180831161232c57829003601f168201915b5050505050815250509080600a01604080519081016040529081600082015481526020016001820154815250509080600c01604080519081016040529081600082016002806020026040519081016040528092919082600280156123c2576020028201915b8154815260200190600101908083116123ae575b5050505050815260200160028201600280602002604051908101604052809291908260028015612407576020028201915b8154815260200190600101908083116123f3575b505050505081525050908060100160408051908101604052908160008201548152602001600182015481525050908060120160408051908101604052908160008201600280602002604051908101604052809291908260028015612480576020028201915b81548152602001906001019080831161246c575b50505050508152602001600282016002806020026040519081016040528092919082600280156124c5576020028201915b8154815260200190600101908083116124b1575b50505050508152505090806016016040805190810160405290816000820154815260200160018201548152505090806018016040805190810160405290816000820160028060200260405190810160405280929190826002801561253e576020028201915b81548152602001906001019080831161252a575b5050505050815260200160028201600280602002604051908101604052809291908260028015612583576020028201915b81548152602001906001019080831161256f575b5050505050815250509080601c01604080519081016040529081600082015481526020016001820154815250509080601e01604080519081016040529081600082016002806020026040519081016040528092919082600280156125fc576020028201915b8154815260200190600101908083116125e8575b5050505050815260200160028201600280602002604051908101604052809291908260028015612641576020028201915b81548152602001906001019080831161262d575b5050505050815250509080602201604080519081016040529081600082015481526020016001820154815250509080602401604080519081016040529081600082016002806020026040519081016040528092919082600280156126ba576020028201915b8154815260200190600101908083116126a6575b50505050508152602001600282016002806020026040519081016040528092919082600280156126ff576020028201915b8154815260200190600101908083116126eb575b50505050508152505090508b565b600080602a8054905011151561278b576040517f08c379a00000000000000000000000000000000000000000000000000000000081526004018080602001828103825260088152602001807f6e6f20706172616d00000000000000000000000000000000000000000000000081525060200191505060405180910390fd5b6127f1602a600081548110151561279e57fe5b9060005260206000209060020201604080519081016040529081600082015481526020016001820154815250506028848154811015156127da57fe5b906000526020600020906002020160000154612aab565b816000016000820154816000015560018201548160010155905050612872602a600181548110151561281f57fe5b90600052602060002090600202016040805190810160405290816000820154815260200160018201548152505060288481548110151561285b57fe5b906000526020600020906002020160010154612aab565b816002016000820154816000015560018201548160010155905050602b81908060018154018082558091505090600182039060005260206000209060040201600090919290919091506000820181600001600082015481600001556001820154816001015550506002820181600201600082015481600001556001820154816001015550505050505050565b6000806000806129208660000151876020015187600001518860200151612aea565b809350819450505082816000018190555081816001018190555080935050505092915050565b61294e613822565b60007f30644e72e131a029b85045b68181585d97816a916871ca8d3c208c16d87cfd4790506000836000015114801561298b575060008360200151145b156129ae57604080519081016040528060008152602001600081525091506129db565b6040805190810160405280846000015181526020018285602001518115156129d257fe5b06830381525091505b50919050565b6129e96139e4565b604080519081016040528060408051908101604052807f198e9393920d483a7260bfb731fb5d25f1aa493335a9e71297e485b7aef312c281526020017f1800deef121f1e76426a00665e5c4479674322d4f75edadd46debd5cd992f6ed815250815260200160408051908101604052807f090689d0585ff075ec9e99ad690c3395bc4b313370b38ef355acdadcd122975b81526020017f12c85ea5db8c6deb4aab71808dcb408fe3d1e7690c43d37b4ce6cc0166fa7daa815250815250905090565b600080600080612ac48660000151876020015187612b24565b809350819450505082816000018190555081816001018190555080935050505092915050565b6000806000612aff8787600188886001612c30565b809350819850829950505050612b16878783612dc0565b925092505094509492505050565b6000806000806000806000871415612b4757612b3e612e37565b95509550612c24565b6001871415612b5b57888895509550612c24565b6002871415612b7757612b6e8989612e4b565b95509550612c24565b88935087925060019150600190508895508794506000600288811515612b9957fe5b061415612ba857600094508495505b6001879060020a900496505b6000871115612c1457612bc8848484612e7f565b8094508195508296505050506001600288811515612be257fe5b061415612c0457612bf7848484898986612c30565b8093508197508298505050505b6001879060020a90049650612bb4565b612c1f868683612dc0565b955095505b50505050935093915050565b6000806000806000806000612c458d8d613330565b15612c5857898989965096509650612db0565b612c628a8a613330565b15612c75578c8c8c965096509650612db0565b7f30644e72e131a029b85045b68181585d97816a916871ca8d3c208c16d87cfd47801515612c9f57fe5b888d0993507f30644e72e131a029b85045b68181585d97816a916871ca8d3c208c16d87cfd47801515612cce57fe5b8b8a0992507f30644e72e131a029b85045b68181585d97816a916871ca8d3c208c16d87cfd47801515612cfd57fe5b888e0991507f30644e72e131a029b85045b68181585d97816a916871ca8d3c208c16d87cfd47801515612d2c57fe5b8b8b09905080821415612d6a5782841415612d5757612d4c8d8d8d612e7f565b965096509650612db0565b612d5f61335a565b965096509650612db0565b612da37f30644e72e131a029b85045b68181585d97816a916871ca8d3c208c16d87cfd47801515612d9757fe5b898d0983838688613378565b8097508198508299505050505b5050505096509650969350505050565b6000806000612dce8461372e565b90507f30644e72e131a029b85045b68181585d97816a916871ca8d3c208c16d87cfd47801515612dfa57fe5b81870992507f30644e72e131a029b85045b68181585d97816a916871ca8d3c208c16d87cfd47801515612e2957fe5b818609915050935093915050565b600080600080819150809050915091509091565b6000806000612e5c85856001612e7f565b809350819650829750505050612e73858583612dc0565b92509250509250929050565b6000806000806000806000612e948a8a613330565b15612eac57612ea161335a565b965096509650613323565b7f30644e72e131a029b85045b68181585d97816a916871ca8d3c208c16d87cfd47801515612ed657fe5b888a0992507f30644e72e131a029b85045b68181585d97816a916871ca8d3c208c16d87cfd47801515612f0557fe5b6002840992507f30644e72e131a029b85045b68181585d97816a916871ca8d3c208c16d87cfd47801515612f3557fe5b8a840991507f30644e72e131a029b85045b68181585d97816a916871ca8d3c208c16d87cfd47801515612f6457fe5b89830991507f30644e72e131a029b85045b68181585d97816a916871ca8d3c208c16d87cfd47801515612f9357fe5b6002830991507f30644e72e131a029b85045b68181585d97816a916871ca8d3c208c16d87cfd47801515612fc357fe5b8a8b0999507f30644e72e131a029b85045b68181585d97816a916871ca8d3c208c16d87cfd47801515612ff257fe5b60038b0993507f30644e72e131a029b85045b68181585d97816a916871ca8d3c208c16d87cfd4780151561302257fe5b88890997507f30644e72e131a029b85045b68181585d97816a916871ca8d3c208c16d87cfd4780151561305157fe5b6000890997507f30644e72e131a029b85045b68181585d97816a916871ca8d3c208c16d87cfd4780151561308157fe5b88850893507f30644e72e131a029b85045b68181585d97816a916871ca8d3c208c16d87cfd478015156130b057fe5b84850990507f30644e72e131a029b85045b68181585d97816a916871ca8d3c208c16d87cfd478015156130df57fe5b8260020999507f30644e72e131a029b85045b68181585d97816a916871ca8d3c208c16d87cfd4780151561310f57fe5b8a7f30644e72e131a029b85045b68181585d97816a916871ca8d3c208c16d87cfd4703820890507f30644e72e131a029b85045b68181585d97816a916871ca8d3c208c16d87cfd4780151561316057fe5b817f30644e72e131a029b85045b68181585d97816a916871ca8d3c208c16d87cfd4703830899507f30644e72e131a029b85045b68181585d97816a916871ca8d3c208c16d87cfd478015156131b157fe5b8a850999507f30644e72e131a029b85045b68181585d97816a916871ca8d3c208c16d87cfd478015156131e057fe5b838a0998507f30644e72e131a029b85045b68181585d97816a916871ca8d3c208c16d87cfd4780151561320f57fe5b898a0998507f30644e72e131a029b85045b68181585d97816a916871ca8d3c208c16d87cfd4780151561323e57fe5b8960020998507f30644e72e131a029b85045b68181585d97816a916871ca8d3c208c16d87cfd4780151561326e57fe5b897f30644e72e131a029b85045b68181585d97816a916871ca8d3c208c16d87cfd47038b0895507f30644e72e131a029b85045b68181585d97816a916871ca8d3c208c16d87cfd478015156132bf57fe5b81840996507f30644e72e131a029b85045b68181585d97816a916871ca8d3c208c16d87cfd478015156132ee57fe5b83840994507f30644e72e131a029b85045b68181585d97816a916871ca8d3c208c16d87cfd4780151561331d57fe5b83860994505b5050505093509350939050565b600080831480156133415750600082145b1561334f5760019050613354565b600090505b92915050565b60008060008060006001829250819150809050925092509250909192565b6000806000806000806000807f30644e72e131a029b85045b68181585d97816a916871ca8d3c208c16d87cfd478015156133ae57fe5b8a7f30644e72e131a029b85045b68181585d97816a916871ca8d3c208c16d87cfd47038a0890507f30644e72e131a029b85045b68181585d97816a916871ca8d3c208c16d87cfd478015156133ff57fe5b8b7f30644e72e131a029b85045b68181585d97816a916871ca8d3c208c16d87cfd47038d0894507f30644e72e131a029b85045b68181585d97816a916871ca8d3c208c16d87cfd4780151561345057fe5b85860993507f30644e72e131a029b85045b68181585d97816a916871ca8d3c208c16d87cfd4780151561347f57fe5b81820991507f30644e72e131a029b85045b68181585d97816a916871ca8d3c208c16d87cfd478015156134ae57fe5b8d830991507f30644e72e131a029b85045b68181585d97816a916871ca8d3c208c16d87cfd478015156134dd57fe5b8c8c089a507f30644e72e131a029b85045b68181585d97816a916871ca8d3c208c16d87cfd4780151561350c57fe5b848c099a507f30644e72e131a029b85045b68181585d97816a916871ca8d3c208c16d87cfd4780151561353b57fe5b8b7f30644e72e131a029b85045b68181585d97816a916871ca8d3c208c16d87cfd4703830891507f30644e72e131a029b85045b68181585d97816a916871ca8d3c208c16d87cfd4780151561358c57fe5b82860997507f30644e72e131a029b85045b68181585d97816a916871ca8d3c208c16d87cfd478015156135bb57fe5b85850992507f30644e72e131a029b85045b68181585d97816a916871ca8d3c208c16d87cfd478015156135ea57fe5b848d099b507f30644e72e131a029b85045b68181585d97816a916871ca8d3c208c16d87cfd4780151561361957fe5b827f30644e72e131a029b85045b68181585d97816a916871ca8d3c208c16d87cfd47038d089b507f30644e72e131a029b85045b68181585d97816a916871ca8d3c208c16d87cfd4780151561366a57fe5b8c820990507f30644e72e131a029b85045b68181585d97816a916871ca8d3c208c16d87cfd4780151561369957fe5b838a0998507f30644e72e131a029b85045b68181585d97816a916871ca8d3c208c16d87cfd478015156136c857fe5b897f30644e72e131a029b85045b68181585d97816a916871ca8d3c208c16d87cfd4703820896507f30644e72e131a029b85045b68181585d97816a916871ca8d3c208c16d87cfd4780151561371957fe5b8d840995505050505050955095509592505050565b60008060008060008060009450600193507f30644e72e131a029b85045b68181585d97816a916871ca8d3c208c16d87cfd4792508691505b60008214151561381557818381151561377b57fe5b049050837f30644e72e131a029b85045b68181585d97816a916871ca8d3c208c16d87cfd478015156137a957fe5b7f30644e72e131a029b85045b68181585d97816a916871ca8d3c208c16d87cfd478015156137d357fe5b8684097f30644e72e131a029b85045b68181585d97816a916871ca8d3c208c16d87cfd4703870880955081965050508182820284038093508194505050613766565b8495505050505050919050565b604080519081016040528060008152602001600081525090565b6103c060405190810160405280601e90602082028038833980820191505090505090565b826002810192821561388f579160200282015b8281111561388e578251825591602001919060010190613873565b5b50905061389c9190613a0b565b5090565b828054600181600116156101000203166002900490600052602060002090601f016020900481019282601f106138e157805160ff191683800117855561390f565b8280016001018555821561390f579182015b8281111561390e5782518255916020019190600101906138f3565b5b50905061391c9190613a0b565b5090565b826002810192821561394c579182015b8281111561394b578254825591600101919060010190613930565b5b5090506139599190613a0b565b5090565b828054600181600116156101000203166002900490600052602060002090601f016020900481019282601f1061399657805485556139d3565b828001600101855582156139d357600052602060002091601f016020900482015b828111156139d25782548255916001019190600101906139b7565b5b5090506139e09190613a0b565b5090565b6080604051908101604052806139f8613a30565b8152602001613a05613a30565b81525090565b613a2d91905b80821115613a29576000816000905550600101613a11565b5090565b90565b60408051908101604052806002906020820280388339808201915050905050905600a165627a7a72305820f77e328069aa728a90c98fcf10342721617dea6e2d0e8878389bd99bd997c4710029",
  "source": "// This file is MIT Licensed.\r\n//\r\n// Copyright 2020 xu yunkai\r\n\r\npragma solidity >=0.4.2;\r\n// pragma experimental ABIEncoderV2;\r\n\r\nimport \"./dtbe/LibDTBE.sol\";\r\n\r\ncontract dtbe_interface{\r\n    function getepk1() public returns(uint, uint, uint, uint);\r\n    function getepk2() public returns(uint, uint, uint, uint);\r\n    function getepk3() public returns(uint, uint, uint, uint);\r\n    function getepk4() public returns(uint, uint, uint, uint);\r\n    function getepk5() public returns(uint, uint, uint, uint);\r\n    function getepk6() public returns(uint, uint, uint, uint);\r\n    function getepk7() public returns(uint, uint, uint, uint);\r\n    function getepk8() public returns(uint, uint);\r\n    function getesk() public returns(uint, uint, uint, uint, uint, uint);\r\n    function getesvk1(uint i) public returns(uint, uint, uint, uint);\r\n    function getesvk2(uint i) public returns(uint, uint, uint, uint);\r\n    function getcdtbe1() public returns(uint, uint, uint, uint, uint, uint);\r\n    function getcdtbe2() public returns(uint, uint, uint, uint);\r\n}\r\n\r\ncontract test_dtbe_main{\r\n    using LibDTBE for *;\r\n    using Pairing for *;\r\n\r\n    LibDTBE.PK public epk;\r\n    LibDTBE.SK[] public esk;\r\n    LibDTBE.SVK[] public esvk;\r\n    Pairing.G1Point[] public c_dtbe;\r\n    LibDTBE.CLUE[] public V;\r\n\r\n    // function dtbe_shareVerify(uint i) public returns(bool) {\r\n    //     return LibDTBE.shareVerify(epk, esvk[i], 123456, c_dtbe, V[0]);\r\n    // }\r\n\r\n    function dtbe_shareDec(uint i) public {\r\n        // V[i] = LibDTBE.shareDec(epk, esk[i], 123456, c_dtbe);\r\n        require(c_dtbe.length > 0, 'no param');\r\n        LibDTBE.CLUE vi;\r\n        vi.Ci1 = LibDTBE.G1mul(c_dtbe[0], esk[i].ui);\r\n        vi.Ci2 = LibDTBE.G1mul(c_dtbe[1], esk[i].vi);\r\n        V.push(vi);\r\n    }\r\n\r\n    function dtbe_combine() public {\r\n        // LibDTBE.combine(epk, esvk, V, c_dtbe, 123456);\r\n\r\n        uint len = esvk.length;\r\n        uint i = 0;\r\n        // while(i < len){\r\n        //     LibDTBE.shareVerify(epk, esvk[i], 123456, c_dtbe, V[i]);\r\n        //     // require(\r\n        //     // \t(!shareVerify(epk, esvk[i], t, Cdtbe, v[i])),\r\n        //     // \t\"ERROR!Forced to stop.\"\r\n        //     // );\r\n        // }\r\n\r\n        Pairing.G1Point memory tmp = LibDTBE.G1add(V[0].Ci1, V[0].Ci2);\r\n        i = 1;\r\n        while(i < len){\r\n            tmp = LibDTBE.G1add(tmp, LibDTBE.G1add(V[i].Ci1, V[i].Ci2));\r\n            i++;\r\n        }\r\n        tmp = Pairing.negate(tmp);\r\n        LibDTBE.G1add(tmp, c_dtbe[2]);\r\n        // return M;\r\n    }\r\n\r\n    function setData(uint addr) public {\r\n        dtbe_interface _dtbe = dtbe_interface(addr);\r\n\r\n        uint[30] memory e;\r\n\r\n        // epk\r\n        (e[0], e[1], e[2], e[3]) = _dtbe.getepk1();\r\n        (e[4], e[5], e[6], e[7]) = _dtbe.getepk2();\r\n        (e[8], e[9], e[10], e[11]) = _dtbe.getepk3();\r\n        (e[12], e[13], e[14], e[15]) = _dtbe.getepk4();\r\n        (e[16], e[17], e[18], e[19]) = _dtbe.getepk5();\r\n        (e[20], e[21], e[22], e[23]) = _dtbe.getepk6();\r\n        (e[24], e[25], e[26], e[27]) = _dtbe.getepk7();\r\n        (e[28], e[29]) = _dtbe.getepk8();\r\n        LibDTBE.PGroup pg;\r\n        pg._p = 21888242871839275222246405745257275088696311157297823662689037894645226208583;\r\n        pg._G = Pairing.P2();\r\n\t\tpg._ECG1 = \"ECops.sol\";\r\n\t\tpg._ECG2 = \"ECopsG2.sol\";\r\n\t\tpg._pairing = \"Pairing.sol\";\r\n\t\tepk.P = pg;\r\n        epk.H = Pairing.G1Point(e[0], e[1]);\r\n\t\tepk._H = Pairing.G2Point([e[2], e[3]], [e[4], e[5]]);\r\n\t\tepk.U = Pairing.G1Point(e[6], e[7]);\r\n\t\tepk._U = Pairing.G2Point([e[8], e[9]], [e[10], e[11]]);\r\n        epk.V = Pairing.G1Point(e[12], e[13]);\r\n        epk._V = Pairing.G2Point([e[14], e[15]], [e[16], e[17]]);\r\n        epk.W = Pairing.G1Point(e[18], e[19]);\r\n        epk._W = Pairing.G2Point([e[20], e[21]], [e[22], e[23]]);\r\n        epk.Z = Pairing.G1Point(e[24], e[25]);\r\n        epk._Z = Pairing.G2Point([e[26], e[27]], [e[28], e[29]]);\r\n\r\n        // esk\r\n        (e[0], e[1], e[2], e[3], e[4], e[5]) = _dtbe.getesk();\r\n        uint i = 0;\r\n        uint m = 0;\r\n        while (i<3){\r\n            esk.push(LibDTBE.SK({\r\n                ui: e[m],\r\n                vi: e[m + 1]\r\n            }));\r\n            m += 2;\r\n            i++;\r\n        }\r\n\r\n        // esvk\r\n        i = 0;\r\n        while (i<3){\r\n            (e[0], e[1], e[2], e[3]) = _dtbe.getesvk1(i);\r\n            (e[4], e[5], e[6], e[7]) = _dtbe.getesvk2(i);\r\n            esvk.push(LibDTBE.SVK({\r\n                Ui: Pairing.G2Point([e[0], e[1]], [e[2], e[3]]),\r\n                Vi: Pairing.G2Point([e[4], e[5]], [e[6], e[7]])\r\n            }));\r\n            i++;\r\n        }\r\n\r\n        //c_dtbe\r\n        (e[0], e[1], e[2], e[3], e[4], e[5]) = _dtbe.getcdtbe1();\r\n        (e[6], e[7], e[8], e[9]) = _dtbe.getcdtbe2();\r\n        i = 0;\r\n        m = 0;\r\n        while (i<5){\r\n            c_dtbe.push(Pairing.G1Point(e[m], e[m + 1]));\r\n            m += 2;\r\n            i++;\r\n        }\r\n    }\r\n\r\n    // function setepk(uint[] e) public {\r\n    //     LibDTBE.PGroup pg;\r\n    //     pg._p = 21888242871839275222246405745257275088696311157297823662689037894645226208583;\r\n    //     pg._G = Pairing.P2();\r\n\t// \tpg._ECG1 = \"ECops.sol\";\r\n\t// \tpg._ECG2 = \"ECopsG2.sol\";\r\n\t// \tpg._pairing = \"Pairing.sol\";\r\n\t// \tepk.P = pg;\r\n    //     epk.H = Pairing.G1Point(e[0], e[1]);\r\n\t// \tepk._H = Pairing.G2Point([e[2], e[3]], [e[4], e[5]]);\r\n\t// \tepk.U = Pairing.G1Point(e[6], e[7]);\r\n\t// \tepk._U = Pairing.G2Point([e[8], e[9]], [e[10], e[11]]);\r\n    //     epk.V = Pairing.G1Point(e[12], e[13]);\r\n    //     epk._V = Pairing.G2Point([e[14], e[15]], [e[16], e[17]]);\r\n    //     epk.W = Pairing.G1Point(e[18], e[19]);\r\n    //     epk._W = Pairing.G2Point([e[20], e[21]], [e[22], e[23]]);\r\n    //     epk.Z = Pairing.G1Point(e[24], e[25]);\r\n    //     epk._Z = Pairing.G2Point([e[26], e[27]], [e[28], e[29]]);\r\n    // }\r\n    // function setesk(uint[] e) public{\r\n    //     uint i = 0;\r\n    //     uint m = 0;\r\n    //     while (i<3){\r\n    //         esk.push(LibDTBE.SK({\r\n    //             ui: e[m],\r\n    //             vi: e[m + 1]\r\n    //         }));\r\n    //         m += 2;\r\n    //         i++;\r\n    //     }\r\n    // }\r\n    // function setesvk(uint[] e) public{\r\n    //     uint i = 0;\r\n    //     uint m = 0;\r\n    //     while (i<3){\r\n    //         esvk.push(LibDTBE.SVK({\r\n    //             Ui: Pairing.G2Point([e[m], e[m + 1]], [e[m + 2], e[m + 3]]),\r\n    //             Vi: Pairing.G2Point([e[m + 4], e[m + 5]], [e[m + 6], e[m + 7]])\r\n    //         }));\r\n    //         m += 4;\r\n    //         i++;\r\n    //     }\r\n    // }\r\n    // function setcdtbe(uint[] c) public{\r\n    //     uint i = 0;\r\n    //     uint m = 0;\r\n    //     while (i<5){\r\n    //         c_dtbe.push(Pairing.G1Point(c[m], c[m + 1]));\r\n    //         m += 2;\r\n    //         i++;\r\n    //     }\r\n    // }\r\n}",
  "sourcePath": "D:\\Myproject\\AttriChain\\contracts\\test_dtbe_main.sol",
  "compiler": {
    "name": "solc",
    "version": "0.4.23+commit.124ca40d.Emscripten.clang"
  },
  "schemaVersion": "2.0.0",
  "updatedAt": "2020-07-17T04:29:27.743Z"
}