{
  "contractName": "test_dtbe",
  "abi": [
    {
      "constant": true,
      "inputs": [
        {
          "name": "",
          "type": "uint256"
        }
      ],
      "name": "esk",
      "outputs": [
        {
          "name": "ui",
          "type": "uint256"
        },
        {
          "name": "vi",
          "type": "uint256"
        }
      ],
      "payable": false,
      "stateMutability": "view",
      "type": "function"
    },
    {
      "constant": true,
      "inputs": [
        {
          "name": "",
          "type": "uint256"
        }
      ],
      "name": "esvk",
      "outputs": [
        {
          "components": [
            {
              "name": "X",
              "type": "uint256[2]"
            },
            {
              "name": "Y",
              "type": "uint256[2]"
            }
          ],
          "name": "Ui",
          "type": "tuple"
        },
        {
          "components": [
            {
              "name": "X",
              "type": "uint256[2]"
            },
            {
              "name": "Y",
              "type": "uint256[2]"
            }
          ],
          "name": "Vi",
          "type": "tuple"
        }
      ],
      "payable": false,
      "stateMutability": "view",
      "type": "function"
    },
    {
      "constant": true,
      "inputs": [
        {
          "name": "",
          "type": "uint256"
        }
      ],
      "name": "c_dtbe",
      "outputs": [
        {
          "name": "X",
          "type": "uint256"
        },
        {
          "name": "Y",
          "type": "uint256"
        }
      ],
      "payable": false,
      "stateMutability": "view",
      "type": "function"
    },
    {
      "constant": true,
      "inputs": [],
      "name": "epk",
      "outputs": [
        {
          "components": [
            {
              "name": "_p",
              "type": "uint256"
            },
            {
              "components": [
                {
                  "name": "X",
                  "type": "uint256"
                },
                {
                  "name": "Y",
                  "type": "uint256"
                }
              ],
              "name": "G",
              "type": "tuple"
            },
            {
              "components": [
                {
                  "name": "X",
                  "type": "uint256[2]"
                },
                {
                  "name": "Y",
                  "type": "uint256[2]"
                }
              ],
              "name": "_G",
              "type": "tuple"
            },
            {
              "name": "_ECG1",
              "type": "string"
            },
            {
              "name": "_ECG2",
              "type": "string"
            },
            {
              "name": "_pairing",
              "type": "string"
            }
          ],
          "name": "P",
          "type": "tuple"
        },
        {
          "components": [
            {
              "name": "X",
              "type": "uint256"
            },
            {
              "name": "Y",
              "type": "uint256"
            }
          ],
          "name": "H",
          "type": "tuple"
        },
        {
          "components": [
            {
              "name": "X",
              "type": "uint256[2]"
            },
            {
              "name": "Y",
              "type": "uint256[2]"
            }
          ],
          "name": "_H",
          "type": "tuple"
        },
        {
          "components": [
            {
              "name": "X",
              "type": "uint256"
            },
            {
              "name": "Y",
              "type": "uint256"
            }
          ],
          "name": "U",
          "type": "tuple"
        },
        {
          "components": [
            {
              "name": "X",
              "type": "uint256[2]"
            },
            {
              "name": "Y",
              "type": "uint256[2]"
            }
          ],
          "name": "_U",
          "type": "tuple"
        },
        {
          "components": [
            {
              "name": "X",
              "type": "uint256"
            },
            {
              "name": "Y",
              "type": "uint256"
            }
          ],
          "name": "V",
          "type": "tuple"
        },
        {
          "components": [
            {
              "name": "X",
              "type": "uint256[2]"
            },
            {
              "name": "Y",
              "type": "uint256[2]"
            }
          ],
          "name": "_V",
          "type": "tuple"
        },
        {
          "components": [
            {
              "name": "X",
              "type": "uint256"
            },
            {
              "name": "Y",
              "type": "uint256"
            }
          ],
          "name": "W",
          "type": "tuple"
        },
        {
          "components": [
            {
              "name": "X",
              "type": "uint256[2]"
            },
            {
              "name": "Y",
              "type": "uint256[2]"
            }
          ],
          "name": "_W",
          "type": "tuple"
        },
        {
          "components": [
            {
              "name": "X",
              "type": "uint256"
            },
            {
              "name": "Y",
              "type": "uint256"
            }
          ],
          "name": "Z",
          "type": "tuple"
        },
        {
          "components": [
            {
              "name": "X",
              "type": "uint256[2]"
            },
            {
              "name": "Y",
              "type": "uint256[2]"
            }
          ],
          "name": "_Z",
          "type": "tuple"
        }
      ],
      "payable": false,
      "stateMutability": "view",
      "type": "function"
    },
    {
      "constant": false,
      "inputs": [],
      "name": "dtbe_keygen",
      "outputs": [],
      "payable": false,
      "stateMutability": "nonpayable",
      "type": "function"
    },
    {
      "constant": false,
      "inputs": [],
      "name": "dtbe_encrypt",
      "outputs": [],
      "payable": false,
      "stateMutability": "nonpayable",
      "type": "function"
    }
  ],
  "bytecode": "0x608060405234801561001057600080fd5b50614826806100206000396000f300608060405260043610610078576000357c0100000000000000000000000000000000000000000000000000000000900463ffffffff16806323a4c22e1461007d5780634bc38368146100c5578063749c00651461010d578063a86122e514610124578063ab989f551461016c578063e3c895a1146101dd575b600080fd5b34801561008957600080fd5b506100a8600480360381019080803590602001909291905050506101f4565b604051808381526020018281526020019250505060405180910390f35b3480156100d157600080fd5b506100f060048036038101908080359060200190929190505050610227565b604051808381526020018281526020019250505060405180910390f35b34801561011957600080fd5b50610122610382565b005b34801561013057600080fd5b5061014f60048036038101908080359060200190929190505050610658565b604051808381526020018281526020019250505060405180910390f35b34801561017857600080fd5b5061018161068b565b604051808c81526020018b81526020018a81526020018981526020018881526020018781526020018681526020018581526020018481526020018381526020018281526020019b50505050505050505050505060405180910390f35b3480156101e957600080fd5b506101f2610d0e565b005b60288181548110151561020357fe5b90600052602060002090600202016000915090508060000154908060010154905082565b60298181548110151561023657fe5b90600052602060002090600802016000915090508060000160408051908101604052908160008201600280602002604051908101604052809291908260028015610295576020028201915b815481526020019060010190808311610281575b50505050508152602001600282016002806020026040519081016040528092919082600280156102da576020028201915b8154815260200190600101908083116102c6575b50505050508152505090806004016040805190810160405290816000820160028060200260405190810160405280929190826002801561032f576020028201915b81548152602001906001019080831161031b575b5050505050815260200160028201600280602002604051908101604052809291908260028015610374576020028201915b815481526020019060010190808311610360575b505050505081525050905082565b61038c60036113ef565b6000806028600060296000869190509080546103a9929190614352565b50859190509080546103bc92919061441a565b50849190506000820181600001600082015481600001556001820181600101600082015481600001556001820154816001015550506003820181600301600082018160000190600261040f929190614486565b506002820181600201906002610426929190614486565b505050600782018160070190805460018160011615610100020316600290046104509291906144c3565b50600882018160080190805460018160011615610100020316600290046104789291906144c3565b50600982018160090190805460018160011615610100020316600290046104a09291906144c3565b505050600a820181600a0160008201548160000155600182015481600101555050600c820181600c0160008201816000019060026104df929190614486565b5060028201816002019060026104f6929190614486565b50505060108201816010016000820154816000015560018201548160010155505060128201816012016000820181600001906002610535929190614486565b50600282018160020190600261054c929190614486565b5050506016820181601601600082015481600001556001820154816001015550506018820181601801600082018160000190600261058b929190614486565b5060028201816002019060026105a2929190614486565b505050601c820181601c0160008201548160000155600182015481600101555050601e820181601e0160008201816000019060026105e1929190614486565b5060028201816002019060026105f8929190614486565b50505060228201816022016000820154816000015560018201548160010155505060248201816024016000820181600001906002610637929190614486565b50600282018160020190600261064e929190614486565b5050505050505050565b602a8181548110151561066757fe5b90600052602060002090600202016000915090508060000154908060010154905082565b60008060000160c060405190810160405290816000820154815260200160018201604080519081016040529081600082015481526020016001820154815250508152602001600382016040805190810160405290816000820160028060200260405190810160405280929190826002801561071b576020028201915b815481526020019060010190808311610707575b5050505050815260200160028201600280602002604051908101604052809291908260028015610760576020028201915b81548152602001906001019080831161074c575b5050505050815250508152602001600782018054600181600116156101000203166002900480601f0160208091040260200160405190810160405280929190818152602001828054600181600116156101000203166002900480156108065780601f106107db57610100808354040283529160200191610806565b820191906000526020600020905b8154815290600101906020018083116107e957829003601f168201915b50505050508152602001600882018054600181600116156101000203166002900480601f0160208091040260200160405190810160405280929190818152602001828054600181600116156101000203166002900480156108a85780601f1061087d576101008083540402835291602001916108a8565b820191906000526020600020905b81548152906001019060200180831161088b57829003601f168201915b50505050508152602001600982018054600181600116156101000203166002900480601f01602080910402602001604051908101604052809291908181526020018280546001816001161561010002031660029004801561094a5780601f1061091f5761010080835404028352916020019161094a565b820191906000526020600020905b81548152906001019060200180831161092d57829003601f168201915b5050505050815250509080600a01604080519081016040529081600082015481526020016001820154815250509080600c01604080519081016040529081600082016002806020026040519081016040528092919082600280156109c3576020028201915b8154815260200190600101908083116109af575b5050505050815260200160028201600280602002604051908101604052809291908260028015610a08576020028201915b8154815260200190600101908083116109f4575b505050505081525050908060100160408051908101604052908160008201548152602001600182015481525050908060120160408051908101604052908160008201600280602002604051908101604052809291908260028015610a81576020028201915b815481526020019060010190808311610a6d575b5050505050815260200160028201600280602002604051908101604052809291908260028015610ac6576020028201915b815481526020019060010190808311610ab2575b505050505081525050908060160160408051908101604052908160008201548152602001600182015481525050908060180160408051908101604052908160008201600280602002604051908101604052809291908260028015610b3f576020028201915b815481526020019060010190808311610b2b575b5050505050815260200160028201600280602002604051908101604052809291908260028015610b84576020028201915b815481526020019060010190808311610b70575b5050505050815250509080601c01604080519081016040529081600082015481526020016001820154815250509080601e0160408051908101604052908160008201600280602002604051908101604052809291908260028015610bfd576020028201915b815481526020019060010190808311610be9575b5050505050815260200160028201600280602002604051908101604052809291908260028015610c42576020028201915b815481526020019060010190808311610c2e575b505050505081525050908060220160408051908101604052908160008201548152602001600182015481525050908060240160408051908101604052908160008201600280602002604051908101604052809291908260028015610cbb576020028201915b815481526020019060010190808311610ca7575b5050505050815260200160028201600280602002604051908101604052809291908260028015610d00576020028201915b815481526020019060010190808311610cec575b50505050508152505090508b565b610d1661454a565b6113db600061016060405190810160405290816000820160c0604051908101604052908160008201548152602001600182016040805190810160405290816000820154815260200160018201548152505081526020016003820160408051908101604052908160008201600280602002604051908101604052809291908260028015610db7576020028201915b815481526020019060010190808311610da3575b5050505050815260200160028201600280602002604051908101604052809291908260028015610dfc576020028201915b815481526020019060010190808311610de8575b5050505050815250508152602001600782018054600181600116156101000203166002900480601f016020809104026020016040519081016040528092919081815260200182805460018160011615610100020316600290048015610ea25780601f10610e7757610100808354040283529160200191610ea2565b820191906000526020600020905b815481529060010190602001808311610e8557829003601f168201915b50505050508152602001600882018054600181600116156101000203166002900480601f016020809104026020016040519081016040528092919081815260200182805460018160011615610100020316600290048015610f445780601f10610f1957610100808354040283529160200191610f44565b820191906000526020600020905b815481529060010190602001808311610f2757829003601f168201915b50505050508152602001600982018054600181600116156101000203166002900480601f016020809104026020016040519081016040528092919081815260200182805460018160011615610100020316600290048015610fe65780601f10610fbb57610100808354040283529160200191610fe6565b820191906000526020600020905b815481529060010190602001808311610fc957829003601f168201915b5050505050815250508152602001600a8201604080519081016040529081600082015481526020016001820154815250508152602001600c820160408051908101604052908160008201600280602002604051908101604052809291908260028015611067576020028201915b815481526020019060010190808311611053575b50505050508152602001600282016002806020026040519081016040528092919082600280156110ac576020028201915b815481526020019060010190808311611098575b505050505081525050815260200160108201604080519081016040529081600082015481526020016001820154815250508152602001601282016040805190810160405290816000820160028060200260405190810160405280929190826002801561112d576020028201915b815481526020019060010190808311611119575b5050505050815260200160028201600280602002604051908101604052809291908260028015611172576020028201915b81548152602001906001019080831161115e575b50505050508152505081526020016016820160408051908101604052908160008201548152602001600182015481525050815260200160188201604080519081016040529081600082016002806020026040519081016040528092919082600280156111f3576020028201915b8154815260200190600101908083116111df575b5050505050815260200160028201600280602002604051908101604052809291908260028015611238576020028201915b815481526020019060010190808311611224575b5050505050815250508152602001601c8201604080519081016040529081600082015481526020016001820154815250508152602001601e8201604080519081016040529081600082016002806020026040519081016040528092919082600280156112b9576020028201915b8154815260200190600101908083116112a5575b50505050508152602001600282016002806020026040519081016040528092919082600280156112fe576020028201915b8154815260200190600101908083116112ea575b505050505081525050815260200160228201604080519081016040529081600082015481526020016001820154815250508152602001602482016040805190810160405290816000820160028060200260405190810160405280929190826002801561137f576020028201915b81548152602001906001019080831161136b575b50505050508152602001600282016002806020026040519081016040528092919082600280156113c4576020028201915b8154815260200190600101908083116113b0575b505050505081525050815250506201e2408361205e565b602a9080546113eb929190614564565b5050565b600080600080600080600080600060608060008060007f30644e72e131a029b85045b68181585d97816a916871ca8d3c208c16d87cfd478b600001600001819055506040805190810160405280600981526020017f45436f70732e736f6c00000000000000000000000000000000000000000000008152508b60000160070190805190602001906114819291906145d0565b506040805190810160405280600b81526020017f45436f707347322e736f6c0000000000000000000000000000000000000000008152508b60000160080190805190602001906114d29291906145d0565b506040805190810160405280600b81526020017f50616972696e672e736f6c0000000000000000000000000000000000000000008152508b60000160090190805190602001906115239291906145d0565b5061152c61232b565b8b600001600101600082015181600001556020820151816001015590505061155261234f565b8b600001600301600082015181600001906002611570929190614650565b50602082015181600201906002611588929190614650565b509050506115b57f30644e72e131a029b85045b68181585d97816a916871ca8d3c208c16d87cfd47612419565b97506115e07f30644e72e131a029b85045b68181585d97816a916871ca8d3c208c16d87cfd47612419565b965061160b7f30644e72e131a029b85045b68181585d97816a916871ca8d3c208c16d87cfd47612419565b95508e60405190808252806020026020018201604052801561163c5781602001602082028038833980820191505090505b5094508e60405190808252806020026020018201604052801561166e5781602001602082028038833980820191505090505b5093506000925060009150600090505b8e8110156117db576116af7f30644e72e131a029b85045b68181585d97816a916871ca8d3c208c16d87cfd47612419565b85828151811015156116bd57fe5b90602001906020020181815250506116f47f30644e72e131a029b85045b68181585d97816a916871ca8d3c208c16d87cfd47612419565b848281518110151561170257fe5b9060200190602002018181525050848181518110151561171e57fe5b9060200190602002015183019250838181518110151561173a57fe5b9060200190602002015182019150896040805190810160405280878481518110151561176257fe5b906020019060200201518152602001868481518110151561177f57fe5b90602001906020020151815250908060018154018082558091505090600182039060005260206000209060020201600090919290919091506000820151816000015560208201518160010155505050808060010191505061167e565b6117ec6117e661232b565b896124c9565b8b600a01600082015481600001556001820154816001015590505061181861181261234f565b89612508565b8b600c016000820181600001906002611832929190614486565b506002820181600201906002611849929190614486565b509050506118798b600a0160408051908101604052908160008201548152602001600182015481525050846124c9565b8b60100160008201548160000155600182015481600101559050506119368b600c01604080519081016040529081600082016002806020026040519081016040528092919082600280156118e2576020028201915b8154815260200190600101908083116118ce575b5050505050815260200160028201600280602002604051908101604052809291908260028015611927576020028201915b815481526020019060010190808311611913575b50505050508152505084612508565b8b6012016000820181600001906002611950929190614486565b506002820181600201906002611967929190614486565b5090505061199f8b6010016040805190810160405290816000820154815260200160018201548152505061199a84612818565b6124c9565b8b6016016000820154816000015560018201548160010155905050611a648b60120160408051908101604052908160008201600280602002604051908101604052809291908260028015611a08576020028201915b8154815260200190600101908083116119f4575b5050505050815260200160028201600280602002604051908101604052809291908260028015611a4d576020028201915b815481526020019060010190808311611a39575b505050505081525050611a5f84612818565b612508565b8b6018016000820181600001906002611a7e929190614486565b506002820181600201906002611a95929190614486565b50905050611ac58b600a0160408051908101604052908160008201548152602001600182015481525050886124c9565b8b601c016000820154816000015560018201548160010155905050611b828b600c0160408051908101604052908160008201600280602002604051908101604052809291908260028015611b2e576020028201915b815481526020019060010190808311611b1a575b5050505050815260200160028201600280602002604051908101604052809291908260028015611b73576020028201915b815481526020019060010190808311611b5f575b50505050508152505088612508565b8b601e016000820181600001906002611b9c929190614486565b506002820181600201906002611bb3929190614486565b50905050611be38b60160160408051908101604052908160008201548152602001600182015481525050876124c9565b8b6022016000820154816000015560018201548160010155905050611ca08b60180160408051908101604052908160008201600280602002604051908101604052809291908260028015611c4c576020028201915b815481526020019060010190808311611c38575b5050505050815260200160028201600280602002604051908101604052809291908260028015611c91576020028201915b815481526020019060010190808311611c7d575b50505050508152505087612508565b8b6024016000820181600001906002611cba929190614486565b506002820181600201906002611cd1929190614486565b50905050600090505b8e81101561204357886040805190810160405280611da78e600c0160408051908101604052908160008201600280602002604051908101604052809291908260028015611d3c576020028201915b815481526020019060010190808311611d28575b5050505050815260200160028201600280602002604051908101604052809291908260028015611d81576020028201915b815481526020019060010190808311611d6d575b5050505050815250508986815181101515611d9857fe5b90602001906020020151612508565b60408051908101604052908160008201600280602002604051908101604052809291908260028015611dee576020028201915b815481526020019060010190808311611dda575b5050505050815260200160028201600280602002604051908101604052809291908260028015611e33576020028201915b815481526020019060010190808311611e1f575b5050505050815250508152602001611efa8e60180160408051908101604052908160008201600280602002604051908101604052809291908260028015611e8f576020028201915b815481526020019060010190808311611e7b575b5050505050815260200160028201600280602002604051908101604052809291908260028015611ed4576020028201915b815481526020019060010190808311611ec0575b5050505050815250508886815181101515611eeb57fe5b90602001906020020151612508565b60408051908101604052908160008201600280602002604051908101604052809291908260028015611f41576020028201915b815481526020019060010190808311611f2d575b5050505050815260200160028201600280602002604051908101604052809291908260028015611f86576020028201915b815481526020019060010190808311611f72575b50505050508152505081525090806001815401808255809150509060018203906000526020600020906008020160009091929091909150600082015181600001600082015181600001906002611fdd929190614650565b50602082015181600201906002611ff5929190614650565b505050602082015181600401600082015181600001906002612018929190614650565b50602082015181600201906002612030929190614650565b5050505050508080600101915050611cda565b8a8a8a9d509d509d5050505050505050505050509193909250565b60008060008060008061206f61454a565b600080600061209d7f30644e72e131a029b85045b68181585d97816a916871ca8d3c208c16d87cfd47612419565b98506120c87f30644e72e131a029b85045b68181585d97816a916871ca8d3c208c16d87cfd47612419565b97506120d88d602001518a6124c9565b96506120e88d60a00151896124c9565b95506121228b6120fe8f606001518b8d016124c9565b6040805190810160405290816000820154815260200160018201548152505061290c565b94506121328d606001518d6124c9565b604080519081016040529081600082015481526020016001820154815250509350612189612164858f60e0015161290c565b604080519081016040529081600082015481526020016001820154815250508a6124c9565b92506121c261219d858f610120015161290c565b60408051908101604052908160008201548152602001600182015481525050896124c9565b9150808790806001815401808255809150509060018203906000526020600020906002020160009091929091909150600082015481600001556001820154816001015550505080869080600181540180825580915050906001820390600052602060002090600202016000909192909190915060008201548160000155600182015481600101555050508085908060018154018082558091505090600182039060005260206000209060020201600090919290919091506000820154816000015560018201548160010155505050808390806001815401808255809150509060018203906000526020600020906002020160009091929091909150600082015481600001556001820154816001015550505080829080600181540180825580915050906001820390600052602060002090600202016000909192909190915060008201548160000155600182015481600101555050508099505050505050505050509392505050565b61233361454a565b6040805190810160405280600181526020016002815250905090565b612357614690565b604080519081016040528060408051908101604052807f198e9393920d483a7260bfb731fb5d25f1aa493335a9e71297e485b7aef312c281526020017f1800deef121f1e76426a00665e5c4479674322d4f75edadd46debd5cd992f6ed815250815260200160408051908101604052807f090689d0585ff075ec9e99ad690c3395bc4b313370b38ef355acdadcd122975b81526020017f12c85ea5db8c6deb4aab71808dcb408fe3d1e7690c43d37b4ce6cc0166fa7daa815250815250905090565b6000806000600184019150448260405160200180838152602001828152602001925050506040516020818303038152906040526040518082805190602001908083835b602083101515612481578051825260208201915060208101905060208303925061245c565b6001836020036101000a038019825116818451168082178552505050505050905001915050604051809103902060019004905083818115156124bf57fe5b0692505050919050565b6000806000806124e28660000151876020015187612954565b809350819450505082816000018190555081816001018190555080935050505092915050565b60008060008060006125186146b7565b600080955060009450600093506000925060008960000151600060028110151561253e57fe5b6020020151148015612567575060008960000151600160028110151561256057fe5b6020020151145b801561258a575060008960200151600060028110151561258357fe5b6020020151145b80156125ad57506000896020015160016002811015156125a657fe5b6020020151145b156125cd576125c6886001600060016000806000612a60565b9150612719565b612635896000015160006002811015156125e357fe5b60200201518a6000015160016002811015156125fb57fe5b60200201518b60200151600060028110151561261357fe5b60200201518c60200151600160028110151561262b57fe5b6020020151612b75565b15156126a9576040517f08c379a00000000000000000000000000000000000000000000000000000000081526004018080602001828103825260058152602001807f657272303500000000000000000000000000000000000000000000000000000081525060200191505060405180910390fd5b612716888a6000015160006002811015156126c057fe5b60200201518b6000015160016002811015156126d857fe5b60200201518c6020015160006002811015156126f057fe5b60200201518d60200151600160028110151561270857fe5b602002015160016000612a60565b91505b61279982600060068110151561272b57fe5b602002015183600160068110151561273f57fe5b602002015184600260068110151561275357fe5b602002015185600360068110151561276757fe5b602002015186600460068110151561277b57fe5b602002015187600560068110151561278f57fe5b6020020151612c3e565b80965081975082985083995050505050858160000160006002811015156127bc57fe5b0181905550848160000160016002811015156127d457fe5b0181905550838160020160006002811015156127ec57fe5b01819055508281600201600160028110151561280457fe5b018190555080965050505050505092915050565b60008060008060008060009450600193507f30644e72e131a029b85045b68181585d97816a916871ca8d3c208c16d87cfd4792508691505b6000821415156128ff57818381151561286557fe5b049050837f30644e72e131a029b85045b68181585d97816a916871ca8d3c208c16d87cfd4780151561289357fe5b7f30644e72e131a029b85045b68181585d97816a916871ca8d3c208c16d87cfd478015156128bd57fe5b8684097f30644e72e131a029b85045b68181585d97816a916871ca8d3c208c16d87cfd4703870880955081965050508182820284038093508194505050612850565b8495505050505050919050565b60008060008061292e8660000151876020015187600001518860200151612c90565b809350819450505082816000018190555081816001018190555080935050505092915050565b60008060008060008060008714156129775761296e612cca565b95509550612a54565b600187141561298b57888895509550612a54565b60028714156129a75761299e8989612cde565b95509550612a54565b889350879250600191506001905088955087945060006002888115156129c957fe5b0614156129d857600094508495505b6001879060020a900496505b6000871115612a44576129f8848484612d12565b8094508195508296505050506001600288811515612a1257fe5b061415612a3457612a278484848989866131c3565b8093508197508298505050505b6001879060020a900496506129e4565b612a4f868683613353565b955095505b50505050935093915050565b612a686146b7565b60008060008060008060008e96508d95508c94508b93508a92508991508890505b600087141515612b6357600060018816141515612b2957612b26886000600681101515612ab257fe5b6020020151896001600681101515612ac657fe5b60200201518a6002600681101515612ada57fe5b60200201518b6003600681101515612aee57fe5b60200201518c6004600681101515612b0257fe5b60200201518d6005600681101515612b1657fe5b60200201518c8c8c8c8c8c6133ca565b97505b612b37868686868686613a1a565b809650819750829850839950849a50859b50505050505050600287811515612b5b57fe5b049650612a89565b50505050505050979650505050505050565b6000806000806000612b8987878989613bc2565b8094508195505050612b9d89898b8b613bc2565b8092508193505050612bb182828b8b613bc2565b8092508193505050612bc584848484613cda565b8094508195505050612c1884847f2b149d40ceb8aaae81be18991be06ac3b5b4c5e559dbefa33267e6dc24a138e57e9713b03af0fed4cd2cafadeed8fdf4a74fa084e52d1852e4a2bd0685c315d2613cda565b8094508195505050600084148015612c305750600083145b945050505050949350505050565b600080600080600080612c518888613d40565b8092508193505050612c658c8c8484613bc2565b8096508197505050612c798a8a8484613bc2565b809450819550505050509650965096509692505050565b6000806000612ca587876001888860016131c3565b809350819850829950505050612cbc878783613353565b925092505094509492505050565b600080600080819150809050915091509091565b6000806000612cef85856001612d12565b809350819650829750505050612d06858583613353565b92509250509250929050565b6000806000806000806000612d278a8a613e7d565b15612d3f57612d34613ea7565b9650965096506131b6565b7f30644e72e131a029b85045b68181585d97816a916871ca8d3c208c16d87cfd47801515612d6957fe5b888a0992507f30644e72e131a029b85045b68181585d97816a916871ca8d3c208c16d87cfd47801515612d9857fe5b6002840992507f30644e72e131a029b85045b68181585d97816a916871ca8d3c208c16d87cfd47801515612dc857fe5b8a840991507f30644e72e131a029b85045b68181585d97816a916871ca8d3c208c16d87cfd47801515612df757fe5b89830991507f30644e72e131a029b85045b68181585d97816a916871ca8d3c208c16d87cfd47801515612e2657fe5b6002830991507f30644e72e131a029b85045b68181585d97816a916871ca8d3c208c16d87cfd47801515612e5657fe5b8a8b0999507f30644e72e131a029b85045b68181585d97816a916871ca8d3c208c16d87cfd47801515612e8557fe5b60038b0993507f30644e72e131a029b85045b68181585d97816a916871ca8d3c208c16d87cfd47801515612eb557fe5b88890997507f30644e72e131a029b85045b68181585d97816a916871ca8d3c208c16d87cfd47801515612ee457fe5b6000890997507f30644e72e131a029b85045b68181585d97816a916871ca8d3c208c16d87cfd47801515612f1457fe5b88850893507f30644e72e131a029b85045b68181585d97816a916871ca8d3c208c16d87cfd47801515612f4357fe5b84850990507f30644e72e131a029b85045b68181585d97816a916871ca8d3c208c16d87cfd47801515612f7257fe5b8260020999507f30644e72e131a029b85045b68181585d97816a916871ca8d3c208c16d87cfd47801515612fa257fe5b8a7f30644e72e131a029b85045b68181585d97816a916871ca8d3c208c16d87cfd4703820890507f30644e72e131a029b85045b68181585d97816a916871ca8d3c208c16d87cfd47801515612ff357fe5b817f30644e72e131a029b85045b68181585d97816a916871ca8d3c208c16d87cfd4703830899507f30644e72e131a029b85045b68181585d97816a916871ca8d3c208c16d87cfd4780151561304457fe5b8a850999507f30644e72e131a029b85045b68181585d97816a916871ca8d3c208c16d87cfd4780151561307357fe5b838a0998507f30644e72e131a029b85045b68181585d97816a916871ca8d3c208c16d87cfd478015156130a257fe5b898a0998507f30644e72e131a029b85045b68181585d97816a916871ca8d3c208c16d87cfd478015156130d157fe5b8960020998507f30644e72e131a029b85045b68181585d97816a916871ca8d3c208c16d87cfd4780151561310157fe5b897f30644e72e131a029b85045b68181585d97816a916871ca8d3c208c16d87cfd47038b0895507f30644e72e131a029b85045b68181585d97816a916871ca8d3c208c16d87cfd4780151561315257fe5b81840996507f30644e72e131a029b85045b68181585d97816a916871ca8d3c208c16d87cfd4780151561318157fe5b83840994507f30644e72e131a029b85045b68181585d97816a916871ca8d3c208c16d87cfd478015156131b057fe5b83860994505b5050505093509350939050565b60008060008060008060006131d88d8d613e7d565b156131eb57898989965096509650613343565b6131f58a8a613e7d565b15613208578c8c8c965096509650613343565b7f30644e72e131a029b85045b68181585d97816a916871ca8d3c208c16d87cfd4780151561323257fe5b888d0993507f30644e72e131a029b85045b68181585d97816a916871ca8d3c208c16d87cfd4780151561326157fe5b8b8a0992507f30644e72e131a029b85045b68181585d97816a916871ca8d3c208c16d87cfd4780151561329057fe5b888e0991507f30644e72e131a029b85045b68181585d97816a916871ca8d3c208c16d87cfd478015156132bf57fe5b8b8b099050808214156132fd57828414156132ea576132df8d8d8d612d12565b965096509650613343565b6132f2613ea7565b965096509650613343565b6133367f30644e72e131a029b85045b68181585d97816a916871ca8d3c208c16d87cfd4780151561332a57fe5b898d0983838688613ec5565b8097508198508299505050505b5050505096509650969350505050565b600080600061336184612818565b90507f30644e72e131a029b85045b68181585d97816a916871ca8d3c208c16d87cfd4780151561338d57fe5b81870992507f30644e72e131a029b85045b68181585d97816a916871ca8d3c208c16d87cfd478015156133bc57fe5b818609915050935093915050565b6133d26146b7565b6000891480156133e25750600088145b15613485578686868686868660006006811015156133fc57fe5b6020020187600160068110151561340f57fe5b6020020188600260068110151561342257fe5b6020020189600360068110151561343557fe5b602002018a600460068110151561344857fe5b602002018b600560068110151561345b57fe5b60200201868152508681525086815250868152508681525086815250505050505050809050613a0a565b6000831480156134955750600082145b15613538578c8c8c8c8c8c8660006006811015156134af57fe5b602002018760016006811015156134c257fe5b602002018860026006811015156134d557fe5b602002018960036006811015156134e857fe5b602002018a60046006811015156134fb57fe5b602002018b600560068110151561350e57fe5b60200201868152508681525086815250868152508681525086815250505050505050809050613a0a565b61354485858b8b613bc2565b80955081965050506135588b8b8585613bc2565b82600260068110151561356757fe5b6020020183600360068110151561357a57fe5b602002018281525082815250505061359487878b8b613bc2565b80975081985050506135a88d8d8585613bc2565b8260046006811015156135b757fe5b602002018360056006811015156135ca57fe5b60200201828152508281525050508060046006811015156135e757fe5b60200201518714801561360c575080600560068110151561360457fe5b602002015186145b156137a55780600260068110151561362057fe5b602002015185148015613645575080600360068110151561363d57fe5b602002015184145b156136f0576136588d8d8d8d8d8d613a1a565b86600060068110151561366757fe5b6020020187600160068110151561367a57fe5b6020020188600260068110151561368d57fe5b602002018960036006811015156136a057fe5b602002018a60046006811015156136b357fe5b602002018b60056006811015156136c657fe5b60200201868152508681525086815250868152508681525086815250505050505050809050613a0a565b600160006001600080600085955084945083935082925081915080905086600060068110151561371c57fe5b6020020187600160068110151561372f57fe5b6020020188600260068110151561374257fe5b6020020189600360068110151561375557fe5b602002018a600460068110151561376857fe5b602002018b600560068110151561377b57fe5b60200201868152508681525086815250868152508681525086815250505050505050809050613a0a565b6137b189898585613bc2565b80935081945050506137eb85858360026006811015156137cd57fe5b60200201518460036006811015156137e157fe5b6020020151613cda565b809d50819e505050613825878783600460068110151561380757fe5b602002015184600560068110151561381b57fe5b6020020151613cda565b809b50819c5050506138398b8b8d8d613bc2565b809950819a505050613873898983600460068110151561385557fe5b602002015184600560068110151561386957fe5b6020020151613bc2565b809550819650505061388789898d8d613bc2565b809950819a50505061389b89898585613bc2565b8260046006811015156138aa57fe5b602002018360056006811015156138bd57fe5b60200201828152508281525050506138d78d8d8f8f613bc2565b80975081985050506138eb87878585613bc2565b80975081985050506138ff87878b8b613cda565b80975081985050506139138585600261427b565b809350819450505061392787878585613cda565b809750819850505061393b8b8b8989613bc2565b82600060068110151561394a57fe5b6020020183600160068110151561395d57fe5b602002018281525082815250505061397785858989613cda565b809b50819c50505061398b8d8d8d8d613bc2565b809b50819c5050506139c589898360026006811015156139a757fe5b60200201518460036006811015156139bb57fe5b6020020151613bc2565b809d50819e5050506139d98b8b8f8f613cda565b8260026006811015156139e857fe5b602002018360036006811015156139fb57fe5b60200201828152508281525050505b9c9b505050505050505050505050565b600080600080600080613a2f8c8c600361427b565b8096508197505050613a4386868e8e613bc2565b8096508197505050613a578a8a8a8a613bc2565b8098508199505050613a6b8c8c8c8c613bc2565b8094508195505050613a7f84848a8a613bc2565b8094508195505050613a9386868888613bc2565b809c50819d505050613aa78484600861427b565b8092508193505050613abb8c8c8484613cda565b809c50819d505050613acf88888a8a613bc2565b8092508193505050613ae38484600461427b565b8094508195505050613af784848e8e613cda565b8094508195505050613b0b84848888613bc2565b8094508195505050613b1f8a8a600861427b565b8096508197505050613b3386868c8c613bc2565b8096508197505050613b4786868484613bc2565b8096508197505050613b5b84848888613cda565b8094508195505050613b6f8c8c600261427b565b8096508197505050613b8386868a8a613bc2565b8096508197505050613b9788888484613bc2565b8092508193505050613bab8282600861427b565b809250819350505096509650965096509650969050565b600080613c487f30644e72e131a029b85045b68181585d97816a916871ca8d3c208c16d87cfd47801515613bf257fe5b8588097f30644e72e131a029b85045b68181585d97816a916871ca8d3c208c16d87cfd47801515613c1f57fe5b8588097f30644e72e131a029b85045b68181585d97816a916871ca8d3c208c16d87cfd476142e4565b7f30644e72e131a029b85045b68181585d97816a916871ca8d3c208c16d87cfd47801515613c7257fe5b7f30644e72e131a029b85045b68181585d97816a916871ca8d3c208c16d87cfd47801515613c9c57fe5b8688097f30644e72e131a029b85045b68181585d97816a916871ca8d3c208c16d87cfd47801515613cc957fe5b868a09089150915094509492505050565b600080613d0886857f30644e72e131a029b85045b68181585d97816a916871ca8d3c208c16d87cfd476142e4565b613d3386857f30644e72e131a029b85045b68181585d97816a916871ca8d3c208c16d87cfd476142e4565b9150915094509492505050565b6000806000613df37f30644e72e131a029b85045b68181585d97816a916871ca8d3c208c16d87cfd47801515613d7257fe5b7f30644e72e131a029b85045b68181585d97816a916871ca8d3c208c16d87cfd47801515613d9c57fe5b8788097f30644e72e131a029b85045b68181585d97816a916871ca8d3c208c16d87cfd47801515613dc957fe5b878809087f30644e72e131a029b85045b68181585d97816a916871ca8d3c208c16d87cfd476142fe565b90507f30644e72e131a029b85045b68181585d97816a916871ca8d3c208c16d87cfd47801515613e1f57fe5b8186097f30644e72e131a029b85045b68181585d97816a916871ca8d3c208c16d87cfd47801515613e4c57fe5b8286097f30644e72e131a029b85045b68181585d97816a916871ca8d3c208c16d87cfd470392509250509250929050565b60008083148015613e8e5750600082145b15613e9c5760019050613ea1565b600090505b92915050565b60008060008060006001829250819150809050925092509250909192565b6000806000806000806000807f30644e72e131a029b85045b68181585d97816a916871ca8d3c208c16d87cfd47801515613efb57fe5b8a7f30644e72e131a029b85045b68181585d97816a916871ca8d3c208c16d87cfd47038a0890507f30644e72e131a029b85045b68181585d97816a916871ca8d3c208c16d87cfd47801515613f4c57fe5b8b7f30644e72e131a029b85045b68181585d97816a916871ca8d3c208c16d87cfd47038d0894507f30644e72e131a029b85045b68181585d97816a916871ca8d3c208c16d87cfd47801515613f9d57fe5b85860993507f30644e72e131a029b85045b68181585d97816a916871ca8d3c208c16d87cfd47801515613fcc57fe5b81820991507f30644e72e131a029b85045b68181585d97816a916871ca8d3c208c16d87cfd47801515613ffb57fe5b8d830991507f30644e72e131a029b85045b68181585d97816a916871ca8d3c208c16d87cfd4780151561402a57fe5b8c8c089a507f30644e72e131a029b85045b68181585d97816a916871ca8d3c208c16d87cfd4780151561405957fe5b848c099a507f30644e72e131a029b85045b68181585d97816a916871ca8d3c208c16d87cfd4780151561408857fe5b8b7f30644e72e131a029b85045b68181585d97816a916871ca8d3c208c16d87cfd4703830891507f30644e72e131a029b85045b68181585d97816a916871ca8d3c208c16d87cfd478015156140d957fe5b82860997507f30644e72e131a029b85045b68181585d97816a916871ca8d3c208c16d87cfd4780151561410857fe5b85850992507f30644e72e131a029b85045b68181585d97816a916871ca8d3c208c16d87cfd4780151561413757fe5b848d099b507f30644e72e131a029b85045b68181585d97816a916871ca8d3c208c16d87cfd4780151561416657fe5b827f30644e72e131a029b85045b68181585d97816a916871ca8d3c208c16d87cfd47038d089b507f30644e72e131a029b85045b68181585d97816a916871ca8d3c208c16d87cfd478015156141b757fe5b8c820990507f30644e72e131a029b85045b68181585d97816a916871ca8d3c208c16d87cfd478015156141e657fe5b838a0998507f30644e72e131a029b85045b68181585d97816a916871ca8d3c208c16d87cfd4780151561421557fe5b897f30644e72e131a029b85045b68181585d97816a916871ca8d3c208c16d87cfd4703820896507f30644e72e131a029b85045b68181585d97816a916871ca8d3c208c16d87cfd4780151561426657fe5b8d840995505050505050955095509592505050565b6000807f30644e72e131a029b85045b68181585d97816a916871ca8d3c208c16d87cfd478015156142a857fe5b8386097f30644e72e131a029b85045b68181585d97816a916871ca8d3c208c16d87cfd478015156142d557fe5b84860991509150935093915050565b6000818015156142f057fe5b838303850890509392505050565b60008060405160208152602080820152602060408201528460608201526002840360808201528360a082015260208160c08360056107d05a03fa9150805192505080151561434b57600080fd5b5092915050565b8280548282559060005260206000209060080281019282156144095760005260206000209160080282015b82811115614408578282600082018160000160008201816000019060026143a5929190614486565b5060028201816002019060026143bc929190614486565b505050600482018160040160008201816000019060026143dd929190614486565b5060028201816002019060026143f4929190614486565b50505050509160080191906008019061437d565b5b50905061441691906146da565b5090565b8280548282559060005260206000209060020281019282156144755760005260206000209160020282015b828111156144745782826000820154816000015560018201548160010155505091600201919060020190614445565b5b5090506144829190614747565b5090565b82600281019282156144b2579182015b828111156144b1578254825591600101919060010190614496565b5b5090506144bf9190614776565b5090565b828054600181600116156101000203166002900490600052602060002090601f016020900481019282601f106144fc5780548555614539565b8280016001018555821561453957600052602060002091601f016020900482015b8281111561453857825482559160010191906001019061451d565b5b5090506145469190614776565b5090565b604080519081016040528060008152602001600081525090565b8280548282559060005260206000209060020281019282156145bf5760005260206000209160020282015b828111156145be578282600082015481600001556001820154816001015550509160020191906002019061458f565b5b5090506145cc919061479b565b5090565b828054600181600116156101000203166002900490600052602060002090601f016020900481019282601f1061461157805160ff191683800117855561463f565b8280016001018555821561463f579182015b8281111561463e578251825591602001919060010190614623565b5b50905061464c9190614776565b5090565b826002810192821561467f579160200282015b8281111561467e578251825591602001919060010190614663565b5b50905061468c9190614776565b5090565b6080604051908101604052806146a46147ca565b81526020016146b16147ca565b81525090565b60c060405190810160405280600690602082028038833980820191505090505090565b61474491905b80821115614740576000808201600080820160006146fe91906147ec565b60028201600061470e91906147ec565b5050600482016000808201600061472591906147ec565b60028201600061473591906147ec565b5050506008016146e0565b5090565b90565b61477391905b8082111561476f5760008082016000905560018201600090555060020161474d565b5090565b90565b61479891905b8082111561479457600081600090555060010161477c565b5090565b90565b6147c791905b808211156147c3576000808201600090556001820160009055506002016147a1565b5090565b90565b6040805190810160405280600290602082028038833980820191505090505090565b5060008155600101600090555600a165627a7a72305820156f30e138e5f0faac80c44638b6f046b2bbde7d5addd40657e9e63a16b7e4090029",
  "source": "// This file is MIT Licensed.\r\n//\r\n// Copyright 2020 xu yunkai\r\n\r\npragma solidity >=0.4.2;\r\n\r\nimport \"./test.sol\";\r\n// import \"./dtbe/LibDTBE.sol\";\r\nimport \"./utillib/Pairing.sol\";\r\n\r\ncontract test_dtbe is test{\r\n    using LibDTBE for *;\r\n    using Pairing for *;\r\n\r\n    // LibDTBE.PK public epk;\r\n    // LibDTBE.SK[] public esk;\r\n    // LibDTBE.SVK[] public esvk;\r\n    // Pairing.G1Point[] public c_dtbe;\r\n    // LibDTBE.CLUE[] public V;\r\n\r\n    function dtbe_keygen() public {\r\n        (test.epk, test.esk, test.esvk) = LibDTBE.KeyGen(3);\r\n    }\r\n\r\n    function dtbe_encrypt() public {\r\n        Pairing.G1Point memory M;\r\n        test.c_dtbe = LibDTBE.encrypt(epk, 123456, M);\r\n    }\r\n}",
  "sourcePath": "D:\\Myproject\\AttriChain\\contracts\\test_dtbe.sol",
  "compiler": {
    "name": "solc",
    "version": "0.4.23+commit.124ca40d.Emscripten.clang"
  },
  "schemaVersion": "2.0.0",
  "updatedAt": "2020-07-15T18:36:37.926Z"
}